:020000041000EA
:10000000002008205D0100101301001015010010F0
:100010001101001011010010110100101101001058
:100020001101001011010010110100101701001042
:100030001101001011010010190100101B01001026
:100040001D0100101D0100101D0100101D010010F8
:100050001D0100101D0100101D0100101D010010E8
:100060001D0100101D0100101D0100101D010010D8
:100070001D0100101D0100101D0100101D010010C8
:100080001D0100101D0100101D0100101D010010B8
:100090001D0100101D0100101D0100101D010010A8
:1000A0001D0100101D0100101D0100101D01001098
:1000B0001D0100101D0100101D0100101D01001088
:1000C0001D0100101D0100101D0100101D01001078
:1000D0001D0100101D0100101D0100101D01001068
:1000E0001D0100101D0100101D0100101D01001058
:1000F0001D0100101D0100101D0100101D01001048
:100100001D0100101D0100101D0100101D01001037
:1001100000BE00BE00BE00BE00BE00BEEFF3058004
:10012000103800BEF2EB8871443C00106C3C0010AB
:10013000A801001090A31AE7D3DEFFFF42012110AF
:10014000FF010000A0400000793512AB4FF0000025
:100150002049086006C881F3088810474FF05040D6
:10016000006810B14FF00000F2E70FA40ECC002998
:1001700002D000F015F8F9E71749184A002000E00E
:1001800001C19142FCD1002080F30A8814498847BC
:10019000144988471449884700BEFDE701C901C2D8
:1001A0009A42FBD3704700BF6C3C00101001002046
:1001B0007C060020D8410010000008200000082024
:1001C000D841001000100820001008200000000096
:1001D0007047000008ED00E07C060020C009002008
:1001E00015320010D50200100D320010F8B500BF16
:1001F0000348044B834202D0034B03B118477047B6
:100200007C0600207C06002000000000064B074909
:10021000C91A891048BF0131491003D0044B0BB1F2
:1002200001481847704700BF7C0600207C0600206C
:100230000000000010B5064C237843B9FFF7D8FF43
:10024000044B13B10448AFF300800123237010BDA9
:100250000008002000000000143A001008B5044B0C
:100260001BB104490448AFF30080BDE80840CDE766
:100270000000000004080020143A0010012903D0F7
:10028000022917D051B17047114A016892F8003124
:10029000D05C0133086182F8003170470C4B93F851
:1002A000012162B90122016883F80121096983F8FB
:1002B000001170470022064B83F801217047016846
:1002C00093F800210869511C985483F80011704775
:1002D000700800202DE9F04792B003F0C9F86A4891
:1002E00003F00EF9042001F019F90321042001F0B4
:1002F000E3F800220121042001F0FCF8052001F0C0
:100300000DF90321052001F0D7F800220121052075
:1003100001F0F0F85D495E4800F0CAF95D4A172126
:100320005B4800F0C5F8062001F0F8F8032106202C
:1003300001F0C2F800220121062001F0DBF80720BD
:1003400001F0ECF80321072001F0B6F800220121AA
:10035000072001F0CFF84D494F4800F0A9F90025DA
:10036000DFF84491DFF844814B4F28E001F00AFAAE
:100370000026053C00962346172138460AAA00F0BD
:10038000E7F98442064675D100234836691D0AAA5A
:1003900042486E4406F8203C03F034F922460AA88D
:1003A0000DF10D0103F032FA002860D13C4803F052
:1003B000A7F84FF4FA6000F049FD2035EDB22B4666
:1003C0004A46202102A802F0DDFE02A803F0C4FA8A
:1003D00004464FF0000A224602A90DF129008DF8CB
:1003E0002850661C03F042FA294602AA404603F050
:1003F00009F93346172138460AAACDF800A000F0C3
:100400009FF9002839DB86422ED101231721384677
:100410000AAA009300F094F9012822D101260523AD
:100420000096172138460AAA00F092F905280646D8
:1004300014D1002348360AAA294618486E4406F803
:10044000203C03F0DFF80A9A029B9A428ED19DF875
:100450002C209DF80C309A4288D189E701F092F95E
:10046000E7E701F08FF9D9E701F08CF9CDE701F06A
:1004700089F99BE701F086F986E70A4803F040F81E
:10048000504612B0BDE8F087183A0010A08601006F
:10049000F00500207D020010E8050020943A0010CD
:1004A0008C3B0010603A00102C3A0010483A0010C3
:1004B00070B50F4C8C46041BB4FA84F416460546FE
:1004C0000C4B62460121640943F8346000F016F9D0
:1004D00040F264622B682434204607491A6300F016
:1004E000C1FD2046BDE87040012100F0A5BD00BF60
:1004F000E80500207C0900201101002070B50025CE
:1005000001260468002BE5668446616028469DF854
:1005100010E0E66616DD5D1E616F1029FCD000B3A9
:100520000021854204BF8EF0010641EA462141F4D4
:1005300080712161D4F88010616B490605D54FF0B8
:10054000FF30636D8CF804E070BDA16F0029F1D01D
:1005500021690130834202F8011BF3D0DCF800402E
:10056000DAE79CF804108902DBE700BF2DE9F041CF
:100570000024012794460268B3F1000ED4660546B4
:10058000516020469DF81860D7661DDD29797740B7
:1005900089027F020EF1FF34A0420CBFB8464FF033
:1005A00000081CF8013B0B4343EA08031361536B3B
:1005B000D906FCD5D2F8801049B9A0421CD0013030
:1005C00086454FF00001E7D12E71BDE8F0814FF074
:1005D0000108536D536B9B05FCD5136EB8F1000FEA
:1005E000EDD069B1CB070BD411F0080F08BF4FF065
:1005F000FF302E71BDE8F081002EE0D1B046E9E772
:100600004FF0FF30E0E700BFF8B5064605200C4686
:1006100000F04CFF00EB540CBCFBF4FC214B0CEB4A
:100620004C02A3FB025320499F088C42ACEB93057C
:1006300030D801F1D64101F5A10101F62C0100EB02
:100640004003A1FB03139B0D013300244F2A98BFE5
:1006500001223168B0FBFCF0CC660C6801F58056D5
:1006600084F0040404F00604346088BF0D4CCD61AE
:1006700084BFA4FB024292090F62C1F8A0200A467F
:10068000012452F87C5F6B409BB202F580521360EC
:10069000CC66F8BD054900EB4003A1FB0313DB0D5D
:1006A0000133D2E7CDCCCCCC3F420F00893BE6559D
:1006B0000E4A30B490420CBF102220220C4D0D4B3C
:1006C0000D4C2A601A60A36832EA0303FBD140F2A2
:1006D0006515032402680371D3661560D3639363C1
:1006E000C2F8884030BCFFF78FBF00BFF005002084
:1006F00000200240003002400000024010B40024FC
:100700000368DC6671B140F24124196803F580503A
:1007100081F40071214001609A6001225DF8044B70
:10072000DA66704740F241201A6803F5805182F082
:10073000410202400A6001225DF8044BDA6670470C
:1007400010B49DF8044001945DF8044BFFF70EBF10
:1007500010B49DF8044001945DF8044BFFF7CEBE41
:100760000FB400B583B0049C074802F0C9FE3CB149
:1007700005A92046019102F02FFD044802F0C0FEB9
:10078000012002F041FD00BFAC3A0010BC3A00105D
:1007900070B58646EFF3108572B6124CD4E8CF6F71
:1007A0000120002EFAD1C4E8460F002EF6D1BFF387
:1007B0005F8F4FF0010CC80801F007030CFA03F338
:1007C0001EF800C01CEA030608D14CEA030C0EF820
:1007D00000C0C4E88F6F85F3108870BD1046FFF726
:1007E000BFFF00BF27080020044A1078431CDBB27B
:1007F000182B28BF10231370704700BFF805002086
:100800004FF0E022936843F000539360704700BFBD
:100810000021044B03F12002C3E88F1F01339342F0
:10082000FAD170471C0800200D4B1A68EFF31081B5
:1008300072B6D2E8CFCF0120BCF1000FF9D1C2E8E7
:100840004C0FBCF1000FF4D1BFF35F8F00221B6887
:10085000C3E88F2F81F3108840BF0020002170472C
:10086000B0090020000000002DE9F04F2DED028BB3
:1008700085B0EFF30583DBB2103B9A0818BF012265
:100880004FF0010103F0030008BFAB4DAB4B18BFA5
:10089000AB4D00EB820253F8226001FA00FB05F534
:1008A00041539FEDA38B0190C3F804B02AE0B388B5
:1008B000190440F18D80B379002B40F0D780B6F950
:1008C0000820002AC0F21681736902EB420203EB92
:1008D000C203D3E90247B7F1FF3F08BFB4F1FF3FBE
:1008E00009D0019B05EB8301AB6A0A69D21AE31AAE
:1008F000934238BF0C61284600F02CFBA042B9415E
:10090000C0F2F880B6F90830C5F83CB0002B00936F
:10091000CDDBD6F8149003EB430A284609EBCA074F
:10092000D7E9024800F016FBA04271EB0801BEDBDC
:10093000B8F1000FC0F2C0803A69824B9A4200F0D1
:10094000EA807988B6F9080089B241EA00407969FD
:10095000904703460A4653EA020100F0AD80002AA0
:1009600080F2CE80E31A68EB020839F93A20C7E931
:100970000238002A9BDB706902EB420100EBC101E7
:10098000D1E902C7634578EB070E4FEA42018EDBDF
:10099000B6462EF8082F0BE030F93120A646002A83
:1009A0000DDB02EB420400EBC4045100D4E902C7A2
:1009B0006345114478EB070700EBC104ECDA009BB8
:1009C00029F83A20AEF80030B38819043FF573AF28
:1009D0003369EFF3108272B6D3E8CF0F01210028FC
:1009E000FAD1C3E8401F0028F6D1BFF35F8F4FF65E
:1009F000FF74B0880023316900B2B480C1E88F3F32
:100A000082F310889842FFF656AF0746A9467469EC
:100A100006F1080807EB470E04EBCE03D3E9020505
:100A2000B6F90830C446002B13DBB246009704E049
:100A300034F936309446002B09DB03EB430604EB14
:100A4000C602D2E90271B84275EB0101F0DA5646EE
:100A5000009FACF8007034F93E7024F83E30002F4F
:100A6000D8DAB3794D46002B3FF429AF0023B37198
:100A7000B6F9083006F1080E5A1C3BD01A467469C4
:100A800003E08646591C3FF41CAF03EB430104EB23
:100A9000C10047889C463F0434F93130F1D5944574
:100AA00080ED028BEED0AEF80030328924F8312090
:100AB0006246A6F808C0E5E739F83A203281326983
:100AC000EFF3108172B6D2E8CF7F0120002FFAD168
:100AD000C2E8470F002FF6D1BFF35F8F7288009BEB
:100AE00029F83A20738032690023C2E88F3F81F3EE
:100AF0001088DCE640BF05B0BDEC028BBDE8F08F8E
:100B00002846CDE9023200F025FA029B039AC31869
:100B100042EB010829E7796908460A690291904782
:100B20000028C9D00299D1E9003214E7AFF3008060
:100B3000FFFFFFFFFFFFFFFF00000B4090090020B9
:100B400000800B40690800102DE9F84F364C2569EC
:100B50002DB1BDE8F84F0A21344800F00FBCDFF892
:100B6000E4800321404600F0E3F90326C4F80C803A
:100B7000FFF73AFE4FF0504C2D4B26700344236193
:100B8000DCF800300F216370636961801D834FF0D2
:100B90000405A3F878504FF00505A3F890504FF0E6
:100BA0000605A3F8A8504FF007050E2108274FF6B9
:100BB000FF724FF00A0EA3F8C0504FF001094FF03A
:100BC0000C0C4FF0020B4FF0090A0D204FF00B05F3
:100BD000A3F868111749A280A3F808E1A160A3F85F
:100BE00048B0A3F8F0A0A3F82051A3F838C1A3F8A7
:100BF0005001A3F83090A3F86060A3F8D8701A8071
:100C00000D4B3046C8F820700C49DC6000F02AFA21
:100C10004946304600F010FA094B0A211F64034888
:100C2000BDE8F84F00F0AABBFC050020B009002089
:100C30001C080020FFFF1000900900206908001028
:100C400000200B4000000B400146F0B50069EFF3B7
:100C5000108772B6D0E8CF5F0124002DFAD1C0E82A
:100C6000454F002DF6D1BFF35F8FB1F902E04C691B
:100C70000EEB4E0CBEF1000F4FEACC0504EBCC0C92
:100C80003DDB605B002648800869C0E88F6F87F312
:100C90001088BCF80200CCE902230130C0F30E003A
:100CA000012838BF0120059BACF80200CCF81030B9
:100CB000069B40EA0E40CCF814300B69EFF310822B
:100CC00072B6D3E8CFCF0127BCF1000FF9D1C3E84A
:100CD0004C7FBCF1000FF4D1BFF35F8F8B8863535F
:100CE000A1F804E00B69C3E88F6F82F3108801223A
:100CF000CB68097803F501538A405A60F0BD0023A0
:100D00000A69C2E88F3F87F310884FF0FF30F0BDCB
:100D100003464089B0EB214F37DD58690A1402EBD6
:100D2000420210B500EBC2001C69EFF3108C72B6E2
:100D3000D4E8CFEF0122BEF1000FF9D1C4E84E2F65
:100D4000BEF1000FF4D1BFF35F8F428889B292B237
:100D50008A4207D000221B69C3E88F2F8CF31088CA
:100D6000002010BD42F40042428001210022186997
:100D70009971C0E88F2F8CF310881C78DA680846C8
:100D800002F50153A140596010BD0020704700BF1B
:100D90002DE9F041861F41F1FF35B04271EB0503AB
:100DA00038BF002682B038BF354604460F4600F0F3
:100DB000D9F8301A65EB0103012873F1000306DA54
:100DC0002046394602B0BDE8F04100F003B900F01A
:100DD000C9F8864265EB010100290ADB0021174BA7
:100DE0003246009316482B460191FFF72DFF00284D
:100DF000E6DB4FF0000C1348134A436A9D4204D8C7
:100E0000816AB142DCD29D42DAD11368EFF31081DE
:100E100072B6D3E8CF8F5FF0010EB8F1000FF8D1B2
:100E2000C3E848EFB8F1000FF3D1BFF35F8F136849
:100E3000C3E88FCF81F3108820BFDEE729080010B8
:100E4000FC05002000000B40B009002010B504464E
:100E500000F088F84FF47A734FF0FF3C6FF00042D7
:100E6000E4FB0301BDE81040844572EB01033CBF85
:100E700060461146FFF78CBFF0B506460D4683B0BD
:100E8000EFF30584E4B2002C35D1264F3A78F968A7
:100E900004328B6A51F82220D21AC31A934207D324
:100EA00020BF214B586A85421FD9002003B0F0BDF6
:100EB00000F058F8864265EB0101002911DB1B4B5D
:100EC0003846CDE9003432462B46FFF7BDFE011E01
:100ED00007DD154B5A6A95421DD920BF1148FFF70F
:100EE00017FF114B586A8542DFD89B6A9E420DD886
:100EF000012003B0F0BD0C4B586A8842D5D39B6AE1
:100F0000B342F5D2401A18BF0120CFE7281A18BF04
:100F1000012003B0F0BD9B6A9E42DFD99542DDD12E
:100F2000DBE700BFFC05002000000B402908001093
:100F300010B4054B054C064AA04214BF1846581C75
:100F40005DF8044BFFF724BC4408002000800B40F0
:100F5000C03A00100346416A0A46986A596A8A42B2
:100F6000FAD17047034B596A0A46986A596A914206
:100F7000FAD1704700000B4030B4154A536A9C46C2
:100F8000946A536A6345FAD1021959414FF000053A
:100F900028BF01250E4B5B6AB5B15A1C08BF1A4623
:100FA00008D04FF0FF310A460948436A8B42FCD310
:100FB0008B4207D1064902E0486A984202D1886A0A
:100FC0009042F9D330BC70479942EDD8F0E700BFAA
:100FD00000000B40074A536A9942FCD8994207D156
:100FE000044B02E05A6A914202D19A6A8242F9D3D2
:100FF000704700BF00000B404FF0E0234FF08032FD
:10100000C3F80024C3F80424C3F80824C3F80C244C
:10101000C3F81024C3F81424C3F81824C3F81C24FC
:10102000C3F82024C3F82424C3F82824C3F82C24AC
:10103000C3F83024704700BF012300F01F02934023
:10104000400941B1800000F1604000F56140C0F806
:10105000803103607047024A203042F820307047E8
:1010600000E100E0F8B50D46EFF3108772B6124EBE
:10107000D6E8CF2F0123002AFAD1C6E8423F002A42
:10108000F6D1BFF35F8F0D4B00F110049B680C4A43
:1010900053F82430934203D0994201D000F072FB00
:1010A000064B9B6843F82450BFF35F8F0023C6E8CC
:1010B0008F3F87F31088F8BD2508002000ED00E081
:1010C0001D0100102DE9F04F83B0EFF3108A72B6C6
:1010D000744ED6E8CF2F0123002AFAD1C6E8423F4A
:1010E000002AF6D1BFF35F8F6F4B00F110089B68A9
:1010F0006E4A53F8285095423FD08D420C464AD054
:101100006B4FEB1B2F2B38D801214FEA50194FEAB8
:10111000890909F1604909F5614900F01F0301FAE5
:1011200003F0D9F80030C9F8800000EA030BBFF3E0
:101130005F8FEFF30581C9B279B3884577D125F088
:10114000010EDEF808C0644505D17CE0D3F808C084
:10115000644532D09E469EF9062002EB4203002AE7
:1011600007EB8303F2DA644500F08180BBF1000FE6
:1011700020D0C9F88001C9F800004B4B9B6843F8A8
:101180002850BFF35F8F0023C6E88F3F8AF3108893
:1011900003B0BDE8F08F1546EFE725F0010EDEF84D
:1011A00008C06445D7D19EF906407346002C08DA82
:1011B000154666E0C9F88000DFE793F90640002C89
:1011C00056DB04EB440C07EB8C0CDCF808206100C8
:1011D0009A609CF80720DA719CF90620002A9A711F
:1011E0005DDBBCF80420520504D502F5FF1202F5C0
:1011F000FF521F32521502F1020C4FF0040E0C2266
:1012000012FB04E202EB4C026FF0070C3A44ACEB29
:10121000030C6244C2F34A0242F460429A80254BB6
:1012200021441A7807EB81011C708A719EE7CDE991
:10123000000100F0A7FADDE9000125F0010EDEF85B
:1012400008C0644587D19EF906407346002CB8DA81
:10125000194A1A4CD21A083AC2F30A316FEA0151FC
:101260006FEA115144EA5202DA8099807EE77346B0
:101270000029EDD1FF228EF806204BF60152AEF880
:1012800004200C4C4AF6AA2294F800C01946C91B47
:1012900049414A43120D83F806C0227066E74BF6B7
:1012A0000152BBE72508002000ED00E01D01001001
:1012B00014060020BC0900204E06002000F8FFFFA5
:1012C000F0B5EFF30585EDB2EFF3108C72B6264959
:1012D000D1E8CF2F0123002AFAD1C1E8423F002AEA
:1012E000F6D1BFF35F8F214E40F0010EB4684AF68D
:1012F000AA2354F825701E4A0446A41A6441634385
:101300001B0D77455BB21BD092F906409C421CD066
:1013100092F912409C4223D092F91E409C4221D067
:1013200092F92A409C4208BF03240FD0114A00249E
:10133000157813708571C1E88F4F8CF31088F0BD5C
:10134000B2680D4C42F82540F0E7002404EB440459
:1013500002EB8402FF2494714BF601549480E5E77C
:101360000124F3E70224F1E72508002000ED00E066
:1013700014060020BC0900201D010010014B0B4485
:10138000036070471C080020F8B5124D124EB5429C
:101390001FD22C462368FF277BB1FFF725FA0146B1
:1013A0002846FFF7EBFFA780BFF35F8F0834B442F6
:1013B0000FD223682546002BEFD1FFF715FA01461F
:1013C0002846FFF7DBFF2771BFF35F8F0834B44275
:1013D000EFD3F8BD740600207C06002000EB400C23
:1013E0004FEA8C0C0CF1804C0CF5803CF0B51646A5
:1013F000DCF80420051FB2F5803F38BF4FF480327F
:10140000EDB238BFCCF80420012D2AD94FF4006783
:10141000254C0CF54052176054F82020B2B9DCF886
:101420000020012D82EA461202F0E0020CF58056FF
:1014300032602AD94FF4006144F820304FF48033F1
:101440000CF500521160CCF80430F0BD6769B7FBB1
:10145000F2FE0EF1010E0EEB4E0EBEF1030EFCD2AB
:10146000DDE70129D2D103240CF540521460DCF8E9
:101470000820D207FBD5DCF800200B4C82EA46128C
:1014800002F0E0020CF5805632600122DCF80050D8
:101490004D4005F00305356002FA01F1DCF8082043
:1014A0000A42FBD0C6E700BF48080020014B53F8B2
:1014B000200070474808002010B44FF480740C4B93
:1014C00053F8202003EB8003C00082F0400200F1BB
:1014D000804003F5805C02F0C00200F5203003F587
:1014E0004053CCF8002041601C605DF8044B70470D
:1014F0000480034010B4084CC90041EA820154F84A
:10150000202004EB8003514003F5805301F00C01CF
:101510005DF8044B196070470480034030B44FF00D
:10152000000343EC440043EC400005254FF4807475
:101530000B4BC20053F8201003EB800081F04001F8
:1015400002F1804303F5203301F0C00200F5805121
:1015500000F540500A605D60046030BC704700BF19
:101560000480034070B4039D04682D0345EA0345DD
:101570001B4B002CB3FBF1F3B2FBF3F61FDB194A54
:10158000194B90420CBF4FF400424FF48042174C6D
:101590001A6003F580531A60A36832EA0303FBD193
:1015A000212200F540530433016086601A6002680E
:1015B000002AFCDA0822C5601A6070BC7047036814
:1015C00003F03F038B42DAD18368C3F30B03B342CA
:1015D000D5D1C36803F4EE23AB42D0D1EDE700BF11
:1015E000001BB700008005400020024000000240C0
:1015F000012300EB4000800000F1804000F58410E2
:1016000041600360704700BF0023DB8A002242E88C
:1016100000F2520201D4102118470421184700BFDC
:10162000034AD2F82838002BFBD0BFF35F8F7047F6
:1016300000000E400021044B044ABFF35F8F43F8C3
:10164000041B9342F9D170470C080E402C080E4041
:1016500010B42F204FF42A64054A064B0649146043
:10166000D06019605368002BFCDA5DF8044B7047BA
:101670000080044000A0044000B0FA00F8B5054620
:1016800006200E46FFF712FF002842D0354A3648A2
:1016900095420CBF4FF000624FF08062334B3449EB
:1016A00002601A608C6832EA0404FBD12D4B4FF4BF
:1016B0008071EB1AB3FA83F32E4A5B09062022F8F5
:1016C0001310FFF7F3FEC300B3FBF6F30133DA099F
:1016D00020D1402601216962AA622F6BFB0722D428
:1016E0002B46002253F82C1F062003F5805422605D
:1016F0002F63FFF7DBFEEB6A40F2013283F07003E9
:1017000003F07E03236080000323B0FBF6F02A631E
:10171000AB64F8BD4FF6FE718A421BD922464FF6E4
:10172000FF71154ED7E740F2013205F540531A63B9
:101730006B6AAC6A062004EB8314FFF7B7FE0F4B0D
:10174000A402A3FB0023DB0A0021B4FBF3F0FFF7A4
:1017500013FCC5E7C3F34503114603EB82161A4693
:10176000B9E700BF0080074000200240003002407F
:1017700000000240B4090020C0FF3F00757B2B8FA2
:10178000704700BF08B50148FEF7EAFFE43A0010D1
:1017900038B5054C054DAC4204D254F8043B98478B
:1017A000AC42FAD338BD00BFD0390010103A001057
:1017B00010B40748074C084B084A094904601A60EE
:1017C0008B6832EA0303FBD15DF8044B704700BF1E
:1017D000002002407F3BEFEF00300240F6FFF303B2
:1017E00000000240044BDB6CB3F5004F03D14FF413
:1017F0008022024BDA647047000011500020115023
:101800004FF0E022044BD2F8881D0B43C2F8883D0C
:1018100010EE3004704700BF030330006FF06041EA
:10182000044B054A19609368DB4333F06043FAD1F7
:10183000704700BF003002400000024010B545F282
:101840005320FFF7E1FEBDE810400346042018478F
:1018500010B545F25320FFF7D7FEBDE81040034610
:1018600001201847FEF7D4BF10B5054B054C4FF4C7
:1018700088721846A16801F0F9FFA06010BD00BF92
:101880000000002000ED00E00023F0B52B4C83B0F9
:10189000C4F88430FFF7DCFE0122294BDA63636C65
:1018A000012BFCD10321264A244B11639D6B012D92
:1018B000FCD1052302271E4600242946214A22483E
:1018C0000097FFF74FFE29463346204A20480096EE
:1018D000FFF748FE3946224604201E4BFFF77EFDE7
:1018E0002946224630461C4BFFF778FD2246082049
:1018F00021461A4BFFF772FD224609202146174B5D
:10190000FFF76CFD224606202146134BFFF766FDCC
:10191000114B224607202146FFF760FD0420FFF708
:10192000C5FD0F4BA3FB0035AD0CE0B229460134D9
:10193000FFF75EFE062CF8D103B0F0BD00000140B9
:1019400000300140002F685900000540008C864798
:1019500000800540001BB70080D1F008006CDC025D
:1019600083DE1B4386B003B451FC0804CDE90201B9
:1019700051FC0904CDE9040151EC0A04CDE906014A
:1019800003BCF047BDE800504EEC00C4BDE8005079
:101990004EEC01C4BDE800504EEC02C400BD000096
:1019A00000B5FFF7DFFF02E010FE30F4F8D441ECA1
:1019B000100443EC112400EE010410EE010480EE4B
:1019C000200451EC1004704700B5FFF7CBFF02E094
:1019D00010FE30F4F8D441EC100443EC112400EE76
:1019E000010410EE210480EE200451EC3004704715
:1019F00000B5FFF7B7FF02E010FE30F4F8D410B5E1
:101A000041EC100443EC112451EC040453EC052484
:101A1000A0FB024C5FF0000EE0FB03CEE1FB02CE28
:101A20004CEC20440024E1FB03E444EC30E480EE81
:101A3000200451EC5004BDE81040704700B5FFF79A
:101A400091FF02E010FE30F4F8D441EC100443ECB6
:101A5000112451EC2104A0FB01126FEA820252FB17
:101A6000100052FB12F252FB1000A0EBD07C53ECA2
:101A700004245CFB13F153EC1524A1FB022001FBB1
:101A8000030053EC4424A2EB000050FB1CF24FEA8D
:101A9000111312EB017043EBE27140EA515020EA5E
:101AA000915020F0070053EC7524A0FB023C53EC4E
:101AB000752400FB03CC01FB02CC53EC0424ACEBFB
:101AC000824C40EA5C70A0F1010041EC400480EEE1
:101AD000200451EC7004704700B5FFF743FF02E0AB
:101AE00010FE30F4F8D440EC700400EE010410EE67
:101AF000210480EE200451EC3004704700B5FFF75C
:101B000031FF02E010FE30F4F8D440EC600400EE47
:101B1000010410EE210480EE200451EC30047047E3
:101B200000B5FFF71FFF02E010FE30F4F8D441ECDF
:101B3000800400EE010410EE010480EE400410EE7B
:101B40001304704700B5FFF70DFF02E010FE30F4FC
:101B5000F8D441EC800400EE010410EE010480EEA4
:101B6000400410EE3304704700B5FFF7FBFE02E0BF
:101B700010FE30F4F8D441EC100443EC112400EED4
:101B8000010410EE3004C0F30070704700B5FFF799
:101B9000E9FE02E010FE30F4F8D443EC102441ECEE
:101BA000110400EE010410EE30F48CBF012000207F
:101BB000704700BF00B5FFF7D5FE02E010FE30F41D
:101BC000F8D441EC100443EC112400EE010410EEB3
:101BD00030F42CBF01200020704700BF00B5FFF794
:101BE000C1FE02E010FE30F4F8D441EC100443ECE6
:101BF000112400EE010410EE30F48CBF012000200F
:101C0000704700BF9A4238BF88547047704700BF82
:101C10002DE9F04F83B098460F9B0F4611469A0767
:101C20000646DDF83090DDF838B012D10D9B5B45EB
:101C30000FD28A460C46ABEB03050D445246434691
:101C4000394620200AF1010AB047AA45F6D12146BB
:101C500000E00D460D9B93B109EB030404EB050A6C
:101C600001950D46AAEB040214F8010D43463946CE
:101C7000B0474C45F6D129460D9B019D1D440F9B55
:101C80009B070CD56C1AA34509D92A464346394609
:101C900020200134B047A34505F10105F5D82846B9
:101CA00003B0BDE8F08F00BF2DE9F04F0F9FDDF8C6
:101CB00024E017F0020F0A9C9DF82C900E9DDDE9A0
:101CC0000C8629D1002D66D1B44225D2202C07F0F4
:101CD000010B00F00A8104F1FF3C4FF0300AF4449C
:101CE00001E0202C76D00134A6420CF801AFF8D8E0
:101CF000BBF1000F10D0AC420ED2202C70D004F1FA
:101D0000FF3C4FF0300AF44401E0202C22D0013493
:101D1000AC420CF801AFF8D117F0100F31D017F426
:101D2000806F4CD1DCB9B8F1100F00F0B880B8F179
:101D3000020F00F0C28030248EF800400124B9F177
:101D4000000F5AD17E0740F186802B260EF80460E2
:101D5000013418E0FC0673D57C052FD42024A6425C
:101D600001D0AC422BD1661E00F08680B8F1100F76
:101D700000F0C080B8F1020F5BD04FF0300C0EF8CD
:101D800006C0202CDBD1CDE90B57CDE909E4BDE835
:101D9000F04FFFF73DBF17F0010B3AD0B9F1000F3C
:101DA0004CD117F00C0F49D1B442A4D2202C92D1BF
:101DB000202D15D817F0100FB1D1E4E72024B8F189
:101DC000100F3FD0B8F1020F2FD0202CDBD02646C9
:101DD0000134D2E7BBF1000F00F09D80202DB9D96E
:101DE000FC062DD57C052BD4202E00F0A280202DC2
:101DF000E4D120251F262C46B8E72D260EF80460D6
:101E00000134CDE90B57CDE909E4BDE8F04FFFF708
:101E1000FFBEB44280D2202C7FF45DAF17F0100FCC
:101E2000B1D017F4806FCAD199E7202CABD02646E9
:101E300001344FF0620C0EF806C0C6E7013DB3E76F
:101E40002024A0E7BE060DD4202C9CD078260EF8C6
:101E500004600134B9E73E0795D520260EF80460EA
:101E6000013490E7202C8ED04FF0580C0EEB040676
:101E700086F800C00134A8E7B8F1100F43D0B8F1DC
:101E8000020F7FF458AF62248EF8004030248EF8A1
:101E900001400224B9F1000F3FF454AFADE7BE0694
:101EA00017D558248EF8004030248EF801400224C3
:101EB000B9F1000F3FF446AF9FE762268EF800604D
:101EC000302644468EF80160B9F1000F3FF43AAF76
:101ED00093E778248EF8004030248EF801400224E5
:101EE000B9F1000F3FF42EAF87E7BBF1000F7FF48D
:101EF00061AF93E7A4F1020C3446BE0607D47826FE
:101F00000EF80C6063E7BC06CBD47824BCE75826F7
:101F10000EF80C605BE717F0100F3FF434AF17F4C6
:101F2000806F7FF430AF202E06D0202D7FF447AF96
:101F30005FE734461F2619E71F2617E700B97047E9
:101F400001F09CBA10B1D1E900311847704700BFC9
:101F50002DE9F04F9DB09DED267BDDE928A558ECDD
:101F6000177BCDE90C1283461E463A464346384657
:101F700041468DED087B2A9CFFF7FAFD002840F0D2
:101F8000D580384641464FF0FF32734BFFF72AFEAB
:101F9000002840F0CB80384641464FF0FF326FF4C6
:101FA0008013FFF7F7FD002840F0C080DDE90878D6
:101FB0000022384641460023FFF7ECFD002840F0A0
:101FC000BB81CDE90A78DDE90A231F46904614F467
:101FD000806308BF4FF0060A119358EA070340F0E8
:101FE000BF8014F4006300F09F819FED597B0027B0
:101FF0008DED0E7B4FF00008BA45CCBFAAEB070A67
:102000004FF0000A4746C8BF0AF1FF3A44F4806423
:10201000454594BF4FF00009A5EB080914F00203F1
:10202000109304D0B8F1000F18BF4FF000093FB172
:10203000DDE90A01DDE90E23FFF704FDCDE90A0120
:10204000DDE9080100220023FFF7A4FD30B1DDE93E
:102050000A01024601F10043CDE90A239DED0A7B06
:1020600024F40063CDE902A9DDE90CA204938DED0F
:10207000007B33465146584600F096F98146B8F148
:10208000000F4FD014F0200F4A460CBF65204520AA
:1020900033465146D84709F1010487EAE77C0DF140
:1020A000500908F1FF304B460022DFF8B080ACEB5E
:1020B000E77C4FEAD77E01E0202A10D0E246A8FB59
:1020C0000C71C90801EB8107ACEB47073037BAF157
:1020D000090F8C4602F1010203F8017BECD80523BD
:1020E0000590069300200A230C9FCDE90330CDE92B
:1020F000012E3346CDF80090224639465846FFF768
:10210000D3FD109B81466BB10D9BC41AA54209D922
:102110004A463346394620200134D847A54209F1C2
:102120000109F5D848461DB0BDE8F08F9DED087B4C
:10213000DDE90C12334658468DED267BCDE9295456
:10214000CDF8A0A01DB0BDE8F04F00F02DB900BF44
:102150000000000000000000FFFFEF7FCDCCCCCCE2
:10216000C7F30A50A0F2FF30FFF7BAFC8AA3D3E905
:102170000023FFF741FC8AA3D3E90023FFF714FCF7
:10218000C7F31307CDE90E0147F07F514046002207
:102190007B4B41F44011FFF71BFC6BA3D3E90023F9
:1021A000FFF72AFC02460B46DDE90E01FFF7FCFBB8
:1021B000FFF7BAFC0746FFF793FC65A3D3E90023BA
:1021C00080468946FFF718FC00226E4BFFF7ECFBB8
:1021D000FFF7AAFC03464946404610935EA3D3E9A5
:1021E0000023FFF709FC804610988946FFF778FC2A
:1021F0005BA3D3E90023FFF7FFFB02460B464046F3
:102200004946FFF7E5FB02460B4680468946FFF745
:10221000F3FB42464B46CDE90E0140464946FFF7E7
:10222000C3FB0022CDE91201DDE90E01564BFFF799
:1022300009FC0022554BFFF7B7FB02460B46DDE9D0
:102240000E01FFF7FFFB0022514BFFF7ADFB0246EB
:102250000B46DDE90E01FFF7F5FB42464B46804693
:10226000894600204FF08041FFF7B2FB02460B4643
:1022700040464946FFF798FB02460B46DDE912014E
:10228000FFF7E0FB0022434BFFF78EFB109B002281
:1022900003F2FF3C4FEA0C53FFF7AEFB8046894642
:1022A000DDE90A0142464B46CDE90E89FFF772FC93
:1022B00060BB4346494607F16302C72A34BF4FF06B
:1022C00004084FF0050822057FF5A2AE0B433FF44A
:1022D00091AEDDE90A0124A3D3E90023FFF76EFCE8
:1022E00048B1DDE90A0122A3D3E90023FFF752FC3C
:1022F00000287FF47FAEBAF1000F3FF489AE119B46
:10230000002B3FF485AE0AF1FF3A81E600221F4B15
:1023100040464946FFF796FB0A4601460346CDE98B
:102320000E12013F1146C6E79FED137B1F464FF08B
:1023300004088DED0E7B6BE608F100430A970B93C2
:1023400041E600BFAFF3008061436F63A787D23FD0
:1023500071A379094F930A401655B5BBB16B024082
:10236000EF39FAFE422EE63F2D431CEBE2361A3FD0
:102370000000000080842E410000000000000000EA
:102380000000F83F0000E03F00002C400000244027
:10239000000018400000F03FFB799F501344D33FEA
:1023A000B3C8608B288AC63F2DE9F04F97B0DDE9AE
:1023B0002089CDE90401DDE9224BCDE90623404621
:1023C00042464B464946DDF890A0FFF7D1FB002876
:1023D00040F0C681404649464FF0FF326FF480130B
:1023E000FFF7D8FB002840F01D81404649464FF0DA
:1023F000FF32C14BFFF7F6FB002840F0E380B8A3A3
:10240000D3E9002340464946FFF7ECFB002840F0A3
:10241000CB80B5A3D3E9002340464946FFF7BAFB7A
:10242000002840F0C1804046494600220023FFF7C3
:10243000B1FB002840F0E0801AF480650D9000F0B8
:10244000E980092C40F297810EAB1A460C9330219B
:102450000023A4F109050133202B02F8011BA4EB92
:10246000030600F03A81AB42F5D19FED9D7B8DEDE7
:10247000087B49464046FFF757FB0446FFF730FB11
:1024800002460B4640464946FFF7A2FADDE908231B
:10249000FFF7B2FA02460B46CDE90A23FFF756FBD7
:1024A0000746FFF72FFB02460B46DDE90A01FFF75F
:1024B0008FFA02460B46CDE90A2300228F4BFFF725
:1024C00091FB002800F0DB8001373846FFF71AFB4C
:1024D000DDE90823FFF772FB08B100270134002E65
:1024E00040F0B1802046FFF7FBFA02460B4640461B
:1024F0004946FFF76DFA0022804B06460F46FFF76C
:1025000049FB40B93046394600227C4BFFF76AFB55
:10251000002800F016810C9B691E7948194410E0D0
:1025200080FB0462C3EBA20303EB8302A4EB42042F
:1025300004F1300201351C4601F8012F002B00F098
:10254000AB80202D4FEAE473EAD10AF00303012B9C
:102550001CD1BBF1000F19D00D9B002B40F0FA806D
:102560001AF00C0F40F0F680AB4540F2D380202DDE
:102570000BD030220C996B1E0B4401355D4503F8DE
:10258000012F00F08D80202DF7D12025DDE90623D5
:10259000DDE904010C9CCDE902BA01950094FFF736
:1025A00037FB17B0BDE8F08FCDE92089DDE90623C0
:1025B000DDE90401CDE923BA229417B0BDE8F04F5C
:1025C000FFF7C6BC4F4DCDF88CA00AF0040ABAF153
:1025D000000F4D4C18BF2C46DDE90623DDE9040150
:1025E00020940CBF03240424CDF888B0219417B0A4
:1025F000BDE8F04FFFF70CBB012142464B460D9161
:1026000000200021FFF7E4F91AF48065804689462E
:102610007FF417AF9FED367B0EAB06268DED087B62
:102620000C9326E70424DDE90623DDE90401374D98
:10263000CDF88CA0CDF888B02095219417B0BDE8D6
:10264000F04FFFF7E5BA0C9B681EDFF8C4C01844D2
:102650000DE0ACFB0732D20802EB8203A7EB430389
:102660003033092F00F8013F27D917460D46202D9A
:1026700005F1010106F1FF36EBD120254BE70022E1
:10268000DDE90A011D4BFFF785FA00287FF427AF2B
:10269000002F5BD1013722E70AF00303012B76D02C
:1026A000202D3FF473AF0D9BBBB32D2205F15803D2
:1026B0006B4403F8202C013568E72029DDD0AEB348
:1026C0000C9B0E441D44302301E0B1422FD0013158
:1026D000202905F8013FF8D1CFE71D46C5E600BF28
:1026E0000000000065CDCD410000000065CDCDC1EA
:1026F0000000000080842E41FFFFEF7F0000E03FDC
:1027000067666666883B0010903B0010983B00109F
:10271000CDCCCCCC202D3FF439AF1AF0040F0ED124
:102720001AF0080F3FF432AF2022BFE70E462E22E8
:1027300006F158036B4403F8202C751CEBE62B22A2
:10274000B4E7E3077FF5E7AE0134E4E6FA077FF587
:10275000C6AE9FE70BF1FF3BAB453FF608AF9FE7E7
:102760000324DDE90623DDE904010B4DCDF88CA03F
:10277000CDF888B060E7094B264603EBC40393ED20
:10278000007B0EAB8DED087B00250C9371E6BBF151
:10279000000F85D0E0E600BF943B0010A03B001086
:1027A0002DE9F04F1C469B4D9B4BB1F1000A18BF21
:1027B00083461D602078994D9BB008BFAB4691467B
:1027C000249E002800F0E7820025B04609E02A4652
:1027D0004B465146D847013501342078002800F097
:1027E000BD802528F3D10022631C1C4613F8010B81
:1027F000A0F1200110290AD8DFE801F03D09093ACB
:102800000909090909090937093409093100A0F141
:102810003003092B099440F2B0802A2800F0CD80C3
:102820002E284FF0000600F0B9800027A0F16803C1
:10283000122B29D8DFE813F005012800FE0028003C
:10284000F40028002800280028002800280028007C
:10285000220028002800280028002800220042F03A
:102860000102C2E742F00202BFE742F00402BCE705
:1028700042F01002B9E742F00802B6E7099B42F4C1
:10288000807258780133099367284AD824285AD986
:10289000A0F12503422B56D8DFE813F0F6005500CF
:1028A0005500550055005500550055005500550080
:1028B0005500550055005500550055005500550070
:1028C0005500550055005500550055005500550060
:1028D0005500550055005500550055009E00DD007F
:1028E0009E005500550055005500550055005500F7
:1028F0005500550055005500550055005500550030
:1029000055009601550055005500550055005500DD
:102910005500550055009601FF0096019E00DD0010
:102920009E00A0F16901C9B20F290CD8012349F218
:1029300041048B40234040F0DC810A2900F0E8800C
:10294000072900F0C580099C2A464B4651460134B0
:10295000D8472078013500287FF443AF2C462A461B
:10296000914502D809F1FF331A464B4651460020E3
:10297000D84720461BB0BDE8F08F2346002606EB63
:10298000860600EB460613F8010F303EA0F1300139
:102990000929F4D909932E287FF447AF099B42F403
:1029A00080625878591CA0F13003092B40F2F28064
:1029B0002A2800F0FE80099137E7434653F8046B5C
:1029C0009846099B002E587803F10103BCBF42F0E2
:1029D000020276420993DEE7672800F075814728F6
:1029E00000F0BA81452800F0B981CDE9036208F111
:1029F0000703029723F007082A46F8E802674B46C8
:102A000051465846CDE90067099CFFF7A1FA013409
:102A10000546E2E6A12700108C0900200D1C0010DD
:102A2000099B58786C2800F0B081013342F4807221
:102A3000099329E7099B42F40072587801330993FE
:102A400022E7099B5878682800F09981013342F009
:102A50008002099318E7462808BF42F02002CDE91A
:102A6000036208F10703029723F007082A46F8E8F3
:102A700002674B4651465846CDE90067099CFFF76F
:102A800093FC01340546A8E6099C2A464B4651466C
:102A9000252001340135D8479FE6940740F17E8117
:102AA00058F8040B2A464B465146C0B2D8476F1C13
:102AB000012E98BF3D4608D935443A464B4651460B
:102AC00020200137D847AF42F7D1099C013484E672
:102AD000404650F8041B002900F0D68042F0210641
:102AE00012AA94460A9203E0202B00F0D7801146E8
:102AF00001F00F042246092C94BF303237320F29DF
:102B00000CF8012B03F101034FEA1112ECD8C5E0D8
:102B1000C4465CF8041B0878002F40F0AF806FF0CB
:102B2000010858B108F101080B46884401E043450B
:102B300003D013F8014F002CF9D15B1A12F4806E08
:102B400002D0BB4228BF3B4612F002020A9200F0BC
:102B50003E81002800F0BB808846BEF1000F00F0E7
:102B600000812A4664462F440B9307E04B465146AA
:102B7000D84718F8010F013510B12A46AF42F5D1F8
:102B8000A4460B9B0A9A002A40F0A180E046099CCB
:102B9000013422E6002707EB870700EB4700A0F18E
:102BA000300711F8010FA0F13003092BF3D9099177
:102BB0003CE64346099953F8047B887802319846ED
:102BC000099127EAE77731E6622800F087815828E3
:102BD00000F08D8112F4806300F0738122F0110EF9
:102BE0001EF4007C40F00F811EF4807040F0D7810D
:102BF0001EF0400F424640F05E811EF0800F00F054
:102C0000898232F9041B904681EAE17CACEBE17CDD
:102C10001FFA8CFCCA0F002900F0F481634612A948
:102C20008C46CDE90B28B74C0A9101E0202810D042
:102C30009846A4FB0312D20802EB8201A3EB4101E8
:102C40003031B8F1090F134600F101000CF8011BF7
:102C5000ECD8DDE90B28CDE9056ECDE9010204973A
:102C60000A9B2A4600930A2303934B465146584633
:102C7000FFF71AF8099C05460134AEE500283FF439
:102C80005DAF07F1FF384DE722F0100612F48061C6
:102C900046F021063FF424AF12AA0A9201930A9B40
:102CA0008046009308231020059300232A46CDE98F
:102CB000023051464B46584606960497099CFEF74B
:102CC000F3FF0134054688E542F400628DE69E423A
:102CD0002F467FF65BAF64463544ED1A3A464B46C5
:102CE000514620200137D847AF42F7D1A446E046ED
:102CF0004DE7782840F0218112F4806300F02182B2
:102D000022F00D0C10220B921CF4007040F0FC809D
:102D10001CF4807140F0B981404650F8042B1CF03F
:102D2000400F804600F0AC81D2B2002A40F0118101
:102D30002CF0100C002B00F00C81114612AB0A9302
:102D40000B9BCDE9056C0497039301912A460A9BDE
:102D500000930023029388E742F4006242F02002CD
:102D600043E61C4667462A464B465146D84718F864
:102D7000010F01350028F6D12346BC4602E79878BA
:102D8000023342F0C00209937EE59878023342F4A0
:102D90004072099378E504460246E1E5012E40F2CF
:102DA000C6812F466B1E9C193A464B465146202041
:102DB0000137D847A742F7D13A46354458F8040BB3
:102DC0004B465146C0B2D847099C013405E59E42A6
:102DD00040F2B0816446CDE90BE106EB0508A8EBB3
:102DE00003082A464B46514620200135D847454521
:102DF000F7D1DDE90BE10878A446731C00287FF4C5
:102E0000ABAEE046C3E608F1070222F007029046A7
:102E1000526858F8081BD40F51EA020054D1002B15
:102E200040F08081194612AA0F954FF0000C15460C
:102E3000CDE90B48CDE90D6732480A9202E0BCF1BA
:102E4000200F2DD05A1842F10002A0FB027828F082
:102E5000030707EB9807D21B1E469B1A61F1000778
:102E60000C464FF0CC3101FB03F100FB0711A3FB33
:102E700000731944052307F00108A8FB03389B18C9
:102E80000A2E03F130034FEA570774F1000405F8E6
:102E9000013B0CF1010C47EAC1734FEA5101CED25C
:102EA0000F9DDDE90B48DDE90D67CDE9056ECDE944
:102EB00001C40497D4E652F8041BC9B290468C466C
:102EC000A8E622F0100E8BE6002A0B4601DB114625
:102ED000A9E74B4262EB42021146A4E712F4806379
:102EE00000F0E78022F00D0C02220B920CE712F4A6
:102EF000806300F0248122F00D0242F0200C1022A9
:102F00000B9201E7CDCCCCCC08F1070222F00702EE
:102F10009046526858F8081B10460A4378D12CF0A6
:102F2000100C002B74D0002412AB0A930B9BCDE93C
:102F3000056C04970393019408E76F2840F00D8116
:102F400012F4806322F00C0C40F0018108220B92F5
:102F5000DAE61CF0200F14BF4123612312A8864635
:102F60000A90CDE90C860B98A3F10A0402E020290F
:102F700012D04246B2FBF0F800FB1826F3B2092E3D
:102F800003F130068ABF1B19F3B2DBB282420EF89E
:102F9000013B01F10101EAD2DDE90C86D0E64146B0
:102FA00051F8040BC20F002800F0AE8080EAE073F5
:102FB000A3EBE07312A8CDE90B26DFF8C4810A90D9
:102FC00002E0BCF1200F0FD01E46A8FB0342D2083E
:102FD00002EB8204A3EB44043034092E13460CF1B7
:102FE000010C00F8014BECD8DDE90B260A9BCDE97A
:102FF00001C200930A232A468846CDE9056E04974C
:10300000039332E6002B3FF40AAE12AB0A9322E69A
:103010001CF0200F14BF4123612312AA0A3BCDE903
:103020000C86CDE90E75CDF844B0002490460E46CE
:1030300005469B460B9F0A92CDF840C003E0202C2A
:1030400017D006460D46294630463A46002300F082
:10305000B3FCD2B2092A02F1300388BF02EB0B03A2
:10306000BE42DBB275F1000508F8013B04F1010432
:10307000E5D2DDE90C86DDE90E75DDE910CB55E71B
:103080001CF0800F18BF92B24FE6414651F8042B56
:10309000A2B92CF0100C8BB112AB0A930B9B2A46F1
:1030A00003930A9B8846CDE9056C04970190009331
:1030B0004FE622F00C0C02220B9225E61CF0200FAA
:1030C00014BF4123612312ACA6460A94CDE90C67D4
:1030D0000B9CA3F10A0802E0202812D03A46B2FB6A
:1030E000F4F704FB1726F3B2092E03F130068ABF6A
:1030F0004344F3B2DBB2A2420EF8013B00F10100FF
:10310000EAD2DDE90C67C9E7002B3FF453AF12ABFD
:103110000A936BE752F8041B81EAE17C9046ACEB22
:10312000E17C77E512AB4FF0000C0A93BDE62A462E
:10313000013543E6013300287FF40EAD61E642F02D
:10314000200222F00C0C102200230B92DCE59646A4
:1031500008220B922EF00D0CD6E5692822F0100EF5
:1031600004D112F480633FF43BAD37E522F01C0C30
:1031700012F480634FF00A020B92EBD1C4E500BF5A
:10318000CDCCCCCC84460CB410B584B006AC54F88D
:10319000043B0A460094614604480394FFF700FB91
:1031A00004B0BDE8104002B0704700BF051C00101D
:1031B00070B594461E4605460C4684B04FF0FF326B
:1031C000634602A900960348CDE90254FFF7E8FAE6
:1031D00004B070BD451F001010B5094B84B01C68C9
:1031E0004CB1034600914FF0FF3203A90548A047B8
:1031F000012004B010BD00F083F9204604B010BDDA
:103200008C0900203D1F001000BEFDE708B5FFF748
:10321000FBFF00BF38B5064D064CFEF7B9FAAC42CD
:1032200004D254F8043B9847AC42FAD338BD00BFEF
:10323000143A0010103A0010036808461146184767
:103240002DE9F04F437D82468846174681B0002B1A
:1032500047D0002A24DD002401252046DFF8949081
:103260004E1E04B3737806F1010B0A2B26D02B46B1
:103270005E46BB4204F1010405F10105F1DB874222
:1032800004DD391ADAF8003040449847B84418F899
:10329000013CA3F10D03B3FA83F35B098AF8143000
:1032A00001B0BDE8F08F737806F1010B0A2BDED177
:1032B0009AF8143063B15E462B46DAE733780D2B6B
:1032C000F9D0A04204DA211ADAF8003040449847D5
:1032D0004846DAF80030022198475E4628462B46D9
:1032E000C7E711464046DAF8003001B0BDE8F04FBC
:1032F000184700BFF03B00100B682DE9F041802B10
:103300000D46064605D05A1C2B442A601E71BDE8A6
:10331000F0810F4B1C68A4B10E4F01F1040801E0CD
:10332000246974B12368002BFAD03B680BB1A34227
:10333000F6D1204641462A68FFF782FF2469002C17
:10334000F0D1002301222B442A601E71BDE8F081D8
:1033500074090020780900202DE9F04782B00D465D
:10336000924699460746FDF7FDFD4FF0FF366FF098
:1033700000442F4A821841F10003964274EB030186
:103380003CBF324623462B4800F01EFB6B1C804698
:1033900003D1384600F0E0FA0546274B274E1C685B
:1033A000274BB9F1000F18BF1E46B4B1BAF1000F98
:1033B0001AD1DFF8909001E0246974B12368002BE2
:1033C000FAD0D9F800300BB1A342F5D120462A46F5
:1033D0003946B0472469002CF0D1B8F1000F1FD155
:1033E000284602B0BDE8F0874FF00A0ADFF8549093
:1033F00002E02469002CF0D02368002BF9D0D9F822
:1034000000300BB1A342F4D120462A463946B047DA
:10341000204601220DF107018DF807A0B047E8E72B
:10342000044800F0CDFA284602B0BDE8F08700BF9E
:1034300040420F0074060020740900203932001049
:103440004132001078090020084A136823B90AE0C5
:1034500003F110021B6933B19842F9D129B903690C
:1034600013600161704701B110607047740900205A
:1034700008B500F0A1F9012008BD00BFF0B583B088
:1034800006468DF80700FDF76DFD4FF0FF356FF034
:103490000044174A821841F10003954274EB03017E
:1034A0003CBF23462A46134800F08EFA124B0746CB
:1034B0001C689CB1114D01E024697CB12368002B8C
:1034C000FAD02B680BB1A342F6D1204601220DF1B0
:1034D0000701FFF7B5FE2469002CEFD117B930467C
:1034E00003B0F0BD034800F06BFA304603B0F0BD06
:1034F00040420F0074060020740900207809002063
:1035000038B5044600F028FA012305461A4620463D
:103510002946FFF721FF084B1C682CB163682BB1CB
:1035200098472469002CF9D1284638BD2469002C1D
:10353000F4D1284638BD00BF740900202DE9F041C0
:10354000A2B004460D46FDF70DFD4FF0FF376FF0BA
:103550000046274A821841F10003974276EB0301A7
:103560003CBF3A463346234800F02EFA00262B464D
:1035700007462246204801A90196FFF719FE019B44
:1035800006467BB91D4B1C682CB1636843B1984754
:103590002469002CF9D10FBB304622B0BDE8F08180
:1035A0002469F1E7DFF85480D8F80050EDB1144CED
:1035B00001E02D6975B12B68002BFAD023680BB19F
:1035C000AB42F6D12846019A02A9FFF739FE2D69D0
:1035D000002DF0D1D8F800400195D5E7054800F05E
:1035E000EFF9304622B0BDE8F0810195D3E700BF86
:1035F00040420F0074060020F932001074090020C8
:10360000780900200FB400B583B004A951F8040B69
:103610000191FFF793FF03B05DF804EB04B070472E
:10362000B1F1000C1DDD0F4A0F4B126830B5D31AF3
:10363000B3FA83F30D240D4D5B09411E35F913E0F8
:103640008C4411F8010F864506D093699B06FCD483
:1036500061451060F5D130BD93699D06FCD41460BE
:10366000F3E77047B809002000800740B409002044
:10367000B1F1000C03462DDD00201F4A591E1268CF
:103680009369DB0617D401309369DB06FCD4136819
:10369000844501F8013FF3D1184B1B684BB1502111
:1036A0001346916353F8342F02F0380203F5805328
:1036B0001A6060467047114B1B684BB1502113468E
:1036C000916353F8342F02F0380203F580531A60E7
:1036D00078B17047094B1B685BB1074B50211A68E2
:1036E0001346916353F8342F02F0380203F58053E8
:1036F0001A606FF002007047B80900203C080020F3
:10370000054B1B6833B10021044A05481268006864
:1037100091631847704700BF3C080020B80900209B
:1037200040080020024B1A6893691B07FCD47047BD
:10373000B809002070B51B4E1B4D32680446AA42E2
:103740000CBF2225212520B1184A0B46116889B1EA
:1037500070BD164E3368002BFAD0014690632846A0
:10376000FDF76AFC28461249FDF7ACFC114B3460AA
:103770001C6070BD10600F4A28460D491360FDF7AC
:1037800071FC01212846FDF757FC32685021134691
:10379000916353F8342F02F0380203F580531A6016
:1037A00070BD00BFB8090020008007403C08002021
:1037B000013700104008002010B50E490E4C0F488C
:1037C0000F4A104B007821600020022112781B78EC
:1037D000FDF772FE02210120FDF76EFE4FF4E1318C
:1037E0002068FDF74BFFBDE8104001210648FFF7B8
:1037F0002BBE00BF00000740B8090020683C001045
:10380000643C0010603C00105C060020032A70B588
:1038100011D940EA01039B071ED104460B4602E082
:10382000043A032A1CD91946204653F8045B54F87D
:10383000046BAE42F4D0541EAAB1421E013901E01D
:10384000C3180BD012F801EF11F801CFA31AE64507
:10385000F6D0AEEB0C0070BD541EEEE7184670BDFE
:1038600020461946E7E7104670BD00BF844641EA8E
:10387000000313F0030349D1403A23D30B680360DC
:103880004B6843608B688360CB68C3600B690361DE
:103890004B6943618B698361CB69C3610B6A0362C6
:1038A0004B6A43628B6A8362CB6AC3620B6B0363AE
:1038B0004B6B43638B6B8363CB6BC3634030403193
:1038C000403ADBD230320BD30B6803604B68436065
:1038D0008B688360CB68C36010301031103AF3D22C
:1038E0000C3205D351F8043B40F8043B043AF9D2BA
:1038F000043208D0D2071CBF11F8013B00F8013B8D
:1039000001D30B8803806046704700BF082A13D399
:103910008B07B1D010F00303AED0C3F10403D21A69
:10392000DB071CBF11F8013B00F8013BA4D331F8C1
:10393000023B20F8023B9FE7043AD9D3013A11F841
:10394000013B00F8013BF9D20B7803704B784370D0
:103950008B7883706046704720F0030110F00300FD
:10396000C0F1000051F8043B00F1040C4FEACC0C0C
:103970006FF000021CBF22FA0CF213434FF0010C4F
:103980004CEA0C2C4CEA0C4CA3EB0C0222EA03028E
:1039900012EACC1204BF51F8043B0430F4D0C2F157
:1039A000000102EA0102B2FA82F2C2F11F0200EB48
:1039B000D2007047F8B500BF5FF800F0C1020020E8
:1039C0005FF800F0850200205FF800F01902002087
:1039D0003D180010B1170010E517001089180010ED
:1039E0001D18001035160010651800102116001063
:1039F0008913001069180010490B0010811700107E
:103A0000511800100118001001080010F90F0010E3
:043A10005D02001043
:103A18000A49324320736C617665206578616D7060
:103A28006C65000048656C6C6F2C2049324320732C
:103A38006C61766521202D203078253032580000C1
:103A48005772697465206174203078253032583A8D
:103A580020272573270A0000436F756C646E27744E
:103A680020777269746520746F20736C6176652C99
:103A780020706C6561736520636865636B20796F7E
:103A8800757220776972696E6721000052656164FA
:103A980020206174203078253032583A2027257349
:103AA800270A00000A2A2A2A2050414E4943202A80
:103AB8002A2A0A000A000000486172647761726568
:103AC80020616C61726D20256420616C726561648F
:103AD8007920636C61696D656400000048617264F7
:103AE800206173736572740052656C65617365005B
:103AF800626F6F74325F7732357130383000000092
:103B0800322E312E300000007069636F32000000E1
:103B1800736C6176655F6D656D5F69326300000087
:103B2800466562202031203230323500060052507E
:103B3800D3F07542F03A001006005250E182887FB7
:103B4800F83A001006005250ABB36053083B00101F
:103B580006005250BBFF3CB6103B00100600525006
:103B6800861C0302183B0010060052505422A29DE6
:103B7800283B001005005250DE65F468EC41001047
:103B8800666E692B00000000666E69006E616E004B
:103B9800666E692D00000000000000000000F03F84
:103BA8000000000000002440000000000000594010
:103BB8000000000000408F40000000000088C34063
:103BC80000000000006AF8400000000080842E41D8
:103BD80000000000D01263410000000084D7974124
:103BE8000000000065CDCD410D0A0000554152543A
:103BF80020737464696E00005541525420737464D4
:103C08006F7574005541525420737464696E202F87
:103C1800207374646F7574000600525053B4F4A195
:103C28000C3C0010080052501200000008005250CE
:043C380092100000E6
:083C3C00B4C6FF0F01000000F7
:103C4400343B0010403B00104C3B0010583B00102C
:103C5400643B0010703B00107C3B0010343C0010AF
:083C64002C3C0010203C001074
:103C6C002DE9F041EFF30584E4B2204B343C204EB7
:103C7C0008BF1E463768FD6A7DB369062FD56805F7
:103C8C007B6D2ED4A90500D53B6E1A4B03EBC408F3
:103C9C0098F804203AB153F8343002213046984752
:103CAC00002388F804306A0709D50121114B3046EE
:103CBC0003EBC402117153F8343000219847AB0662
:103CCC000BD501210B4B3A6D304603EBC40253F874
:103CDC003430BDE8F04111711847BDE8F0816A0538
:103CEC0001D57B6ECEE7AB05CED4DCE7F00500202A
:103CFC00E80500207C0900204FF050412DE9F041EF
:103D0C000027044616461D46D1F8008009E02368BA
:103D1C00C3E88F7F8CF310883046294600F008FAF0
:103D2C00F0B92168EFF3108C72B6D1E8CF2F0123D4
:103D3C00002AFAD1C1E8423F002AF6D1BFF35F8FC7
:103D4C0094F904E0BEF1000FE1DA0023226884F854
:103D5C000480C2E88F3F8CF310880120BDE8F0810D
:103D6C000020BDE8F08100BF30B501460468EFF3D8
:103D7C00108C72B6D4E8CFEF0125BEF1000FF9D14B
:103D8C00C4E84E5FBEF1000FF4D1BFF35F8F90F922
:103D9C000440002C11DB00210568C5E88F1F8CF353
:103DAC0010884FF0504C9CF900C0A44501D1084636
:103DBC0030BDBDE83040FFF79FBF4FF0504000686A
:103DCC0000230A680871C2E88F3F8CF31088012029
:103DDC0030BD00BF0368EFF3108272B6D3E8CFCFCB
:103DEC000121BCF1000FF9D1C3E84C1FBCF1000F4D
:103DFC00F4D1BFF35F8F4FF0FF0C0023016880F804
:103E0C0004C0C1E88F3F82F3108840BF704700BFE9
:103E1C0053B94AB9002908BF00281CBF4FF0FF3125
:103E2C004FF0FF3000F082B9ADF1080C6DE904CE13
:103E3C0000F006F8DDF804E0DDE9022304B0704779
:103E4C002DE9F04F099D0C46002B4DD18A420F46AF
:103E5C0084469646B2FA82F360D94BB102FA03FE5D
:103E6C00C3F120029F4000FA03FC20FA02F2174330
:103E7C004FEA1E461FFA8EF44FEA1C42B7FBF6F1CE
:103E8C0006FB117701FB04F042EA0742904208D985
:103E9C001EEB020201F1FF3702D2904200F2318197
:103EAC003946121A1FFA8CFCB2FBF6F006FB1022F4
:103EBC0000FB04F44CEA024C644508D91EEB0C0CD4
:103ECC0000F1FF3202D2644500F21E81104640EA36
:103EDC000140ACEB040C002125B12CFA03F30022B9
:103EEC00C5E90032BDE8F08F8B4205D90DB1C5E9AB
:103EFC00000100210846F5E7B3FA83F100294DD102
:103F0C00A342C0F0F380904280F0F0800646234636
:103F1C000846002DE6D0C5E90063E3E7002B40F02E
:103F2C00A3808A1A4FEA1E471FFA8EF60121B2FBB4
:103F3C00F7F407FB14204FEA1C4242EA004206FB4E
:103F4C0004F090420FD91EEB020204F1FF382CBF93
:103F5C004FF001094FF00009904203D9B9F1000F5D
:103F6C0000F0CC804446121A1FFA8CFCB2FBF7F01E
:103F7C0007FB102200FB06F64CEA024C664508D9FA
:103F8C001EEB0C0C00F1FF3202D2664500F2B3803E
:103F9C001046ACEB060C40EA04409DE7C1F120064C
:103FAC008B4004FA01FE22FA06F720FA06FCF440D4
:103FBC008A401F434EEA0C0300FA01FE4FEA1748F1
:103FCC004FEA13491FFA87FCB4FBF8F008FB1044C6
:103FDC0049EA044400FB0CF9A1450ED93C1900F147
:103FEC00FF3A2CBF4FF0010B4FF0000BA14503D94A
:103FFC00BBF1000F00F08B805046A4EB09041FFAB4
:10400C0083F9B4FBF8F308FB134403FB0CFC49EAFB
:10401C000444A44506D93C1903F1FF3801D2A44548
:10402C007BD8434643EA0040A4EB0C04A0FB029867
:10403C004445CC46434602D306D1CE4504D2013882
:10404C00B9EB020C68EB0703002D6CD0BEEB0C0235
:10405C0064EB030422FA01F304FA06F6CC400021C7
:10406C001E43C5E900643DE702FA03FEC3F12001DB
:10407C0004FA03F200FA03FCCC404FEA1E4720FA84
:10408C0001F11FFA8EF6B4FBF7F00A4307FB10445C
:10409C00110C41EA044100FB06F48C420ED91EEBD4
:1040AC00010100F1FF382CBF4FF001094FF000095E
:1040BC008C4202D9B9F1000F2CD04046091B92B2A8
:1040CC00B1FBF7F407FB141142EA014204FB06F1C1
:1040DC00914207D91EEB020204F1FF3801D2914242
:1040EC001ED84446521A44EA004120E7861A64EB73
:1040FC00030301200DE7F44402384AE7023C724402
:10410C0031E702397244CCE6F4440238DFE6023877
:10411C003C4472E702387144D0E7023B3C4481E7EF
:10412C00023C7244DEE72946DCE600BF704700BF64
:10413C005FF800F0790E00100080094000000000CC
:10414C00000009400000000010000000000000000A
:10415C000000000000000000000000000000000053
:10416C00800600200000000000000100000000009C
:10417C000000000000000200000000000000000031
:10418C000000030000000000000000000000FF0021
:10419C000000000001B5486801318E4600477046AA
:1041AC0009380149884701BDC112001021360010A1
:1041BC002537001071360010353700100000000054
:0C41CC00000100000000000000000000E6
:1041D800D3DEFFFFFE010000FF01000060BFFFFF0C
:0441E800793512AB68
:040000051000014D99
:00000001FF
