:020000041000EA
:10000000002008205D0100101301001015010010F0
:100010001101001011010010110100101101001058
:100020001101001011010010110100101701001042
:100030001101001011010010190100101B01001026
:100040001D0100101D0100101D0100101D010010F8
:100050001D0100101D0100101D0100101D010010E8
:100060001D0100101D0100101D0100101D010010D8
:100070001D0100101D0100101D0100101D010010C8
:100080001D0100101D0100101D0100101D010010B8
:100090001D0100101D0100101D0100101D010010A8
:1000A0001D0100101D0100101D0100101D01001098
:1000B0001D0100101D0100101D0100101D01001088
:1000C0001D0100101D0100101D0100101D01001078
:1000D0001D0100101D0100101D0100101D01001068
:1000E0001D0100101D0100101D0100101D01001058
:1000F0001D0100101D0100101D0100101D01001048
:100100001D0100101D0100101D0100101D01001037
:1001100000BE00BE00BE00BE00BE00BEEFF3058004
:10012000103800BEF2EB8871EC5100101452001030
:10013000A801001090A31AE7D3DEFFFF42012110AF
:10014000FF010000F8550000793512AB4FF00000B8
:100150002049086006C881F3088810474FF05040D6
:10016000006810B14FF00000F2E70FA40ECC002998
:1001700002D000F015F8F9E71749184A002000E00E
:1001800001C19142FCD1002080F30A8814498847BC
:10019000144988471449884700BEFDE701C901C2D8
:1001A0009A42FBD3704700BF145200101001002088
:1001B0002C06002030570010000008200000082006
:1001C0003057001000100820001008200000000028
:1001D0007047000008ED00E02C060020440C0220CF
:1001E00045490010050300103D490010F8B500BF57
:1001F0000348044B834202D0034B03B118477047B6
:100200002C0600202C06002000000000064B0749A9
:10021000C91A891048BF0131491003D0044B0BB1F2
:1002200001481847704700BF2C0600202C0600200C
:100230000000000010B5064C237843B9FFF7D8FF43
:10024000044B13B10448AFF300800123237010BDA9
:10025000F0070020000000005050001008B5044BCB
:100260001BB104490448AFF30080BDE80840CDE766
:1002700000000000F40700205050001070B5192055
:1002800003F07AFA4FF00105192345EC44304FF0A2
:1002900000060A4C0A21206801F076F801284FF088
:1002A000190305D145EC4030642002F093FDF1E7DD
:1002B00046EC4030012002F08DFDEBE764080020A1
:1002C00008B5142003F058FA14234FF0000242EC52
:1002D00044304FF050440A4D6368DB020BD50023D5
:1002E00028681A46194600F0EBFE142002F072FD51
:1002F0006368DB02F3D4012002F06CFDECE700BF81
:1003000064080020002480B582B004F019FC104875
:1003100004F05EFC2146052000F09CFE0125074606
:100320000C4E4FF4807223460B49CDE900540B4824
:10033000376002F0E9FB23464FF480720849CDE9AB
:100340000054084802F0E0FB02F008FCFEE700BFA2
:100350005050001064080020645000107D0200100E
:1003600070500010C10200100FB400B583B0049C9F
:10037000074804F02DFC3CB105A92046019104F08A
:10038000C3FA044804F024FC012004F0D5FA00BFAD
:100390007C5000108C500010F8B5431E0A3311D861
:1003A00010F0070300F108046DD0A3F10902A24286
:1003B00008D31030C41A01F03DFD384922460D68BB
:1003C00015BB0AE001F036FD34490A6822B1002568
:1003D00002F0F8FC2846F8BD1446314B58074BD1C3
:1003E000184603F50035083D25F007050D6000218E
:1003F0002C4EEB1AC6E90001C5E900112A49C0E9F3
:1004000000530B6029490B60002AE0DD274F3E684E
:10041000A642DCD3234B18461B6803E01A6822B1BE
:10042000184613465968A142F8D3AB42CFD01D46B7
:10043000A1EB040C55F8082BBCF1100F026007D992
:10044000214603EB040ECEF804C01A51C0F800E0B8
:100450000024154A761A106841F00041864214487B
:1004600038BF16600268596001321C603E6002604D
:1004700002F0A8FC2846F8BDD81D20F0070003F5BF
:1004800000350346AFE701F0D5FC04490D6815B10E
:10049000002CBBDA9BE722469FE700BFA80800209C
:1004A000400B0020FC0B0220CC0B0220BC0B0220D6
:1004B000D80B022048B138B550F8043C0446002B54
:1004C00002DA50F8082C0AB138BD704723F0004317
:1004D0001A4D40F8043C01F0ADFC2A6854F8040CB5
:1004E000174B11182960A4F1080219461B689A429B
:1004F000FBD84D6801EB050C62450FD01518AB42D7
:1005000012D044F8083C914218BF0A600D4A1368A3
:1005100001331360BDE8384002F054BC28440A1887
:1005200093424860F2D10A46074C2468A34203D0A4
:10053000D3E90045284450601460E4E7BC0B022076
:10054000FC0B0220DC0B0220A80800200A4B93F9C8
:100550000020002A0FDB4FF050410123D1F8880121
:100560009340184207D04FF0E0224FF08050C1F87E
:100570008C31C2F8040D704798050020002300B5A7
:1005800083B0019300F060FA019B002BFCD003B014
:100590005DF804FB10B502F0EDFC044601F05EFCD2
:1005A00028B14FF0E0234FF08052C3F8042D2046CD
:1005B000BDE8104002F074BD10B504224FF0E024F5
:1005C000002322610520A36103F040F80721044BBA
:1005D000A3FB00239B09013B6361216110BD00BFA8
:1005E000D34D62104FF0E0234FF07F42002130B531
:1005F00085B00391C3F81C2DD3F81C3D1B0E8DF85C
:1006000007309DF807309DF807301A060CD5039B7C
:10061000013303939DF807305B00DBB28DF80730A0
:100620009DF807301B06F2D4039B082B40D0039B98
:10063000C3F107031B0203F4E0634FF05041254868
:10064000254A036012780B689A4233D04FF0E023BA
:1006500000244FF05045D3F8202D204942F47F026A
:10066000C3F8202D0E20C3F81C4D03F0B1FE1C4929
:100670000B2003F0ADFE2A681A4BFF211A2043F825
:10068000224003F011FA1A20174903F0DFF8012184
:100690001A2003F0B5F800F0CFF9286801F012FD38
:1006A000029400F0D1F9029B002BFCD005B030BDC4
:1006B0000023C2E7FFF780FF4FF0E022D2F8203D91
:1006C0000A4943F07F43C2F8203D0F2003F080FE2B
:1006D000BCE700BF500B022099050020710A0010F2
:1006E000090B0010480B02204D0500109505001065
:1006F00008B500F0A9F9BDE80840FFF773BF00BFD7
:100700004FF0E0234FF08052C3F8042DBFF34F8F1A
:10071000BFF36F8F704700BF836913F8023C662BED
:1007200000D070474FF0E023D3F8882D42F47002D8
:10073000C3F8882DD3F8342F42F04042C3F8342F49
:1007400000F05EB92DE9F04F4FF0113E4FF080748C
:1007500040E909E34FF0073340F8044C164C40F8E9
:10076000343C40E903424FF005334FF006324FF07E
:10077000123B40E90F324FF0033A4FF002394FF08D
:1007800001384FF010374FF009364FF008354FF071
:1007900004346FF0020340E905AB40E9078940E902
:1007A0000B6740F8305C40F8404C40F8443C40F85F
:1007B000481DBDE8F08F00BF7D05001070B50E200C
:1007C00002F09EFF0F2002F09BFF0121032003F0A7
:1007D00097FE024601234FF05041002452B2084ECA
:1007E0009340084D32700848C1F88C31C1F884310B
:1007F0002C7003F061FEFFF7F5FE204670BD00BFD0
:100800009805002099050020F1060010EFF30583FC
:100810000F2B84BF014A9B5C704700BFF0E300E0F0
:10082000094B1B78FF2B0BD0EFF30583DBB22BB109
:100830004FF05042106800EB4300704701F0FCBEDF
:100840004FF05043186870479905002010B5204BB1
:100850008E461B780268FF2B82B02FD04FF0010C20
:100860001C4BD21A1C4BA3FB02131B0903EB4303C3
:10087000A2EBC3020CFA02F140BF00240368C3E8F4
:100880008F4F8EF31088EFF30583DBB233B9134B30
:10089000186802B0BDE8104000F0DCB90F4B01AAA7
:1008A0001868019400F00AFA019B2BB14FF0E02385
:1008B0004FF08052C3F8042D02B010BD40BF00239A
:1008C0000268C2E88F3F81F3108802B010BD00BFFC
:1008D000990500200C080020ABAAAAAAB80B022098
:1008E000F0B5354C064694F800C00F46BCF1FF0F3A
:1008F00014461D4683B04ED003F0A6FC40F2E73309
:10090000B4EB000C65EB01011CEB030041F10001AD
:10091000B0F57A7F71F100031CDA00233268C2E877
:100920008F3F87F31088254B5A6A95420CD94FF0B8
:10093000E0234FF08052C3F8042DBFF34F8FBFF375
:100940006F8F002003B0F0BD9B6AA34230D301201B
:1009500003B0F0BD4FF47A72002304F04DFB002881
:10096000DBD000233268C2E88F3F87F31088012272
:10097000009031681248091A1248A0FB0160000972
:1009800000EB4000A1EBC0010F4802FA01F1006842
:1009900000F006F9C7E700230268C2E88F3F81F341
:1009A00010882046294603B0BDE8F04003F0D6BBCE
:1009B0009542BCD00120CBE79905002000000B40F8
:1009C0000C080020ABAAAAAAB80B022008B500F0B8
:1009D000D9F8014B186008BDB80B022001234FF075
:1009E0005042034991F900108B40C2F880317047A2
:1009F000980500200000000000000000000000003A
:100A00000BA10CC9126853F82210086806C881F3BC
:100A10000B88022181F31488203080F30988BFF30A
:100A20006F8F4FF0000080F311881047AFF3008004
:100A3000000000D09808002062B661B6BFF34F8F67
:100A4000BFF36F8F66DF00BFEFF311804FF010012F
:100A500081F31188BFF34F8FBFF36F8F704700BFD3
:100A600080F31188BFF34F8FBFF36F8F704700BFC4
:100A7000EFF309811EF0100F08BF21ED108AEFF38C
:100A80000B82734621E9FC0F55FC084457FC0964AE
:100A900059FC0A8401E9F00319A00CC8106853F846
:100AA000203019604FF0100181F31188BFF34F8F90
:100AB000BFF36F8F01F006FB4FF0000080F3118849
:100AC0000FA10CC9126853F8221008681838B0E852
:100AD000F00345EC004447EC016449EC0284B0E8C3
:100AE000FC0F13F0100F08BFB0EC108A82F30B88D4
:100AF00080F30988184700BFAFF30080AFF3008090
:100B0000000000D0980800201EF0040F0CBFEFF387
:100B10000880EFF309800149084700001907001019
:100B20002DE9F04106460D4601F084F93368346939
:100B300006F10C072B43A74233601ED04FF000088C
:100B40000AE01D4206D0D30148BF48EA050802F07A
:100B500075F93368A7420ED020460268646812F027
:100B6000806F43F0007122F07F45EAD035EA030C34
:100B7000E9D0A742F0D123EA08033360BDE8F04191
:100B800002F020B910B51C20FFF706FC044620B186
:100B9000002340F8043B00F09FF8204610BD00BF42
:100BA0002DE9F04106461F460D46904601F042F9F8
:100BB00034689FB92C420AD0B8F1000F09D024EA5A
:100BC0000505356002F0FEF82046BDE8F081069B81
:100BD0001BBB02F0F7F82046BDE8F08135EA0403BC
:100BE000EAD0069B002BF4D0B8F1000118BF012118
:100BF0001A46090641F080612943301D01F008FCC6
:100C000002F0E0F8F8B102F07DFA830104460BD55A
:100C100024F07F442046BDE8F081B8F1000118BF00
:100C200001211A460906E7E701F066FE34686FB94C
:100C3000254205D0B8F1000F02D024EA0505356041
:100C400002F0E2F9E4E701F045FEDCE735EA0403EF
:100C5000F6D1EFE72DE9F04106460D4601F0EAF83E
:100C60003368346906F10C072B43A74233601ED06A
:100C70004FF000080AE01D4206D0D30148BF48EA01
:100C8000050802F0DBF83368A7420ED02046026860
:100C9000646812F0806F43F0007122F07F45EAD063
:100CA00035EA030CE9D0A742F0D123EA0803336008
:100CB00002F088F83068BDE8F08100BF8C4600B5CE
:100CC000864613467146624602485DF804EB02F020
:100CD0003DBC00BF210B00104FF0FF31002200F19E
:100CE0000803C0E90131C36003610260704700BFBF
:100CF00000230361704700BFD0E9003210B494684C
:100D00000133C1E90124616091605DF8044B086121
:100D10000360704730B40D686B1C10D000F10803FD
:100D20001C465B681A68AA42FAD902684B60013215
:100D300099608C606160086130BC02607047046932
:100D40006368F2E70346026910B454684068996822
:100D50009C428160486008BF5160002110685DF8C6
:100D6000044B013819611060704700BF70B515461B
:100D7000026C0446866B2AB905684DB30020013623
:100D8000A66370BD7DB9406804F036F86368226CD4
:100D90001344A26863609342F0D323680136284667
:100DA0006360A66370BDC06804F026F8226CE36837
:100DB00051429B1A2268E360934202D2A3680B441B
:100DC000E360022DDAD1012E38BF01260020D7E7DB
:100DD000806801F0BDFC0136A560D1E72DE9F04344
:100DE000064685B001F088FD96F845305DB2002DCD
:100DF0001CDD06F1240708E0A26BE36B03969A4220
:100E00003DD36B1EDAB25DB282B1B46C002CF3D16B
:100E1000736A5BB1384601F099FB0028F1D001F00C
:100E200001FC6B1EDAB25DB2002AEED1FF2386F818
:100E3000453002F0E9F801F05FFD96F844305CB20D
:100E4000002C14DD06F1100503E0631EDAB25CB27B
:100E50006AB133695BB1284601F078FB0028F4D011
:100E600001F0E0FB631EDAB25CB2002AF1D1FF238D
:100E700086F8443005B0BDE8F04302F0C5B894F8F8
:100E80004580226CD4F838904FFA88F8A2B92368CC
:100E9000002B2FD009F10103B8F1FF3FA3631ED14E
:100EA000636A002BADD004F1240001F04FFB002851
:100EB000A7D001F0B7FBB4E7606803A903F09CFF7B
:100EC0006368226C1344A2686360934209F10103D2
:100ED000A36324BF23686360B8F1FF3FE0D000F054
:100EE000B7FF40458DD908F101084FFA88F884F81A
:100EF000458086E7A068019301F02AFC019BB8F1C8
:100F0000FF3FA36009F10103A363814608D1636A2F
:100F10009BB9B9F1000F3FF474AF01F083FB80E798
:100F200000F096FF4045F4D908F101035BB284F864
:100F30004530B9F1000FF0D163E704F1240001F06E
:100F400005FB00287FF46BAFB9F1000FE5D158E73E
:100F5000F0B5846C83B0A26BE36B01909A4203D32B
:100F60000025284603B0F0BD94F84560226CA76BBD
:100F700076B2E2B1606801A903F03EFF6268236CBB
:100F80001A44A36862609A4201D323686360002513
:100F90000137731CA76313D1636A002BE1D004F1FE
:100FA000240001F0D3FA002818BF0125D9E72568ED
:100FB000002DECD1A06801F0CBFBA5600546E7E76A
:100FC00000F046FF8642CCD2013676B284F8456006
:100FD000C7E700BFF8B5C0B31746A1FB002305461D
:100FE0000E4693BB01FB00F010F1550F2DD8543085
:100FF000FFF7D2F9044640B356B300F15403C4E9F5
:101000000F56236001F078FCD4E90F3101FB03F3A4
:101010002268591A13440025A360FF2362600A4422
:10102000E260A56304F1100084F8443084F8453090
:10103000FFF752FE04F12400FFF74EFE01F0E4FF3B
:1010400084F850702046A564F8BD00242046F8BD01
:101050000346D4E7F8B580B3884205460E462CD344
:101060005420FFF799F9044638B30027C0E90F5719
:10107000FF25006001F040FC216CE36B226801FB5E
:1010800003F3591A626013440A44C4E90232A763A5
:1010900004F1100084F8445084F84550FFF71CFE1A
:1010A00004F12400FFF718FE01F0AEFF0223A7644D
:1010B000A66384F850302046F8BD0024FBE700BF4B
:1010C000F0B5044685B01E4601920F4601F014FCAF
:1010D000A26BE36B9A424DD3022E62D000200546EC
:1010E0000DE001F091FF2046FFF778FE01F06AFE67
:1010F00001F002FCA26BE36B9A423BD30120019BFF
:10110000002B59D0002848D001F07EFF00F092FE5D
:1011100001F0F2FB94F84430FF2B08BF84F84450F0
:1011200094F84500FF2808BF84F8455001F06CFF93
:1011300001A902A801F0CCFE002842D101F0DCFB9D
:10114000A26BE36B9A42CCD101F05EFF019904F1EE
:10115000100001F043F92046FFF740FE01F032FE97
:101160000028C5D101F0B6FB01F0C6FBA26BE36B12
:101170009A42C3D2324639462046A56BFFF7F6FDA8
:10118000A36C23B3022E14D02046FFF7E1FE38BB38
:1011900001F03AFF012005B0F0BD02A801F036FAD7
:1011A000B2E7324639462046A56BFFF7DFFDA36C58
:1011B0006BB1002DECD1E7E701F026FF002005B070
:1011C000F0BD2046FFF70AFE01F0FCFDF6E7636A7A
:1011D000002BDCD004F1240001F0B8F90028D7D0AE
:1011E00001F078FBD4E700BF2DE9F84304469046B0
:1011F0001D460F46FFF70AFB01F0BCFEA26BE36B36
:1012000006469A4208D3022D06D00024304601F04B
:1012100047FF2046BDE8F883394694F845702A46D2
:1012200020467FB2D4F83890FFF7A0FD7B1C08D190
:10123000A36C7BB1022D1DD1B9F1000F1AD001248E
:10124000E4E700F005FE8742F9D201377FB284F867
:101250004570F4E7636A002BF1D004F1240001F03B
:1012600075F90028EBD0B8F1000FE8D00123C8F8D9
:101270000030E4E72046FFF76BFE0028DFD0F2E7FE
:10128000F0B5044685B00F46019201F035FBA56B21
:10129000002D56D1019B002B35D002A801F0B6F9E4
:1012A0002E4601F0B1FE00F0C5FD01F025FB94F8DB
:1012B0004430FF2B08BF84F8446094F84530FF2B7E
:1012C00008BF84F8456001F09FFE01A902A801F063
:1012D000FFFDE8B901F010FBA36B33BB01F094FEF6
:1012E000019904F1240001F079F82046FFF776FD1A
:1012F00001F068FD00283BD001F0FEFAA56B05BBAC
:10130000019B002BCDD101F07FFE002005B0F0BD88
:101310002046FFF763FD01F055FD01F0EDFAA36BE8
:10132000002BF0D001F070FEE6E701F06DFE2046E4
:10133000FFF754FD01F046FD01F0DEFAA56B002D2C
:10134000DED0226C5AB1E168A36811449942E16091
:1013500028BF2168384628BFE16003F04DFD2369AE
:10136000013DA5633BB901F04FFE012005B0F0BD82
:1013700001F0B0FAC0E704F1100001F0E7F800282E
:10138000F1D001F0A7FAEEE7F0B50446002685B0EB
:10139000019101F0B1FAA36B35463746002B39D1E4
:1013A000019B002B6CD0002D50D001F02DFE00F0E1
:1013B00041FD01F0A1FA94F84430FF2B08BF84F8F6
:1013C000447094F84530FF2B08BF84F8457001F055
:1013D0001BFE01A902A801F07BFD40BB01F08CFAC5
:1013E000A36B002B39D101F00FFE2368002B4DD0E9
:1013F000019904F1240000F0F1FF2046FFF7EEFC14
:1014000001F0E0FC00283ED001F076FAA36B012544
:10141000002BC5D02268013BA363002A48D0236972
:10142000002B3CD101F0F0FD012005B0F0BD2046BD
:10143000FFF7D4FC01F0C6FC01F05EFAA36B4BB9D8
:1014400001F0E2FD8EB9002005B0F0BD02A801F068
:10145000DDF8AAE701F0D8FDD6E701F0D5FD20467A
:10146000FFF7BCFC01F0AEFCCEE701F045FA616A83
:1014700019B1236B1968C1F12001A06801F0C6F908
:1014800001F0C2FDDFE701F025FABDE701F034FA13
:10149000A06801F0E1F8064601F0B6FDA8E704F106
:1014A000100001F053F80028BCD001F013FAB9E79E
:1014B00001F04AFEA060B2E7002955D0444B5A68BB
:1014C000904272D01A6810B4002A2CD0DA68904288
:1014D0007BD09A68002A41D05A69904273D01A6929
:1014E000002A42D0DA69904265D09A69002A42D037
:1014F0005A6A904244D01A6A002A45D0DA6A904269
:101500005BD09A6A002A44D05A6B904257D01A6B2B
:10151000002A43D0DA6B904253D09B6B002B42D011
:101520005DF8044B7047DA6890424ED05A69904299
:1015300049D01A46DC69A0423DD05C6AA0421FD067
:10154000DC6AA04239D05C6BA04238D0DC6BA04290
:1015500037D0C2E900105DF8044B70475A699042D9
:1015600031D003F10802E5E77047DA69904222D0F2
:1015700003F11002E1E75A6A904201D0154ADFE711
:10158000042203EBC202E4E7DA6A904215D0124A61
:10159000D9E75A6B904212D0104AD7E7DA6B9042E3
:1015A0000FD00F4AD5E70F4AD3E7002203EBC20260
:1015B000C2E9001070470322E3E70522E1E70622B3
:1015C000DFE70722DDE70222DBE70122D9E700BFE0
:1015D000B0070020C8070020D0070020D80700204F
:1015E000E0070020E807002070B504460E461546C7
:1015F00001F082F994F84430FF2B04BF002384F8F3
:10160000443094F84530FF2B04BF002384F8453064
:1016100001F0FAFCA36B23B12046BDE87040FFF750
:10162000DDBB04F124002A46314600F041FF20468C
:10163000BDE87040FFF7D2BB064C08B5FFF760F875
:101640002368022B00D8FEE7FFF75AF82368022B25
:10165000FAD8F8E7B408002038B5836B002B02DB1A
:10166000836B012B31DD2D4C016B22682368126BDB
:10167000DB6B4D1EDB07236848BF02F1FF329B6B1B
:10168000002B03DB23689B6B012B1FDD4FF0FF3327
:1016900062686168126BC96BC907616848BF02F173
:1016A000FF32896B002903DB6168896B01291CDD2E
:1016B00001330AD000254FF050431B689D4228D0CB
:1016C00054F825309B6B02331AD138BD144B1B687C
:1016D000002BDBD19542D9DB416801F001010029E3
:1016E00014BF15464FF0FF33D2E70D494968002972
:1016F000DED1AA42DCDC42689207D9D50125DAE7BF
:101700002846FFF76BF96FF0010254F825309A6311
:1017100038BD0122024B43F8252038BD980800202F
:10172000380C02204FF050411B4B0A6853F822003E
:1017300000282CD053F82200013843F822000A6810
:1017400053F822301BBB10B51449154B53F82240F7
:101750000B78013BDBB20B702BB9124800F812304A
:10176000114AC2E88F3F4FF050424B781068013B5E
:10177000DBB24B7033B90B4A0C4902EB4002537099
:10178000C1E88F3F0020FFF76BF90CB910BD70471F
:10179000BDE81040FEF7B4BF480B0220440B022006
:1017A000380C0220400B02201A0800201B080020E1
:1017B0002DE9F8439600804630460D469946FEF7DF
:1017C000EBFD002800F0888007467C20FEF7E4FD52
:1017D000044600287DD07C22002103F083FB3246A2
:1017E0003846A521676303F07DFB636B043E1E440E
:1017F00026F00706002D3ED02B7884F84030002BD1
:1018000036D06B7884F8413093B3AB7884F84230AB
:1018100073B3EB7884F8433053B32B7984F84430B6
:1018200033B36B7984F8453013B3AB7984F8463021
:10183000F3B1EB7984F84730D3B12B7A84F8483090
:10184000B3B16B7A84F8493093B1AB7A84F84A30FB
:1018500073B1EB7A84F84B3053B12B7B84F84C3066
:1018600033B16B7B84F84D3013B1AB7B84F84E30D1
:10187000002384F84F30089D04F108001F2D28BF75
:101880001F252563A565FFF733FAC5F1200504F18F
:101890001C00FFF72DFA4B4642463046616BE5616E
:1018A0006461A462FEF74EFF4FF0FF320C4B2060E4
:1018B0009845A26308D00B4B984505D0099B03B10E
:1018C0001C602046BDE8F883E36B43F00103E3634B
:1018D000F4E73846FEF7EEFD00242046BDE8F88325
:1018E000DD1C0010391600104FF05042504B1268AA
:1018F0002DE9F047DFF844914E4CDFF8448153F86E
:1019000022604D4D40E0DFF83CA10020FFF7A8F831
:10191000FFF79AF84FF050431B68DAE8CF2F012108
:10192000002A01D1CAE8421FBFF35F8F002A50D1BD
:101930005B000122434462705A704FF050431A68B2
:10194000D5E8CF3F0121002B01D1C5E8431FBFF3EC
:101950005F8F73B118F81230002B4BD1D5E8CF1F31
:1019600001230029FAD1C5E8413F0029F6D1BFF390
:101970005F8F0123237008F812304FF050431A682C
:1019800049F82270002F40D0B36B02334ED14FF094
:1019900050410A6859F822706FB1002349F822308B
:1019A00023780A68013BDBB2237023B908F81230B0
:1019B000C5E88F3F0A686378013BDBB26370002B98
:1019C000A1D108EB4202DFF87CA05370CAE88F3F38
:1019D0009BE708EB430252785B0012BBDAE8CF1FAB
:1019E00001220029FAD1CAE8412F0029F6D1BFF31C
:1019F0005F8F9EE723780133DBB223704FF05043B3
:101A00001A6849F82270002FBED11A682378013B6A
:101A1000DBB22370002BB7D108F81270C5E88F7FB6
:101A20006FE763780133DBB2637086E7BDE8F08768
:101A300098080020440B02201A080020480B0220BE
:101A4000400B02201B080020F8B5FEF7FDFF4FF009
:101A500050420646354B1268D3E8CF1F01200029BB
:101A600001D1C3E8410FBFF35F8F314D00293ED153
:101A7000510001232F4C294463704B702E4F3B685B
:101A8000002B45D04FF050432C4A1968D2E8CF3F85
:101A90000120002B01D1C2E8430FBFF35F8F73B168
:101AA00015F81130002B3CD1D2E8CF0F01230028CC
:101AB000FAD1C2E8403F0028F6D1BFF35F8F01237F
:101AC000237005F811304FF050413B6801333B6003
:101AD00023780968013BDBB223701BB905F811308C
:101AE000C2E88F3F3046BDE8F840FEF7B9BF51006D
:101AF00005EB4202527872B9D3E8CF0F01220028D9
:101B0000FAD1C3E8402F0028F6D1BFF35F8FB0E7CA
:101B1000FFF7EAFEB6E7074C63780133DBB2637088
:101B2000ACE723780133DBB22370CCE71B0800203D
:101B3000400B0220440B02205C0B02201A080020FC
:101B40002DE9F0415B4C5C4D5C4E4FF050472368F3
:101B5000002B35D0FEF778FF2B6873B13B6856F841
:101B60002320002A3BD056F82320013246F82320B8
:101B70003B6856F82330012B2AD0236813B3504B0F
:101B8000DB68DF68BB6B013340F08C8007F1080035
:101B9000FFF7D8F84B4A1368013B13602368013BF9
:101BA00023602B680BB1FFF7BDFD786BFEF782FC5D
:101BB0003846FEF77FFC23684FF05047002BC9D111
:101BC000BDE8F0812B68002BC1D0FFF7ABFDBCE76F
:101BD0003D4B1B68002BD0D1FFF786FECDE73B4A7B
:101BE000D2E8CF1F0120002901D1C2E8410FBFF385
:101BF0005F8F002935D1364958000123354A084402
:101C0000537043704FF0504C334BDCF80000D3E876
:101C1000CFEF5FF00108BEF1000F01D1C3E84E8F96
:101C2000BFF35F8FBEF1000F12D011F810E0BEF1CC
:101C3000000F2AD1D3E8CFEF5FF0010CBEF1000F07
:101C4000F8D1C3E84ECFBEF1000FF3D1BFF35F8FE1
:101C500001234FF0504C137001F81030DCF80030C5
:101C600081E71B49580001EB43035B78A3B9D2E835
:101C7000CFCF0123BCF1000FF9D1C2E84C3FBCF13A
:101C8000000FF4D1BFF35F8FB7E713780133DBB2F6
:101C90001370DCF8003066E70E4A53780133DBB28C
:101CA0005370AFE72B68002B8AD0BDE8F041FFF7F7
:101CB00039BD00BF580B0220F80B0220480B022050
:101CC000180C0220540B02205C0B02201B08002081
:101CD000400B0220440B02201A08002008B5FEF732
:101CE0000FFD044CFFF72CFF2368022BFAD9FEF7F7
:101CF00007FDF7E7B40800202DE9F84F4FF05045F5
:101D0000464A474B474C0F46D4F800A0464ED2F8FF
:101D100000800446D3F80090FEF796FE2B6856F834
:101D200023B0FEF79DFE00238BF87930FEF78CFE82
:101D30002B6856F823B0FEF793FE0BF10800FFF76F
:101D400001F8631C00D18FBB4FF050451AEB04041F
:101D50002CBF01270027FEF777FE2B6856F823A03B
:101D6000FEF77EFECAF8084097B9FEF76DFE2B68B5
:101D700056F82350FEF774FE404605F10801FEF7C1
:101D8000C9FF2A4B1A68A24288BF1C60BDE8F88FC1
:101D9000FEF75AFE2B6856F82340FEF761FE4846D0
:101DA00004F10801BDE8F84FFEF7B4BF204C6768A6
:101DB000FEF74AFE2B6856F82380FEF751FEC8F85E
:101DC0000C70FEF741FE2B6856F82380FEF748FEA4
:101DD000BB68C8F81030FEF737FE2B6856F8238032
:101DE000FEF73EFEBA6808F108035360FEF72CFECA
:101DF0002B6856F82380FEF733FE08F10803BB601A
:101E0000FEF722FE2B6856F82350FEF729FE2368C2
:101E1000AC6101332360BDE8F88F00BFA408002047
:101E2000AC0800202C0C022098080020D00B0220C7
:101E3000040C0220024B1B6803B97047FFF704BE75
:101E4000F80B0220014B1868704700BF2C0C0220D1
:101E5000014B1868704700BF540B02208E4B2DE9D0
:101E6000F0471B68002B49D18C4B1D6801351D6064
:101E7000002D4BD0DFF84882D8F80030AB425ED955
:101E8000874C884D2B681B6B03EB830354F823307E
:101E9000012B40F2B3806B681B6B03EB830354F898
:101EA0002330012B40F2CF804FF050431C68002CB0
:101EB00000F0ED8001262B689B6B023306D00020DA
:101EC000FEF78CFD6FF001022B689A63002E00F084
:101ED000CE80012C17D04FF050431B68012B00F02F
:101EE000CE8000246B689B6B02330CD00120FEF780
:101EF00075FD6FF001026B689A6304E000246A4A82
:101F00001368013313602046BDE8F087674B684AC9
:101F1000186811681960674910600A6801320A6020
:101F20001A681268002A40F086804FF0FF33DFF80D
:101F30009081C8F80030D8F80030AB42A0D8DFF864
:101F40006C91D9F800301B68002B00F092800026BD
:101F5000534C594F44E09969D3E9032AC2F808A0C9
:101F6000CAF804204A68184662450A6808BFC1F8E2
:101F700004A0013A9E610A60D96A71B1D3E9082AC6
:101F8000C2F808A0CAF804204A6872450A6808BF67
:101F9000C1F804A0013ADE620A601A6BD7F800E0CB
:101FA00002EB8201724504EB810E88BF3A60DEF8D5
:101FB0000420D2F808A0DA60C3F810A0CAF804C060
:101FC000C2F808C054F82120C3F818E0013244F8E0
:101FD0002120FFF741FBD9F800301B68002B49D0C6
:101FE000D9F80030DB68DB689A6803F1080C954289
:101FF00003F11C0EAFD2C8F8002042E76B681B6BE0
:1020000003EB830354F82330012B24D94FF05042C3
:102010002A4B14681B68002B3FF45BAF0126002C91
:102020007FF449AF002E34D1244B01245B68002B90
:102030007FF458AF67E71B68DFF88480DB681B68B4
:10204000C8F8003018E74FF050431C680026002CF9
:102050007FF431AFE6E74FF05041184B0C681A6837
:1020600082B95B68002B7FF434AF00244BE7134B3D
:10207000F7E70B4C4FF0FF33C8F8003001E70F4A89
:102080005360F2E70026002C7FF415AFCAE7012465
:1020900028E7344626E700BF5C0B02202C0C022008
:1020A000B408002098080020E00B0220A4080020BB
:1020B000AC080020D40B0220640B0220380C022054
:1020C000D00B02204FF050432DE9F04F1B6804461F
:1020D000DFF8188283B0D8E8CF2F0121002A01D180
:1020E000C8E8421FBFF35F8F002A4DD17A4A5900DA
:1020F00001237A4F11447B704B704FF05043DFF84F
:10210000F0911968D9E8CF3F0120002B01D1C9E82F
:10211000430FBFF35F8F7BB112F81130002B40F0FB
:10212000BA80D9E8CF0F01230028FAD1C9E8403F8F
:102130000028F6D1BFF35F8F01233B7002F8113006
:10214000674B1B68002B33D001204FF0504365498B
:1021500041F8240019683B78013BDBB23B701BB9A6
:1021600002F81130C9E88F3F4FF050417B78096881
:10217000013BDBB27B7023B902EB41025370C8E82C
:102180008F3F03B0BDE8F08F534A590002EB430381
:102190005B78002B40F08480D8E8CF0F0123002823
:1021A000FAD1C8E8403F0028F6D1BFF35F8F9FE720
:1021B0004C494D4DDFF83CA141F82430DAF800607D
:1021C00055F82430DFF830B1996955F824301B6B8D
:1021D00003EB83030BEB8303994267D04FF0010CB1
:1021E00006EB86000BEB80006146964608300CFA41
:1021F00004FC09E021B1DAF80030013BCAF80030F4
:102200001438002E42D0013E50F8083C002BF1D08B
:10221000436883425ED0019606E055F824108A4256
:1022200025D05B6883422CD0DA68916B4E1CF4D1C8
:1022300056681CEA060FF4D0734696461A4655F8BF
:102240002430996355F82400CEF8384045F824E04E
:1022500038B1066B836906EB860C0BEB8C0B5B4588
:102260004CD04FF05043196855F8213073E751684E
:102270001CEA010FD5D0734696461A46CEF8384070
:10228000EFE7019E00211438002EBCD14FF05043DF
:1022900072461968E8E73B780133DBB23B704FE7E1
:1022A0000E4F7B780133DBB27B7026E755F82400B4
:1022B00001920830FEF746FD55F8243055F82410F9
:1022C000186B083100EB80000BEB8000FEF714FD6B
:1022D000019A83E7002193E7400B0220440B022080
:1022E0005C0B0220380C0220980800201B080020FC
:1022F0001A080020640B0220B4080020D0F83CC06B
:1023000043681CF0010F23FA04F018BF06F1FF36F2
:10231000C00704D555F82400406823EA00039C0751
:1023200003F003004AD568686C68006BE46BE4074F
:1023300000D50138B04203F0010307DA6C68A46BE2
:10234000002C03DB6C68A46B012C2EDD002B88D0E5
:102350002B6828681B6BC06BC00748BF03F1FF33B5
:10236000B34207DA2B689B6B002B03DB2B689B6B5C
:10237000012B2CDD01313FF474AF01244FF05046A6
:102380003168A1421DD055F824309B6B02333FF4D5
:102390006BAF20460192FEF721FB6FF0010155F86B
:1023A0002430019A996331685EE70B4C6468002C15
:1023B000CCD1002BE1D006460121C9E70028C7D1C6
:1023C0004FE70123044941F8243031684CE7024BC0
:1023D0001C68002CD2D0CDE7380C022070B50C461A
:1023E0000546FEF731FB4FF05042084B126853F898
:1023F0002260FEF735FB284606F11C01FEF78AFC39
:102400002046BDE870400121FFF776BC9808002007
:102410002DE9F8434FF050460F4604469046234DB1
:10242000FEF712FB336847F0004755F82390FEF79C
:1024300017FBC9F81C706768FEF706FB336855F890
:102440002390FEF70DFBC9F82070FEF7FDFA336804
:1024500055F82390FEF704FBBB68C9F82430FEF75B
:10246000F3FA336855F82390FEF7FAFABA6809F1DF
:102470001C035360FEF7E8FA336855F82390FEF723
:10248000EFFA09F11C03BB60FEF7DEFA336855F87A
:102490002350FEF7E5FA236840460133EC62012140
:1024A0002360BDE8F843FFF727BC00BF9808002071
:1024B0002DE9F0474FF05046044617468946D0F8BC
:1024C0000480214DFEF7C0FA336855F823A0FEF7CB
:1024D000C7FACAF82080FEF7B7FA336855F823A088
:1024E000FEF7BEFAD8F80830CAF82430FEF7ACFA86
:1024F000336855F823A0FEF7B3FAD8F808200AF19C
:102500001C035360FEF7A0FA336855F823A0FEF7CA
:10251000A7FA0AF11C03C8F80830FEF795FA3368E9
:1025200055F82350FEF79CFA2368002F03F10103AE
:10253000EC62394608BF4846236018BF4FF0FF30B1
:10254000BDE8F047FFF7D8BB9808002070B500251C
:10255000C368D868C36AD0E90842A26054605C6866
:1025600000F11C018C42244C08BF5A601A68246890
:10257000013AC5621A60002C32D1D0E90312836996
:102580008A605160596800F10805A94208BF5A6085
:102590001A681A49013A1A60036B0A689342184A8A
:1025A00088BF0B6003EB83034FEA830C02EB8303CA
:1025B0005C6852F80C10A6680131C4600661756051
:1025C000A560836142F80C10FFF746F84FF05042C7
:1025D0000C4B126853F82200003818BF012070BD60
:1025E000094B5C68A268C0E9084251601A68A160A2
:1025F0000132C3621A60E7E75C0B0220640B022021
:10260000B4080020380C0220E40B0220034A044BDB
:1026100012681B68C0E90023704700BFD40B02207A
:102620002C0C02204FF050420121024B126843F85B
:1026300022107047380C022010B5FEF705FA4FF053
:102640005042044B126853F82240FEF709FA204624
:1026500010BD00BF980800202DE9F041044688B362
:102660004FF05046076B374DFEF7EEF9336855F8DB
:102670002380FEF7F5F9D8F830309F4224D2E36981
:10268000002B0ADBFEF7E0F9336855F82360FEF70C
:10269000E7F9336BC3F12003E361236B2A4EA26990
:1026A00003EB830306EB83039A421CD0FEF7CCF9BD
:1026B0004FF050431B6855F82350FEF7D1F92B6BB0
:1026C00023630120BDE8F081A46DFEF7BDF93368F6
:1026D00055F82350FEF7C4F9286B84422CBF002024
:1026E0000120BDE8F08104F108073846FEF72AFB17
:1026F000FEF7AAF94FF050431B6855F82350FEF738
:10270000AFF9124A2B6B116823638B4288BF1360A9
:1027100003EB8303980006EB8303596832588D68F6
:10272000E16025616F608F60A361A36B0132002BB4
:10273000325002DBA36B012BC3DD2046FEF78CFF7A
:10274000BFE700BF98080020B4080020640B0220F7
:1027500058B1C36D016B826D013B914270B5044667
:10276000C36500D01BB1002070BD0020704700F190
:1027700008052846FEF7E6FAA36D204AC3F12001BA
:10278000E161116823638B4288BF13601C4A03EB2D
:1027900083034FEA830C02EB8303586852F80C1052
:1027A0008668E060266175608560A361A36B013176
:1027B000002B42F80C1002DBA36B012B01DD012082
:1027C00070BD4FF05043A26B1B689A4210D0A36BB0
:1027D0000C4D55F823309B6B0233F0D0A06BFEF705
:1027E000FDF86FF00102A36B55F823309A63E6E71A
:1027F0000121A26B044B43F82210E0E7640B022096
:10280000B408002098080020380C022060B1826DC6
:10281000F8B5914238BF1146036B04468B4202D093
:10282000C26D012A01D0F8BD7047C269254D002A4A
:1028300003EB83038269016305EB8303A4BFC1F14A
:102840002001C1619A42EED100F108063046FEF740
:1028500079FA1D4A236B11688B4288BF136003EB22
:102860008303980005EB830359682A588F68E16059
:1028700027617E608E60A361A36B0132002B2A501A
:10288000D1DBA36B012BCEDC4FF05043A26B1B6856
:102890009A4210D0A36B0D4D55F823309B6B023339
:1028A000C1D0A06BFEF79AF86FF00102A36B55F848
:1028B00023309A63F8BD0121A26B054B43F8221027
:1028C000F8BD00BFB4080020640B02209808002067
:1028D000380C02204FF05043054A1B6852F8232061
:1028E00022B10121034A42F823107047FDF708BFC7
:1028F000480B0220380C022038B5FEF7A5F83E4BF5
:102900001B6893B14FF050433C4A1B6852F82310A8
:10291000A1B14FF0504052F82310013142F823107A
:10292000036852F82330012B00D038BD344B1B68AC
:10293000002BFAD1BDE83840FEF7D6BF3149D1E8C7
:10294000CF0F0124002801D1C1E8404FBFF35F8FB2
:10295000002831D12C484FEA430C01232B498444F1
:102960004B708CF801304FF0504C294BDCF8004094
:10297000D3E8CF5F5FF0010E002D01D1C3E845EF32
:10298000BFF35F8F85B110F81450002D27D1D3E825
:10299000CFCF0125BCF1000FF9D1C3E84C5FBCF1EA
:1029A000000FF4D1BFF35F8F01234FF050450B7040
:1029B00000F814302B68ACE713484FEA430C00EBE7
:1029C00043035B7893B9D1E8CF4F0123002CFAD1B0
:1029D000C1E8443F002CF6D1BFF35F8FBDE70B7811
:1029E0000133DBB20B70DCF8003092E707494B781B
:1029F0000133DBB24B70B6E7F80B0220480B022024
:102A00005C0B02201B080020400B0220440B02201C
:102A10001A0800202DE9F0410546FFF76DFF2E4A08
:102A20002E4F1368013313603B6863B32C4E2D4B5C
:102A300005F108041A6801322A651A602A4A2B6BCC
:102A400011688B4288BF136003EB8303980006EB89
:102A5000830359683258D1F808C0D7F800E0013232
:102A6000E960C5F810C0CCF804408C60AB6132500E
:102A7000BEF1000F2CD13B681BB1BDE8F041FEF761
:102A800051BEBDE8F0811368154E012BCFD13446FD
:102A900006F5207820461434FEF71EF94445F9D196
:102AA000DFF86080114C4046FEF716F92046FEF72D
:102AB00013F90F48FEF710F90E48FEF70DF90E480E
:102AC000FEF70AF90D4BC3F800800D4B1C60AEE712
:102AD0002846FEF7C1FDCEE7540B0220F80B02207A
:102AE000B4080020600B0220640B0220A40B02201B
:102AF000E40B0220180C0220040C0220A408002081
:102B0000AC080020900B022010B582B0049C009409
:102B1000059C0194FEF74CFE38B14FF0FF32426045
:102B2000FFF778FF012002B010BD4FF0FF3002B078
:102B300010BD00BF10B582B0049C0094069C0194A7
:102B4000FEF736FE30B1059A4260FFF763FF0120C1
:102B500002B010BD4FF0FF3002B010BD0023F0B541
:102B60003024264A264D87B0CDE9015225484FF43E
:102B7000007202A90093ADF80C40FEF719FE20B1D7
:102B80004FF0FF324260FFF745FF312300242A68EF
:102B90001D4E8DF80C301D4B94631D48019300941D
:102BA0002346326002A94FF40072FEF701FE88B19D
:102BB0004FF0FF374760FFF72DFF01226B689A63E4
:102BC000736000F07DFC012805460BD0114B1B689B
:102BD00007B0F0BD01226B689A6373600D4B1B68F0
:102BE00007B0F0BDFDF730FF0B4B0C4A1F600C4BDC
:102BF00015601C60FDF7E2FDE8E700BF49444C4565
:102C0000C00B0220DD1C001098080020C40B02201D
:102C1000391600109C050020D00B0220F80B022072
:102C20002C0C02202DE9F047FFF766FE4FF05040D4
:102C3000574A584913680568013B13604B78006890
:102C4000013BDBB24B7033B9534901EB40014B7090
:102C50005249C1E88F3FD2F800C0BCF1000F6ED1DD
:102C60004F4B1C68002C62D04E4F3B68002B48D065
:102C7000DFF848E14C4EFB68DB68DA6AD3E90810FC
:102C800088604160516803F11C04A142116808BFCB
:102C900050600139C3F82CC011609969D8681A696D
:102CA0004C688260506003F10800844208BF4A60AB
:102CB0000C681A6BDEF80080013C424502EB820A88
:102CC0000C603ED906EB8A046168CEF80020D1F88A
:102CD000088056F82A20D960C3F81080C8F804008C
:102CE00088609C613B68013246F82A20002BC2D1E3
:102CF0002E4B1A681268002A43D14FF0FF322C4B3A
:102D00001A60DFF8BC80D8F80040002C32D00127D0
:102D1000284EFFF7A3F808B146F82570013CF8D11A
:102D2000C8F8004056F82540003C18BF0124224B4B
:102D30001B680BB1FEF7F6FC2046BDE8F0870024C7
:102D4000F5E706EB8A04616856F82A20D1F8088076
:102D5000D960C3F81080C8F8040088609C613B68A3
:102D6000013246F82A20002B85D1104B1A681268D0
:102D70003AB9C2E70F4E56F82540003C18BF01246F
:102D8000D5E71A680A4BD26812681A60B9E700BF23
:102D90005C0B0220440B0220400B02201B08002089
:102DA000540B0220E40B0220B4080020A4080020E9
:102DB000D00B0220380C0220F80B0220640B0220FA
:102DC000E00B0220024B186800B97047FFF72ABFDA
:102DD000F80B022020B582B038B1154D2B68DBB955
:102DE0000021FEF789FF2B688BB94FF05043114A41
:102DF0001B6852F823202AB101210F4A42F8231000
:102E000002B020BD02B0BDE82040FDF779BCFFF75D
:102E100009FF0028E9D0F3E70190FEF715FE002135
:102E20000198FEF769FF2B68002BDED0EFE700BFAB
:102E3000F80B0220480B0220380C0220F8B5D0E92C
:102E400001520027036941F0004101605968C468DC
:102E50008142AA60556008BF5A601A68D4E90361CC
:102E6000013A07611A60A36904F108055A68B16064
:102E7000AA421A684E6008BF59601249013A1A60A6
:102E8000236B0A689342104A88BF0B6003EB8303ED
:102E9000980002EB830359688E68E16026617560D3
:102EA0008D601158A36101311150FFF725FD2046B7
:102EB000FEF7D2FB054B1B681BB1BDE8F840FEF7DF
:102EC00031BCF8BD640B0220B4080020F80B0220CE
:102ED0002DE9F84F04464FF05047DFF894800D4637
:102EE000204EFFF709FDD8F800A0D4F80490FDF7B4
:102EF000ABFD3B6856F823B0FDF7B2FD9BF8793087
:102F000023BB2B685A1C1FD0174A216810688142C6
:102F10000DD0616851450AD800232B600124134B62
:102F20001B680BB1FEF7FEFB2046BDE8F88FAAEB4D
:102F300009018B42F0D91168A3EB0A03D8F80020ED
:102F40004B442B60C4E900120024E8E7FDF77CFD48
:102F50003B6856F82340FDF783FD002384F8793061
:102F6000DCE700BF98080020D40B0220F80B0220F9
:102F70002C0C02201F4B186800B9704770B5FDF784
:102F800063FD4FF050421C4C136854F8231029B1D4
:102F900054F82320013244F8232070BD1749D1E8AA
:102FA000CF5F0126002D01D1C1E8456FBFF35F8FD0
:102FB0004DB9134D012213490A7005F813204FF043
:102FC00050431B68E4E70E4D15F813605EB9D1E875
:102FD000CF6F0122002EFAD1C1E8462F002EF6D184
:102FE000BFF35F8FE6E707490B780133DBB20B7065
:102FF0001368CDE7F80B0220480B02201A080020C6
:10300000400B0220440B02201E4B1B68002B34D0C7
:103010004FF050411C4B0A6853F8220000282CD076
:1030200053F82200013843F822000A6853F822308E
:103030001BBB10B51549164B53F822400B78013BCA
:10304000DBB20B702BB9134800F81230124AC2E8F9
:103050008F3F4FF050424B781068013BDBB24B7012
:1030600033B90C4A0D4902EB40025370C1E88F3F5F
:103070000020FDF7F5FC0CB910BD7047BDE810400D
:10308000FDF73EBBF80B0220480B0220440B022048
:10309000380C0220400B02201A0800201B080020D8
:1030A000134B1B6803B970474FF05041114B0A682E
:1030B00010B453F82240C4B153F82240013C43F805
:1030C00022400A6853F822307BB90B490B78013B48
:1030D000DBB20B702BB9094C094904F81230C1E876
:1030E0008F3F5DF8044BFDF7BBBC5DF8044B7047A8
:1030F000F80B0220480B0220440B0220400B022058
:103100001A080020F8B54FF05046FDF79DFC0D4D14
:10311000336855F82340FDF7A3FCE769FDF794FCFD
:10312000336855F82340FDF79BFC246BFDF78CFCBE
:103130003368C4F1200455F82350FDF791FC38465C
:10314000EC61F8BD9808002010B5FDF77DFC4FF04C
:103150005042064B126853F82240FDF781FC14B12F
:10316000E36D0133E365204610BD00BF98080020E1
:103170002DE9F04FB74FDFF8E4B2DFF8E482B64D47
:1031800087B03B681C68002C00F01D81DB681C6860
:10319000FEF750FEFEF756FEDBF800308146834214
:1031A00045D88442CBF8000040F23E8100222868D6
:1031B000A4EB0901FEF718FAFFF704FE002800F05F
:1031C00025810023CDE90233CDE9043300222868AC
:1031D00002A9FEF755F80028D3D0029B002BC0F2BD
:1031E000E980DDF810A0DAF814301BB10AF1040010
:1031F000FDF7A8FDFEF726FEDBF8003001909842AF
:1032000043D3DDE90123013BCBF80020082BDDD8B7
:10321000DFE803F06161C0A5C76161C0A50022F0CD
:1032200001028AF828205046DAF8203098473B6897
:103230001A68002A00F0DA80DA68D2F80CA0146864
:103240000AF104063046FDF77DFD9AF82820510763
:10325000E5D503E05046DAF820209047DAF8182048
:10326000CAF810A0A118A418CAF80410F2D3314665
:10327000D8F80000FDF74EFDD5E721F0010189F8EF
:1032800028104846D9F8203098473B68196800292B
:1032900000F0B680D968D1F80C900C6809F10406EA
:1032A0003046FDF74FFD99F828104807E5D503E0B3
:1032B0004846D9F820108847D9F81810C9F8109056
:1032C00060186418C9F80400F2D33146D8F8000039
:1032D000FDF720FDD5E79AF828000399DAF81840A1
:1032E000019A0B1940F001068AF828602CBF0126CC
:1032F00000269342CAF80430CAF810A000F2898070
:10330000511A8C423FD8410712D420F001008AF8AC
:1033100028005046DAF82030984757E7A142C0F01D
:10332000C780DAF82030504698473346DAF818401C
:10333000019A1E192CBF01200020B242A2EB03010A
:10334000CAF80460CAF810A0E8D29A4201D2002854
:10335000E7D038680AF10401FDF7DCFCD9E70399EE
:10336000019A9AF82830881843F0010390428AF8AD
:103370002830CAF81810CAF80400CAF810A04DD8AE
:1033800000293FF423AFD8F800000AF10401FDF74B
:10339000C1FC1BE79AF8283023F001038AF8283093
:1033A00014E79AF828309A0778D523F001038AF8B1
:1033B00028300BE7039BDDE904019847029B002BB3
:1033C000FFF604AF0DE7FEF735FDFEF73BFDDBF83A
:1033D0000030814683423FF62AAFD8F80030CBF860
:1033E00000901A68B2FA82F25209E0E6D8F800209A
:1033F000CBF800903A60C8F80030FFF7E3FCE0E655
:10340000D8F80010C8F800303960FAE6FFF762FA21
:10341000D7E6914202D9002E3FF475AF38680AF121
:103420000401FDF777FCD1E6FFF7CCFC3B68DB68D5
:10343000DE68331D18460193FDF784FC96F82820BA
:10344000530715D422F0010286F828203046336A4B
:103450009847B6E6A0080020300C0220C80B0220D6
:10346000B008002081421DD83046316A8847544652
:10347000B169A9EB040014EB010A2CBF012300235E
:10348000CA45C6F804A03661ECD94C4501D9002BD9
:10349000EAD001993868FDF73DFCD7E75046FDF7C3
:1034A00009F893E60199D8F80000FDF733FCCDE761
:1034B000D8F800000AF10401FDF72CFC29E700BF51
:1034C000F0B5194C85B0FFF717FA25689DB1FFF7E5
:1034D0009BFD206868B14FF0FF351F24134900237E
:1034E00002914FF48062CDE9004511491148FFF780
:1034F00021FB05B0F0BD104F104E3846FDF7ECFB38
:103500003046FDF7E9FB0E4B2A461F600D4B10219C
:103510000A201E60FDF75EFD20600028D7D00A4912
:10352000FDF7CAFFD3E700BF300C0220340C0220A5
:103530009850001071310010680B02207C0B0220A3
:10354000A0080020B0080020905000109C46F0B564
:1035500007460E4615466FF00104074B85B06946D5
:10356000624618680023CDE9017603950094FDF7C3
:103570003BFE05B0F0BD00BF300C022000EB400C5C
:103580004FEA8C0C0CF1804C0CF5803CF0B51646E3
:10359000DCF80420051FB2F5803F38BF4FF48032BD
:1035A000EDB238BFCCF80420012D2AD94FF40067C2
:1035B000254C0CF54052176054F82020B2B9DCF8C5
:1035C0000020012D82EA461202F0E0020CF580563E
:1035D00032602AD94FF4006144F820304FF4803330
:1035E0000CF500521160CCF80430F0BD6769B7FBF0
:1035F000F2FE0EF1010E0EEB4E0EBEF1030EFCD2EA
:10360000DDE70129D2D103240CF540521460DCF827
:103610000820D207FBD5DCF800200B4C82EA4612CA
:1036200002F0E0020CF5805632600122DCF8005016
:103630004D4005F00305356002FA01F1DCF8082081
:103640000A42FBD0C6E700BF3C080020014B53F8FC
:10365000200070473C080020EFF3108072B6064B44
:10366000D3E8CF1F01220029FAD1C3E8412F002956
:10367000F6D1BFF35F8F7047170800200023034A7D
:10368000C2E88F3F80F31088704700BF1708002002
:1036900070B58646EFF3108572B6124CD4E8CF6F42
:1036A0000120002EFAD1C4E8460F002EF6D1BFF358
:1036B0005F8F4FF0010CC80801F007030CFA03F309
:1036C0001EF800C01CEA030608D14CEA030C0EF8F1
:1036D00000C0C4E88F6F85F3108870BD1046FCF7FA
:1036E00043FE00BF17080020044A1078431CDBB2D9
:1036F000182B28BF10231370704700BFA0050020AF
:103700000146024A0248FFF7C3BF00BFA0500010A5
:10371000340800204FF0E022936843F00053936098
:10372000704700BF0021044B03F12002C3E88F1F44
:1037300001339342FAD170470C08002010B44FF4C3
:1037400080740C4B53F8202003EB8003C00082F000
:10375000400200F1804003F5805C02F0C00200F5F9
:10376000203003F54053CCF8002041601C605DF828
:10377000044B70470480034030B44FF0000343EC27
:10378000440043EC400005254FF480740B4BC2000D
:1037900053F8201003EB800081F0400102F18043D8
:1037A00003F5203301F0C00200F5805100F54050D0
:1037B0000A605D60046030BC704700BF0480034055
:1037C0004FF0E0234FF08032C3F80024C3F8042404
:1037D000C3F80824C3F80C24C3F81024C3F8142435
:1037E000C3F81824C3F81C24C3F82024C3F82424E5
:1037F000C3F82824C3F82C24C3F83024704700BF32
:10380000012300F01F029340400941B1800000F104
:10381000604000F56140C0F8803103607047024AA3
:10382000203042F82030704700E100E00123064AD2
:10383000410952F8212000F01F008340134214BFB9
:1038400001200020704700BF00E100E0F8B50D4600
:10385000EFF3108772B6124ED6E8CF2F0123002A5D
:10386000FAD1C6E8423F002AF6D1BFF35F8F0D4B75
:1038700000F110049B680C4A53F82430934203D0A3
:10388000994201D000F03CFF064B9B6843F824505E
:10389000BFF35F8F0023C6E88F3F87F31088F8BD22
:1038A0001508002000ED00E01D0100102DE9F04F8B
:1038B00083B0EFF3108A72B6744ED6E8CF2F01238F
:1038C000002AFAD1C6E8423F002AF6D1BFF35F8F43
:1038D0006F4B00F110089B686E4A53F828509542D0
:1038E0003FD08D420C464AD06B4FEB1B2F2B38D864
:1038F00001214FEA50194FEA890909F1604909F598
:10390000614900F01F0301FA03F0D9F80030C9F84B
:10391000800000EA030BBFF35F8FEFF30581C9B2AC
:1039200079B3884577D125F0010EDEF808C06445EB
:1039300005D17CE0D3F808C0644532D09E469EF99C
:10394000062002EB4203002A07EB8303F2DA644508
:1039500000F08180BBF1000F20D0C9F88001C9F8C8
:1039600000004B4B9B6843F82850BFF35F8F002348
:10397000C6E88F3F8AF3108803B0BDE8F08F154684
:10398000EFE725F0010EDEF808C06445D7D19EF9B7
:1039900006407346002C08DA154666E0C9F8800038
:1039A000DFE793F90640002C56DB04EB440C07EBF1
:1039B0008C0CDCF8082061009A609CF80720DA7112
:1039C0009CF90620002A9A715DDBBCF804205205A0
:1039D00004D502F5FF1202F5FF521F32521502F113
:1039E000020C4FF0040E0C2212FB04E202EB4C021C
:1039F0006FF0070C3A44ACEB030C6244C2F34A028A
:103A000042F460429A80254B21441A7807EB8101E9
:103A10001C708A719EE7CDE9000100F071FEDDE9BE
:103A2000000125F0010EDEF808C0644587D19EF93B
:103A300006407346002CB8DA194A1A4CD21A083AD2
:103A4000C2F30A316FEA01516FEA115144EA52029E
:103A5000DA8099807EE773460029EDD1FF228EF847
:103A600006204BF60152AEF804200C4C4AF6AA226E
:103A700094F800C01946C91B49414A43120D83F806
:103A800006C0227066E74BF60152BBE7150800201E
:103A900000ED00E01D010010A4050020400C0220F4
:103AA000DE05002000F8FFFF4FF0FF0C20F00303BD
:103AB00003F1604303F5644300F003001A68C0009B
:103AC0000CFA00FC22EA0C0281400A431A6070479B
:103AD000F0B5EFF30585EDB2EFF3108C72B6264921
:103AE000D1E8CF2F0123002AFAD1C1E8423F002AB2
:103AF000F6D1BFF35F8F214E40F0010EB4684AF655
:103B0000AA2354F825701E4A0446A41A644163434C
:103B10001B0D77455BB21BD092F906409C421CD02E
:103B200092F912409C4223D092F91E409C4221D02F
:103B300092F92A409C4208BF03240FD0114A002466
:103B4000157813708571C1E88F4F8CF31088F0BD24
:103B5000B2680D4C42F82540F0E7002404EB440421
:103B600002EB8402FF2494714BF601549480E5E744
:103B70000124F3E70224F1E71508002000ED00E03E
:103B8000A4050020400C02201D010010014B0B4435
:103B9000036070470C0800202DE9F041154D164ECA
:103BA000B54224D22C4623684FF0FF374FF000086F
:103BB0008BB1FFF799FD01462846FFF7E7FF6760E5
:103BC00084F80880BFF35F8F0C34B4420FD22368AF
:103BD0002546002BEDD1FFF787FD01462846FFF76C
:103BE000D5FF6760BFF35F8F0834B442EFD3BDE801
:103BF000F08100BF1C0600202C0600200000000001
:103C00002DE9F04F2DED028B85B0EFF30583DBB28C
:103C1000103B9A0818BF01224FF0010103F0030086
:103C200008BFAB4DAB4B18BFAB4D00EB820253F856
:103C3000226001FA00FB05F541539FEDA38B019033
:103C4000C3F804B02AE0B388190440F18D80B37939
:103C5000002B40F0D780B6F90820002AC0F2168168
:103C6000736902EB420203EBC203D3E90247B7F1E7
:103C7000FF3F08BFB4F1FF3F09D0019B05EB830173
:103C8000AB6A0A69D21AE31A934238BF0C6128461C
:103C900000F0D2FAA042B941C0F2F880B6F908307B
:103CA000C5F83CB0002B0093CDDBD6F8149003EBA5
:103CB000430A284609EBCA07D7E9024800F0BCFAD4
:103CC000A04271EB0801BEDBB8F1000FC0F2C0806A
:103CD0003A69824B9A4200F0EA807988B6F9080086
:103CE00089B241EA00407969904703460A4653EA9F
:103CF000020100F0AD80002A80F2CE80E31A68EB6A
:103D0000020839F93A20C7E90238002A9BDB7069BA
:103D100002EB420100EBC101D1E902C7634578EB38
:103D2000070E4FEA42018EDBB6462EF8082F0BE055
:103D300030F93120A646002A0DDB02EB420400EBED
:103D4000C4045100D4E902C76345114478EB070766
:103D500000EBC104ECDA009B29F83A20AEF8003001
:103D6000B38819043FF573AF3369EFF3108272B66D
:103D7000D3E8CF0F01210028FAD1C3E8401F002863
:103D8000F6D1BFF35F8F4FF6FF74B088002331691F
:103D900000B2B480C1E88F3F82F310889842FFF6EA
:103DA00056AF0746A946746906F1080807EB470EA7
:103DB00004EBCE03D3E90205B6F90830C446002B64
:103DC00013DBB246009704E034F936309446002BFA
:103DD00009DB03EB430604EBC602D2E90271B842E9
:103DE00075EB0101F0DA5646009FACF8007034F92B
:103DF0003E7024F83E30002FD8DAB3794D46002BC0
:103E00003FF429AF0023B371B6F9083006F1080E6C
:103E10005A1C3BD01A46746903E08646591C3FF48D
:103E20001CAF03EB430104EBC10047889C463F04F1
:103E300034F93130F1D5944580ED028BEED0AEF8F7
:103E40000030328924F831206246A6F808C0E5E740
:103E500039F83A2032813269EFF3108172B6D2E834
:103E6000CF7F0120002FFAD1C2E8470F002FF6D1F3
:103E7000BFF35F8F7288009B29F83A207380326904
:103E80000023C2E88F3F81F31088DCE640BF05B015
:103E9000BDEC028BBDE8F08F2846CDE9023200F080
:103EA000CBF9029B039AC31842EB010829E7796911
:103EB00008460A69029190470028C9D00299D1E9C1
:103EC000003214E7AFF30080FFFFFFFFFFFFFFFFAB
:103ED00000000B407808002000800B40013C0010DF
:103EE0000B4808B50368EFF3108172B6D3E8CFCF63
:103EF0000122BCF1000FF9D1C3E84C2FBCF1000F37
:103F0000F4D1BFF35F8FFCF7A1FC0020002108BDB6
:103F1000340B00202DE9F84F364C25692DB1BDE852
:103F2000F84F0A213448FFF731BEDFF8E48003215F
:103F3000404600F06FF90326C4F80C80FFF7D4FB6D
:103F40004FF0504C2D4B267003442361DCF80030B9
:103F50000F216370636961801D834FF00405A3F82E
:103F600078504FF00505A3F890504FF00605A3F8E0
:103F7000A8504FF007050E2108274FF6FF724FF0AB
:103F80000A0EA3F8C0504FF001094FF00C0C4FF08F
:103F9000020B4FF0090A0D204FF00B05A3F8681132
:103FA0001749A280A3F808E1A160A3F848B0A3F8DC
:103FB000F0A0A3F82051A3F838C1A3F85001A3F84A
:103FC0003090A3F86060A3F8D8701A800D4B30468B
:103FD000C8F820700C49DC60FFF738FC49463046D1
:103FE000FFF70EFC094B0A211F640348BDE8F84F98
:103FF000FFF7CCBDEC050020340B00200C0800209E
:10400000FFFF100078080020013C001000200B404A
:1040100000000B400146F0B50069EFF3108772B65F
:10402000D0E8CF5F0124002DFAD1C0E8454F002D24
:10403000F6D1BFF35F8FB1F902E04C690EEB4E0C85
:10404000BEF1000F4FEACC0504EBCC0C3DDB605B0E
:10405000002648800869C0E88F6F87F31088BCF895
:104060000200CCE902230130C0F30E00012838BF62
:104070000120059BACF80200CCF81030069B40EA0A
:104080000E40CCF814300B69EFF3108272B6D3E80F
:10409000CFCF0127BCF1000FF9D1C3E84C7FBCF1B1
:1040A000000FF4D1BFF35F8F8B886353A1F804E056
:1040B0000B69C3E88F6F82F310880122CB680978FF
:1040C00003F501538A405A60F0BD00230A69C2E833
:1040D0008F3F87F310884FF0FF30F0BD03464089D3
:1040E000B0EB214F37DD58690A1402EB420210B5DC
:1040F00000EBC2001C69EFF3108C72B6D4E8CFEF6E
:104100000122BEF1000FF9D1C4E84E2FBEF1000F1D
:10411000F4D1BFF35F8F428889B292B28A4207D04E
:1041200000221B69C3E88F2F8CF31088002010BD7C
:1041300042F4004242800121002218699971C0E8CE
:104140008F2F8CF310881C78DA68084602F501532B
:10415000A140596010BD0020704700BFF0B5064671
:104160000D4683B0EFF30584E4B2002C35D1264F21
:104170003A78F96804328B6A51F82220D21AC31AAD
:10418000934207D320BF214B586A85421FD9002094
:1041900003B0F0BD00F058F8864265EB010100293C
:1041A00011DB1B4B3846CDE9003432462B46FFF776
:1041B00031FF011E07DD154B5A6A95421DD920BFFC
:1041C0001148FFF78BFF114B586A8542DFD89B6A75
:1041D0009E420DD8012003B0F0BD0C4B586A8842B6
:1041E000D5D39B6AB342F5D2401A18BF0120CFE75E
:1041F000281A18BF012003B0F0BD9B6A9E42DFD988
:104200009542DDD1DBE700BFEC05002000000B404C
:10421000E13E001010B4054B054C064AA04214BF05
:104220001846581C5DF8044BFFF732BA38080020D6
:1042300000800B40C05000100346416A0A46986A4D
:10424000596A8A42FAD17047034B596A0A46986AFA
:10425000596A9142FAD1704700000B4030B4154AB8
:10426000536A9C46946A536A6345FAD102195941CC
:104270004FF0000528BF01250E4B5B6AB5B15A1CF3
:1042800008BF1A4608D04FF0FF310A460948436A72
:104290008B42FCD38B4207D1064902E0486A984220
:1042A00002D1886A9042F9D330BC70479942EDD868
:1042B000F0E700BF00000B4070B4039D04682D03BD
:1042C00045EA03451B4B002CB3FBF1F3B2FBF3F6BD
:1042D0001FDB194A194B90420CBF4FF400424FF4B8
:1042E0008042174C1A6003F580531A60A36832EAC3
:1042F0000303FBD1212200F54053043301608660A3
:104300001A600268002AFCDA0822C5601A6070BCD4
:104310007047036803F03F038B42DAD18368C3F32D
:104320000B03B342D5D1C36803F4EE23AB42D0D123
:10433000EDE700BF001BB7000080054000200240F1
:1043400000000240012300EB4000800000F18040AB
:1043500000F5841041600360704700BF0023DB8AD2
:10436000002242E800F2520201D410211847042131
:10437000184700BF034AD2F82838002BFBD0BFF300
:104380005F8F704700000E400021044B044ABFF3CA
:104390005F8F43F8041B9342F9D170470C080E401D
:1043A0002C080E4010B42F204FF42A64054A064B07
:1043B00006491460D06019605368002BFCDA5DF880
:1043C000044B70470080044000A0044000B0FA0095
:1043D000F8B504460D46EFF3108772B60C4B9B6898
:1043E00053F82060B14204D00A4B9E420BD200F039
:1043F00087F9074B9B6843F82450BFF35F8F87F31F
:1044000010883046F8BD044B9E42F2D3EFE700BF60
:1044100000ED00E0100100101C01001003BD00BF02
:1044200010B5044600F082F92346BDE81040184755
:10443000F0B5054687B0192017460E46FFF7F6F986
:10444000002104461920FFF7DBF90021CDE90465BE
:1044500003970026002701224FF050438C46CDE9F8
:1044600000670292B9B11A6D9507FCD5596540BF36
:104470001A6DD00703D420BF1A6DD207FBD59A6DF1
:104480008A420DD04FF0000C06AA02EB8C0252F8C3
:10449000181CE7E79A6D1A6DD607FBD440BFE2E718
:1044A0000CF1010CBCF1060FEED12146192007B02A
:1044B000BDE8F040FFF7A4B90C4B0D4A93420ED370
:1044C0009C4603F2F4710B4A9268CCF8F4070A4850
:1044D000CCF8F837CCF8FC070848FFF7A9BF4FF035
:1044E000FF3340F2F3719C46EDE700BF000808205F
:1044F0000000082000ED00E0214400101D440010E1
:1045000070B504460E46FFF7A7F8394B9D7893F92E
:10451000002005F00105D20F42EA4502224293F83D
:1045200000C04ED093F90110CCF38012C90F42EABB
:1045300041022242597833D0C1F38015CCF34012A6
:1045400042EA4502224242D0C1F34015CCF30012A8
:1045500042EA450222423DD0C1F30015CCF3C0022D
:1045600042EA450222422FD0C1F3C005CCF38002BB
:1045700042EA4502224230D0C1F38005CCF340022A
:1045800042EA450222422ED001F002020CF0010163
:104590000A4312EA040529D016B31648FBF7E4FED5
:1045A00040210625E60744BF4CEA010C83F800C011
:1045B000A20702D55A780A435A70FFF75FF82846D7
:1045C00070BD80210725EDE708210325EAE72021BA
:1045D0000525E7E710210425E4E704210225E1E7AA
:1045E0006FF00805E9E702210125DBE70121D9E7A2
:1045F00068080020E4500010F8B5054606200E4675
:10460000FFF724F8002842D0354A364895420CBFBF
:104610004FF000624FF08062334B344902601A6001
:104620008C6832EA0404FBD12D4B4FF48071EB1AF5
:10463000B3FA83F32E4A5B09062022F81310FFF722
:1046400005F8C300B3FBF6F30133DA0920D14026A5
:1046500001216962AA622F6BFB0722D42B4600223C
:1046600053F82C1F062003F5805422602F63FEF7B9
:10467000EDFFEB6A40F2013283F0700303F07E033A
:10468000236080000323B0FBF6F02A63AB64F8BD1F
:104690004FF6FE718A421BD922464FF6FF71154E26
:1046A000D7E740F2013205F540531A636B6AAC6AF2
:1046B000062004EB8314FEF7C9FF0F4BA402A3FBF3
:1046C0000023DB0A0021B4FBF3F0FFF7C7FDC5E7C9
:1046D000C3F34503114603EB82161A46B9E700BF40
:1046E00000800740002002400030024000000240ED
:1046F000380B0020C0FF3F00757B2B8F704700BF39
:1047000008B50148FBF730FEF850001038B5054CED
:10471000054DAC4204D254F8043B9847AC42FAD35E
:1047200038BD00BF085000104850001038B5054C87
:10473000054DAC4204D254F8043B9847AC42FAD33E
:1047400038BD00BF345000104850001010B4074866
:10475000074C084B084A094904601A608B6832EA22
:104760000303FBD15DF8044B704700BF00200240FB
:104770007F3BEFEF00300240F6FFF3030000024002
:10478000044BDB6CB3F5004F03D14FF48022024B96
:10479000DA64704700001150002011504FF0E02201
:1047A000044BD2F8881D0B43C2F8883D10EE30044C
:1047B000704700BF030330006FF06041044B054AAF
:1047C00019609368DB4333F06043FAD1704700BF50
:1047D000003002400000024010B545F25320FFF7C0
:1047E000BDFDBDE8104003460420184710B545F252
:1047F0005320FFF7B3FDBDE81040034601201847E2
:10480000FEF790BF10B5054B054C4FF48872184663
:10481000A16800F0F1FAA06010BD00BF0000002008
:1048200000ED00E00023F0B52B4C83B0C4F88430D9
:10483000FFF7B8FD0122294BDA63636C012BFCD131
:104840000321264A244B11639D6B012DFCD10523C6
:1048500002271E4600242946214A22480097FFF7D6
:104860002BFD29463346204A20480096FFF724FDB9
:104870003946224604201E4BFEF780FE294622467A
:1048800030461C4BFEF77AFE2246082021461A4B82
:10489000FEF774FE224609202146174BFEF76EFEF6
:1048A000224606202146134BFEF768FE114B224696
:1048B00007202146FEF762FE0420FEF7C7FE0F4BDD
:1048C000A3FB0035AD0CE0B229460134FFF73AFDF9
:1048D000062CF8D103B0F0BD0000014000300140CB
:1048E000002F685900000540008C86470080054075
:1048F000001BB70080D1F008006CDC0283DE1B4394
:1049000000B9704700F022B910B5094B84B01C689B
:104910004CB1034600914FF0FF3203A90548A04770
:10492000012004B010BD00F053F9204604B010BDC2
:10493000740800200149001000BEFDE708B5FFF72C
:10494000FBFF00BF38B5064D064CFFF7DFFEAC425B
:1049500004D254F8043B9847AC42FAD338BD00BFA8
:104960005050001048500010036808461146184780
:104970002DE9F04F437D82468846174681B0002BD3
:1049800047D0002A24DD002401252046DFF894903A
:104990004E1E04B3737806F1010B0A2B26D02B466A
:1049A0005E46BB4204F1010405F10105F1DB8742DB
:1049B00004DD391ADAF8003040449847B84418F852
:1049C000013CA3F10D03B3FA83F35B098AF81430B9
:1049D00001B0BDE8F08F737806F1010B0A2BDED130
:1049E0009AF8143063B15E462B46DAE733780D2B24
:1049F000F9D0A04204DA211ADAF80030404498478E
:104A00004846DAF80030022198475E4628462B4691
:104A1000C7E711464046DAF8003001B0BDE8F04F74
:104A2000184700BF985100102DE9F04782B00D469D
:104A3000924699460746FFF707FC4FF0FF366FF0A6
:104A400000442F4A821841F10003964274EB03019F
:104A50003CBF324623462B4800F0D2FA6B1C8046FE
:104A600003D1384600F092FA0546274B274E1C68C2
:104A7000274BB9F1000F18BF1E46B4B1BAF1000FB1
:104A80001AD1DFF8909001E0246974B12368002BFB
:104A9000FAD0D9F800300BB1A342F5D120462A460E
:104AA0003946B0472469002CF0D1B8F1000F1FD16E
:104AB000284602B0BDE8F0874FF00A0ADFF85490AC
:104AC00002E02469002CF0D02368002BF9D0D9F83B
:104AD00000300BB1A342F4D120462A463946B047F4
:104AE000204601220DF107018DF807A0B047E8E745
:104AF000044800F07DFA284602B0BDE8F08700BF08
:104B000040420F00240600206C0800206949001074
:104B10007149001070080020084A136823B90AE0A0
:104B200003F110021B6933B19842F9D129B9036925
:104B300013600161704701B1106070476C0800207C
:104B400008B500F02FF9012008BD00BFF0B583B013
:104B500006468DF80700FFF777FB4FF0FF356FF043
:104B60000044174A821841F10003954274EB030197
:104B70003CBF23462A46134800F042FA124B074630
:104B80001C689CB1114D01E024697CB12368002BA5
:104B9000FAD02B680BB1A342F6D1204601220DF1C9
:104BA0000701FFF7E5FE2469002CEFD117B9304665
:104BB00003B0F0BD034800F01BFA304603B0F0BD6F
:104BC00040420F00240600206C08002070080020DE
:104BD00038B5044600F0DAF9012305461A462046A6
:104BE0002946FFF721FF084B1C682CB163682BB1E5
:104BF00098472469002CF9D1284638BD2469002C37
:104C0000F4D1284638BD00BF6C080020B1F1000C7B
:104C10001DDD0F4A0F4B126830B5D31AB3FA83F378
:104C20000D240D4D5B09411E35F913E08C4411F83C
:104C3000010F864506D093699B06FCD46145106040
:104C4000F5D130BD93699D06FCD41460F3E770473D
:104C50003C0B002000800740380B0020B1F1000C15
:104C600003462DDD00201F4A591E12689369DB069A
:104C700017D401309369DB06FCD41368844501F82E
:104C8000013FF3D1184B1B684BB150211346916380
:104C900053F8342F02F0380203F580531A6060464F
:104CA0007047114B1B684BB150211346916353F869
:104CB000342F02F0380203F580531A6078B1704740
:104CC000094B1B685BB1074B50211A68134691636F
:104CD00053F8342F02F0380203F580531A606FF056
:104CE000020070473C0B00202C080020054B1B687D
:104CF00033B10021044A05481268006891631847DF
:104D0000704700BF2C0800203C0B0020300800201A
:104D1000024B1A6893691B07FCD470473C0B0020B8
:104D200070B51B4E1B4D32680446AA420CBF2225AB
:104D3000212520B1184A0B46116889B170BD164E65
:104D40003368002BFAD0014690632846FEF758FDE1
:104D500028461249FEF7AAFD114B34601C6070BD55
:104D600010600F4A28460D491360FEF76FFD0121C0
:104D70002846FEF745FD326850211346916353F8EB
:104D8000342F02F0380203F580531A6070BD00BF63
:104D90003C0B0020008007402C080020ED4C001048
:104DA0003008002010B50E490E4C0F480F4A104B2A
:104DB000007821600020022112781B78FEF7BEFCEB
:104DC00002210120FEF7BAFC4FF4E1312068FFF721
:104DD00013FCBDE8104001210648FFF79DBE00BF4F
:104DE000000007403C0B0020105200100C52001035
:104DF0000852001004060020844641EA000313F024
:104E0000030349D1403A23D30B6803604B684360E6
:104E10008B688360CB68C3600B6903614B69436136
:104E20008B698361CB69C3610B6A03624B6A43621E
:104E30008B6A8362CB6AC3620B6B03634B6B436306
:104E40008B6B8363CB6BC36340304031403ADBD222
:104E500030320BD30B6803604B6843608B68836010
:104E6000CB68C36010301031103AF3D20C3205D346
:104E700051F8043B40F8043B043AF9D2043208D01C
:104E8000D2071CBF11F8013B00F8013B01D30B888E
:104E900003806046704700BF082A13D38B07B1D048
:104EA00010F00303AED0C3F10403D21ADB071CBF1A
:104EB00011F8013B00F8013BA4D331F8023B20F884
:104EC000023B9FE7043AD9D3013A11F8013B00F8BD
:104ED000013BF9D20B7803704B7843708B78837069
:104EE0006046704770B586074AD0541E002A41D0EC
:104EF000CAB2034601E0013C3CD303F8012B9D07F5
:104F0000F9D1032C2FD9CDB20F2C05EB052505EBDC
:104F1000054538D9A4F1100C03F1100E1A462CF0F7
:104F20000F064FEA1C1CB6441560103242F80C5CA8
:104F300042F8085C42F8045C7245F5D10CF10102BC
:104F400014F00C0F04F00F0C03EB021213D0ACF1B1
:104F5000040323F003030433134442F8045B9A422E
:104F6000FBD10CF003042CB1C9B21C4403F8011BA3
:104F70009C42FBD170BD64461346002CF4D1F9E786
:104F800003461446BDE71A46A446E0E720F00301B5
:104F900010F00300C0F1000051F8043B00F1040CD4
:104FA0004FEACC0C6FF000021CBF22FA0CF2134344
:104FB0004FF0010C4CEA0C2C4CEA0C4CA3EB0C020D
:104FC00022EA030212EACC1204BF51F8043B043077
:104FD000F4D0C2F1000102EA0102B2FA82F2C2F197
:104FE0001F0200EBD2007047F8B500BF00000000C0
:104FF0005FF800F0BD0100205FF800F0F101002033
:105000005FF800F011010020D94700104D47001053
:105010008147001025480010B9470010894300104F
:105020000148001075430010993B0010054800101E
:10503000153F0010FD460010ED4700109D47001081
:1050400015370010C13700105D020010CD090010A7
:1050500052756E6E696E67206F6E20525032333516
:10506000302000004C45445F5461736B0000000029
:10507000427574746F6E5F5461736B000A2A2A2A3A
:105080002050414E4943202A2A2A0A000A000000E3
:10509000546D725100000000546D7220537663000D
:1050A0005370696E6C6F636B202564206973206197
:1050B0006C726561647920636C61696D6564000080
:1050C000486172647761726520616C61726D202540
:1050D0006420616C726561647920636C61696D65DF
:1050E000640000004E6F206672656520646F6F7209
:1050F00062656C6C730000004861726420617373B8
:105100006572740052656C6561736500626F6F74DF
:10511000325F77323571303830000000322E312E58
:10512000300000007069636F3200000053656D61EC
:1051300070686F7265000000466562202031203281
:105140003032350006005250D3F075420451001041
:1051500006005250E182887F0C5100100600525028
:10516000ABB360531C51001006005250BBFF3CB65D
:105170002451001006005250861C03022C510010CE
:10518000060052505422A29D385100100500525082
:10519000DE65F468445700100D0A00005541525472
:1051A00020737464696E0000554152542073746416
:1051B0006F7574005541525420737464696E202FCA
:1051C000207374646F7574000600525053B4F4A1D8
:1051D000B451001008005250120000000800525054
:0451E0009210000029
:0851E400ACB0FF0F0100000058
:1051EC0044510010505100105C51001068510010D7
:1051FC0074510010805100108C510010DC510010C3
:08520C00D4510010C85100103C
:105214002DE9F0411F46044616460368EFF3108853
:1052240072B6D3E8CF1F01220029FAD1C3E8412F77
:105234000029F6D1BFF35F8F45686B1C0CD00023A7
:105244000268C2E88F3F88F3108800F01DFAA84274
:105254000DD10020BDE8F08100F016FA0023226889
:105264006060C2E88F3F88F310880120F2E700F005
:105274000BFA804606E032463B46204600F000FA30
:105284000028E6D12568EFF3108172B6D5E8CF2F58
:105294000123002AFAD1C5E8423F002AF6D1BFF320
:1052A4005F8F63680133E6D100232268C4F8048069
:1052B400C2E88F3F81F31088D7E700BF00B50268CA
:1052C400EFF3108172B6D2E8CFEF5FF0010CBEF1BC
:1052D400000FF8D1C2E84ECFBEF1000FF3D1BFF3F7
:1052E4005F8F4FF0FF325DF804EB426000F0D0B9FD
:1052F4007BB972B90029BEBF00204FF0004106E01F
:1053040008BF00281CBF6FF000414FF0FF3000F0D1
:10531400B5B9ADF1080C6DE904CE002909DB002B09
:105324001ADB00F035F8DDF804E0DDE9022304B00F
:105334007047404261EB4101002B1BDB00F028F871
:10534400DDF804E0DDE9022304B0404261EB4101F1
:10535400524263EB43037047524263EB430300F052
:1053640017F8DDF804E0DDE9022304B0404261EB04
:1053740041017047524263EB430300F009F8DDF842
:1053840004E0DDE9022304B0524263EB43037047B7
:105394002DE9F04F099D0C46002B4DD18A420F4652
:1053A40084469646B2FA82F360D94BB102FA03FE00
:1053B400C3F120029F4000FA03FC20FA02F21743D3
:1053C4004FEA1E461FFA8EF44FEA1C42B7FBF6F171
:1053D40006FB117701FB04F042EA0742904208D928
:1053E4001EEB020201F1FF3702D2904200F231813A
:1053F4003946121A1FFA8CFCB2FBF6F006FB102297
:1054040000FB04F44CEA024C644508D91EEB0C0C76
:1054140000F1FF3202D2644500F21E81104640EAD8
:105424000140ACEB040C002125B12CFA03F300225B
:10543400C5E90032BDE8F08F8B4205D90DB1C5E94D
:10544400000100210846F5E7B3FA83F100294DD1A4
:10545400A342C0F0F380904280F0F08006462346D9
:105464000846002DE6D0C5E90063E3E7002B40F0D1
:10547400A3808A1A4FEA1E471FFA8EF60121B2FB57
:10548400F7F407FB14204FEA1C4242EA004206FBF1
:1054940004F090420FD91EEB020204F1FF382CBF36
:1054A4004FF001094FF00009904203D9B9F1000F00
:1054B40000F0CC804446121A1FFA8CFCB2FBF7F0C1
:1054C40007FB102200FB06F64CEA024C664508D99D
:1054D4001EEB0C0C00F1FF3202D2664500F2B380E1
:1054E4001046ACEB060C40EA04409DE7C1F12006EF
:1054F4008B4004FA01FE22FA06F720FA06FCF44077
:105504008A401F434EEA0C0300FA01FE4FEA174893
:105514004FEA13491FFA87FCB4FBF8F008FB104468
:1055240049EA044400FB0CF9A1450ED93C1900F1E9
:10553400FF3A2CBF4FF0010B4FF0000BA14503D9EC
:10554400BBF1000F00F08B805046A4EB09041FFA56
:1055540083F9B4FBF8F308FB134403FB0CFC49EA9E
:105564000444A44506D93C1903F1FF3801D2A445EB
:105574007BD8434643EA0040A4EB0C04A0FB02980A
:105584004445CC46434602D306D1CE4504D2013825
:10559400B9EB020C68EB0703002D6CD0BEEB0C02D8
:1055A40064EB030422FA01F304FA06F6CC4000216A
:1055B4001E43C5E900643DE702FA03FEC3F120017E
:1055C40004FA03F200FA03FCCC404FEA1E4720FA27
:1055D40001F11FFA8EF6B4FBF7F00A4307FB1044FF
:1055E400110C41EA044100FB06F48C420ED91EEB77
:1055F400010100F1FF382CBF4FF001094FF0000901
:105604008C4202D9B9F1000F2CD04046091B92B24A
:10561400B1FBF7F407FB141142EA014204FB06F163
:10562400914207D91EEB020204F1FF3801D29142E4
:105634001ED84446521A44EA004120E7861A64EB15
:10564400030301200DE7F44402384AE7023C7244A4
:1056540031E702397244CCE6F4440238DFE602381A
:105664003C4472E702387144D0E7023B3C4481E792
:10567400023C7244DEE72946DCE600BF704700BF07
:105684005FF800F0E10800105FF800F02108001056
:105694005FF800F04D080010FFFF00001F0000003D
:1056A40010000000000000000000010000000000E5
:1056B40000000000000002000000000000000000E4
:1056C4000000030000000000000000000000FF00D4
:1056D4000000000001B5486801318E46004770465D
:1056E40009380149884701BDD13A00100000000083
:1056F40000000000000000000000000000000000A6
:10570400300600200D4C0010114D00105D4C0010AF
:10571400214D001000000000000100000000000006
:0C57240000000000000000000000000079
:10573000D3DEFFFFFE010000FF01000008AAFFFF0B
:04574000793512ABFA
:040000051000014D99
:00000001FF
