:020000041000EA
:10000000002008205D0100101301001015010010F0
:100010001101001011010010110100101101001058
:100020001101001011010010110100101701001042
:100030001101001011010010190100101B01001026
:100040001D0100101D0100101D0100101D010010F8
:100050001D0100101D0100101D0100101D010010E8
:100060001D0100101D0100101D0100101D010010D8
:100070001D0100101D0100101D0100101D010010C8
:100080001D0100101D0100101D0100101D010010B8
:100090001D0100101D0100101D0100101D010010A8
:1000A0001D0100101D0100101D0100101D01001098
:1000B0001D0100101D0100101D0100101D01001088
:1000C0001D0100101D0100101D0100101D01001078
:1000D0001D0100101D0100101D0100101D01001068
:1000E0001D0100101D0100101D0100101D01001058
:1000F0001D0100101D0100101D0100101D01001048
:100100001D0100101D0100101D0100101D01001037
:1001100000BE00BE00BE00BE00BE00BEEFF3058004
:10012000103800BEF2EB88717CB30010A4B300104D
:10013000A801001090A31AE7D3DEFFFF42012110AF
:10014000FF010000ACC20000793512AB4FF0000097
:100150002049086006C881F3088810474FF05040D6
:10016000006810B14FF00000F2E70FA40ECC002998
:1001700002D000F015F8F9E71749184A002000E00E
:1001800001C19142FCD1002080F30A8814498847BC
:10019000144988471449884700BEFDE701C901C2D8
:1001A0009A42FBD3704700BFA4B300101001002097
:1001B00050110020E4C300100000082000000820B7
:1001C000E4C3001000100820001008200000000008
:1001D0007047000008ED00E05011002030190020A9
:1001E000BD2D00107D020010B52D0010F8B500BF28
:1001F0000348044B834202D0034B03B118477047B6
:10020000501100205011002000000000064B07494B
:10021000C91A891048BF0131491003D0044B0BB1F2
:1002200001481847704700BF5011002050110020AE
:100230000000000010B5064C237843B9FFF7D8FF43
:10024000044B13B10448AFF300800123237010BDA9
:100250004813002000000000FCAC001008B5044B5F
:100260001BB104490448AFF30080BDE80840CDE766
:10027000000000004C130020FCAC00102DE9F047FA
:1002800084B009F0D3FE594802F0CEFF02F052FFCD
:10029000574BD3F8289048460AF090FA002009F00E
:1002A00079FE01A809F0B2FEDDE90121039B514866
:1002B00003F03CF8C821504803F038F84FF481713E
:1002C0004E4809F077FE071E67DB0026DFF85881ED
:1002D00008F57F754A4C0AF079FA44F8040FAC42ED
:1002E000F9D14FF480624146384609F087FEB0F5F7
:1002F000806F3BD106F58066B6F5483FEAD13846B7
:1003000009F072FE01A809F081FEDDE90121039BDD
:10031000384803F00BF8C8213A4803F007F80121E8
:10032000364809F047FE071E37DB48460AF046FA12
:100330000024DFF8F49008F580664FF480624946A7
:10034000384609F05DFEB0F5806F024620D1454683
:1003500001E0B54225D055F804AB0AF037FA8245E2
:10036000F7D02146284802F0E1FF04E0024631467A
:10037000264802F0DBFF384609F036FE09F042FE5F
:10038000234802F051FF4FF0FF3004B0BDE8F08782
:100390002146204802F0CAFFEDE71F4802F044FF63
:1003A000ECE704F58064B4F5483FC6D1384609F05F
:1003B0001BFE1A4802F038FF104809F025FE0028FD
:1003C0000FDB01A809F022FEDDE90121039B0948AA
:1003D00002F0ACFF09F016FE114802F025FF0020E4
:1003E000D3E7104802F020FFC5E700BF00AD0010C2
:1003F00000000B400CAD001034AD001048AD0010F3
:10040000B814002080AD0010B4AD001060AD001035
:10041000F4AD001094AD001054AD0010CCAD001040
:10042000ECAD0010DCAD0010BC14002010B44FF493
:1004300080740C4B53F8202003EB8003C00082F043
:10044000400200F1804003F5805C02F0C00200F53C
:10045000203003F54053CCF8002041601C605DF86B
:10046000044B7047048003400FB400B583B0049C74
:10047000074802F0D9FE3CB105A92046019102F0DF
:1004800069FC044802F0D0FE012002F07BFC00BFB2
:10049000FCAD0010B0AD001070B58646EFF31085CE
:1004A00072B6124CD4E8CF6F0120002EFAD1C4E806
:1004B000460F002EF6D1BFF35F8F4FF0010CC80836
:1004C00001F007030CFA03F31EF800C01CEA030650
:1004D00008D14CEA030C0EF800C0C4E88F6F85F316
:1004E000108870BD1046FFF7BFFF00BFA7130020A4
:1004F000044A1078431CDBB2182B28BF102313705A
:10050000704700BF380800204FF0E022936843F0A6
:1005100000539360704700BF0021044B03F1200299
:10052000C3E88F1F01339342FAD170479C13002018
:100530004FF0E0234FF08032C3F80024C3F80424C6
:10054000C3F80824C3F80C24C3F81024C3F81424F7
:10055000C3F81824C3F81C24C3F82024C3F82424A7
:10056000C3F82824C3F82C24C3F83024704700BFF4
:10057000012300F01F029340400941B1800000F1C7
:10058000604000F56140C0F8803103607047024A66
:10059000203042F82030704700E100E0F8B50D4609
:1005A000EFF3108772B6124ED6E8CF2F0123002A40
:1005B000FAD1C6E8423F002AF6D1BFF35F8F0D4B58
:1005C00000F110049B680C4A53F82430934203D086
:1005D000994201D000F080FE064B9B6843F82450FE
:1005E000BFF35F8F0023C6E88F3F87F31088F8BD05
:1005F000A513002000ED00E01D0100102DE9F04FD3
:1006000083B0EFF3108A72B6744ED6E8CF2F012371
:10061000002AFAD1C6E8423F002AF6D1BFF35F8F25
:100620006F4B00F110089B686E4A53F828509542B2
:100630003FD08D420C464AD06B4FEB1B2F2B38D846
:1006400001214FEA50194FEA890909F1604909F57A
:10065000614900F01F0301FA03F0D9F80030C9F82E
:10066000800000EA030BBFF35F8FEFF30581C9B28F
:1006700079B3884577D125F0010EDEF808C06445CE
:1006800005D17CE0D3F808C0644532D09E469EF97F
:10069000062002EB4203002A07EB8303F2DA6445EB
:1006A00000F08180BBF1000F20D0C9F88001C9F8AB
:1006B00000004B4B9B6843F82850BFF35F8F00232B
:1006C000C6E88F3F8AF3108803B0BDE8F08F154667
:1006D000EFE725F0010EDEF808C06445D7D19EF99A
:1006E00006407346002C08DA154666E0C9F880001B
:1006F000DFE793F90640002C56DB04EB440C07EBD4
:100700008C0CDCF8082061009A609CF80720DA71F4
:100710009CF90620002A9A715DDBBCF80420520582
:1007200004D502F5FF1202F5FF521F32521502F1F5
:10073000020C4FF0040E0C2212FB04E202EB4C02FE
:100740006FF0070C3A44ACEB030C6244C2F34A026C
:1007500042F460429A80254B21441A7807EB8101CC
:100760001C708A719EE7CDE9000100F0B5FDDDE95E
:10077000000125F0010EDEF808C0644587D19EF91E
:1007800006407346002CB8DA194A1A4CD21A083AB5
:10079000C2F30A316FEA01516FEA115144EA520281
:1007A000DA8099807EE773460029EDD1FF228EF82A
:1007B00006204BF60152AEF804200C4C4AF6AA2251
:1007C00094F800C01946C91B49414A43120D83F8E9
:1007D00006C0227066E74BF60152BBE7A513002066
:1007E00000ED00E01D0100103C0800202D19002044
:1007F0007608002000F8FFFFF0B5EFF30585EDB2B5
:10080000EFF3108C72B62649D1E8CF2F0123002ACE
:10081000FAD1C1E8423F002AF6D1BFF35F8F214EE3
:1008200040F0010EB4684AF6AA2354F825701E4A17
:100830000446A41A644163431B0D77455BB21BD089
:1008400092F906409C421CD092F912409C4223D05F
:1008500092F91E409C4221D092F92A409C4208BF46
:1008600003240FD0114A0024157813708571C1E854
:100870008F4F8CF31088F0BDB2680D4C42F82540C4
:10088000F0E7002404EB440402EB8402FF2494719B
:100890004BF601549480E5E70124F3E70224F1E7E5
:1008A000A513002000ED00E03C0800202D190020D9
:1008B0001D010010014B0B44036070479C13002086
:1008C000F8B5124D124EB5421FD22C462368FF27B1
:1008D0007BB1FFF70DFE01462846FFF7EBFFA7802F
:1008E000BFF35F8F0834B4420FD223682546002B34
:1008F000EFD1FFF7FDFD01462846FFF7DBFF27712B
:10090000BFF35F8F0834B442EFD3F8BD401100202D
:10091000501100200D4B1A68EFF3108172B6D2E827
:10092000CFCF0120BCF1000FF9D1C2E84C0FBCF1D0
:10093000000FF4D1BFF35F8F00221B68C3E88F2F35
:1009400081F3108840BF002000217047201900204B
:100950002DE9F04F2DED028B85B0EFF30583DBB26F
:10096000103B9A0818BF01224FF0010103F0030069
:1009700008BFAB4DAB4B18BFAB4D00EB820253F839
:10098000226001FA00FB05F541539FEDA38B019016
:10099000C3F804B02AE0B388190440F18D80B3791C
:1009A000002B40F0D780B6F90820002AC0F216814B
:1009B000736902EB420203EBC203D3E90247B7F1CA
:1009C000FF3F08BFB4F1FF3F09D0019B05EB830156
:1009D000AB6A0A69D21AE31A934238BF0C612846FF
:1009E00000F0B8FAA042B941C0F2F880B6F9083078
:1009F000C5F83CB0002B0093CDDBD6F8149003EB88
:100A0000430A284609EBCA07D7E9024800F0A2FAD0
:100A1000A04271EB0801BEDBB8F1000FC0F2C0804C
:100A20003A69824B9A4200F0EA807988B6F9080068
:100A300089B241EA00407969904703460A4653EA81
:100A4000020100F0AD80002A80F2CE80E31A68EB4C
:100A5000020839F93A20C7E90238002A9BDB70699D
:100A600002EB420100EBC101D1E902C7634578EB1B
:100A7000070E4FEA42018EDBB6462EF8082F0BE038
:100A800030F93120A646002A0DDB02EB420400EBD0
:100A9000C4045100D4E902C76345114478EB070749
:100AA00000EBC104ECDA009B29F83A20AEF80030E4
:100AB000B38819043FF573AF3369EFF3108272B650
:100AC000D3E8CF0F01210028FAD1C3E8401F002846
:100AD000F6D1BFF35F8F4FF6FF74B0880023316902
:100AE00000B2B480C1E88F3F82F310889842FFF6CD
:100AF00056AF0746A946746906F1080807EB470E8A
:100B000004EBCE03D3E90205B6F90830C446002B46
:100B100013DBB246009704E034F936309446002BDC
:100B200009DB03EB430604EBC602D2E90271B842CB
:100B300075EB0101F0DA5646009FACF8007034F90D
:100B40003E7024F83E30002FD8DAB3794D46002BA2
:100B50003FF429AF0023B371B6F9083006F1080E4F
:100B60005A1C3BD01A46746903E08646591C3FF470
:100B70001CAF03EB430104EBC10047889C463F04D4
:100B800034F93130F1D5944580ED028BEED0AEF8DA
:100B90000030328924F831206246A6F808C0E5E723
:100BA00039F83A2032813269EFF3108172B6D2E817
:100BB000CF7F0120002FFAD1C2E8470F002FF6D1D6
:100BC000BFF35F8F7288009B29F83A2073803269E7
:100BD0000023C2E88F3F81F31088DCE640BF05B0F8
:100BE000BDEC028BBDE8F08F2846CDE9023200F063
:100BF000B1F9029B039AC31842EB010829E779690E
:100C000008460A69029190470028C9D00299D1E9A3
:100C1000003214E7AFF30080FFFFFFFFFFFFFFFF8D
:100C200000000B400019002000800B40510900100B
:100C30002DE9F84F364C25692DB1BDE8F84F0A2152
:100C40003448FFF737BEDFF8E4800321404600F068
:100C50006FF90326C4F80C80FFF74AFC4FF0504CA4
:100C60002D4B267003442361DCF800300F216370A4
:100C7000636961801D834FF00405A3F878504FF03D
:100C80000505A3F890504FF00605A3F8A8504FF0C3
:100C900007050E2108274FF6FF724FF00A0EA3F842
:100CA000C0504FF001094FF00C0C4FF0020B4FF009
:100CB000090A0D204FF00B05A3F868111749A2800F
:100CC000A3F808E1A160A3F848B0A3F8F0A0A3F846
:100CD0002051A3F838C1A3F85001A3F83090A3F82D
:100CE0006060A3F8D8701A800D4B3046C8F82070A9
:100CF0000C49DC60FFF752FC49463046FFF738FCF0
:100D0000094B0A211F640348BDE8F84FFFF7D2BD25
:100D100084080020201900209C130020FFFF1000F1
:100D2000001900205109001000200B4000000B406A
:100D30000146F0B50069EFF3108772B6D0E8CF5FD7
:100D40000124002DFAD1C0E8454F002DF6D1BFF3A4
:100D50005F8FB1F902E04C690EEB4E0CBEF1000F53
:100D60004FEACC0504EBCC0C3DDB605B00264880F1
:100D70000869C0E88F6F87F31088BCF80200CCE9DF
:100D800002230130C0F30E00012838BF0120059B6B
:100D9000ACF80200CCF81030069B40EA0E40CCF8CC
:100DA00014300B69EFF3108272B6D3E8CFCF01276E
:100DB000BCF1000FF9D1C3E84C7FBCF1000FF4D1B6
:100DC000BFF35F8F8B886353A1F804E00B69C3E81E
:100DD0008F6F82F310880122CB68097803F50153E5
:100DE0008A405A60F0BD00230A69C2E88F3F87F34A
:100DF00010884FF0FF30F0BD03464089B0EB214F23
:100E000037DD58690A1402EB420210B500EBC2004C
:100E10001C69EFF3108C72B6D4E8CFEF0122BEF15B
:100E2000000FF9D1C4E84E2FBEF1000FF4D1BFF38B
:100E30005F8F428889B292B28A4207D000221B6932
:100E4000C3E88F2F8CF31088002010BD42F40042BD
:100E500042800121002218699971C0E88F2F8CF31C
:100E600010881C78DA68084602F50153A1405960E1
:100E700010BD0020704700BFF0B506460D4683B098
:100E8000EFF30584E4B2002C35D1264F3A78F968A7
:100E900004328B6A51F82220D21AC31A934207D324
:100EA00020BF214B586A85421FD9002003B0F0BDF6
:100EB00000F058F8864265EB0101002911DB1B4B5D
:100EC0003846CDE9003432462B46FFF731FF011E8C
:100ED00007DD154B5A6A95421DD920BF1148FFF70F
:100EE0008BFF114B586A8542DFD89B6A9E420DD812
:100EF000012003B0F0BD0C4B586A8842D5D39B6AE1
:100F0000B342F5D2401A18BF0120CFE7281A18BF04
:100F1000012003B0F0BD9B6A9E42DFD99542DDD12E
:100F2000DBE700BF8408002000000B40150900101B
:100F300010B4054B054C064AA04214BF1846581C75
:100F40005DF8044BFFF7A8BAC418002000800B40DE
:100F500018AE00100346416A0A46986A596A8A42E6
:100F6000FAD17047034B596A0A46986A596A914206
:100F7000FAD1704700000B4030B4154A536A9C46C2
:100F8000946A536A6345FAD1021959414FF000053A
:100F900028BF01250E4B5B6AB5B15A1C08BF1A4623
:100FA00008D04FF0FF310A460948436A8B42FCD310
:100FB0008B4207D1064902E0486A984202D1886A0A
:100FC0009042F9D330BC70479942EDD8F0E700BFAA
:100FD00000000B40F8B5054606200E4600F0E4F888
:100FE000002842D0354A364895420CBF4FF0006287
:100FF0004FF08062334B344902601A608C6832EAE9
:101000000404FBD12D4B4FF48071EB1AB3FA83F338
:101010002E4A5B09062022F8131000F0C5F8C30021
:10102000B3FBF6F30133DA0920D1402601216962CE
:10103000AA622F6BFB0722D42B46002253F82C1FE9
:10104000062003F5805422602F6300F0ADF8EB6AB0
:1010500040F2013283F0700303F07E0323608000CE
:101060000323B0FBF6F02A63AB64F8BD4FF6FE71C4
:101070008A421BD922464FF6FF71154ED7E740F240
:10108000013205F540531A636B6AAC6A062004EB23
:10109000831400F089F80F4BA402A3FB0023DB0AA2
:1010A0000021B4FBF3F0FFF767FFC5E7C3F3450387
:1010B000114603EB82161A46B9E700BF00800740CD
:1010C00000200240003002400000024024190020AD
:1010D000C0FF3F00757B2B8F00EB400C4FEA8C0C60
:1010E0000CF1804C0CF5803CF0B51646DCF8042081
:1010F000051FB2F5803F38BF4FF48032EDB238BFE4
:10110000CCF80420012D2AD94FF40067254C0CF5AA
:101110004052176054F82020B2B9DCF80020012DAD
:1011200082EA461202F0E0020CF5805632602AD9BB
:101130004FF4006144F820304FF480330CF5005236
:101140001160CCF80430F0BD6769B7FBF2FE0EF118
:10115000010E0EEB4E0EBEF1030EFCD2DDE70129AF
:10116000D2D103240CF540521460DCF80820D207D9
:10117000FBD5DCF800200B4C82EA461202F0E002BC
:101180000CF5805632600122DCF800504D4005F02D
:101190000305356002FA01F1DCF808200A42FBD0B1
:1011A000C6E700BFC8180020014B53F82000704765
:1011B000C818002070B4039D04682D0345EA034558
:1011C0001B4B002CB3FBF1F3B2FBF3F61FDB194A08
:1011D000194B90420CBF4FF400424FF48042174C21
:1011E0001A6003F580531A60A36832EA0303FBD147
:1011F000212200F540530433016086601A600268C2
:10120000002AFCDA0822C5601A6070BC70470368C7
:1012100003F03F038B42DAD18368C3F30B03B3427D
:10122000D5D1C36803F4EE23AB42D0D1EDE700BFC4
:10123000001BB70000800540002002400000024073
:10124000012300EB4000800000F1804000F5841095
:1012500041600360704700BF0023DB8A002242E840
:1012600000F2520201D4102118470421184700BF90
:1012700000234021DB8A1847034AD2F82838002B84
:10128000FBD0BFF35F8F704700000E400021044B7E
:10129000044ABFF35F8F43F8041B9342F9D17047B0
:1012A0000C080E402C080E4010B42F204FF42A6476
:1012B000054A064B06491460D06019605368002B3C
:1012C000FCDA5DF8044B70470080044000A0044045
:1012D00000B0FA00704700BF08B50148FFF7C4F836
:1012E0003CAE001038B5054C054DAC4204D254F864
:1012F000043B9847AC42FAD338BD00BFB8AC0010ED
:10130000F8AC001010B40748074C084B084A0949CC
:1013100004601A608B6832EA0303FBD15DF8044B6A
:10132000704700BF002002407F3BEFEF00300240DB
:10133000F6FFF30300000240044BDB6CB3F5004FF3
:1013400003D14FF48022024BDA6470470000115041
:10135000002011504FF0E022044BD2F8881D0B43BF
:10136000C2F8883D10EE3004704700BF0303300020
:101370006FF06041044B054A19609368DB4333F01A
:101380006043FAD1704700BF0030024000000240C5
:1013900010B545F25320FFF75FFFBDE8104003464C
:1013A0000420184710B545F25320FFF755FFBDE85C
:1013B0001040034601201847FFF7AEB810B5054BA3
:1013C000054C4FF488721846A16809F029F9A0600D
:1013D00010BD00BF0000002000ED00E00023F0B5CC
:1013E0002B4C83B0C4F88430FFF75EFF0122294BF9
:1013F000DA63636C012BFCD10321264A244B116371
:101400009D6B012DFCD1052302271E460024294691
:10141000214A22480097FFF7CDFE29463346204A4D
:1014200020480096FFF7C6FE3946224604201E4B90
:10143000FFF752FE2946224630461C4BFFF74CFE72
:101440002246082021461A4BFFF746FE2246092075
:101450002146174BFFF740FE224606202146134B3C
:10146000FFF73AFE114B224607202146FFF734FED4
:101470000420FFF799FE0F4BA3FB0035AD0CE0B243
:1014800029460134FFF7DCFE062CF8D103B0F0BD8D
:101490000000014000300140002F68590000054065
:1014A000008C864700800540001BB70080D1F00803
:1014B000006CDC0283DE1B4386B003B451FC0804DD
:1014C000CDE9020151FC0904CDE9040151EC0A0403
:1014D000CDE9060103BCF047BDE800504EEC00C466
:1014E000BDE800504EEC01C4BDE800504EEC02C413
:1014F00000BD000000B5FFF7DFFF02E010FE30F492
:10150000F8D441EC100443EC112400EE010410EE79
:10151000010480EE200451EC1004704700B5FFF781
:10152000CBFF02E010FE30F4F8D441EC100443ECA1
:10153000112400EE010410EE210480EE200451EC91
:101540003004704700B5FFF7B7FF02E010FE30F43B
:10155000F8D410B541EC100443EC112451EC040410
:1015600053EC0524A0FB024C5FF0000EE0FB03CE21
:10157000E1FB02CE4CEC20440024E1FB03E444EC0C
:1015800030E480EE200451EC5004BDE81040704778
:1015900000B5FFF791FF02E010FE30F4F8D441EC03
:1015A000100443EC112451EC2104A0FB01126FEA5A
:1015B000820252FB100052FB12F252FB1000A0EB11
:1015C000D07C53EC04245CFB13F153EC1524A1FBF9
:1015D000022001FB030053EC4424A2EB000050FB6B
:1015E0001CF24FEA111312EB017043EBE27140EA77
:1015F000515020EA915020F0070053EC7524A0FBD5
:10160000023C53EC752400FB03CC01FB02CC53ECF1
:101610000424ACEB824C40EA5C70A0F1010041EC88
:10162000400480EE200451EC7004704700B5FFF7D1
:1016300043FF02E010FE30F4F8D440EC700400EEFA
:10164000010410EE210480EE200451EC30047047B8
:1016500000B5FFF731FF02E010FE30F4F8D440ECA3
:10166000600400EE010410EE210480EE200451EC31
:101670003004704700B5FFF71FFF02E010FE30F4A2
:10168000F8D441EC800400EE010410EE010480EE79
:10169000400410EE1304704700B5FFF70DFF02E0A1
:1016A00010FE30F4F8D441EC800400EE010410EE9A
:1016B000010480EE400410EE3304704700B5FFF7DC
:1016C000FBFE02E010FE30F4F8D441EC100443ECD1
:1016D000112400EE010410EE3004C0F300707047D6
:1016E00000B5FFF7E9FE02E010FE30F4F8D443EC59
:1016F000102441EC110400EE010410EE30F48CBF14
:1017000001200020704700BF00B5FFF7D5FE02E0C2
:1017100010FE30F4F8D441EC100443EC112400EE38
:10172000010410EE30F42CBF01200020704700BFF0
:1017300000B5FFF7C1FE02E010FE30F4F8D441EC32
:10174000100443EC112400EE010410EE30F48CBFC1
:1017500001200020704700BF38B50446094809F051
:101760009FFA204608F076FC0546064809F094FAF0
:101770002DB1054B2C449C4201D8284638BD034866
:10178000FEF772FE401100200000082048AE001055
:1017900038B50446054D284609F082FA204608F07F
:1017A00061FC2846BDE8384009F076BA40110020B7
:1017B000704700BF2DE9F04F83B098460F9B0F464E
:1017C00011469A070646DDF83090DDF838B012D1A0
:1017D0000D9B5B450FD28A460C46ABEB03050D44CF
:1017E00052464346394620200AF1010AB047AA452D
:1017F000F6D1214600E00D460D9B93B109EB0304A1
:1018000004EB050A01950D46AAEB040214F8010D3C
:1018100043463946B0474C45F6D129460D9B019DBC
:101820001D440F9B9B070CD56C1AA34509D92A466A
:101830004346394620200134B047A34505F1010550
:10184000F5D8284603B0BDE8F08F00BF2DE9F04F72
:101850000F9FDDF824E017F0020F0A9C9DF82C90F2
:101860000E9DDDE90C8629D1002D66D1B44225D22A
:10187000202C07F0010B00F00A8104F1FF3C4FF02F
:10188000300AF44401E0202C76D00134A6420CF852
:1018900001AFF8D8BBF1000F10D0AC420ED2202C13
:1018A00070D004F1FF3C4FF0300AF44401E0202CEA
:1018B00022D00134AC420CF801AFF8D117F0100F70
:1018C00031D017F4806F4CD1DCB9B8F1100F00F0B3
:1018D000B880B8F1020F00F0C28030248EF80040CA
:1018E0000124B9F1000F5AD17E0740F186802B26E2
:1018F0000EF80460013418E0FC0673D57C052FD483
:101900002024A64201D0AC422BD1661E00F0868076
:10191000B8F1100F00F0C080B8F1020F5BD04FF0AB
:10192000300C0EF806C0202CDBD1CDE90B57CDE9E9
:1019300009E4BDE8F04FFFF73DBF17F0010B3AD0C7
:10194000B9F1000F4CD117F00C0F49D1B442A4D219
:10195000202C92D1202D15D817F0100FB1D1E4E72B
:101960002024B8F1100F3FD0B8F1020F2FD0202C57
:10197000DBD026460134D2E7BBF1000F00F09D809A
:10198000202DB9D9FC062DD57C052BD4202E00F0B6
:10199000A280202DE4D120251F262C46B8E72D2635
:1019A0000EF804600134CDE90B57CDE909E4BDE838
:1019B000F04FFFF7FFBEB44280D2202C7FF45DAF22
:1019C00017F0100FB1D017F4806FCAD199E7202C0F
:1019D000ABD0264601344FF0620C0EF806C0C6E7C5
:1019E000013DB3E72024A0E7BE060DD4202C9CD0F7
:1019F00078260EF804600134B9E73E0795D5202615
:101A00000EF80460013490E7202C8ED04FF0580C73
:101A10000EEB040686F800C00134A8E7B8F1100FF9
:101A200043D0B8F1020F7FF458AF62248EF8004023
:101A300030248EF801400224B9F1000F3FF454AF76
:101A4000ADE7BE0617D558248EF8004030248EF836
:101A500001400224B9F1000F3FF446AF9FE7622630
:101A60008EF80060302644468EF80160B9F1000F10
:101A70003FF43AAF93E778248EF8004030248EF894
:101A800001400224B9F1000F3FF42EAF87E7BBF10C
:101A9000000F7FF461AF93E7A4F1020C3446BE0659
:101AA00007D478260EF80C6063E7BC06CBD4782404
:101AB000BCE758260EF80C605BE717F0100F3FF4F8
:101AC00034AF17F4806F7FF430AF202E06D0202D76
:101AD0007FF447AF5FE734461F2619E71F2617E755
:101AE00000B9704701F05EBB10B1D1E90031184771
:101AF000704700BF000000002DE9F04F9DB09DED44
:101B0000267BDDE928A558EC177BCDE90C1283462E
:101B10001E463A464346384641468DED087B2A9C90
:101B2000FFF7D0FD002840F0D580384641464FF001
:101B3000FF32734BFFF700FE002840F0CB803846A1
:101B400041464FF0FF326FF48013FFF7CDFD0028C0
:101B500040F0C080DDE90878002238464146002385
:101B6000FFF7C2FD002840F0BB81CDE90A78DDE92E
:101B70000A231F46904614F4806308BF4FF0060AFC
:101B8000119358EA070340F0BF8014F4006300F09B
:101B90009F819FED597B00278DED0E7B4FF0000854
:101BA000BA45CCBFAAEB070A4FF0000A4746C8BFA8
:101BB0000AF1FF3A44F48064454594BF4FF00009B0
:101BC000A5EB080914F00203109304D0B8F1000F3C
:101BD00018BF4FF000093FB1DDE90A01DDE90E232E
:101BE000FFF7DAFCCDE90A01DDE908010022002354
:101BF000FFF77AFD30B1DDE90A01024601F1004349
:101C0000CDE90A239DED0A7B24F40063CDE902A906
:101C1000DDE90CA204938DED007B33465146584616
:101C200000F096F98146B8F1000F4FD014F0200F64
:101C30004A460CBF6520452033465146D84709F136
:101C4000010487EAE77C0DF1500908F1FF304B46AB
:101C50000022DFF8B080ACEBE77C4FEAD77E01E0F2
:101C6000202A10D0E246A8FB0C71C90801EB8107BD
:101C7000ACEB47073037BAF1090F8C4602F101028D
:101C800003F8017BECD805230590069300200A2376
:101C90000C9FCDE90330CDE9012E3346CDF80090FD
:101CA000224639465846FFF7D1FD109B81466BB15D
:101CB0000D9BC41AA54209D94A463346394620200D
:101CC0000134D847A54209F10109F5D848461DB0AD
:101CD000BDE8F08F9DED087BDDE90C1233465846D8
:101CE0008DED267BCDE92954CDF8A0A01DB0BDE82F
:101CF000F04F00F02DB900BF000000000000000010
:101D0000FFFFEF7FCDCCCCCCC7F30A50A0F2FF3061
:101D1000FFF790FC8AA3D3E90023FFF717FC8AA3FF
:101D2000D3E90023FFF7EAFBC7F31307CDE90E0160
:101D300047F07F51404600227B4B41F44011FFF7B2
:101D4000F1FB6BA3D3E90023FFF700FC02460B462F
:101D5000DDE90E01FFF7D2FBFFF790FC0746FFF726
:101D600069FC65A3D3E9002380468946FFF7EEFBB3
:101D700000226E4BFFF7C2FBFFF780FC034649468B
:101D8000404610935EA3D3E90023FFF7DFFB8046B4
:101D900010988946FFF74EFC5BA3D3E90023FFF7B9
:101DA000D5FB02460B4640464946FFF7BBFB0246C1
:101DB0000B4680468946FFF7C9FB42464B46CDE9B4
:101DC0000E0140464946FFF799FB0022CDE912017A
:101DD000DDE90E01564BFFF7DFFB0022554BFFF705
:101DE0008DFB02460B46DDE90E01FFF7D5FB002215
:101DF000514BFFF783FB02460B46DDE90E01FFF76F
:101E0000CBFB42464B468046894600204FF080413E
:101E1000FFF788FB02460B4640464946FFF76EFB3C
:101E200002460B46DDE91201FFF7B6FB0022434BE9
:101E3000FFF764FB109B002203F2FF3C4FEA0C53B8
:101E4000FFF784FB80468946DDE90A0142464B469E
:101E5000CDE90E89FFF748FC60BB4346494607F1D0
:101E60006302C72A34BF4FF004084FF0050822056B
:101E70007FF5A2AE0B433FF491AEDDE90A0124A346
:101E8000D3E90023FFF744FC48B1DDE90A0122A3AE
:101E9000D3E90023FFF728FC00287FF47FAEBAF1D6
:101EA000000F3FF489AE119B002B3FF485AE0AF181
:101EB000FF3A81E600221F4B40464946FFF76CFB84
:101EC0000A4601460346CDE90E12013F1146C6E718
:101ED0009FED137B1F464FF004088DED0E7B6BE6E4
:101EE00008F100430A970B9341E600BFAFF300806F
:101EF00061436F63A787D23F71A379094F930A406B
:101F00001655B5BBB16B0240EF39FAFE422EE63FE3
:101F10002D431CEBE2361A3F0000000080842E4166
:101F200000000000000000000000F83F0000E03F5B
:101F300000002C4000002440000018400000F03F4A
:101F4000FB799F501344D33FB3C8608B288AC63FA8
:101F50002DE9F04F97B0DDE92089CDE90401DDE9F5
:101F6000224BCDE90623404642464B464946DDF822
:101F700090A0FFF7A7FB002840F0C68140464946E5
:101F80004FF0FF326FF48013FFF7AEFB002840F0F4
:101F90001D81404649464FF0FF32C14BFFF7CCFB55
:101FA000002840F0E380B8A3D3E900234046494627
:101FB000FFF7C2FB002840F0CB80B5A3D3E9002394
:101FC00040464946FFF790FB002840F0C18040465C
:101FD000494600220023FFF787FB002840F0E080FD
:101FE0001AF480650D9000F0E980092C40F2978189
:101FF0000EAB1A460C9330210023A4F109050133DE
:10200000202B02F8011BA4EB030600F03A81AB423F
:10201000F5D19FED9D7B8DED087B49464046FFF74E
:102020002DFB0446FFF706FB02460B464046494699
:10203000FFF778FADDE90823FFF788FA02460B4636
:10204000CDE90A23FFF72CFB0746FFF705FB024605
:102050000B46DDE90A01FFF765FA02460B46CDE9BA
:102060000A2300228F4BFFF767FB002800F0DB807C
:1020700001373846FFF7F0FADDE90823FFF748FBA0
:1020800008B100270134002E40F0B1802046FFF750
:10209000D1FA02460B4640464946FFF743FA002272
:1020A000804B06460F46FFF71FFB40B930463946C6
:1020B00000227C4BFFF740FB002800F016810C9BB0
:1020C000691E7948194410E080FB0462C3EBA20347
:1020D00003EB8302A4EB420404F1300201351C46F9
:1020E00001F8012F002B00F0AB80202D4FEAE473A4
:1020F000EAD10AF00303012B1CD1BBF1000F19D068
:102100000D9B002B40F0FA801AF00C0F40F0F68087
:10211000AB4540F2D380202D0BD030220C996B1EA2
:102120000B4401355D4503F8012F00F08D80202D13
:10213000F7D12025DDE90623DDE904010C9CCDE97A
:1021400002BA01950094FFF735FB17B0BDE8F08F98
:10215000CDE92089DDE90623DDE90401CDE923BAD3
:10216000229417B0BDE8F04FFFF7C6BC4F4DCDF835
:102170008CA00AF0040ABAF1000F4D4C18BF2C468F
:10218000DDE90623DDE9040120940CBF03240424C7
:10219000CDF888B0219417B0BDE8F04FFFF70ABB27
:1021A000012142464B460D9100200021FFF7BAF96C
:1021B0001AF48065804689467FF417AF9FED367B21
:1021C0000EAB06268DED087B0C9326E70424DDE993
:1021D0000623DDE90401374DCDF88CA0CDF888B099
:1021E0002095219417B0BDE8F04FFFF7E3BA0C9BA0
:1021F000681EDFF8C4C018440DE0ACFB0732D208FB
:1022000002EB8203A7EB43033033092F00F8013FB1
:1022100027D917460D46202D05F1010106F1FF369D
:10222000EBD120254BE70022DDE90A011D4BFFF72A
:102230005BFA00287FF427AF002F5BD1013722E73C
:102240000AF00303012B76D0202D3FF473AF0D9BD2
:10225000BBB32D2205F158036B4403F8202C013544
:1022600068E72029DDD0AEB30C9B0E441D4430231B
:1022700001E0B1422FD00131202905F8013FF8D10A
:10228000CFE71D46C5E600BF0000000065CDCD418B
:102290000000000065CDCDC10000000080842E410B
:1022A000FFFFEF7F0000E03F67666666ECAE001060
:1022B000F4AE0010FCAE0010CDCCCCCC202D3FF401
:1022C00039AF1AF0040F0ED11AF0080F3FF432AFF5
:1022D0002022BFE70E462E2206F158036B4403F876
:1022E000202C751CEBE62B22B4E7E3077FF5E7AE65
:1022F0000134E4E6FA077FF5C6AE9FE70BF1FF3B3A
:10230000AB453FF608AF9FE70324DDE90623DDE98F
:1023100004010B4DCDF88CA0CDF888B060E7094BD7
:10232000264603EBC40393ED007B0EAB8DED087BDB
:1023300000250C9371E6BBF1000F85D0E0E600BFED
:10234000F8AE001008AF00102DE9F04F1C469B4D71
:102350009B4BB1F1000A18BF83461D602078994D50
:102360009BB008BFAB469146249E002800F0E78250
:102370000025B04609E02A464B465146D84701356C
:1023800001342078002800F0BD802528F3D10022F8
:10239000631C1C4613F8010BA0F1200110290AD878
:1023A000DFE801F03D09093A090909090909093776
:1023B000093409093100A0F13003092B099440F2D6
:1023C000B0802A2800F0CD802E284FF0000600F0C3
:1023D000B9800027A0F16803122B29D8DFE813F099
:1023E00005012800FE002800F4002800280028002D
:1023F00028002800280028002200280028002800A3
:1024000028002800220042F00102C2E742F0020246
:10241000BFE742F00402BCE742F01002B9E742F025
:102420000802B6E7099B42F4807258780133099399
:1024300067284AD824285AD9A0F12503422B56D818
:10244000DFE813F0F6005500550055005500550023
:1024500055005500550055005500550055005500D4
:1024600055005500550055005500550055005500C4
:1024700055005500550055005500550055005500B4
:10248000550055009E00DD009E005500550055008A
:102490005500550055005500550055005500550094
:1024A0005500550055005500550096015500550042
:1024B0005500550055005500550055005500960132
:1024C000FF0096019E00DD009E00A0F16901C9B2E7
:1024D0000F290CD8012349F241048B40234040F0DE
:1024E000DC810A2900F0E880072900F0C580099CFA
:1024F0002A464B4651460134D847207801350028FA
:102500007FF443AF2C462A46914502D809F1FF33A8
:102510001A464B4651460020D84720461BB0BDE81E
:10252000F08F2346002606EB860600EB460613F8DE
:10253000010F303EA0F130010929F4D909932E286A
:102540007FF447AF099B42F480625878591CA0F190
:102550003003092B40F2F2802A2800F0FE80099116
:1025600037E7434653F8046B9846099B002E58788A
:1025700003F10103BCBF42F0020276420993DEE799
:10258000672800F07581472800F0BA81452800F0DF
:10259000B981CDE9036208F10703029723F0070828
:1025A0002A46F8E802674B4651465846CDE900678F
:1025B000099CFFF7A1FA01340546E2E64923001021
:1025C000FC180020B1170010099B58786C2800F007
:1025D000B081013342F48072099329E7099B42F4E8
:1025E000007258780133099322E7099B58786828CC
:1025F00000F09981013342F08002099318E74628E0
:1026000008BF42F02002CDE9036208F107030297F8
:1026100023F007082A46F8E802674B465146584619
:10262000CDE90067099CFFF793FC01340546A8E655
:10263000099C2A464B465146252001340135D8478E
:102640009FE6940740F17E8158F8040B2A464B46DA
:102650005146C0B2D8476F1C012E98BF3D4608D9DD
:1026600035443A464B46514620200137D847AF42C1
:10267000F7D1099C013484E6404650F8041B002938
:1026800000F0D68042F0210612AA94460A9203E096
:10269000202B00F0D780114601F00F042246092CB0
:1026A00094BF303237320F290CF8012B03F10103AC
:1026B0004FEA1112ECD8C5E0C4465CF8041B087858
:1026C000002F40F0AF806FF0010858B108F1010809
:1026D0000B46884401E0434503D013F8014F002C1A
:1026E000F9D15B1A12F4806E02D0BB4228BF3B4680
:1026F00012F002020A9200F03E81002800F0BB8036
:102700008846BEF1000F00F000812A4664462F443F
:102710000B9307E04B465146D84718F8010F013597
:1027200010B12A46AF42F5D1A4460B9B0A9A002A63
:1027300040F0A180E046099C013422E6002707EB27
:10274000870700EB4700A0F1300711F8010FA0F157
:102750003003092BF3D909913CE64346099953F814
:10276000047B887802319846099127EAE77731E6B9
:10277000622800F08781582800F08D8112F4806370
:1027800000F0738122F0110E1EF4007C40F00F81E6
:102790001EF4807040F0D7811EF0400F424640F09A
:1027A0005E811EF0800F00F0898232F9041B904692
:1027B00081EAE17CACEBE17C1FFA8CFCCA0F0029BA
:1027C00000F0F481634612A98C46CDE90B28B74C82
:1027D0000A9101E0202810D09846A4FB0312D208E9
:1027E00002EB8201A3EB41013031B8F1090F13462E
:1027F00000F101000CF8011BECD8DDE90B28CDE954
:10280000056ECDE9010204970A9B2A4600930A232C
:1028100003934B4651465846FFF718F8099C054666
:102820000134AEE500283FF45DAF07F1FF384DE716
:1028300022F0100612F4806146F021063FF424AF26
:1028400012AA0A9201930A9B804600930823102043
:10285000059300232A46CDE9023051464B4658469F
:1028600006960497099CFEF7F1FF0134054688E5BA
:1028700042F400628DE69E422F467FF65BAF6446CF
:102880003544ED1A3A464B46514620200137D84789
:10289000AF42F7D1A446E0464DE7782840F02181C9
:1028A00012F4806300F0218222F00D0C10220B92B2
:1028B0001CF4007040F0FC801CF4807140F0B98181
:1028C000404650F8042B1CF0400F804600F0AC81CD
:1028D000D2B2002A40F011812CF0100C002B00F035
:1028E0000C81114612AB0A930B9BCDE9056C049742
:1028F000039301912A460A9B00930023029388E7E1
:1029000042F4006242F0200243E61C4667462A4633
:102910004B465146D84718F8010F01350028F6D12B
:102920002346BC4602E79878023342F0C00209937E
:102930007EE59878023342F44072099378E50446C4
:102940000246E1E5012E40F2C6812F466B1E9C191E
:102950003A464B46514620200137D847A742F7D187
:102960003A46354458F8040B4B465146C0B2D84756
:10297000099C013405E59E4240F2B0816446CDE9F0
:102980000BE106EB0508A8EB03082A464B46514627
:1029900020200135D8474545F7D1DDE90BE108781E
:1029A000A446731C00287FF4ABAEE046C3E608F1F2
:1029B000070222F007029046526858F8081BD40F0D
:1029C00051EA020054D1002B40F08081194612AA2E
:1029D0000F954FF0000C1546CDE90B48CDE90D677A
:1029E00032480A9202E0BCF1200F2DD05A1842F171
:1029F0000002A0FB027828F0030707EB9807D21B20
:102A00001E469B1A61F100070C464FF0CC3101FBCA
:102A100003F100FB0711A3FB00731944052307F022
:102A20000108A8FB03389B180A2E03F130034FEA74
:102A3000570774F1000405F8013B0CF1010C47EA5B
:102A4000C1734FEA5101CED20F9DDDE90B48DDE99C
:102A50000D67CDE9056ECDE901C40497D4E652F8BF
:102A6000041BC9B290468C46A8E622F0100E8BE6F5
:102A7000002A0B4601DB1146A9E74B4262EB4202FA
:102A80001146A4E712F4806300F0E78022F00D0CF9
:102A900002220B920CE712F4806300F0248122F0F2
:102AA0000D0242F0200C10220B9201E7CDCCCCCCD1
:102AB00008F1070222F007029046526858F8081BF6
:102AC00010460A4378D12CF0100C002B74D000244F
:102AD00012AB0A930B9BCDE9056C04970393019409
:102AE00008E76F2840F00D8112F4806322F00C0C8F
:102AF00040F0018108220B92DAE61CF0200F14BF8F
:102B00004123612312A886460A90CDE90C860B98D2
:102B1000A3F10A0402E0202912D04246B2FBF0F8E9
:102B200000FB1826F3B2092E03F130068ABF1B19E9
:102B3000F3B2DBB282420EF8013B01F10101EAD2AD
:102B4000DDE90C86D0E6414651F8040BC20F00289F
:102B500000F0AE8080EAE073A3EBE07312A8CDE949
:102B60000B26DFF8C4810A9002E0BCF1200F0FD0E1
:102B70001E46A8FB0342D20802EB8204A3EB4404E6
:102B80003034092E13460CF1010C00F8014BECD83F
:102B9000DDE90B260A9BCDE901C200930A232A46F0
:102BA0008846CDE9056E0497039332E6002B3FF487
:102BB0000AAE12AB0A9322E61CF0200F14BF412389
:102BC000612312AA0A3BCDE90C86CDE90E75CDF83A
:102BD00044B0002490460E4605469B460B9F0A9241
:102BE000CDF840C003E0202C17D006460D462946FC
:102BF00030463A46002308F04BF8D2B2092A02F1D7
:102C0000300388BF02EB0B03BE42DBB275F1000557
:102C100008F8013B04F10104E5D2DDE90C86DDE9A9
:102C20000E75DDE910CB55E71CF0800F18BF92B28E
:102C30004FE6414651F8042BA2B92CF0100C8BB191
:102C400012AB0A930B9B2A4603930A9B8846CDE955
:102C5000056C0497019000934FE622F00C0C0222C1
:102C60000B9225E61CF0200F14BF4123612312AC08
:102C7000A6460A94CDE90C670B9CA3F10A0802E072
:102C8000202812D03A46B2FBF4F704FB1726F3B221
:102C9000092E03F130068ABF4344F3B2DBB2A242ED
:102CA0000EF8013B00F10100EAD2DDE90C67C9E74B
:102CB000002B3FF453AF12AB0A936BE752F8041B9F
:102CC00081EAE17C9046ACEBE17C77E512AB4FF01A
:102CD000000C0A93BDE62A46013543E6013300287D
:102CE0007FF40EAD61E642F0200222F00C0C1022BF
:102CF00000230B92DCE5964608220B922EF00D0C79
:102D0000D6E5692822F0100E04D112F480633FF456
:102D10003BAD37E522F01C0C12F480634FF00A0241
:102D20000B92EBD1C4E500BFCDCCCCCC70B59446B2
:102D30001E4605460C4684B04FF0FF32634602A99A
:102D400000960348CDE90254FFF7FEFA04B070BDC7
:102D5000E91A001010B5094B84B01C684CB1034649
:102D600000914FF0FF3203A90548A047012004B0AD
:102D700010BD00F059FA204604B010BDFC18002028
:102D8000E11A001000BEFDE7074A0346106838B19B
:102D9000064903448B428CBF4FF0FF3013607047ED
:102DA000034908461160F3E7F818002000000820E6
:102DB0003019002008B5FFF7E5FF00BF38B5064D14
:102DC000064CFEF78FFAAC4204D254F8043B984705
:102DD000AC42FAD338BD00BFFCAC0010F8AC001018
:102DE00003680846114618472DE9F04F437D824697
:102DF0008846174681B0002B47D0002A24DD0024E6
:102E000001252046DFF894904E1E04B3737806F136
:102E1000010B0A2B26D02B465E46BB4204F101046F
:102E200005F10105F1DB874204DD391ADAF80030DB
:102E300040449847B84418F8013CA3F10D03B3FA95
:102E400083F35B098AF8143001B0BDE8F08F737822
:102E500006F1010B0A2BDED19AF8143063B15E46FD
:102E60002B46DAE733780D2BF9D0A04204DA211A89
:102E7000DAF80030404498474846DAF8003002213A
:102E800098475E4628462B46C7E711464046DAF883
:102E9000003001B0BDE8F04F184700BF58AF001038
:102EA0000B682DE9F041802B0D46064605D05A1CD3
:102EB0002B442A601E71BDE8F0810F4B1C68A4B141
:102EC0000E4F01F1040801E0246974B12368002B5E
:102ED000FAD03B680BB1A342F6D1204641462A689E
:102EE000FFF782FF2469002CF0D1002301222B443C
:102EF0002A601E71BDE8F081F0180020F41800204F
:102F00002DE9F04782B00D46924699460746FEF7F6
:102F100029F84FF0FF366FF000442F4A821841F134
:102F20000003964274EB03013CBF324623462B4814
:102F300007F0BEFE6B1C804603D1384607F006FD45
:102F40000546274B274E1C68274BB9F1000F18BFC9
:102F50001E46B4B1BAF1000F1AD1DFF8909001E02B
:102F6000246974B12368002BFAD0D9F800300BB172
:102F7000A342F5D120462A463946B0472469002CA1
:102F8000F0D1B8F1000F1FD1284602B0BDE8F0879C
:102F90004FF00A0ADFF8549002E02469002CF0D0C8
:102FA0002368002BF9D0D9F800300BB1A342F4D13B
:102FB00020462A463946B047204601220DF1070136
:102FC0008DF807A0B047E8E7044807F065FE2846FB
:102FD00002B0BDE8F08700BF40420F00481100205A
:102FE000F0180020E12D0010E92D0010F418002049
:102FF000F0B583B006468DF80700FDF7B3FF4FF03C
:10300000FF356FF00044174A821841F100039542E2
:1030100074EB03013CBF23462A46134807F048FEE1
:10302000124B07461C689CB1114D01E024697CB12C
:103030002368002BFAD02B680BB1A342F6D12046AF
:1030400001220DF10701FFF7CBFE2469002CEFD11F
:1030500017B9304603B0F0BD034807F01DFE3046F7
:1030600003B0F0BD40420F0048110020F0180020CE
:10307000F4180020084A136823B90AE003F110028B
:103080001B6933B19842F9D129B903691360016111
:10309000704701B110607047F018002008B500F0CB
:1030A0001FFA012008BD00BF2DE9F04182B006469D
:1030B000FDF758FF4FF0FF326FF00043361841F133
:1030C0000007B24273EB07013CBF16461F46DFF80C
:1030D0006080154DD8F8004014B912E0246984B11D
:1030E0002B680BB1A342F9D1A368002BF6D00121C4
:1030F00001A898470028F1DD9DF8040002B0BDE862
:10310000F0810A4B5A6A974209D89B6AB34204D3AA
:103110006FF0010002B0BDE8F0819742F8D10120C4
:103120000021FDF729FFD5E7F418002000000B402F
:10313000F0180020F0B5174B85B01A68164E5F687E
:10314000164D0192346814B911E024697CB12B68E2
:103150000BB1A342F9D1A368002BF6D0012103A83B
:1031600098470028F1DD9DF80C0005B0F0BD0C4B30
:103170005A6A974209D89B6A01998B4203D36FF030
:10318000010005B0F0BD9742F9D101200021FDF703
:10319000F3FED7E710AE0010F0180020F41800205E
:1031A00000000B40F0B583B006468DF80700FDF730
:1031B000D9FE4FF0FF356FF00044174A821841F1F5
:1031C0000003954274EB03013CBF23462A46134893
:1031D00007F06EFD124B07461C689CB1114D01E0D3
:1031E00024697CB12368002BFAD02B680BB1A34271
:1031F000F6D1204601220DF10701FFF7F5FD246904
:10320000002CEFD117B9304603B0F0BD034807F0EA
:1032100043FD304603B0F0BD40420F00481100208E
:10322000F0180020F418002038B5044607F08EFB93
:10323000012305461A4620462946FFF761FE084B42
:103240001C682CB163682BB198472469002CF9D114
:10325000284638BD2469002CF4D1284638BD00BF6B
:10326000F01800202DE9F041A2B004460D46FDF70C
:1032700079FE4FF0FF376FF00046274A821841F180
:103280000003974276EB03013CBF3A46334623489E
:1032900007F00EFD00262B4607462246204801A9CE
:1032A0000196FFF743FD019B06467BB91D4B1C6849
:1032B0002CB1636843B198472469002CF9D10FBB46
:1032C000304622B0BDE8F0812469F1E7DFF8548090
:1032D000D8F80050EDB1144C01E02D6975B12B68A0
:1032E000002BFAD023680BB1AB42F6D12846019AE5
:1032F00002A9FFF779FD2D69002DF0D1D8F8004023
:103300000195D5E7054807F0C7FC304622B0BDE877
:10331000F0810195D3E700BF40420F004811002023
:10332000A12E0010F0180020F41800200FB400B5F2
:1033300083B004A951F8040B0191FFF793FF03B088
:103340005DF804EB04B07047B1F1000C1DDD0F4ACD
:103350000F4B126830B5D31AB3FA83F30D240D4D19
:103360005B09411E35F913E08C4411F8010F8645C5
:1033700006D093699B06FCD461451060F5D130BD41
:1033800093699D06FCD41460F3E770472819002068
:103390000080074024190020B1F1000C03462DDD08
:1033A00000201F4A591E12689369DB0617D40130AA
:1033B0009369DB06FCD41368844501F8013FF3D11F
:1033C000184B1B684BB150211346916353F8342FAF
:1033D00002F0380203F580531A6060467047114BC3
:1033E0001B684BB150211346916353F8342F02F000
:1033F000380203F580531A6078B17047094B1B6897
:103400005BB1074B50211A681346916353F8342F70
:1034100002F0380203F580531A606FF00200704723
:1034200028190020BC180020054B1B6833B100216F
:10343000044A05481268006891631847704700BF46
:10344000BC18002028190020C0180020024B1A6860
:1034500093691B07FCD470472819002070B51B4ED8
:103460001B4D32680446AA420CBF2225212520B1FB
:10347000184A0B46116889B170BD164E3368002B8F
:10348000FAD0014690632846FDF772F828461249A3
:10349000FDF7B4F8114B34601C6070BD10600F4A2A
:1034A00028460D491360FDF779F801212846FDF7FC
:1034B0005FF8326850211346916353F8342F02F0BD
:1034C000380203F580531A6070BD00BF2819002030
:1034D00000800740BC18002029340010C0180020CC
:1034E00010B50E490E4C0F480F4A104B0078216062
:1034F0000020022112781B78FCF798FF022101209E
:10350000FCF794FF4FF4E1312068FDF763FDBDE85F
:10351000104001210648FFF7ADBD00BF0000074085
:1035200028190020A0B300109CB3001098B300101D
:103530009C080020184A11F0805F184B18BF1346F2
:1035400010B4046884EA010C1CEA030F14D044F39D
:103550000903013310D0124B0A40234043F09F432C
:1035600043F4E0039A4207D00B0D03F4E062B2F596
:10357000806F05D0002000E001205DF8044B70470B
:10358000C4F38922C1F389218A42F3D35BB204EBED
:1035900083240460EEE700BF00FCFF7F00FC0F7097
:1035A00000FC0F00034641F30902B2F1FF3F08BFE0
:1035B00001311A68C1F30901043211440020196075
:1035C000704700BF2DE9F0413E4CC66A0546A06633
:1035D000002E45D03746D0F82480E6602B6B002BB8
:1035E0004ED0E3614FF0FF364246FF21384607F0E8
:1035F0008DF8A36EFF215A6AE069266007F086F80D
:10360000A56E26616B6B002B49D06366AA6B4FF0E9
:10361000FF30002A08BFFF224FF0FF310023E2668F
:10362000C4E90801E96B40F2FE37994208BF6FF028
:1036300000412167296C1846994208BF3946224A41
:10364000C4E90B33C2E90133C2E90433A36242F88F
:10365000083C42F8043CE363A3646167BDE8F08181
:10366000D0F824804046FEF777F80746E06000284F
:10367000B4D1E068FEF78CF8A36E1B6B5BB907E072
:103680004046FEF769F8E0610028ABD1002EF0D08B
:10369000E069FEF77DF8A36E5B6B83B90CE0A86A66
:1036A000FEF75AF860660028B0D1EB6A002BE0D034
:1036B000A36E1B6B002BEBD0606EFEF769F86FF00A
:1036C0000B00CBE7D01200200C1300202DE9F04FA7
:1036D00083B00D9F002F6CD00546894616461C46C8
:1036E000DFF8FCA001F1FF3B2B689E4245D0DDF8DE
:1036F00034804346DAF868C09945DCF81000B4FB22
:10370000F0F300FB134316D8ABB90D9A904212D8D0
:10371000DCF8043021461F46B8FBF0F300FB1383AE
:103720000C9A00933046A8EB03030193B84790B37B
:1037300003B0BDE8F08F0BEB04020244B2FBF0FED5
:1037400000FB1E20121ADCF81800E11A1B1B824233
:1037500094BF9B181B18DCF824E0DCF80480734548
:1037600028BF73463046C5E90061EA68AB60C047D0
:103770000028DDD12B689E42B9D1D5E901130B4455
:10378000A342B4D9A14218D90D9BA1EB04089845D6
:1037900028BF9846AEE7009BA3EB08020D9B13449D
:1037A0000D930C9A019B1A440C921C440D9B002B08
:1037B0009AD1002003B0BDE8F08F1A1B0D9B0C9826
:1037C0009A4228BF1A46EB68611A1944034613440B
:1037D0000C930D9B14449B1A0D9306F021FFE5E713
:1037E000D01200202DE9F04F1E46DFF860B185B001
:1037F000DBF868C00E9CDCF81C30109FB34240F22E
:10380000A280DCF818309246E2199A4200F29B80BE
:10381000002F79D081460D460AF1FF330093B9F1AC
:10382000000F03D0D9F800309E4251D0DDF840801F
:103830002B689E4240D0DBF86800109B02699A45D5
:10384000B4FBF2F102FB114116D8A9B99A4213D880
:10385000436821460193B8FBF2F302FB138730461D
:10386000A8EB070302970F9A019F0393B84700281C
:103870003CD005B0BDE8F08F009B8769234413441A
:10388000B3FBF2FC02FB1C329A1A0B1BBA4294BF28
:103890009B18DB19426A611A934228BF1346D0F87D
:1038A0000480EA6830462E606960AB60C04700283B
:1038B000B5D005B0BDE8F08FD5E901130B44A342A4
:1038C000B9D9A14224D9091B884528BF8846B2E747
:1038D000D9E901130B44A342A8D9A1422AD9109BCC
:1038E000A1EB0408984528BF9846A1E7029F109BCA
:1038F000A7EB0802134410930F9A039B1A440F92EC
:103900001C44109B002B8AD1002005B0BDE8F08F2D
:103910001A1B424528BF4246EB68611A0F981944AA
:10392000034613440F93109B14449B1A109306F004
:1039300077FEE6E71A1B109B611A9A4228BF1A46C7
:10394000D9F80C30EAE76FF0010092E7D0120020BE
:1039500030B5082513460F4987B08A6E044604A87F
:103960009269019002955D6801F1100000951B6855
:10397000FFF738FF60B9049B22689A4208D0059D82
:1039800061688D4204D08B4202D0501B18BF0120C9
:1039900007B030BDD01200204368C1F309018B424B
:1039A0002DE9F04FD2E9009A1F4628BF0F46D0F804
:1039B00000B087B087B30024CDE90210DFF878802B
:1039C00004AE01E0A74224D9D8F86820391BD06999
:1039D00008290D4628BF082581450AEB040326D295
:1039E0009269E818904222D84A464046CDE90065DF
:1039F000FFF76CFE0BEB04012C4438B930462A4625
:103A000006F0DEFD0028DDD009DB022007B0BDE8AE
:103A1000F08FDDE902156B68994204D0F5D90120D9
:103A200007B0BDE8F08F002007B0BDE8F08F6FF061
:103A3000010007B0BDE8F08FD01200202DE9F0475B
:103A4000DFF890801E46D8F86830541E9D6988B013
:103A5000083DAC4230D30746B4FBF5F00138059180
:103A600007F012F93268023001323260A4EB8002B2
:103A70009542B2FBF5F41BD84FF00009059B06AD4B
:103A800004F0010ACAF10202920041463846CDE92B
:103A90000152CDF80090FFF7A5FE50B9BAF1000F22
:103AA0000FD13268023C02F10202079B3260E7D17B
:103AB000002008B0BDE8F087336800200133336090
:103AC000F7E73368013C03F101033360069BD7D16C
:103AD000EEE700BFD01200202DE9F04F85B014466C
:103AE00003914AB94FF0FF3300200E9A13600F9BE9
:103AF0001C6005B0BDE8F08FDFF8D8809946D8F893
:103B00006810541E8B690746A3F1080A544552D326
:103B1000B4FBFAF00138029107F0B6F80230A4EBDA
:103B20008004CA45B4FBFAF502994AD8B9FBFAF009
:103B30000138029107F0A8F8861CA9EB8606B6FBAF
:103B4000FAF6304607F0A0F8A9EB80040AFB164409
:103B50000299B5422DD94FF0040B4FF0010A0DF137
:103B60000C09029401E0D8F8681095FAA5F3AC1B93
:103B7000B4FA84F4B3FA83F3C4F11F049C4228BF5F
:103B80001C46C869039AA300824203F1040C1BD2AD
:103B900089698C4518D804213846CDE9009BFFF788
:103BA00095FD0AFA04F42D1B0028A2D1B542DAD8FB
:103BB000029C039B98E7CA4509D8B9FBFAF0002597
:103BC000B6E74C460026C4E76FF0010091E74C468B
:103BD000EFE700BFD01200202DE9F04F0746006844
:103BE00087B0C31C03D9002007B0BDE8F08FDFF811
:103BF000C8800C46D8F86810BB684A698D6802F125
:103C0000FF399944B9FBF2F302FB1393A9EB0309C3
:103C10004B46FA687968A8470028E5D1002C38D0CF
:103C20004FF0FF33C8F80030D7F804B0D7F80CC015
:103C3000D7F800A0B9F1000F2DD0039704466746CE
:103C400004AD01E0A14531D9D8F86820A9EB040101
:103C5000D06908290E4628BF082682450BEB0403CD
:103C600014D29269F018904210D852464046CDE9DD
:103C70000056FFF72BFD002807EB0401344419D14F
:103C80002846324606F09CFC0028DBD06FF001008D
:103C9000AAE7D7F80CC0D8F86830FF215A6A604606
:103CA00006F034FD4FF0FF333B609CE7039FD7F8ED
:103CB0000CC0F0E7EADA97E7D01200202DE9F047D0
:103CC000DDF820A0BAF1000F3FD016469946054610
:103CD0000F460023DFF88C8002680BE0D8F86820DC
:103CE00052692F60B6FBF2F402FB14643A46341BAF
:103CF000AB606C60BA42F1D16868B042EED8D8F8D7
:103D00006820516A0144B142EAD98A1B524528BF52
:103D10005246E968301A084449461644AAEB020A9A
:103D2000914406F07DFC6A68A968B21A8A4238BFDD
:103D30000A46D8F868100023496AAA608A4207D068
:103D4000BAF1000F01D02A68D4E70020BDE8F0875F
:103D500001212846FFF740FF00230028F0D0BDE8EE
:103D6000F08700BFD01200202DE9F047DDF820A039
:103D7000BAF1000F3AD0234D1646984681460F46B9
:103D800000232A6909E052692F61B6FBF2F402FBB5
:103D900014643A46341BAB616C61BA42AA6EF2D12C
:103DA0006869B042EFD8516A0144B142EBD98A1B2D
:103DB000524528BF5246E969301A08444146164424
:103DC000AAEB020A904406F02BFC6A69A969B21AB0
:103DD0008A4238BF0A46A96E0023496AAA618A420C
:103DE00007D0BAF1000F01D02A69D6E70020BDE85C
:103DF000F08749460448FFF7EFFE00230028F0D083
:103E0000BDE8F087D0120020E0120020F0B5426833
:103E100043690E4602F11001994285B000F23F81DC
:103E20000546042483689F4F29687B401BBA03938F
:103E3000002003AB0094FFF797FF0346002840F0F3
:103E40002B81E9689DF80C30974C83EA010202F05F
:103E50000F0254F8222082EA111282EA131303F0AF
:103E60000F0354F823109DF80D3081EA12110C2233
:103E7000009283EA010202F00F0254F8222082EA43
:103E8000111282EA131303F00F0354F8233083EA6C
:103E9000121C9DF80E209DF80F3082EA0C0101F0F3
:103EA0000F0154F8211081EA1C1C8CEA121202F056
:103EB0000F0254F8221081EA1C1183EA010202F079
:103EC0000F0254F8222082EA111282EA131303F03F
:103ED0000F0354F82330296883EA12136A68EB60F1
:103EE000043233466A60FFF73FFF0346002840F084
:103EF000D380D5F80CC03178727881EA0C0000F0DC
:103F00000F0054F8200080EA1C1C8CEA111101F00B
:103F10000F0154F8210080EA1C1082EA000101F030
:103F20000F0154F8211081EA101181EA121202F0F7
:103F30000F0254F8222082EA111CB178F27881EA4B
:103F40000C0000F00F0054F8200080EA1C1C8CEAE2
:103F5000111101F00F0154F8210080EA1C1082EACF
:103F6000000101F00F0154F8211081EA101181EADB
:103F7000121202F00F0254F8222082EA111C317949
:103F8000727981EA0C0000F00F0054F8200080EAFA
:103F90001C1C8CEA111101F00F0154F8210080EA79
:103FA0001C1082EA000101F00F0154F8211081EA8F
:103FB000101181EA121202F00F0254F8222082EA54
:103FC000111CB179F27981EA0C0000F00F0054F86D
:103FD000200080EA1C1C8CEA111101F00F0154F83A
:103FE000210080EA1C1082EA000101F00F0154F860
:103FF000211081EA101181EA121202F00F0254F826
:10400000222082EA111C317A727A81EA0C0000F0D7
:104010000F0054F8200080EA1C1C8CEA111101F0FA
:104020000F0154F8210080EA1C1082EA000101F01F
:104030000F0154F8211081EA101181EA121202F0E6
:104040000F0254F82200B27A80EA111082EA0001CD
:1040500001F00F0154F8211081EA101181EA1212C7
:1040600002F00F0254F82200F27A80EA111082EA7C
:10407000000101F00F0154F82110AF6081EA101126
:1040800081EA121202F00F0254F822006A6880EAF4
:1040900011110C32E9606A60184605B0F0BD6FF08E
:1040A0000A03F9E70CFCFF7F10B3001041F309038A
:1040B0002DE9F04FB3F1FF3F14BF894601F101092B
:1040C000164642680D46131D4169C9F309094B4460
:1040D0008B4287B000F2E480042304460093836897
:1040E00025F000414B401BBA039105930020216845
:1040F00005ABFFF739FE0290002840F09B80E16895
:104100009DF81430DFF8A08183EA010202F00F026B
:1041100058F82220002D82EA111282EA131303F0CC
:104120000F0358F823109DF8163081EA12119DF8FC
:10413000152082EA010707F00F0758F8277087EA71
:10414000111787EA121202F00F0258F8221081EAC2
:10415000171183EA010202F00F0258F8222082EAC6
:10416000111282EA131303F00F0358F823709DF81D
:10417000173087EA121783EA070101F00F0158F898
:104180002110626881EA171181EA131303F00F030B
:1041900058F8233002F1040283EA11136260E360ED
:1041A0004CDAB9F1000F43D04FF0010B029DDFF85C
:1041B000FCA00DF11307DAF86800D6E90023C16905
:1041C0002B448A42A9EB050E03F1010C05F1010510
:1041D0005DD2806984455AD871465046CDE9007B4E
:1041E000FFF774FA0346002853D16268CDF800B097
:1041F0003B462168FFF7B8FD0346002849D16268B5
:10420000E1689DF813300132626083EA010202F036
:104210000F0258F822204D4582EA111282EA131348
:1042200003F00F0358F8233083EA1213E360C2D17E
:10423000039BA360029807B0BDE8F08FCDF8009013
:1042400033462168FFF790FD40BBE368B9F1000FEA
:1042500016D0013E06EB090016F8012F82EA030191
:1042600001F00F0158F82110B04281EA131383EADC
:10427000121202F00F0258F8222082EA1313EBD137
:10428000E36063684B446360039BA360D2E76FF015
:1042900001030293029807B0BDE8F08F0290C9E7CE
:1042A0006FF00A03F5E700BF10B30010D012002032
:1042B0000068FFF7FBBE00BF2DE9F04FDFF8D8A282
:1042C0004268DAF86840054661698BB001F1070879
:1042D0009044B8FBF1F301FB1383A8EB03084245BC
:1042E00080F0538100231746DFF8B092A94E049363
:1042F00003930FE0C0F3090304331A4404F00044AD
:10430000444090451746C5E90124E96040F2B08079
:10431000DAF8684040F2FE310437A8EB0700884223
:1043200094BF07EB000B07EB010BC34504D2A8F1C8
:1043300008018B4528BF8B464FF0FF332968E069A1
:104340000793814280F00E81A0690BF1040484423E
:1043500000F20881042407A80A4600905B465046F4
:1043600021460194FFF7B2F910B1821C40F0F780AA
:10437000079C296824BAE4434FEAD47C0CF5A06C6E
:104380006A684FEA0C5CABEB0703A86843EA0C03CE
:10439000EF6843EA09035840079303BA87EA1060BD
:1043A00000F00F0056F82000089380EA171080EA0A
:1043B000131707F00F0756F8277087EA101C082715
:1043C000C3F30720009780EA0C0707F00F0756F8A1
:1043D000277087EA1C1787EA101000F00F0056F8C4
:1043E000200080EA171CC3F3074080EA0C0707F09F
:1043F0000F0756F8277087EA1C1787EA101000F09D
:104400000F0056F8200080EA171787EA136000F0C3
:104410000F0056F8200080EA171080EA137303F0AB
:104420000F0356F8237008AB87EA1017EF600020DF
:104430000997FFF799FC002840F09180039B4FF00B
:10444000FF3107986A68002B7FF454AFC0F309036B
:104450000433171D04F000441A44EB6844404245FD
:104460000397C5E9012417460493E960FFF450AFB0
:104470004FF0FF34DAF81000CAF80040C31C1DD812
:10448000DAF86820DAF81830516923440B4496684A
:10449000B3FBF1F201FB1232DAF814109B1ADAF8CE
:1044A0001C20B04700285AD1DAF86830FF215A6A38
:1044B000DAF81C0006F02AF9CAF810402B694345C7
:1044C0004CD2039AAB469146324FCDF81480039AF2
:1044D00002F10408984549D94FF0FF3400E0334613
:1044E0004B4503F10106A8EB030102D1049A944263
:1044F0003CD1DAF86800DBF80020C569AA4235D261
:104500008069864232D80120019008A80090224894
:10451000FFF7DCF818BB9DF82030B04583EA0402B1
:1045200002F00F0257F8221081EA141181EA1313E6
:1045300003F00F0357F823304FEA111283EA1114E6
:10454000CDD89A4212D140F2FE330598039A811ACF
:10455000994294BF5218D21882420CD300200BB05B
:10456000BDE8F08F4FF0A04C00240CE76FF0010085
:104570000BB0BDE8F08FA0F10803934228BF1346AB
:104580001A1D98420392A2D8E8E70023CDE903332D
:104590006EE700BF10B30010D012002000FC0F0027
:1045A0002DE9F04FDFF8C0A30C46DAF8686009681F
:1045B000F76997B0B942CDE90923209D80F0CD81FC
:1045C0006268974240F2C98100238346B069CDE911
:1045D000103303280DD90A46042110A80090019138
:1045E0005046FFF773F803460646002840F0CC819A
:1045F0006268DAF86830D9698A4280F0C3819B69C1
:10460000032B40F2BF81042111AB0093D648002355
:104610000191FFF75BF803460646002840F0B081A1
:10462000DDE910239B1A002B40F3AC81012300200D
:1046300016A954F8232083F0010E01EB830353F8ED
:10464000183CCBF8002054F82E10CBE9023002239E
:104650000B934FF0FF33CDF834E09E46DFF81C8318
:10466000CBF8041020959BF808C09BF809406FEA2E
:104670000C0707F00F0758F827709BF80A0087F01F
:104680007047FF4387EA1C1C0CF00F0C58F82CC035
:104690009BF80B108CEA171C84EA0C0707F00F0735
:1046A00058F82770DAF8683087EA1C1787EA14147C
:1046B00004F00F0458F8244012AE84EA171780EA79
:1046C000070404F00F0458F82440D3E9063584EABF
:1046D000171484EA101000F00F0058F820009542DB
:1046E00080EA141481EA040000F00F0058F820005A
:1046F00080EA141080EA111101F00F0158F82140EE
:104700009A4984EA101403C986E8030040F2B8828B
:1047100000214FF0FF370C9107914FF00409194623
:10472000CDF820E00397CDF818E009F10405A9427F
:10473000C0F0ED8004270FAB00938B484B460197E8
:10474000FEF7C4FF002840F03E829DF83C209DF813
:104750003D3082EA040101F00F0158F82110DDF824
:104760003CC081EA141484EA121202F00F0258F8D5
:1047700022109CFA8CFC81EA141183EA010202F0F7
:104780000F0258F8222082EA111282EA131303F072
:104790000F0358F823109DF83F3081EA12119DF85D
:1047A0003E2082EA010404F00F0458F8244084EA11
:1047B000111484EA121202F00F0258F8221081EA52
:1047C000141183EA010202F00F0258F8222082EA53
:1047D000111282EA131303F00F0358F82340039BCE
:1047E00084EA12148CEA0306002EB4460F96C0F237
:1047F000DD8146F30903B3F1FF3F14BFB64606F16E
:10480000010EDAF86820CEF3090E91690EF1040E5C
:104810000EEB09038B42039300F2C181300D00F4CB
:10482000E063B3F5A06F00F0E680BEF1040F00F086
:10483000A581CDE9046503E03D46DAF86820916979
:10484000D069DBF800206F1C824280F06E818F42BD
:1048500000F26B810126019614AE2B464248009669
:10486000FEF734FFC9F101025319002840F0B2806D
:104870000F999DF8502041F3090CBCF1FF3F14BF84
:104880000846481C82EA040C0CF00F0C58F82C5017
:1048900085EA141C8CEA121202F00F0258F822402A
:1048A000C0F3090204329A4284EA1C148C46C3D82D
:1048B000080DDBF8002000F4E063DDE90465002B5F
:1048C00066D10798C1F38923834201D3013307934B
:1048D0000A9B83EA0107099B1F400ED1CDE91425ED
:1048E0002298219B14AA98470028C0F2718140F0B9
:1048F00011810F9BDBF800200693DDF80C900396E6
:10490000DAF86830D3E906108242FFF40EAF0023D4
:10491000DDF820E08BF81630DBF80C30002B40F08F
:104920006D810D9B16AA02EB830353F8183CDBE95B
:104930000002CBF808300B9BCBE90020012B02D002
:1049400001230B938FE60A4C1346CDE9000440F295
:10495000E73208490848FEF7E9FC6FF001031E46FC
:10496000304617B0BDE8F08FD01200205CB30010C5
:10497000C8AD0010A4AF0010E8AF001010B30010D5
:104980000233EDD1002352E602333FF431AEE7E7C4
:10499000B3F5806F00F0CC80B3F5C06F98D100F014
:1049A00001030C93DAF86830D3E906108242AED2E4
:1049B00009F10C094945AAD312AB00930823BE485C
:1049C00001932B46FEF782FE0230A0D00F99DBF850
:1049D00000207DE7831CDDE9046540F0F780DBF80B
:1049E0000020DDF83CC061460023080D8BF816302E
:1049F00000F4E06363E7D369DBF800209A4286D2D3
:104A000009F10803994282D314AB0093AA482B46BC
:104A10000197FEF75BFE002840F0D580149BA3426F
:104A20007FF475AFDAF82C10E3B283EA010202F0EA
:104A30000F0258F822200F9882EA111282EA13130B
:104A400003F00F0358F82310C4F3072381EA12116F
:104A5000020D86EAC27740F30902B2F1FF3F08BFB8
:104A600001303A4647F30906B6F1FF3F08BF01326D
:104A700083EA010606F00F0658F82660C2F3090221
:104A800086EA111686EA131303F00F0358F8231071
:104A9000C0F30903043381EA16114B4402EB050904
:104AA000C4F3074282EA010000F00F0058F820002A
:104AB000039780EA111080EA121202F00F0258F8F0
:104AC000221081EA101181EA146202F00F0258F8F4
:104AD000222082EA111282EA147101F00F0158F8C3
:104AE00021104FF0FF3481EA1212CAF82C20CBE9D2
:104AF0000337079BDBF80020ABF814300C9B8BF8D6
:104B00001730139BCBF81C30129BCBF81830069B48
:104B10000893F5E60F9A0699684B51400B402BB36A
:104B200002282FD0DBF80020E7E6DDE904655AE72C
:104B3000079B40B203449BB2069F0793604B3B40E8
:104B400043F09F4343F4E0038B423B4612D05F1C8B
:104B50003FF4BEAEC3F38923C1F38927BB42FFF400
:104B6000B7AE069B03EB80230693B1E64FF0FF330D
:104B70000693D7E747F000430693A9E63146DBF8F2
:104B800000209CE6069BC2F38921C3F389238B4254
:104B9000C8D342F000430693DBF80020ADE6DDF811
:104BA00020E0DBF80C308BF81600B7E61B0D03F4A1
:104BB000E063B3F5A06F14D0DBF80C30DDF820E033
:104BC0008BF81600AAE6821C3FF4A1AE0646C7E6A3
:104BD000861CFBD1DDF820E0DBF80C308BF816707A
:104BE0009CE6DAF868305A69DBF80C30B3FBF2F077
:104BF00002FB1030B0FA80F04009DFE7DAF83C3011
:104C000076461A0D12F4E06F209D0FD0DAF840407E
:104C1000DBF800108C4221D0DAF84420DBF80400E5
:104C200082421BD0844219D0914217D03DB1BBF8CB
:104C30001420C6F38923934228BF13462B80002EED
:104C40003346BFF68DAEC3F38923BBF814209A42D6
:104C500094BF00236FF002031E4681E6089AC3F357
:104C60008923C2F389229A4240F2FF3116D0089874
:104C7000441C09D09A42D9D9A0F580631E46D5E7D5
:104C800000238BF816304CE62DB1BBF814308B4264
:104C900028BF0B462B8040F2FF33D6E7089B43F03A
:104CA0000043002DCFD0BBF81420C3F389239A42D0
:104CB00028BF1A462A80C8E7D012002000FCFF7FD8
:104CC00000FC0F002DE9F041002201261346CE61C1
:104CD0000C46054616461A4F84B001F118088A6141
:104CE000E269511C1FD0B96EC969B6EB510F23D2CE
:104CF000296899421CD06868904219D0984206F100
:104D0000010615D0914213D000224FF0FF33CDE9B8
:104D100001220092414620461A46FFF741FC40B965
:104D2000A369581CDCD16FF0020004B0BDE8F0812B
:104D3000002004B0BDE8F0816FF00100F9E700BF8A
:104D4000D01200202DE9F04FD0E903B489B082469B
:104D500088463C4DDFF8F490039421E0AB6EDAF81E
:104D60000020D9698A4267D29B699F4264D84FF07C
:104D7000040C03A95B46009128466146CDF804C0A7
:104D8000FEF7A4FC84EA0903002837D1039A2E49D0
:104D900012BA624022F000420B42039214D0144631
:104DA00044F30906B6F1FF3F14BF2346631C6FF0BE
:104DB0000302C3F3090303F10801D31A8B459B4493
:104DC0000BF10407CAD22BE0013629D0AB6EDAF81A
:104DD0000020C4F30905D9690C2D28BF0C258A428F
:104DE0002AD29B69E919994226D804AE3B46294646
:104DF000144801950096FEF769FCA8B100281EDB57
:104E0000D8E90052DDE90414D8F808300698694062
:104E100062404340C8F80010C8F80420C8F80830C1
:104E2000002009B0BDE8F08F0146C5F10C027019F1
:104E300005F06CFC2046E1E76FF00100F1E7C31CD0
:104E4000EED0EEE7D01200200000F07F0C00F07FE3
:104E50002DE9F04FD0E903B4DFF8648189B0D8F8C8
:104E60003C5082462F0D17F4E0678C46CDE90423B1
:104E700007940FD0D8F84030026893427FD0D8F81A
:104E80004400DAF80410884279D08B4277D082420D
:104E900075D000276FF00309CDF80CC004E0474B34
:104EA000614019424CD0144644F30905B5F1FF3F67
:104EB00014BF2246621CC2F3090202F108018B45AD
:104EC000A9EB020264D3D8F868109344C869DAF8F1
:104ED0000020824261D289690BF104068E425CD8BF
:104EE000042107A800905B4635480191FEF7EEFBD0
:104EF000002841D1079A200D12BA00F4E061039B0B
:104F0000624022F00042B1F5806F0792A3EB0701E7
:104F1000C5D1C4F3892CC1F3892EF445BFD8294BE0
:104F2000194041F0804141F480118C4230D0039B04
:104F300040B207EB8027D91B204B61401942B2D108
:104F4000013525D0D8F868300598C4F30905DAF89A
:104F50000020D969854228BF05468A421DD29B6937
:104F6000A919994219D80499334600911448294641
:104F70000195FEF7ABFBA8B109B0BDE8F08F124F69
:104F8000C5F38925CCF389239D4288BF002781E79B
:104F90006FF0020009B0BDE8F08F6FF0010009B0BA
:104FA000BDE8F08F0146059B04985A1B284405F084
:104FB000ADFBE01909B0BDE8F08F00BF00FCFF7F3A
:104FC000D012002000FC0F0000FCFFFF2DE9F04F85
:104FD000D0E903B4DFF8648189B0D8F83C50824648
:104FE0002F0D17F4E0678C46CDE9042307940FD00A
:104FF000D8F84030026893427FD0D8F84400DAF8FD
:105000000410884279D08B4277D0824275D0002735
:105010006FF00309CDF80CC004E0474B6140194222
:105020004CD0144644F30905B5F1FF3F14BF2246A6
:10503000621CC2F3090202F108018B45A9EB0202CE
:1050400064D3D8F868109344C869DAF80020824223
:1050500061D289690BF104068E425CD8042107A84D
:1050600000905B4635480191FEF730FB002841D1A6
:10507000079A200D12BA00F4E061039B624022F00F
:105080000042B1F5806F0792A3EB0701C5D1C4F3CD
:10509000892CC1F3892EF445BFD8294B194041F022
:1050A000804141F480118C4230D0039B40B207EB29
:1050B0008027D91B204B61401942B2D1013525D040
:1050C000D8F868300598C4F30905DAF80020D969E2
:1050D000854228BF05468A421DD29B69A91999427B
:1050E00019D8049933460091144829460195FEF7D2
:1050F000EDFAA8B109B0BDE8F08F124FC5F38925CC
:10510000CCF389239D4288BF002781E76FF002001E
:1051100009B0BDE8F08F6FF0010009B0BDE8F08F75
:105120000146059B04985A1B284405F0EFFAE01944
:1051300009B0BDE8F08F00BF00FC0F70D012002056
:1051400000FC0F0000FCFFFF002301222DE9F04FBF
:10515000994606461F468FB0CDE90733CDE909339E
:10516000CDE90B33DFF8F4B006930D92DBF868302D
:10517000DB69B9EB530F6DD24FF0FF33CDE9017707
:10518000009732680CA90232326006A81A46FFF76F
:1051900007FA0446002841D1BDF82C50A5B140F2D1
:1051A000022ADFF8BC80AD0244EA0801082304AA01
:1051B00006A8FFF70BFF002804F580642CDBBAEB90
:1051C000105F2ED0A542EFD10C9B013304D00D9B74
:1051D00009F101090133C9D1DBF828403CB937E0B6
:1051E00003F49013B3F5003F26D0246884B3A37969
:1051F000012BFAD1236B03F48812B2F5803FEFD173
:10520000D4E90A12002AEBD0334604F14000FEF73D
:1052100015FC18B9236BE3E7C31CD3D00FB0BDE86E
:10522000F08FDDE90412002ACCD033460020FEF7CF
:1052300005FC0028C6D0F1E7D4E90D21002AD4D01E
:10524000334604F14000FEF7F9FB0028CDD0E5E736
:105250000020E3E76FF00100E0E700BFD01200207C
:10526000080000202DE9F04F0B688BB08046914676
:105270000791059312B140F2FF3313804D4B08F1B3
:10528000180AD3E90823C8E906234B4A4B4C934636
:10529000CDF818A0059E2146304605F085FB37184D
:1052A00021460546384605F02BFB0128064669D005
:1052B000022802D13B782E2B6BD0BB199A460125D0
:1052C00005932146504605F06FFB82442146504627
:1052D00005F016FB90B1022802D001358244F0E7B8
:1052E0009AF800302E2BF8D19AF801302E2BF4D1F9
:1052F000013DF3D10AF102030593CBE73B78002B84
:1053000053D0079B1F604FEA1B53022B4FD140F233
:10531000FF33CBF3892B9B450AD02949082341EA67
:105320008B214046069AFFF751FEB0F1000B3CDBA3
:10533000DDF818A00DF1200B03E02ED198F81730FE
:105340006BB32F21384605F073FA8446BCF1000F89
:105350000CBFCC464FF0000C1A4D33464FF0F042D4
:1053600051464046CDF808B00195CDF800C0CDE9D2
:105370000876FFF715F90028DFDA024610460BB071
:10538000BDE8F08F059B5B5D2E2B96D1BB19059375
:1053900080E77B782E2B90D1F8E783467AE76FF091
:1053A000020210460BB0BDE8F08F5A46E6E76FF0F8
:1053B0000402E3E7D012002000FC2F0020B0001010
:1053C00008000020993900102DE9F04FD0E903546E
:1053D000DFF8688189B0D8F83C608346370D17F450
:1053E000E0678E46CDE90432079410D0D8F84030FB
:1053F0000268934200F08380D8F84400DBF8041080
:1054000088427CD08B427AD0824278D000276FF0DD
:105410000309DFF834A1CDF80CE004E0614011EAA3
:105420000A0F4BD0144644F30906B6F1FF3F14BFF0
:105430002246621CC2F3090202F108018D42A9EB67
:10544000020265D3D8F868101544C869DBF800205B
:10545000824262D28969281D88425ED8042107A849
:1054600000902B4635480191FEF730F9002843D1D2
:10547000079A200D12BA00F4E061039B624022F00B
:105480000042B1F5806F0792A3EB0701C6D1C4F3C8
:10549000892CC1F3892EF445C0D8294B194041F01D
:1054A000804141F480118C4232D0039B40B207EB23
:1054B0008027D91B614011EA0A0FB3D1013627D0EA
:1054C000059BD8F86810129E0433DBF80020C869E9
:1054D0002B44C4F30905B54228BF354682421CD28D
:1054E0008969E818884218D80499144800910195F0
:1054F0002946FEF7EBF8A8B109B0BDE8F08F114FCF
:10550000C6F38926CEF389239E4288BF00277EE713
:105510006FF0020009B0BDE8F08F6FF0010009B034
:10552000BDE8F08F0146129B04985A1B284405F0F1
:10553000EDF8E01909B0BDE8F08F00BFD0120020EF
:1055400000FC0F0000FCFFFF00FCF7FF2DE9F04F0F
:105550004FF0010B8146DFF858A595B0DAF85830C6
:10556000DAF85C20DAE9184008E0013CCAE917548F
:1055700050F82660314200F03A812A4602F01F01BD
:10558000934202F101054FEA52160BFA01F1ECD1F8
:10559000002C00F09482DAF86850DAF85420E969B7
:1055A0001344AA6AB3FBF1F501FB1533CAF8543072
:1055B000D3000026A34228BF23463146CAE9163647
:1055C00005F0A4F801213046B046CDE90C66CDE9DE
:1055D0000E66CDE91066CDE9056912961391DAF8E9
:1055E0006840059AE369B2EB530F80F07682DAF8EF
:1055F00054209A1A1044B0FBF3F503FB1500DAF8B7
:105600005850854211D90122DAF86450470955F8FB
:10561000273000F01F008240134345F82730E3692C
:10562000DAF85420DAF858509A1A0A44B2FBF3F127
:1056300003FB1122AA42C0F079814FF0FF33CDE97C
:1056400001881A46CDF8008012A90CA8FEF7A8FF21
:105650000746002840F0BD80BDF84450FDB1044627
:10566000AB02DFF850940493082308AA0CA844EA7C
:105670000901FFF7ABFC071EC0F2A88040F202222E
:10568000B2EB175F4FEA175300F0DC80B3F5007FF1
:1056900000F05C81049B04F580649C42E4D1129884
:1056A000411C05D0059B1399013305934B1C96D1E2
:1056B000DAF82850DDF8189055B94FE703F4901345
:1056C000B3F5003F00F07B812D68002D3FF446AF1D
:1056D000AB79012BF8D12B6B03F48812B2F5803F24
:1056E000ECD1D5E90A64002CE8D0DAF86880013CF6
:1056F000D8F81870083FBC42C0F0F481B4FBF7F052
:10570000013805F0C1FA831CA4EB8304B4FBF7F461
:10571000DAE91513D8F81C20049505F140081D4658
:1057200033460AAF9818411AB1FBF2F002FB10128F
:10573000AA420BD20126DAF86410500902F01F02C7
:10574000964051F82020324341F82020002C00F0F0
:10575000B381002204F001060092C6F10202920019
:105760004046D34901970292FEF73CF8002840F0EA
:10577000C581DAF86830002E40F0C881DA69DAF8BD
:1057800054100A9D501A2844B0FBF2FC02FB1C0086
:10579000DAF85850A84210D20122DAF864104FEA21
:1057A000501C00F01F0002FA00F051F82C200243B8
:1057B00041F82C20DA69DAE91515012014AB03EB66
:1057C0008000023E50F8283C3444ABE7FA1C3FF41A
:1057D00061AFBE46DAF86830DB6900200021CAE913
:1057E0001601CAF86030704615B0BDE8F08FDAF8DF
:1057F00054301A44DAF86830DB69B2FBF3F103FB8A
:105800001122C9F80020DAE916539D4214D001266E
:10581000DAF8601003E0AB42CAE917310CD05A093C
:1058200050F8224003F01F0206FA02F2224203F16E
:10583000010301F1FF31EED14FF0000E704615B0BB
:10584000BDE8F08FDDE90857002F3FF423AFDAF809
:105850006820013F9169A1F10806B74274D3B7FBF4
:10586000F6F00138079205F00FFA831CA7EB8303CB
:10587000B3FBF6F6079A2B46DAE91510D2699F18A2
:10588000791AB1FBF2F502FB151181420CD201220B
:10589000DAF864004D0901F01F0102FA01F150F835
:1058A00025200A4340F82520002E3FF4F3AE0AAA33
:1058B0000192002206F001050092C5F10202920059
:1058C00000207B490292FDF78DFF8446002840F0BE
:1058D0000781002D40F00A81DAF86870DAF8541078
:1058E000FA690A98531A0344B3FBF2F002FB10332F
:1058F000DAF858004FF0010C83424FEA531E0DD2E4
:10590000DAF8641003F01F0351F82E200BFA03F3AA
:105910001A4341F82E20FA69DAE9151014AB03EBAB
:105920008C0C023D5CF8283C2E44A8E70123DAF8F1
:105930006410500902F01F0203FA02F251F82030FD
:10594000134341F8203078E6002694E7DAF868003F
:10595000DAF85430C169089ACB1A1A44B2FBF1F54F
:1059600001FB1522DAF85850AA4212D20123DAF8C4
:105970006410550902F01F0203FA02F251F82530B3
:10598000134341F82530C169DAF85430DAF8585039
:10599000CB1A099A1344B3FBF1F201FB1233AB4269
:1059A000BFF478AE0122DAF86410580903F01F033F
:1059B0009A4051F82030134341F820306AE6D5E987
:1059C0000D46002C3FF480AEDAF86880013CD8F830
:1059D0001870083FBC42C0F08780B4FBF7F0013874
:1059E00005F052F9831CA4EB8304B4FBF7F4DAE965
:1059F000151305F14000D8F81C2005954FF000085C
:105A00001D46334604900AAF9818411AB1FBF2F0D4
:105A100002FB1012AA420BD20126DAF864105009D8
:105A200002F01F02964051F82020324341F8202016
:105A3000002C61D004F00106C6F102029200CDE90B
:105A400000871B4904980292FDF7CCFE8646002889
:105A50007FF4C0AE002E53D1DAF86800DAF85410A3
:105A6000C2690A9D531A2B44B3FBF2FC02FB1C33A0
:105A7000DAF85850AB4211D24FF0010CDAF864203A
:105A8000590903F01F030CFA03FC52F8213043EAD2
:105A90000C0342F82130C269DAE915154FF0010E06
:105AA00014AB03EB8E0E023E5EF8283C3444ABE7A9
:105AB000D012002008000020049D2B6BFEE5DAF8D0
:105AC0005400144C034440F202221349134800943A
:105AD000FDF72CFC6FF00A0E85E66FF0010E7CE6F8
