:020000041000EA
:10000000002008205D0100101301001015010010F0
:100010001101001011010010110100101101001058
:100020001101001011010010110100101701001042
:100030001101001011010010190100101B01001026
:100040001D0100101D0100101D0100101D010010F8
:100050001D0100101D0100101D0100101D010010E8
:100060001D0100101D0100101D0100101D010010D8
:100070001D0100101D0100101D0100101D010010C8
:100080001D0100101D0100101D0100101D010010B8
:100090001D0100101D0100101D0100101D010010A8
:1000A0001D0100101D0100101D0100101D01001098
:1000B0001D0100101D0100101D0100101D01001088
:1000C0001D0100101D0100101D0100101D01001078
:1000D0001D0100101D0100101D0100101D01001068
:1000E0001D0100101D0100101D0100101D01001058
:1000F0001D0100101D0100101D0100101D01001048
:100100001D0100101D0100101D0100101D01001037
:1001100000BE00BE00BE00BE00BE00BEEFF3058004
:10012000103800BEF2EB88717414001090140010A7
:10013000A801001090A31AE7D3DEFFFF42012110AF
:10014000FF0100009C140000793512AB4FF0000055
:100150002049086006C881F3088810474FF05040D6
:10016000006810B14FF00000F2E70FA40ECC002998
:1001700002D000F015F8F9E71749184A002000E00E
:1001800001C19142FCD1002080F30A8814498847BC
:10019000144988471449884700BEFDE701C901C2D8
:1001A0009A42FBD3704700BF90140010100100204A
:1001B00054020020D4150010000008200000082080
:1001C000D4150010001008200010082000000000C6
:1001D0007047000008ED00E0540200207004002089
:1001E000650F00107D0200105D0F0010F8B500BF14
:1001F0000348044B834202D0034B03B118477047B6
:10020000540200205402002000000000064B074961
:10021000C91A891048BF0131491003D0044B0BB1F2
:1002200001481847704700BF5402002054020020C4
:100230000000000010B5064C237843B9FFF7D8FF43
:10024000044B13B10448AFF300800123237010BDA9
:10025000D8030020000000009C13001008B5044BD8
:100260001BB104490448AFF30080BDE80840CDE766
:1002700000000000DC0300209C130010042100207B
:1002800008B500F015F8084A4FF4FA7013680749EA
:10029000DB4303F001030B601061D36883F0FA03C2
:1002A0009BB2CB60FEE700BF00800A4000900A408E
:1002B00010B44FF480740C4B53F8202003EB8003F0
:1002C000C00082F0400200F1804003F5805C02F043
:1002D000C00200F5203003F54053CCF80020416007
:1002E0001C605DF8044B7047048003400FB400B5F8
:1002F00083B0049C074800F061FF3CB105A920468B
:10030000019100F011FE044800F058FF012000F0B8
:1003100023FE00BF9C130010AC13001070B586467E
:10032000EFF3108572B6124CD4E8CF6F0120002E87
:10033000FAD1C4E8460F002EF6D1BFF35F8F4FF01D
:10034000010CC80801F007030CFA03F31EF800C003
:100350001CEA030608D14CEA030C0EF800C0C4E8FE
:100360008F6F85F3108870BD1046FFF7BFFF00BF89
:10037000FF030020044A1078431CDBB2182B28BF6F
:1003800010231370704700BF300200204FF0E022AE
:10039000936843F000539360704700BF0021044B03
:1003A00003F12002C3E88F1F01339342FAD1704753
:1003B000F40300204FF0E0234FF08032C3F8002414
:1003C000C3F80424C3F80824C3F80C24C3F8102489
:1003D000C3F81424C3F81824C3F81C24C3F8202439
:1003E000C3F82424C3F82824C3F82C24C3F83024E9
:1003F000704700BF012300F01F029340400941B144
:10040000800000F1604000F56140C0F88031036079
:100410007047024A203042F82030704700E100E087
:10042000F8B50D46EFF3108772B6124ED6E8CF2F0F
:100430000123002AFAD1C6E8423F002AF6D1BFF3D1
:100440005F8F0D4B00F110049B680C4A53F8243069
:10045000934203D0994201D000F072FC064B9B6896
:1004600043F82450BFF35F8F0023C6E88F3F87F324
:100470001088F8BDFD03002000ED00E01D01001014
:10048000014B0B4403607047F4030020F8B5124D94
:10049000124EB5421FD22C462368FF277BB1FFF7CF
:1004A00069FF01462846FFF7EBFFA780BFF35F8F88
:1004B0000834B4420FD223682546002BEFD1FFF752
:1004C00059FF01462846FFF7DBFF2771BFF35F8F17
:1004D0000834B442EFD3F8BD4C020020540200208F
:1004E0000D4B1A68EFF3108172B6D2E8CFCF01201E
:1004F000BCF1000FF9D1C2E84C0FBCF1000FF4D1F0
:10050000BFF35F8F00221B68C3E88F2F81F3108831
:1005100040BF0020002170476C0400200000000054
:100520002DE9F04F2DED028B85B0EFF30583DBB2A3
:10053000103B9A0818BF01224FF0010103F003009D
:1005400008BFAB4DAB4B18BFAB4D00EB820253F86D
:10055000226001FA00FB05F541539FEDA38B01904A
:10056000C3F804B02AE0B388190440F18D80B37950
:10057000002B40F0D780B6F90820002AC0F216817F
:10058000736902EB420203EBC203D3E90247B7F1FE
:10059000FF3F08BFB4F1FF3F09D0019B05EB83018A
:1005A000AB6A0A69D21AE31A934238BF0C61284633
:1005B00000F0B8FAA042B941C0F2F880B6F90830AC
:1005C000C5F83CB0002B0093CDDBD6F8149003EBBC
:1005D000430A284609EBCA07D7E9024800F0A2FA05
:1005E000A04271EB0801BEDBB8F1000FC0F2C08081
:1005F0003A69824B9A4200F0EA807988B6F908009D
:1006000089B241EA00407969904703460A4653EAB5
:10061000020100F0AD80002A80F2CE80E31A68EB80
:10062000020839F93A20C7E90238002A9BDB7069D1
:1006300002EB420100EBC101D1E902C7634578EB4F
:10064000070E4FEA42018EDBB6462EF8082F0BE06C
:1006500030F93120A646002A0DDB02EB420400EB04
:10066000C4045100D4E902C76345114478EB07077D
:1006700000EBC104ECDA009B29F83A20AEF8003018
:10068000B38819043FF573AF3369EFF3108272B684
:10069000D3E8CF0F01210028FAD1C3E8401F00287A
:1006A000F6D1BFF35F8F4FF6FF74B0880023316936
:1006B00000B2B480C1E88F3F82F310889842FFF601
:1006C00056AF0746A946746906F1080807EB470EBE
:1006D00004EBCE03D3E90205B6F90830C446002B7B
:1006E00013DBB246009704E034F936309446002B11
:1006F00009DB03EB430604EBC602D2E90271B84200
:1007000075EB0101F0DA5646009FACF8007034F941
:100710003E7024F83E30002FD8DAB3794D46002BD6
:100720003FF429AF0023B371B6F9083006F1080E83
:100730005A1C3BD01A46746903E08646591C3FF4A4
:100740001CAF03EB430104EBC10047889C463F0408
:1007500034F93130F1D5944580ED028BEED0AEF80E
:100760000030328924F831206246A6F808C0E5E757
:1007700039F83A2032813269EFF3108172B6D2E84B
:10078000CF7F0120002FFAD1C2E8470F002FF6D10A
:10079000BFF35F8F7288009B29F83A20738032691B
:1007A0000023C2E88F3F81F31088DCE640BF05B02C
:1007B000BDEC028BBDE8F08F2846CDE9023200F097
:1007C000B1F9029B039AC31842EB010829E7796942
:1007D00008460A69029190470028C9D00299D1E9D8
:1007E000003214E7AFF30080FFFFFFFFFFFFFFFFC2
:1007F00000000B404C04002000800B40210500103D
:100800002DE9F84F364C25692DB1BDE8F84F0A2186
:100810003448FFF735BEDFF8E4800321404600F09E
:100820006FF90326C4F80C80FFF7A4FD4FF0504C7D
:100830002D4B267003442361DCF800300F216370D8
:10084000636961801D834FF00405A3F878504FF071
:100850000505A3F890504FF00605A3F8A8504FF0F7
:1008600007050E2108274FF6FF724FF00A0EA3F876
:10087000C0504FF001094FF00C0C4FF0020B4FF03D
:10088000090A0D204FF00B05A3F868111749A28043
:10089000A3F808E1A160A3F848B0A3F8F0A0A3F87A
:1008A0002051A3F838C1A3F85001A3F83090A3F861
:1008B0006060A3F8D8701A800D4B3046C8F82070DD
:1008C0000C49DC60FFF7ACFD49463046FFF792FD6E
:1008D000094B0A211F640348BDE8F84FFFF7D0BD5C
:1008E000340200206C040020F4030020FFFF1000FD
:1008F0004C0400202105001000200B4000000B409C
:100900000146F0B50069EFF3108772B6D0E8CF5F0B
:100910000124002DFAD1C0E8454F002DF6D1BFF3D8
:100920005F8FB1F902E04C690EEB4E0CBEF1000F87
:100930004FEACC0504EBCC0C3DDB605B0026488025
:100940000869C0E88F6F87F31088BCF80200CCE913
:1009500002230130C0F30E00012838BF0120059B9F
:10096000ACF80200CCF81030069B40EA0E40CCF800
:1009700014300B69EFF3108272B6D3E8CFCF0127A2
:10098000BCF1000FF9D1C3E84C7FBCF1000FF4D1EA
:10099000BFF35F8F8B886353A1F804E00B69C3E852
:1009A0008F6F82F310880122CB68097803F5015319
:1009B0008A405A60F0BD00230A69C2E88F3F87F37E
:1009C00010884FF0FF30F0BD03464089B0EB214F57
:1009D00037DD58690A1402EB420210B500EBC20081
:1009E0001C69EFF3108C72B6D4E8CFEF0122BEF190
:1009F000000FF9D1C4E84E2FBEF1000FF4D1BFF3C0
:100A00005F8F428889B292B28A4207D000221B6966
:100A1000C3E88F2F8CF31088002010BD42F40042F1
:100A200042800121002218699971C0E88F2F8CF350
:100A300010881C78DA68084602F50153A140596015
:100A400010BD0020704700BFF0B506460D4683B0CC
:100A5000EFF30584E4B2002C35D1264F3A78F968DB
:100A600004328B6A51F82220D21AC31A934207D358
:100A700020BF214B586A85421FD9002003B0F0BD2A
:100A800000F058F8864265EB0101002911DB1B4B91
:100A90003846CDE9003432462B46FFF731FF011EC0
:100AA00007DD154B5A6A95421DD920BF1148FFF743
:100AB0008BFF114B586A8542DFD89B6A9E420DD846
:100AC000012003B0F0BD0C4B586A8842D5D39B6A15
:100AD000B342F5D2401A18BF0120CFE7281A18BF39
:100AE000012003B0F0BD9B6A9E42DFD99542DDD163
:100AF000DBE700BF3402002000000B40E1040010DF
:100B000010B4054B054C064AA04214BF1846581CA9
:100B10005DF8044BFFF702BC1404002000800B407A
:100B2000B01300100346416A0A46986A596A8A421D
:100B3000FAD17047034B596A0A46986A596A91423A
:100B4000FAD1704700000B4000EB400C4FEA8C0CD0
:100B50000CF1804C0CF5803CF0B51646DCF8042016
:100B6000051FB2F5803F38BF4FF48032EDB238BF79
:100B7000CCF80420012D2AD94FF40067254C0CF540
:100B80004052176054F82020B2B9DCF80020012D43
:100B900082EA461202F0E0020CF5805632602AD951
:100BA0004FF4006144F820304FF480330CF50052CC
:100BB0001160CCF80430F0BD6769B7FBF2FE0EF1AE
:100BC000010E0EEB4E0EBEF1030EFCD2DDE7012945
:100BD000D2D103240CF540521460DCF80820D2076F
:100BE000FBD5DCF800200B4C82EA461202F0E00252
:100BF0000CF5805632600122DCF800504D4005F0C3
:100C00000305356002FA01F1DCF808200A42FBD046
:100C1000C6E700BF18040020014B53F820007047BE
:100C20001804002070B4039D04682D0345EA0345B1
:100C30001B4B002CB3FBF1F3B2FBF3F61FDB194A9D
:100C4000194B90420CBF4FF400424FF48042174CB6
:100C50001A6003F580531A60A36832EA0303FBD1DC
:100C6000212200F540530433016086601A60026857
:100C7000002AFCDA0822C5601A6070BC704703685D
:100C800003F03F038B42DAD18368C3F30B03B34213
:100C9000D5D1C36803F4EE23AB42D0D1EDE700BF5A
:100CA000001BB70000800540002002400000024009
:100CB000012300EB4000800000F1804000F584102B
:100CC00041600360704700BF0023DB8A002242E8D6
:100CD00000F2520201D4102118470421184700BF26
:100CE000034AD2F82838002BFBD0BFF35F8F704740
:100CF00000000E400021044B044ABFF35F8F43F80D
:100D0000041B9342F9D170470C080E402C080E408A
:100D100010B42F204FF42A64054A064B064914608C
:100D2000D06019605368002BFCDA5DF8044B704703
:100D30000080044000A0044000B0FA00704700BFEB
:100D400008B50148FFF7D2FAD413001038B5054CA6
:100D5000054DAC4204D254F8043B9847AC42FAD358
:100D600038BD00BF581300109813001010B4074886
:100D7000074C084B084A094904601A608B6832EA3C
:100D80000303FBD15DF8044B704700BF0020024015
:100D90007F3BEFEF00300240F6FFF303000002401C
:100DA000044BDB6CB3F5004F03D14FF48022024BB0
:100DB000DA64704700001150002011504FF0E0221B
:100DC000044BD2F8881D0B43C2F8883D10EE300466
:100DD000704700BF030330006FF06041044B054AC9
:100DE00019609368DB4333F06043FAD1704700BF6A
:100DF000003002400000024010B545F25320FFF7DA
:100E000063FFBDE8104003460420184710B545F2C3
:100E10005320FFF759FFBDE8104003460120184753
:100E2000FFF7BCBA10B5054B054C4FF48872184655
:100E3000A16800F0E1F9A06010BD00BF0000002033
:100E400000ED00E00023F0B52B4C83B0C4F88430F3
:100E5000FFF75EFF0122294BDA63636C012BFCD1A3
:100E60000321264A244B11639D6B012DFCD10523E0
:100E700002271E4600242946214A22480097FFF7F0
:100E8000D1FE29463346204A20480096FFF7CAFE85
:100E90003946224604201E4BFFF756FE29462246BD
:100EA00030461C4BFFF750FE2246082021461A4BC5
:100EB000FFF74AFE224609202146174BFFF744FE62
:100EC000224606202146134BFFF73EFE114B2246D9
:100ED00007202146FFF738FE0420FFF79DFE0F4B49
:100EE000A3FB0035AD0CE0B229460134FFF7E0FE6C
:100EF000062CF8D103B0F0BD0000014000300140E5
:100F0000002F685900000540008C8647008005408E
:100F1000001BB70080D1F008006CDC0283DE1B43AD
:100F200000B9704700F008B910B5094B84B01C68CF
:100F30004CB1034600914FF0FF3203A90548A0478A
:100F4000012004B010BD00F039F9204604B010BDF6
:100F500048040020210F001000BEFDE708B5FFF790
:100F6000FBFF00BF38B5064D064CFFF7EFFEAC4265
:100F700004D254F8043B9847AC42FAD338BD00BFC2
:100F80009C13001098130010036808461146184778
:100F90002DE9F04F437D82468846174681B0002BED
:100FA00047D0002A24DD002401252046DFF8949054
:100FB0004E1E04B3737806F1010B0A2B26D02B4684
:100FC0005E46BB4204F1010405F10105F1DB8742F5
:100FD00004DD391ADAF8003040449847B84418F86C
:100FE000013CA3F10D03B3FA83F35B098AF81430D3
:100FF00001B0BDE8F08F737806F1010B0A2BDED14A
:101000009AF8143063B15E462B46DAE733780D2B3D
:10101000F9D0A04204DA211ADAF8003040449847A7
:101020004846DAF80030022198475E4628462B46AB
:10103000C7E711464046DAF8003001B0BDE8F04F8E
:10104000184700BF701400102DE9F04782B00D461C
:10105000924699460746FFF76DFD4FF0FF366FF059
:1010600000442F4A821841F10003964274EB0301B9
:101070003CBF324623462B4800F06AF96B1C804681
:1010800003D1384600F02EF90546274B274E1C6841
:10109000274BB9F1000F18BF1E46B4B1BAF1000FCB
:1010A0001AD1DFF8909001E0246974B12368002B15
:1010B000FAD0D9F800300BB1A342F5D120462A4628
:1010C0003946B0472469002CF0D1B8F1000F1FD188
:1010D000284602B0BDE8F0874FF00A0ADFF85490C6
:1010E00002E02469002CF0D02368002BF9D0D9F855
:1010F00000300BB1A342F4D120462A463946B0470E
:10110000204601220DF107018DF807A0B047E8E75E
:10111000044800F019F9284602B0BDE8F08700BF86
:1011200040420F004C02002040040020890F0010B4
:10113000910F001044040020F0B583B006468DF8EE
:101140000700FFF7F7FC4FF0FF356FF00044174A38
:10115000821841F10003954274EB03013CBF234622
:101160002A46134800F0F4F8124B07461C689CB15D
:10117000114D01E024697CB12368002BFAD02B6863
:101180000BB1A342F6D1204601220DF10701FFF772
:10119000FFFE2469002CEFD117B9304603B0F0BD33
:1011A000034800F0D1F8304603B0F0BD40420F00D4
:1011B0004C020020400400204404002038B50446BE
:1011C00000F090F8012305461A4620462946FFF70D
:1011D0003BFF084B1C682CB163682BB1984724690E
:1011E000002CF9D1284638BD2469002CF4D12846BA
:1011F00038BD00BF40040020844641EA000313F0DC
:10120000030349D1403A23D30B6803604B68436022
:101210008B688360CB68C3600B6903614B69436172
:101220008B698361CB69C3610B6A03624B6A43625A
:101230008B6A8362CB6AC3620B6B03634B6B436342
:101240008B6B8363CB6BC36340304031403ADBD25E
:1012500030320BD30B6803604B6843608B6883604C
:10126000CB68C36010301031103AF3D20C3205D382
:1012700051F8043B40F8043B043AF9D2043208D058
:10128000D2071CBF11F8013B00F8013B01D30B88CA
:1012900003806046704700BF082A13D38B07B1D084
:1012A00010F00303AED0C3F10403D21ADB071CBF56
:1012B00011F8013B00F8013BA4D331F8023B20F8C0
:1012C000023B9FE7043AD9D3013A11F8013B00F8F9
:1012D000013BF9D20B7803704B7843708B788370A5
:1012E0006046704720F0030110F00300C0F10000D9
:1012F00051F8043B00F1040C4FEACC0C6FF00002F3
:101300001CBF22FA0CF213434FF0010C4CEA0C2CD8
:101310004CEA0C4CA3EB0C0222EA030212EACC12B8
:1013200004BF51F8043B0430F4D0C2F1000102EADA
:101330000102B2FA82F2C2F11F0200EBD200704742
:10134000F8B500BF000000005FF800F0ED010020DC
:101350005FF800F081010020F90D00106D0D001004
:10136000A10D0010450E0010D90D0010F50C001055
:10137000210E0010E10C00108D040010250E00104D
:10138000010800103D0D00100D0E0010BD0D0010E5
:0C1390008D030010B50300105D0200107A
:10139C000A2A2A2A2050414E4943202A2A2A0A0086
:1013AC000A000000486172647761726520616C61AB
:1013BC00726D20256420616C726561647920636CA8
:1013CC0061696D656400000048617264206173732B
:1013DC006572740052656C6561736500626F6F7441
:1013EC00325F77323571303830000000322E312EBA
:1013FC00300000007069636F3200000035305F70A0
:10140C00776D000046656220203120323032350085
:10141C0006005250D3F07542E013001006005250F3
:10142C00E182887FE813001006005250ABB3605382
:10143C00F813001006005250BBFF3CB6001400100D
:10144C0006005250861C030208140010060052506D
:10145C005422A29D1014001005005250DE65F46851
:08146C00E81500100D0A000054
:101474001C14001028140010341400104014001020
:0C1484004C1400105814001064140010E8
:101490004FF050412DE9F0410027044616461D4605
:1014A000D1F8008009E02368C3E88F7F8CF31088AF
:1014B0003046294600F078F8F0B92168EFF3108C37
:1014C00072B6D1E8CF2F0123002AFAD1C1E8423FFA
:1014D000002AF6D1BFF35F8F94F904E0BEF1000F4C
:1014E000E1DA0023226884F80480C2E88F3F8CF39D
:1014F00010880120BDE8F0810020BDE8F08100BF28
:1015000030B501460468EFF3108C72B6D4E8CFEF23
:101510000125BEF1000FF9D1C4E84E5FBEF1000F06
:10152000F4D1BFF35F8F90F90440002C11DB002150
:101530000568C5E88F1F8CF310884FF0504C9CF95C
:1015400000C0A44501D1084630BDBDE83040FFF7DA
:101550009FBF4FF05040006800230A680871C2E83E
:101560008F3F8CF31088012030BD00BF0368EFF37C
:10157000108272B6D3E8CFCF0121BCF1000FF9D1B0
:10158000C3E84C1FBCF1000FF4D1BFF35F8F4FF0E5
:10159000FF0C0023016880F804C0C1E88F3F82F38C
:1015A000108840BF704700BF5FF800F0490A001084
:1015B000100000000000000000000000000000001B
:1015C00000000000000000005802002000000000A1
:0415D0000000000017
:1015D400D3DEFFFFFE010000FF01000064EBFFFF0C
:0415E400793512AB98
:040000051000014D99
:00000001FF
