:020000041000EA
:10000000002008205D0100101301001015010010F0
:100010001101001011010010110100101101001058
:100020001101001011010010110100101701001042
:100030001101001011010010190100101B01001026
:100040001D0100101D0100101D0100101D010010F8
:100050001D0100101D0100101D0100101D010010E8
:100060001D0100101D0100101D0100101D010010D8
:100070001D0100101D0100101D0100101D010010C8
:100080001D0100101D0100101D0100101D010010B8
:100090001D0100101D0100101D0100101D010010A8
:1000A0001D0100101D0100101D0100101D01001098
:1000B0001D0100101D0100101D0100101D01001088
:1000C0001D0100101D0100101D0100101D01001078
:1000D0001D0100101D0100101D0100101D01001068
:1000E0001D0100101D0100101D0100101D01001058
:1000F0001D0100101D0100101D0100101D01001048
:100100001D0100101D0100101D0100101D01001037
:1001100000BE00BE00BE00BE00BE00BEEFF3058004
:10012000103800BEF2EB8871A0270010CC27001019
:10013000A801001090A31AE7D3DEFFFF42012110AF
:10014000FF01000040280000793512AB4FF000009D
:100150002049086006C881F3088810474FF05040D6
:10016000006810B14FF00000F2E70FA40ECC002998
:1001700002D000F015F8F9E71749184A002000E00E
:1001800001C19142FCD1002080F30A8814498847BC
:10019000144988471449884700BEFDE701C901C2D8
:1001A0009A42FBD3704700BFCC27001010010020FB
:1001B000BC02002078290010000008200000082060
:1001C000782900100010082000100820000000000E
:1001D0007047000008ED00E0BC020020EC040020A5
:1001E000B91D001061080010B11D0010F8B500BF66
:1001F0000348044B834202D0034B03B118477047B6
:10020000BC020020BC02002000000000064B074991
:10021000C91A891048BF0131491003D0044B0BB1F2
:1002200001481847704700BFBC020020BC020020F4
:100230000000000010B5064C237843B9FFF7D8FF43
:10024000044B13B10448AFF300800123237010BDA9
:100250004004002000000000AC25001008B5044B4D
:100260001BB104490448AFF30080BDE80840CDE766
:100270000000000044040020AC2500102DE9F04FE0
:10028000002408260C274FF038084FF03C0AED4DAB
:1002900085B00DF10F0201232721284600948DF827
:1002A0000F6002F0ABF84FF41670002101F006FA6F
:1002B0000DF10F0201232721284600948DF80F70BD
:1002C00002F09CF84FF41670002101F0F7F90DF1DF
:1002D0000F0201232721284600948DF80F6002F0B9
:1002E0008DF84FF41670002101F0E8F90DF10F02BE
:1002F00001232721284600948DF80F8002F07EF814
:100300004FF41670002101F0D9F90DF10F0201230D
:100310002721284600948DF80FA002F06FF84FF4C3
:100320001670002101F0CAF90DF10F0201232721F7
:10033000284600948DF80F8002F060F84FF4167094
:10034000002101F0BBF90DF10F02012327212846FE
:1003500000948DF80F6002F051F84FF416700021F0
:1003600001F0ACF90DF10F0201232721284600947A
:100370008DF80F7002F042F84FF41670002101F072
:100380009DF90DF10F0201232721284600948DF8D5
:100390000F6002F033F84FF41670002101F08EF96F
:1003A0000DF10F0201232721284600948DF80F80BC
:1003B00002F024F84FF41670002101F07FF90DF1DE
:1003C0000F0201232721284600948DF80FA002F088
:1003D00015F84FF41670002101F070F90DF10F02BD
:1003E00001232721284600948DF80F8002F006F89B
:1003F0004FF41670002101F061F90DF10F02012395
:100400002721284600948DF80F6001F0F7FF4FF484
:100410001670002101F052F90DF10F02012327217E
:10042000284600948DF80F7001F0E8FF4FF4167025
:10043000002101F043F90DF10F0201232721284685
:1004400000948DF80F6001F0D9FF4FF41670002171
:1004500001F034F90DF10F02012327212846009401
:100460008DF80F8001F0CAFF4FF41670002101F0E3
:1004700025F94FF028090DF10F0201232721284605
:1004800000948DF80FA001F0B9FF4FF41670002111
:1004900001F014F98DF80F804FF02C084FF0680B25
:1004A0000DF10F02012327212846009401F0A6FF39
:1004B0004FF41670002101F001F90DF10F02012334
:1004C0002721284600948DF80F6001F097FF4FF424
:1004D0001670002101F0F2F80DF10F02012327211F
:1004E000284600948DF80F7001F088FF4FF41670C5
:1004F000002101F0E3F80DF10F0201232721284626
:1005000000948DF80F6001F079FF4FF41670002110
:1005100001F0D4F80DF10F020123272128460094A1
:100520008DF80F9001F06AFF4FF41670002101F072
:10053000C5F80DF10F0201232721284600948DF8FC
:100540000F8001F05BFF4FF41670002101F0B6F848
:100550000DF10F0201232721284600948DF80F90FA
:1005600001F04CFF4FF41670002101F0A7F80DF1D7
:100570000F0201232721284600948DF80F6001F017
:100580003DFF4FF41670002101F098F80DF10F02B5
:1005900001232721284600948DF80F7001F02EFFCB
:1005A0004FF41670002101F089F80DF10F020123BC
:1005B0002721284600948DF80F6001F01FFF4FF4AB
:1005C0001670002101F07AF80DF10F0201232721A6
:1005D000284600948DF80FB001F010FF4FF416700C
:1005E000002101F06BF86C230DF10F028DF80F3034
:1005F000272101232846009401F000FF4FF41670D4
:10060000002101F05BF80DF10F020123272128469C
:1006100000948DF80FB001F0F1FE4FF41670002138
:1006200001F04CF80DF10F02012327212846009418
:100630008DF80F9001F0E2FE4FF41670002101F0EA
:100640003DF801E0AC0200208DF80F806FF07708D4
:100650000DF10F02012327212846009401F0CEFE60
:100660004FF41670002101F029F80DF10F0201235B
:100670002721284600948DF80F9001F0BFFE4FF41B
:100680001670002101F01AF80DF10F020123272145
:10069000284600948DF80F8001F0B0FE4FF41670DC
:1006A000002101F00BF88C230DF10F028DF80F30B3
:1006B000272101232846009401F0A0FE4FF4167074
:1006C000002100F0FBFF8DF80F806FF037080DF16F
:1006D0000F02012327212846009401F08FFE4FF4DA
:1006E0001670002100F0EAFF0DF10F02012327210F
:1006F000284600948DF80F6001F080FE4FF41670CC
:10070000002100F0DBFF0DF10F0201232721284615
:1007100000948DF80F7001F071FE4FF416700021F7
:1007200000F0CCFF0DF10F02012327212846009491
:100730008DF80F6001F062FE4FF41670002100F09A
:10074000BDFF0DF10F0201232721284600948DF8EB
:100750000F8001F053FE4FF41670002100F0AEFF41
:10076000CC230DF10F028DF80F30272101232846ED
:10077000009401F043FE4FF41670002100F09EFF3C
:100780000DF10F0201232721284600948DF80F80D8
:1007900001F034FE4FF41670002100F08FFF0DF1D0
:1007A0000F0201232721284600948DF80F6001F0E5
:1007B00025FE4FF41670002100F080FF0DF10F02AE
:1007C00001238DF80F7027214FF018072846009459
:1007D00001F014FE4FF41670002100F06FFF8DF849
:1007E0000F601C260DF10F020123272128460094DB
:1007F00001F004FE4FF41670002100F05FFF0DF1D0
:100800000F0201232721284600948DF80F7001F074
:10081000F5FD4FF41670002100F050FF0DF10F02AE
:1008200001232721284600948DF80F6001F0E6FD92
:100830004FF41670002100F041FF272101232846C4
:100840000DF10F0200948DF80F7001F0D7FD4FF4F9
:100850001670002105B0BDE8F04F00F02FBF00BFBB
:100860002DE9F04F89B001F0A5FBC34801F0EAFB88
:10087000C249C34801F09CFD0321042000F084F923
:100880000321052000F080F900220121042000F05E
:1008900099F900220121052000F094F90025FFF7C5
:1008A000EDFCDFF8DCA209204FF00009B54FB84697
:1008B0000023D8F800B0CDE9033905974408002B90
:1008C00040F0E680C4F18804260104F0F00401231E
:1008D0000DF11F0244F008092721504600958DF8BC
:1008E0001F9001F08BFD4FF41670002100F0E6FE22
:1008F00044F00C0401230DF11F02272150460095FE
:100900008DF81F4001F07AFD4FF41670002100F0C1
:10091000D5FE76B201230DF11F0227215046009526
:1009200046F008078DF81F9001F068FD4FF416702F
:10093000002100F0C3FEFFB201230DF11F022721A9
:10094000504600958DF81F7001F058FD4FF4167059
:10095000002100F0B3FE46F00C0601230DF11F024A
:100960002721504600958DF81F6001F047FD4FF498
:100970001670002100F0A2FE012327210DF11F02B5
:10098000504600958DF81F7001F038FD4FF4167039
:10099000002100F093FE9BF80040002C6AD0260155
:1009A00004F0F00401230DF11F0244F0090927218E
:1009B000504600958DF81F9001F020FD4FF4167001
:1009C000002100F07BFE44F00D0401230DF11F0215
:1009D0002721504600958DF81F4001F00FFD4FF480
:1009E0001670002100F06AFE76B201230DF11F029D
:1009F00027215046009546F009078DF81F9001F019
:100A0000FDFC4FF41670002100F058FEFFB20123E8
:100A10000DF11F022721504600958DF81F7001F03F
:100A2000EDFC4FF41670002100F048FE46F00D0674
:100A300001230DF11F022721504600958DF81F60FC
:100A400001F0DCFC4FF41670002100F037FE0123AA
:100A500027210DF11F02504600958DF81F7001F0FF
:100A6000CDFC4FF41670002100F028FE1BF8014F5A
:100A7000002C94D1039B73B958F8040F01F03CFD8E
:100A80000123D8F800B003934408002B3FF41AAFB9
:100A9000C4F1C80418E70826DDE904974FF4FA60AA
:100AA00000F024FE01230DF11F022721504600957E
:100AB0008DF81F6001F0A2FC4FF41670002100F0C9
:100AC000FDFD4FF00C0C01230DF11F02182427210E
:100AD000504600958DF81FC001F090FC4FF4167041
:100AE000002100F0EBFD8DF81F601C2601230DF1A5
:100AF0001F0227215046009501F080FC4FF416702C
:100B0000002100F0DBFD01230DF11F0227215046DB
:100B100000958DF81F4001F071FC4FF41670002114
:100B200000F0CCFD01230DF11F0227215046009556
:100B30008DF81F6001F062FC4FF41670002100F088
:100B4000BDFD012327210DF11F025046009509F13B
:100B500002098DF81F4001F051FC4FF4167000217E
:100B600000F0ACFDB9F10A0F3FF49DAE57F8080F45
:100B700001F0C2FC9BE600BFAC250010A08601007E
:100B8000AC0200205426001010B44FF480740C4BBB
:100B900053F8202003EB8003C00082F0400200F1F4
:100BA000804003F5805C02F0C00200F5203003F5C0
:100BB0004053CCF8002041601C605DF8044B704746
:100BC0000480034010B4084CC90041EA820154F883
:100BD000202004EB8003514003F5805301F00C0109
:100BE0005DF8044B19607047048003400FB400B5F2
:100BF00083B0049C074801F025FA3CB105A92046C2
:100C0000019101F0BBF8044801F01CFA012001F049
:100C1000CDF800BF7C2600108C26001070B58646EB
:100C2000EFF3108572B6124CD4E8CF6F0120002E7E
:100C3000FAD1C4E8460F002EF6D1BFF35F8F4FF014
:100C4000010CC80801F007030CFA03F31EF800C0FA
:100C50001CEA030608D14CEA030C0EF800C0C4E8F5
:100C60008F6F85F3108870BD1046FFF7BFFF00BF80
:100C700067040020044A1078431CDBB2182B28BFFD
:100C800010231370704700BF300200204FF0E022A5
:100C9000936843F000539360704700BF0021044BFA
:100CA00003F12002C3E88F1F01339342FAD170474A
:100CB0005C0400204FF0E0234FF08032C3F80024A2
:100CC000C3F80424C3F80824C3F80C24C3F8102480
:100CD000C3F81424C3F81824C3F81C24C3F8202430
:100CE000C3F82424C3F82824C3F82C24C3F83024E0
:100CF000704700BF012300F01F029340400941B13B
:100D0000800000F1604000F56140C0F88031036070
:100D10007047024A203042F82030704700E100E07E
:100D2000F8B50D46EFF3108772B6124ED6E8CF2F06
:100D30000123002AFAD1C6E8423F002AF6D1BFF3C8
:100D40005F8F0D4B00F110049B680C4A53F8243060
:100D5000934203D0994201D000F01CFF064B9B68E0
:100D600043F82450BFF35F8F0023C6E88F3F87F31B
:100D70001088F8BD6504002000ED00E01D010010A2
:100D80002DE9F04F83B0EFF3108A72B6744ED6E8B7
:100D9000CF2F0123002AFAD1C6E8423F002AF6D11C
:100DA000BFF35F8F6F4B00F110089B686E4A53F8DA
:100DB000285095423FD08D420C464AD06B4FEB1BDA
:100DC0002F2B38D801214FEA50194FEA890909F130
:100DD000604909F5614900F01F0301FA03F0D9F8F1
:100DE0000030C9F8800000EA030BBFF35F8FEFF318
:100DF0000581C9B279B3884577D125F0010EDEF8B7
:100E000008C0644505D17CE0D3F808C0644532D001
:100E10009E469EF9062002EB4203002A07EB83035D
:100E2000F2DA644500F08180BBF1000F20D0C9F8F0
:100E30008001C9F800004B4B9B6843F82850BFF372
:100E40005F8F0023C6E88F3F8AF3108803B0BDE8A8
:100E5000F08F1546EFE725F0010EDEF808C0644577
:100E6000D7D19EF906407346002C08DA154666E095
:100E7000C9F88000DFE793F90640002C56DB04EB4D
:100E8000440C07EB8C0CDCF8082061009A609CF89D
:100E90000720DA719CF90620002A9A715DDBBCF804
:100EA0000420520504D502F5FF1202F5FF521F324D
:100EB000521502F1020C4FF0040E0C2212FB04E258
:100EC00002EB4C026FF0070C3A44ACEB030C6244AB
:100ED000C2F34A0242F460429A80254B21441A78B8
:100EE00007EB81011C708A719EE7CDE9000100F0DB
:100EF00051FEDDE9000125F0010EDEF808C0644571
:100F000087D19EF906407346002CB8DA194A1A4C6C
:100F1000D21A083AC2F30A316FEA01516FEA11514D
:100F200044EA5202DA8099807EE773460029EDD1C7
:100F3000FF228EF806204BF60152AEF804200C4C2E
:100F40004AF6AA2294F800C01946C91B49414A43EF
:100F5000120D83F806C0227066E74BF60152BBE71C
:100F60006504002000ED00E01D01001034020020A7
:100F7000E80400206E02002000F8FFFFF0B5EFF358
:100F80000585EDB2EFF3108C72B62649D1E8CF2F6C
:100F90000123002AFAD1C1E8423F002AF6D1BFF36B
:100FA0005F8F214E40F0010EB4684AF6AA2354F830
:100FB00025701E4A0446A41A644163431B0D7745FD
:100FC0005BB21BD092F906409C421CD092F91240B1
:100FD0009C4223D092F91E409C4221D092F92A4093
:100FE0009C4208BF03240FD0114A002415781370C7
:100FF0008571C1E88F4F8CF31088F0BDB2680D4C3D
:1010000042F82540F0E7002404EB440402EB84029C
:10101000FF2494714BF601549480E5E70124F3E733
:101020000224F1E76504002000ED00E03402002016
:10103000E80400201D010010014B0B4403607047C1
:101040005C040020F8B5124D124EB5421FD22C465A
:101050002368FF277BB1FFF70DFE01462846FFF707
:10106000EBFFA780BFF35F8F0834B4420FD2236831
:101070002546002BEFD1FFF7FDFD01462846FFF77F
:10108000DBFF2771BFF35F8F0834B442EFD3F8BDA5
:10109000B4020020BC0200200D4B1A68EFF310814F
:1010A00072B6D2E8CFCF0120BCF1000FF9D1C2E86F
:1010B0004C0FBCF1000FF4D1BFF35F8F00221B680F
:1010C000C3E88F2F81F3108840BF002000217047B4
:1010D000DC040020000000002DE9F04F2DED028B14
:1010E00085B0EFF30583DBB2103B9A0818BF0122ED
:1010F0004FF0010103F0030008BFAB4DAB4B18BF2D
:10110000AB4D00EB820253F8226001FA00FB05F5BB
:1011100041539FEDA38B0190C3F804B02AE0B3883C
:10112000190440F18D80B379002B40F0D780B6F9D7
:101130000820002AC0F21681736902EB420203EB19
:10114000C203D3E90247B7F1FF3F08BFB4F1FF3F45
:1011500009D0019B05EB8301AB6A0A69D21AE31A35
:10116000934238BF0C61284600F044FBA042B941CD
:10117000C0F2F880B6F90830C5F83CB0002B0093F7
:10118000CDDBD6F8149003EB430A284609EBCA07D7
:10119000D7E9024800F02EFBA04271EB0801BEDB4C
:1011A000B8F1000FC0F2C0803A69824B9A4200F059
:1011B000EA807988B6F9080089B241EA0040796985
:1011C000904703460A4653EA020100F0AD80002A28
:1011D00080F2CE80E31A68EB020839F93A20C7E9B9
:1011E0000238002A9BDB706902EB420100EBC1016F
:1011F000D1E902C7634578EB070E4FEA42018EDB67
:10120000B6462EF8082F0BE030F93120A646002A0A
:101210000DDB02EB420400EBC4045100D4E902C729
:101220006345114478EB070700EBC104ECDA009B3F
:1012300029F83A20AEF80030B38819043FF573AFAF
:101240003369EFF3108272B6D3E8CF0F0121002883
:10125000FAD1C3E8401F0028F6D1BFF35F8F4FF6E5
:10126000FF74B0880023316900B2B480C1E88F3FB9
:1012700082F310889842FFF656AF0746A946746974
:1012800006F1080807EB470E04EBCE03D3E902058D
:10129000B6F90830C446002B13DBB246009704E0D1
:1012A00034F936309446002B09DB03EB430604EB9C
:1012B000C602D2E90271B84275EB0101F0DA564676
:1012C000009FACF8007034F93E7024F83E30002FD7
:1012D000D8DAB3794D46002B3FF429AF0023B37120
:1012E000B6F9083006F1080E5A1C3BD01A4674694C
:1012F00003E08646591C3FF41CAF03EB430104EBAB
:10130000C10047889C463F0434F93130F1D59445FB
:1013100080ED028BEED0AEF80030328924F8312017
:101320006246A6F808C0E5E739F83A20328132690A
:10133000EFF3108172B6D2E8CF7F0120002FFAD1EF
:10134000C2E8470F002FF6D1BFF35F8F7288009B72
:1013500029F83A20738032690023C2E88F3F81F375
:101360001088DCE640BF05B0BDEC028BBDE8F08F15
:101370002846CDE9023200F03DFA029B039AC318D9
:1013800042EB010829E7796908460A69029190470A
:101390000028C9D00299D1E9003214E7AFF30080E8
:1013A000FFFFFFFFFFFFFFFF00000B40BC0400201A
:1013B00000800B40D91000102DE9F84F364C2569FC
:1013C0002DB1BDE8F84F0A213448FFF735BEDFF8EC
:1013D000E4800321404600F0FBF90326C4F80C80AA
:1013E000FFF748FC4FF0504C2D4B2670034423610F
:1013F000DCF800300F216370636961801D834FF05A
:101400000405A3F878504FF00505A3F890504FF06D
:101410000605A3F8A8504FF007050E2108274FF640
:10142000FF724FF00A0EA3F8C0504FF001094FF0C1
:101430000C0C4FF0020B4FF0090A0D204FF00B057A
:10144000A3F868111749A280A3F808E1A160A3F8E6
:1014500048B0A3F8F0A0A3F82051A3F838C1A3F82E
:101460005001A3F83090A3F86060A3F8D8701A80F8
:101470000D4B3046C8F820700C49DC60FFF750FC7B
:1014800049463046FFF736FC094B0A211F640348E2
:10149000BDE8F84FFFF7D0BD7C020020DC0400203F
:1014A0005C040020FFFF1000BC040020D9100010D5
:1014B00000200B4000000B400146F0B50069EFF33F
:1014C000108772B6D0E8CF5F0124002DFAD1C0E8B2
:1014D000454F002DF6D1BFF35F8FB1F902E04C69A3
:1014E0000EEB4E0CBEF1000F4FEACC0504EBCC0C1A
:1014F0003DDB605B002648800869C0E88F6F87F39A
:101500001088BCF80200CCE902230130C0F30E00C1
:10151000012838BF0120059BACF80200CCF8103040
:10152000069B40EA0E40CCF814300B69EFF31082B2
:1015300072B6D3E8CFCF0127BCF1000FF9D1C3E8D1
:101540004C7FBCF1000FF4D1BFF35F8F8B886353E6
:10155000A1F804E00B69C3E88F6F82F310880122C1
:10156000CB68097803F501538A405A60F0BD002327
:101570000A69C2E88F3F87F310884FF0FF30F0BD53
:1015800003464089B0EB214F37DD58690A1402EB5E
:10159000420210B500EBC2001C69EFF3108C72B66A
:1015A000D4E8CFEF0122BEF1000FF9D1C4E84E2FED
:1015B000BEF1000FF4D1BFF35F8F428889B292B2BF
:1015C0008A4207D000221B69C3E88F2F8CF3108852
:1015D000002010BD42F4004242800121002218691F
:1015E0009971C0E88F2F8CF310881C78DA68084650
:1015F00002F50153A140596010BD0020704700BFA3
:101600002DE9F041861F41F1FF35B04271EB050332
:1016100038BF002682B038BF354604460F4600F07A
:10162000F1F8301A65EB0103012873F1000306DAC3
:101630002046394602B0BDE8F04100F01BB900F089
:10164000E1F8864265EB010100290ADB0021174B16
:101650003246009316482B460191FFF72DFF0028D4
:10166000E6DB4FF0000C1348134A436A9D4204D84E
:10167000816AB142DCD29D42DAD11368EFF3108166
:1016800072B6D3E8CF8F5FF0010EB8F1000FF8D13A
:10169000C3E848EFB8F1000FF3D1BFF35F8F1368D1
:1016A000C3E88FCF81F3108820BFDEE799100010C8
:1016B0007C02002000000B40DC04002038B504460A
:1016C0000D4600F09FF84FF0FF326FF000432018F6
:1016D00045EB0101824273EB010438BF1946BDE8B6
:1016E000384038BF1046FFF78BBF00BF10B5044627
:1016F00000F088F84FF47A734FF0FF3C6FF000422F
:10170000E4FB0301BDE81040844572EB01033CBFDC
:1017100060461146FFF774BFF0B506460D4683B02C
:10172000EFF30584E4B2002C35D1264F3A78F968FE
:1017300004328B6A51F82220D21AC31A934207D37B
:1017400020BF214B586A85421FD9002003B0F0BD4D
:1017500000F058F8864265EB0101002911DB1B4BB4
:101760003846CDE9003432462B46FFF7A5FE011E70
:1017700007DD154B5A6A95421DD920BF1148FFF766
:10178000FFFE114B586A8542DFD89B6A9E420DD8F6
:10179000012003B0F0BD0C4B586A8842D5D39B6A38
:1017A000B342F5D2401A18BF0120CFE7281A18BF5C
:1017B000012003B0F0BD9B6A9E42DFD99542DDD186
:1017C000DBE700BF7C02002000000B4099100010F6
:1017D00010B4054B054C064AA04214BF1846581CCD
:1017E0005DF8044BFFF71ABA8404002000800B4018
:1017F000902600100346416A0A46986A596A8A424E
:10180000FAD17047034B596A0A46986A596A91425D
:10181000FAD1704700000B4030B4154A536A9C4619
:10182000946A536A6345FAD1021959414FF0000591
:1018300028BF01250E4B5B6AB5B15A1C08BF1A467A
:1018400008D04FF0FF310A460948436A8B42FCD367
:101850008B4207D1064902E0486A984202D1886A61
:101860009042F9D330BC70479942EDD8F0E700BF01
:1018700000000B40074A536A9942FCD8994207D1AD
:10188000044B02E05A6A914202D19A6A8242F9D329
:10189000704700BF00000B40F8B5054606200E4615
:1018A00000F0E4F8002842D0354A364895420CBF93
:1018B0004FF000624FF08062334B344902601A608F
:1018C0008C6832EA0404FBD12D4B4FF48071EB1A83
:1018D000B3FA83F32E4A5B09062022F8131000F0B6
:1018E000C5F8C300B3FBF6F30133DA0920D1402673
:1018F00001216962AA622F6BFB0722D42B460022CA
:1019000053F82C1F062003F5805422602F6300F04B
:10191000ADF8EB6A40F2013283F0700303F07E030E
:10192000236080000323B0FBF6F02A63AB64F8BDAC
:101930004FF6FE718A421BD922464FF6FF71154EB3
:10194000D7E740F2013205F540531A636B6AAC6A7F
:10195000062004EB831400F089F80F4BA402A3FBCC
:101960000023DB0A0021B4FBF3F0FFF755FFC5E7C6
:10197000C3F34503114603EB82161A46B9E700BFCD
:10198000008007400020024000300240000002407A
:10199000E0040020C0FF3F00757B2B8F00EB400C64
:1019A0004FEA8C0C0CF1804C0CF5803CF0B51646DF
:1019B000DCF80420051FB2F5803F38BF4FF48032B9
:1019C000EDB238BFCCF80420012D2AD94FF40067BE
:1019D000254C0CF54052176054F82020B2B9DCF8C1
:1019E0000020012D82EA461202F0E0020CF580563A
:1019F00032602AD94FF4006144F820304FF480332C
:101A00000CF500521160CCF80430F0BD6769B7FBEB
:101A1000F2FE0EF1010E0EEB4E0EBEF1030EFCD2E5
:101A2000DDE70129D2D103240CF540521460DCF823
:101A30000820D207FBD5DCF800200B4C82EA4612C6
:101A400002F0E0020CF5805632600122DCF8005012
:101A50004D4005F00305356002FA01F1DCF808207D
:101A60000A42FBD0C6E700BF88040020014B53F8B0
:101A7000200070478804002070B4039D04682D0383
:101A800045EA03451B4B002CB3FBF1F3B2FBF3F625
:101A90001FDB194A194B90420CBF4FF400424FF420
:101AA0008042174C1A6003F580531A60A36832EA2B
:101AB0000303FBD1212200F540530433016086600B
:101AC0001A600268002AFCDA0822C5601A6070BC3D
:101AD0007047036803F03F038B42DAD18368C3F396
:101AE0000B03B342D5D1C36803F4EE23AB42D0D18C
:101AF000EDE700BF001BB70000800540002002405A
:101B000000000240012300EB4000800000F1804013
:101B100000F5841041600360704700BF0023DB8A3A
:101B2000002242E800F2520201D410211847042199
:101B3000184700BF034AD2F82838002BFBD0BFF368
:101B40005F8F704700000E400021044B044ABFF332
:101B50005F8F43F8041B9342F9D170470C080E4085
:101B60002C080E4010B42F204FF42A64054A064B6F
:101B700006491460D06019605368002BFCDA5DF8E8
:101B8000044B70470080044000A0044000B0FA00FD
:101B9000704700BF08B50148FFF728F8B4260010C9
:101BA00038B5054C054DAC4204D254F8043B984777
:101BB000AC42FAD338BD00BF68250010A82500103C
:101BC00010B40748074C084B084A094904601A60DA
:101BD0008B6832EA0303FBD15DF8044B704700BF0A
:101BE000002002407F3BEFEF00300240F6FFF3039E
:101BF00000000240044BDB6CB3F5004F03D14FF4FF
:101C00008022024BDA64704700001150002011500E
:101C10004FF0E022044BD2F8881D0B43C2F8883DF8
:101C200010EE3004704700BF030330006FF06041D6
:101C3000044B054A19609368DB4333F06043FAD1E3
:101C4000704700BF003002400000024010B545F26E
:101C50005320FFF763FFBDE81040034604201847F8
:101C600010B545F25320FFF759FFBDE81040034679
:101C700001201847FFF712B810B5054B054C4FF47B
:101C800088721846A16800F0C1FBA06010BD00BFBB
:101C90000000002000ED00E00023F0B52B4C83B0E5
:101CA000C4F88430FFF75EFF0122294BDA63636CCE
:101CB000012BFCD10321264A244B11639D6B012D7E
:101CC000FCD1052302271E4600242946214A22482A
:101CD0000097FFF7D1FE29463346204A2048009658
:101CE000FFF7CAFE3946224604201E4BFFF756FE78
:101CF0002946224630461C4BFFF750FE224608205C
:101D000021461A4BFFF74AFE224609202146174B6F
:101D1000FFF744FE224606202146134BFFF73EFE06
:101D2000114B224607202146FFF738FE0420FFF71B
:101D30009DFE0F4BA3FB0035AD0CE0B229460134EC
:101D4000FFF7E0FE062CF8D103B0F0BD0000014023
:101D500000300140002F685900000540008C864784
:101D600000800540001BB70080D1F008006CDC0249
:101D700083DE1B4300B9704700F022B910B5094B50
:101D800084B01C684CB1034600914FF0FF3203A9A8
:101D90000548A047012004B010BD00F053F92046CB
:101DA00004B010BDB8040020751D001000BEFDE792
:101DB00008B5FFF7FBFF00BF38B5064D064CFFF72F
:101DC000EFFEAC4204D254F8043B9847AC42FAD33D
:101DD00038BD00BFAC250010A825001003680846D8
:101DE000114618472DE9F04F437D82468846174635
:101DF00081B0002B47D0002A24DD00240125204695
:101E0000DFF894904E1E04B3737806F1010B0A2B91
:101E100026D02B465E46BB4204F1010405F10105C4
:101E2000F1DB874204DD391ADAF800304044984784
:101E3000B84418F8013CA3F10D03B3FA83F35B092E
:101E40008AF8143001B0BDE8F08F737806F1010B09
:101E50000A2BDED19AF8143063B15E462B46DAE7DE
:101E600033780D2BF9D0A04204DA211ADAF80030C9
:101E7000404498474846DAF80030022198475E46C9
:101E800028462B46C7E711464046DAF8003001B035
:101E9000BDE8F04F184700BF542700102DE9F04768
:101EA00082B00D46924699460746FFF7ABFC4FF0CD
:101EB000FF366FF000442F4A821841F1000396422A
:101EC00074EB03013CBF324623462B4800F048FB2D
:101ED0006B1C804603D1384600F00EFB0546274BAD
:101EE000274E1C68274BB9F1000F18BF1E46B4B12E
:101EF000BAF1000F1AD1DFF8909001E0246974B1B3
:101F00002368002BFAD0D9F800300BB1A342F5D1E9
:101F100020462A463946B0472469002CF0D1B8F152
:101F2000000F1FD1284602B0BDE8F0874FF00A0A23
:101F3000DFF8549002E02469002CF0D02368002BD5
:101F4000F9D0D9F800300BB1A342F4D120462A468B
:101F50003946B047204601220DF107018DF807A050
:101F6000B047E8E7044800F0F7FA284602B0BDE8B9
:101F7000F08700BF40420F00B4020020B0040020F0
:101F8000DD1D0010E51D0010B4040020084A136890
:101F900023B90AE003F110021B6933B19842F9D169
:101FA00029B9036913600161704701B1106070477E
:101FB000B004002008B500F02FF9012008BD00BFD3
:101FC000F0B583B006468DF80700FFF71BFC4FF015
:101FD000FF356FF00044174A821841F10003954223
:101FE00074EB03013CBF23462A46134800F0B8FABD
:101FF000124B07461C689CB1114D01E024697CB16D
:102000002368002BFAD02B680BB1A342F6D12046EF
:1020100001220DF10701FFF7E5FE2469002CEFD145
:1020200017B9304603B0F0BD034800F095FA3046CA
:1020300003B0F0BD40420F00B4020020B004002005
:10204000B404002038B5044600F056FA01230546D2
:102050001A4620462946FFF721FF084B1C682CB181
:1020600063682BB198472469002CF9D1284638BD04
:102070002469002CF4D1284638BD00BFB0040020EC
:10208000B1F1000C1DDD0F4A0F4B126830B5D31AA9
:10209000B3FA83F30D240D4D5B09411E35F913E0AE
:1020A0008C4411F8010F864506D093699B06FCD439
:1020B00061451060F5D130BD93699D06FCD4146074
:1020C000F3E77047E404002000800740E0040020AC
:1020D000B1F1000C03462DDD00201F4A591E126885
:1020E0009369DB0617D401309369DB06FCD41368CF
:1020F000844501F8013FF3D1184B1B684BB15021C7
:102100001346916353F8342F02F0380203F58053DD
:102110001A6060467047114B1B684BB15021134643
:10212000916353F8342F02F0380203F580531A609C
:1021300078B17047094B1B685BB1074B50211A6897
:102140001346916353F8342F02F0380203F580539D
:102150001A606FF002007047E40400207C04002045
:10216000054B1B6833B10021044A0548126800681A
:1021700091631847704700BF7C040020E4040020EE
:1021800080040020024B1A6893691B07FCD4704737
:10219000E404002070B51B4E1B4D32680446AA4271
:1021A0000CBF2225212520B1184A0B46116889B1A0
:1021B00070BD164E3368002BFAD001469063284656
:1021C000FEF798FD28461249FEF7DAFD114B346000
:1021D0001C6070BD10600F4A28460D491360FEF761
:1021E0009FFD01212846FEF785FD326850211346E8
:1021F000916353F8342F02F0380203F580531A60CC
:1022000070BD00BFE4040020008007407C04002073
:10221000612100108004002010B50E490E4C0F48BB
:102220000F4A104B007821600020022112781B78A1
:10223000FEF7AAFC02210120FEF7A6FC4FF4E131D3
:102240002068FFF729FBBDE8104001210648FFF791
:102250009DBE00BF00000740E4040020C827001016
:10226000C4270010C0270010940200202DE9F0417F
:102270000024012794460268B3F1000ED466054697
:10228000516020469DF81860D7661DDD297977409A
:1022900089027F020EF1FF34A0420CBFB8464FF016
:1022A00000081CF8013B0B4343EA08031361536B1E
:1022B000D906FCD5D2F8801049B9A0421CD0013013
:1022C00086454FF00001E7D12E71BDE8F0814FF057
:1022D0000108536D536B9B05FCD5136EB8F1000FCD
:1022E000EDD069B1CB070BD411F0080F08BF4FF048
:1022F000FF302E71BDE8F081002EE0D1B046E9E755
:102300004FF0FF30E0E700BFF8B5064605200C4669
:10231000FFF7ACFB00EB540CBCFBF4FC214B0CEBCB
:102320004C02A3FB025320499F088C42ACEB93055F
:1023300030D801F1D64101F5A10101F62C0100EBE5
:102340004003A1FB03139B0D013300244F2A98BFC8
:1023500001223168B0FBFCF0CC660C6801F58056B8
:1023600084F0040404F00604346088BF0D4CCD6191
:1023700084BFA4FB024292090F62C1F8A0200A4662
:10238000012452F87C5F6B409BB202F580521360CF
:10239000CC66F8BD054900EB4003A1FB0313DB0D40
:1023A0000133D2E7CDCCCCCC3F420F00893BE65580
:1023B0000E4A30B490420CBF102220220C4D0D4B1F
:1023C0000D4C2A601A60A36832EA0303FBD140F285
:1023D0006515032402680371D3661560D3639363A4
:1023E000C2F8884030BCFFF78FBF00BFAC020020AE
:1023F00000200240003002400000024010B49DF86E
:10240000044001945DF8044BFFF730BF844641EA75
:10241000000313F0030349D1403A23D30B68036050
:102420004B6843608B688360CB68C3600B69036152
:102430004B6943618B698361CB69C3610B6A03623A
:102440004B6A43628B6A8362CB6AC3620B6B036322
:102450004B6B43638B6B8363CB6BC3634030403107
:10246000403ADBD230320BD30B6803604B684360D9
:102470008B688360CB68C36010301031103AF3D2A0
:102480000C3205D351F8043B40F8043B043AF9D22E
:10249000043208D0D2071CBF11F8013B00F8013B01
:1024A00001D30B8803806046704700BF082A13D30E
:1024B0008B07B1D010F00303AED0C3F10403D21ADE
:1024C000DB071CBF11F8013B00F8013BA4D331F836
:1024D000023B20F8023B9FE7043AD9D3013A11F8B6
:1024E000013B00F8013BF9D20B7803704B78437045
:1024F0008B7883706046704720F0030110F0030072
:10250000C0F1000051F8043B00F1040C4FEACC0C80
:102510006FF000021CBF22FA0CF213434FF0010CC3
:102520004CEA0C2C4CEA0C4CA3EB0C0222EA030202
:1025300012EACC1204BF51F8043B0430F4D0C2F1CB
:10254000000102EA0102B2FA82F2C2F11F0200EBBC
:10255000D2007047F8B500BF5FF800F0ED01002031
:102560005FF800F0810100204D1C0010C11B00101D
:10257000F51B0010991C00102D1C0010491B0010A9
:10258000751C0010351B001045100010791C001040
:10259000B9130010911B0010611C0010111C0010D9
:0C25A0008D0C0010B50C00105D02001046
:1025AC007374617274696E672069326320736C6135
:1025BC0076650000080052501A520A005250323010
:1025CC00343020627900000052617370626572725F
:1025DC00792050690000000041206272616E642015
:1025EC006E6577006D6963726F636F6E74726F6C7A
:1025FC006C6572005477696E20636F7265204D3084
:10260C000000000046756C6C20432053444B0000C6
:10261C004D6F726520706F77657220696E000000D7
:10262C00796F75722070726F6475637400000000AE
:10263C004D6F7265206265616E7300007468616E27
:10264C00204865696E7A2100C8250010D425001039
:10265C00E4250010F02500100026001010260010B4
:10266C001C2600102C2600103C26001048260010BA
:10267C000A2A2A2A2050414E4943202A2A2A0A0093
:10268C000A000000486172647761726520616C61B8
:10269C00726D20256420616C726561647920636CB5
:1026AC0061696D6564000000486172642061737338
:1026BC006572740052656C6561736500626F6F744E
:1026CC00325F77323571303830000000322E312EC7
:1026DC00300000007069636F32000000736C61762B
:1026EC00655F69326300000046656220203120324C
:1026FC003032350006005250D3F07542C02600101F
:10270C0006005250E182887FC82600100600525005
:10271C00ABB36053D826001006005250BBFF3CB63A
:10272C00E026001006005250861C0302E82600101A
:10273C00060052505422A29DF4260010050052505F
:10274C00DE65F4688C2900100D0A000055415254C6
:10275C0020737464696E0000554152542073746484
:10276C006F7574005541525420737464696E202F38
:10277C00207374646F7574000600525053B4F4A146
:10278C007027001008005250120000000800525030
:04279C009210000097
:1027A000C0250010002700100C270010182700106B
:1027B00024270010302700103C2700104827001065
:0C27C000982700109027001084270010BC
:1027CC004FF050412DE9F0410027044616461D46B6
:1027DC00D1F8008009E02368C3E88F7F8CF3108860
:1027EC003046294600F078F8F0B92168EFF3108CE8
:1027FC0072B6D1E8CF2F0123002AFAD1C1E8423FAB
:10280C00002AF6D1BFF35F8F94F904E0BEF1000FFC
:10281C00E1DA0023226884F80480C2E88F3F8CF34D
:10282C0010880120BDE8F0810020BDE8F08100BFD8
:10283C0030B501460468EFF3108C72B6D4E8CFEFD4
:10284C000125BEF1000FF9D1C4E84E5FBEF1000FB7
:10285C00F4D1BFF35F8F90F90440002C11DB002101
:10286C000568C5E88F1F8CF310884FF0504C9CF90D
:10287C0000C0A44501D1084630BDBDE83040FFF78B
:10288C009FBF4FF05040006800230A680871C2E8EF
:10289C008F3F8CF31088012030BD00BF0368EFF32D
:1028AC00108272B6D3E8CFCF0121BCF1000FF9D161
:1028BC00C3E84C1FBCF1000FF4D1BFF35F8F4FF096
:1028CC00FF0C0023016880F804C0C1E88F3F82F33D
:1028DC00108840BF704700BF5FF800F01917001058
:1028EC0010000000000000000000010000000000CB
:1028FC0000000000000002000000000000000000CA
:10290C000000030000000000000000000000FF00B9
:10291C000000000001B5486801318E460047704642
:10292C0009380149884701BD7D0F001000000000E7
:10293C00000000000000000000000000000000008B
:10294C00C00200208120001085210010D120001031
:10295C00952100100000000000010000000009405B
:0C296C000000000000000000000000005F
:10297800D3DEFFFFFE010000FF010000C0D7FFFF0C
:04298800793512ABE0
:040000051000014D99
:00000001FF
