:020000041000EA
:10000000002008205D0100101301001015010010F0
:100010001101001011010010110100101101001058
:100020001101001011010010110100101701001042
:100030001101001011010010190100101B01001026
:100040001D0100101D0100101D0100101D010010F8
:100050001D0100101D0100101D0100101D010010E8
:100060001D0100101D0100101D0100101D010010D8
:100070001D0100101D0100101D0100101D010010C8
:100080001D0100101D0100101D0100101D010010B8
:100090001D0100101D0100101D0100101D010010A8
:1000A0001D0100101D0100101D0100101D01001098
:1000B0001D0100101D0100101D0100101D01001088
:1000C0001D0100101D0100101D0100101D01001078
:1000D0001D0100101D0100101D0100101D01001068
:1000E0001D0100101D0100101D0100101D01001058
:1000F0001D0100101D0100101D0100101D01001048
:100100001D0100101D0100101D0100101D01001037
:1001100000BE00BE00BE00BE00BE00BEEFF3058004
:10012000103800BEF2EB8871448400106C8400101B
:10013000A801001090A31AE7D3DEFFFF42012110AF
:10014000FF010000A8880000793512AB4FF00000D5
:100150002049086006C881F3088810474FF05040D6
:10016000006810B14FF00000F2E70FA40ECC002998
:1001700002D000F015F8F9E71749184A002000E00E
:1001800001C19142FCD1002080F30A8814498847BC
:10019000144988471449884700BEFDE701C901C2D8
:1001A0009A42FBD3704700BF6C84001010010020FE
:1001B00084060020E08900100000082000000820CC
:1001C000E089001000100820001008200000000046
:1001D0007047000008ED00E084060020D40C0220E7
:1001E000A17800105904001099780010F8B500BFEC
:1001F0000348044B834202D0034B03B118477047B6
:10020000840600208406002000000000064B0749F9
:10021000C91A891048BF0131491003D0044B0BB1F2
:1002200001481847704700BF84060020840600205C
:100230000000000010B5064C237843B9FFF7D8FF43
:10024000044B13B10448AFF300800123237010BDA9
:100250008008002000000000F880001008B5044B62
:100260001BB104490448AFF30080BDE80840CDE766
:100270000000000084080020F88000102DE9F04103
:10028000104807F083FC192004F0C2FD19264FF036
:10029000010343EC446000244FF050470A4DDFF85F
:1002A0002C8039682B688B4203D04046296007F0C8
:1002B000EFFC44EC40604FF4FA6084F0010405F078
:1002C00047FBEEE7F8800010D00500200C810010FD
:1002D0002DE9F0412E4A88B002AC05AB07CA83E88D
:1002E000070084E8070021462A4800F08FFC002818
:1002F00039D005F0F5FA4FF0FF360B466FF00045A8
:10030000864275EB030102463CBF32462B46224C27
:100310002048A2600268E3601F49526990470024A8
:100320004FF0010C4FF400722346CDE900C41B4985
:100330001B484FF050471B4DDFF870801A4E03F0FA
:10034000B9FB39682B688B4203D04046296007F01F
:100350009FFC2146304607F09BFC40F6B830013444
:1003600003F0B8FDEDE705F0BBFA4FF0FF360B46A2
:100370006FF00045864275EB030102463CBF2B46F9
:1003800032460021044CC4E902230B68FFDE00BFA3
:10039000F081001088060020D80500202881001078
:1003A0007D020010C805002050810010348100102B
:1003B00038B505460C4605F093FA4FF0FF3C6FF058
:1003C0000042134BC31841F100019C4572EB010040
:1003D0003CBF114663462A6828465269C4E9023187
:1003E000214690470B4B0C4819684A1C1A6007F0CD
:1003F0004FFC4FF05041094B09681A688A4200D1FE
:1004000038BD19600648BDE8384007F041BC00BF60
:1004100080969800F408002070810010CC05002020
:100420008C81001010B5022484B003A800234FF47F
:100430000072019006490094064803F03BFB01213D
:10044000039802F057FB03F05FFB04B010BD00BF40
:10045000A4810010D102001008B507F04FFB054839
:1004600007F094FB0449054807F012FCFFF7DAFF98
:10047000002008BDB0810010C4810010D48100109C
:1004800003460122002083F831207047704700BFE7
:1004900010B504464FF0FF31006A01F0D1FD94F829
:1004A0003030013384F8303010BD00BF10B5D1E9D1
:1004B00005300C469847002302461946E261206940
:1004C0001A46BDE8104001F035BB00BF38B51446F0
:1004D0001D4605F005FA241A65EB0103012C73F1A2
:1004E000000215DB00220D49A1429A4105DABDE860
:1004F00038404EF6612003F0EDBC094B04F2E730C2
:10050000A3FB0030BDE838408009013003F0E2BCB5
:100510000020BDE8384003F0DDBC00BF0087930336
:10052000D34D621010B5C36A044682B023B103688C
:1005300002461B690C499847A06A28B1002305218F
:100540001A46009304F022FB206A08B101F090FDE6
:10055000606A08B101F08CFD38220021204602B00B
:10056000BDE8104007F00EBD81040010F0B5044650
:1005700089B0006A0E46154601F0CCFA074602F033
:1005800099FF874224D0144B0322002101200193BC
:100590000596069501F07EFA0246236804926946A4
:1005A0002046DB6998472368694620465B6A98477E
:1005B0004FF0FF31049801F0ABFC236869461B6AD9
:1005C00020469847049801F053FD079809B0F0BD04
:1005D00005F026FCD7E700BFAD0400102DE9F84375
:1005E000074614461D46184EDFF86080DFF860901D
:1005F000736A9D4206D8B26AA24201D3BDE8F8836D
:100600009D42FBD105F06CF9201A65EB0101012830
:1006100071F10003F2DB002280458A4100F2E733EA
:1006200009DBA9FB03318909786A013101F070FC0B
:100630000028DDD0E2E74EF66121786A01F068FC1F
:100640000028D5D0BDE8F88300000B400087930355
:10065000D34D62102DE9F04F4FF0000905461A4BBB
:10066000DFF86880DFF868A083B0D3E90076284619
:1006700000F06CFBB14208BFB84204468B461FD065
:1006800005F02EF9241A6BEB010B012C7BF1000312
:10069000EDDBA04579EB0B0B04F2E732B1BF4EF670
:1006A0006122AAFB023292090132A86A00230421C6
:1006B000009204F06BFA0028D9D003B0BDE8F08FA7
:1006C0004FF0FF32F1E700BFA082001000879303D4
:1006D000D34D621030B590F830300446012B83B012
:1006E00008D0006A013B84F8303003B0BDE83040E8
:1006F00001F0ECBAC56A02F0DDFE85422ED094F816
:100700003030206A013B84F8303001F0DFFAE06AD3
:1007100060B3EFF3058212F0FF0514D102F0CAFEB8
:10072000E16A814222D02A460223084600952946E2
:1007300003F044FE2B462A462946606A03B0BDE812
:10074000304001F0F7B90022114603F039FF0021D3
:10075000606A03B0BDE8304001F01ABB2046FFF7E5
:1007600079FF94F83030206A013BBCE703B030BD1C
:10077000012330B50446C06A83B00B7220B3EFF397
:10078000058212F0FF050AD00022114603F018FF7F
:100790000021606A03B0BDE8304001F0F9BA02F010
:1007A00089FEE16A81420FD02A460223084600955D
:1007B000294603F003FE2B462A462946606A03B009
:1007C000BDE8304001F0B6B903B030BD30B583B0FC
:1007D00004F0FEF90446C06A20B3EFF3058212F07C
:1007E000FF050AD00022114603F0EAFE0021606AEC
:1007F00003B0BDE8304001F0CBBA02F05BFEE16A25
:1008000081420FD02A46022308460095294603F06C
:10081000D5FD2B462A462946606A03B0BDE8304024
:1008200001F088B903B030BD70B5044682B00AE06B
:10083000013B206A84F8303001F048FA40BF94F858
:100840003130002B3DD100214FF0FF32084603F03C
:100850000FFD94F8313003F0FF0593BB4FF0FF31EB
:10086000206A01F0EDFB94F830302046013384F823
:100870003030FFF7EFFE94F83030012BD8D1E66A24
:1008800002F018FE864235D094F83030206A013BE1
:1008900084F8303001F01AFAE06A0028CED0EFF385
:1008A000058212F0FF0612D02A46294603F088FE80
:1008B0002946606A01F06CFA40BF94F83130002B91
:1008C000C1D0002002B0BDE8704003F081B902F051
:1008D000F1FDE16A8142B1D032460223084600961A
:1008E000314603F06BFD334632463146606A01F013
:1008F00021F9A3E72046FFF7ADFE94F83030206AD7
:10090000013B84F8303001F0E1F997E770B5044617
:100910000D4682B04FF0FF31006A01F091FB94F870
:1009200030302946013384F83030204600F0D8F9C1
:1009300094F830300546012B08D0013B206A84F83A
:10094000303001F0C3F9284602B070BDE66A02F00B
:10095000B1FD86422DD094F83030206A013B84F8F6
:10096000303001F0B3F9E06A0028ECD0EFF30582F3
:1009700012F0FF0612D102F09DFDE26A8242E2D03F
:100980003146022310460096324603F017FD3346E7
:1009900032463146606A01F0CDF8D4E700221146B4
:1009A00003F00EFE0021606A01F0F2F9284602B061
:1009B00070BD2046FFF74EFE94F83030206A013BB0
:1009C00084F8303001F082F9BDE700BF70B504460D
:1009D0000D4682B04FF0FF31006A01F031FB94F810
:1009E00030302946013384F83030204600F08CF94D
:1009F00094F830300546012B08D0013B206A84F87A
:100A0000303001F063F9284602B070BDE66A02F0AA
:100A100051FD86422DD094F83030206A013B84F895
:100A2000303001F053F9E06A0028ECD0EFF3058292
:100A300012F0FF0612D102F03DFDE26A8242E2D0DE
:100A40003146022310460096324603F0B7FC334687
:100A500032463146606A01F06DF8D4E70022114653
:100A600003F0AEFD0021606A01F092F9284602B061
:100A700070BD2046FFF7EEFD94F83030206A013B50
:100A800084F8303001F022F9BDE700BF70B50446AC
:100A90000D4682B04FF0FF31006A01F0D1FA94F8B0
:100AA00030302946013384F83030204600F03CF9DC
:100AB00094F830300546012B08D0013B206A84F8B9
:100AC000303001F003F9284602B070BDE66A02F04A
:100AD000F1FC86422DD094F83030206A013B84F836
:100AE000303001F0F3F8E06A0028ECD0EFF3058233
:100AF00012F0FF0612D102F0DDFCE26A8242E2D07F
:100B00003146022310460096324603F057FC334626
:100B100032463146606A01F00DF8D4E700221146F2
:100B200003F04EFD0021606A01F032F9284602B060
:100B300070BD2046FFF78EFD94F83030206A013BEF
:100B400084F8303001F0C2F8BDE700BF70B504464C
:100B50000D4682B04FF0FF31006A01F071FA94F84F
:100B600030302946013384F83030204600F0A6F8B2
:100B700094F830300546012B08D0013B206A84F8F8
:100B8000303001F0A3F8284602B070BDE66A02F0EA
:100B900091FC86422DD094F83030206A013B84F8D5
:100BA000303001F093F8E06A0028ECD0EFF30582D2
:100BB00012F0FF0612D102F07DFCE26A8242E2D01E
:100BC0003146022310460096324603F0F7FB3346C7
:100BD00032463146606A00F0ADFFD4E7002211468C
:100BE00003F0EEFC0021606A01F0D2F8284602B062
:100BF00070BD2046FFF72EFD94F83030206A013B8F
:100C000084F8303001F062F8BDE700BFF0B504466B
:100C10004FF05047012683B034220D4604300021A6
:100C200007F0B0F9204B268323603B680420A376AD
:100C300001F014F80346032230460021236200F03D
:100C400029FF0646194B002200934FF0FF3123463F
:100C50001748666203F044FF236AA062E3B1636A47
:100C6000D3B1C8B12A6804F12C0301930092234642
:100C70006A681049104802F01DFF01280CD1A968CC
:100C800001254B1C08BF3968E06A05FA01F101F043
:100C900031FF284603B0F0BD236820465B6B9847C0
:100CA000002003B0F0BD00BF24820010CD0700106B
:100CB000FC8100101082001029080010836800F1E8
:100CC00008021BB906E01A461B681BB19942FAD10B
:100CD000002070470023116001200B60704700BFA7
:100CE000836843B1994202D107E0994207D01A467E
:100CF0001B68002BF9D11846704700F108020B68F9
:100D000001201360704700BF4368021D1BB906E055
:100D10001A461B681BB19942FAD100207047002384
:100D2000116001200B607047436843B1994202D1C2
:100D300007E0994206D01A461B68002BF9D11846E5
:100D40007047021D0B6801201360704783682DE90E
:100D5000F04107463BB300F1080504F0C1FDD7F8A8
:100D60000880B8F1000F1ED0AC4643460026D3E9F8
:100D70000224B0EB020E61EB040EBEF1000FA8BF1F
:100D800066469C461B68A4BF10462146002BEED148
:100D9000002E3CD031683846D1E9002332609847B4
:100DA000BB68002BD9D17C68002C37D00025237A72
:100DB00023B3214663682572384698472468002C7F
:100DC000F5D1184BD7F80880D3E90001B8F1000F2E
:100DD00010D04246D2E90234C51A61EB0402012D5B
:100DE00072F10002D8F80080F0DB18462146B8F115
:100DF000000FEED1C7E90401BDE8F0812468002CA2
:100E0000D5D1084BD7F80880D3E90001DEE77C682C
:100E1000002CCBD1034BD3E90001DAE7014BD3E936
:100E20000001E7E7A08200100FB400B583B0049C76
:100E3000074806F0ABFE3CB105A92046019106F03B
:100E400011FD044806F0A2FE012006F023FD00BFBC
:100E50005C82001024810010F8B5431E0A3311D8BB
:100E600010F0070300F108046DD0A3F10902A242BB
:100E700008D31030C41A01F01BFF384922460D6810
:100E800015BB0AE001F014FF34490A6822B10025BD
:100E900003F018F82846F8BD1446314B58074BD1DB
:100EA000184603F50035083D25F007050D600021C3
:100EB0002C4EEB1AC6E90001C5E900112A49C0E928
:100EC00000530B6029490B60002AE0DD274F3E6884
:100ED000A642DCD3234B18461B6803E01A6822B1F4
:100EE000184613465968A142F8D3AB42CFD01D46ED
:100EF000A1EB040C55F8082BBCF1100F026007D9C8
:100F0000214603EB040ECEF804C01A51C0F800E0ED
:100F10000024154A761A106841F0004186421448B0
:100F200038BF16600268596001321C603E60026082
:100F300002F0C8FF2846F8BDD81D20F0070003F5D1
:100F400000350346AFE701F0B3FE04490D6815B163
:100F5000002CBBDA9BE722469FE700BF3809002040
:100F6000D00B00208C0C02205C0C02204C0C0220C8
:100F7000680C022048B138B550F8043C0446002BF8
:100F800002DA50F8082C0AB138BD704723F000434C
:100F90001A4D40F8043C01F08BFE2A6854F8040C0A
:100FA000174B11182960A4F1080219461B689A42D0
:100FB000FBD84D6801EB050C62450FD01518AB420C
:100FC00012D044F8083C914218BF0A600D4A1368D9
:100FD00001331360BDE8384002F074BF28440A189A
:100FE00093424860F2D10A46074C2468A34203D0DA
:100FF000D3E90045284450601460E4E74C0C02201B
:101000008C0C02206C0C0220380900200A4B93F94A
:101010000020002A0FDB4FF050410123D1F8880156
:101020009340184207D04FF0E0224FF08050C1F8B3
:101030008C31C2F8040D7047F0050020002300B584
:1010400083B0019300F060FA019B002BFCD003B049
:101050005DF804FB10B503F00DF8044601F03CFE0A
:1010600028B14FF0E0234FF08052C3F8042D204602
:10107000BDE8104003F094B810B504224FF0E0240E
:10108000002322610520A36103F02CFE0721044BFD
:10109000A3FB00239B09013B6361216110BD00BFDD
:1010A000D34D62104FF0E0234FF07F42002130B566
:1010B00085B00391C3F81C2DD3F81C3D1B0E8DF891
:1010C00007309DF807309DF807301A060CD5039BB2
:1010D000013303939DF807305B00DBB28DF80730D6
:1010E0009DF807301B06F2D4039B082B40D0039BCE
:1010F000C3F107031B0203F4E0634FF0504125489E
:10110000254A036012780B689A4233D04FF0E023EF
:1011100000244FF05045D3F8202D204942F47F029F
:10112000C3F8202D0E20C3F81C4D04F0E1FC1C492F
:101130000B2004F0DDFC2A681A4BFF211A2043F82B
:10114000224003F0FDFF1A20174903F0CBFE0121D6
:101150001A2003F0A1FE00F0CFF9286801F0F0FE9C
:10116000029400F0D1F9029B002BFCD005B030BDF9
:101170000023C2E7FFF780FF4FF0E022D2F8203DC6
:101180000A4943F07F43C2F8203D0F2004F0B0FC31
:10119000BCE700BFE00B0220F10500203115001074
:1011A000C9150010D80B02200D10001055100010AA
:1011B00008B500F0A9F9BDE80840FFF773BF00BF0C
:1011C0004FF0E0234FF08052C3F8042DBFF34F8F50
:1011D000BFF36F8F704700BF836913F8023C662B23
:1011E00000D070474FF0E023D3F8882D42F470020E
:1011F000C3F8882DD3F8342F42F04042C3F8342F7F
:1012000000F05EB92DE9F04F4FF0113E4FF08074C1
:1012100040E909E34FF0073340F8044C164C40F81E
:10122000343C40E903424FF005334FF006324FF0B3
:10123000123B40E90F324FF0033A4FF002394FF0C2
:1012400001384FF010374FF009364FF008354FF0A6
:1012500004346FF0020340E905AB40E9078940E937
:101260000B6740F8305C40F8404C40F8443C40F894
:10127000481DBDE8F08F00BF3D10001070B50E2076
:1012800003F08AFD0F2003F087FD0121032004F005
:10129000C7FC024601234FF05041002452B2084ED1
:1012A0009340084D32700848C1F88C31C1F8843140
:1012B0002C7004F091FCFFF7F5FE204670BD00BFD6
:1012C000F0050020F1050020B1110010EFF30583B7
:1012D0000F2B84BF014A9B5C704700BFF0E300E026
:1012E000094B1B78FF2B0BD0EFF30583DBB22BB13F
:1012F0004FF05042106800EB4300704702F0DAB83C
:101300004FF0504318687047F105002010B5204B8E
:101310008E461B780268FF2B82B02FD04FF0010C55
:101320001C4BD21A1C4BA3FB02131B0903EB4303F8
:10133000A2EBC3020CFA02F140BF00240368C3E829
:101340008F4F8EF31088EFF30583DBB233B9134B65
:10135000186802B0BDE8104000F0DCB90F4B01AADC
:101360001868019400F00AFA019B2BB14FF0E023BA
:101370004FF08052C3F8042D02B010BD40BF0023CF
:101380000268C2E88F3F81F3108802B010BD00BF31
:10139000F10500209C080020ABAAAAAA480C022054
:1013A000F0B5354C064694F800C00F46BCF1FF0F6F
:1013B00014461D4683B04ED004F092FA40F2E73353
:1013C000B4EB000C65EB01011CEB030041F10001E3
:1013D000B0F57A7F71F100031CDA00233268C2E8AD
:1013E0008F3F87F31088254B5A6A95420CD94FF0EE
:1013F000E0234FF08052C3F8042DBFF34F8FBFF3AB
:101400006F8F002003B0F0BD9B6AA34230D3012050
:1014100003B0F0BD4FF47A72002306F041FE0028BD
:10142000DBD000233268C2E88F3F87F310880122A7
:10143000009031681248091A1248A0FB01600009A7
:1014400000EB4000A1EBC0010F4802FA01F1006877
:1014500000F006F9C7E700230268C2E88F3F81F376
:1014600010882046294603B0BDE8F04004F0C2B918
:101470009542BCD00120CBE7F105002000000B40D5
:101480009C080020ABAAAAAA480C022008B500F0CC
:10149000D9F8014B186008BD480C022001234FF019
:1014A0005042034991F900108B40C2F880317047D7
:1014B000F005002000000000000000000000000017
:1014C0000BA10CC9126853F82210086806C881F3F2
:1014D0000B88022181F31488203080F30988BFF340
:1014E0006F8F4FF0000080F311881047AFF300803A
:1014F000000000D02809002062B661B6BFF34F8F0C
:10150000BFF36F8F66DF00BFEFF311804FF0100164
:1015100081F31188BFF34F8FBFF36F8F704700BF08
:1015200080F31188BFF34F8FBFF36F8F704700BFF9
:10153000EFF309811EF0100F08BF21ED108AEFF3C1
:101540000B82734621E9FC0F55FC084457FC0964E3
:1015500059FC0A8401E9F00319A00CC8106853F87B
:10156000203019604FF0100181F31188BFF34F8FC5
:10157000BFF36F8F01F0E4FC4FF0000080F311889F
:101580000FA10CC9126853F8221008681838B0E887
:10159000F00345EC004447EC016449EC0284B0E8F8
:1015A000FC0F13F0100F08BFB0EC108A82F30B8809
:1015B00080F30988184700BFAFF30080AFF30080C5
:1015C000000000D0280900201EF0040F0CBFEFF32C
:1015D0000880EFF30980014908470000D911001085
:1015E0002DE9F04106460D4601F062FB336834698F
:1015F00006F10C072B43A74233601ED04FF00008C2
:101600000AE01D4206D0D30148BF48EA050802F0AF
:1016100095FC3368A7420ED020460268646812F039
:10162000806F43F0007122F07F45EAD035EA030C69
:10163000E9D0A742F0D123EA08033360BDE8F041C6
:1016400002F040BC10B51C20FFF706FC044620B198
:10165000002340F8043B00F09FF8204610BD00BF77
:101660002DE9F04106461F460D46904601F020FB4D
:1016700034689FB92C420AD0B8F1000F09D024EA8F
:101680000505356002F01EFC2046BDE8F081069B92
:101690001BBB02F017FC2046BDE8F08135EA0403CD
:1016A000EAD0069B002BF4D0B8F1000118BF01214D
:1016B0001A46090641F080612943301D01F0E6FD1C
:1016C00002F000FCF8B102F09DFD830104460BD549
:1016D00024F07F442046BDE8F081B8F1000118BF36
:1016E00001211A460906E7E702F0DCF834686FB911
:1016F000254205D0B8F1000F02D024EA0505356077
:1017000002F002FDE4E702F0BBF8DCE735EA04038F
:10171000F6D1EFE72DE9F04106460D4601F0C8FA93
:101720003368346906F10C072B43A74233601ED09F
:101730004FF000080AE01D4206D0D30148BF48EA36
:10174000050802F0FBFB3368A7420ED02046026872
:10175000646812F0806F43F0007122F07F45EAD098
:1017600035EA030CE9D0A742F0D123EA080333603D
:1017700002F0A8FB3068BDE8F08100BF8C4600B5E0
:10178000864613467146624602485DF804EB03F054
:1017900029BA00BFE11500104FF0FF31002200F11F
:1017A0000803C0E90131C36003610260704700BFF4
:1017B00000230361704700BFD0E9003210B4946881
:1017C0000133C1E90124616091605DF8044B086157
:1017D0000360704730B40D686B1C10D000F1080333
:1017E0001C465B681A68AA42FAD902684B6001324B
:1017F00099608C606160086130BC02607047046968
:101800006368F2E70346026910B454684068996857
:101810009C428160486008BF5160002110685DF8FB
:10182000044B013819611060704700BF70B5154650
:10183000026C0446866B2AB905684DB30020013658
:10184000A66370BD7DB9406806F026FB6368226C14
:101850001344A26863609342F0D32368013628469C
:101860006360A66370BDC06806F016FB226CE36877
:1018700051429B1A2268E360934202D2A3680B4450
:10188000E360022DDAD1012E38BF01260020D7E710
:10189000806801F033FF0136A560D1E72DE9F04300
:1018A000064685B001F0FEFF96F845305DB2002D8A
:1018B0001CDD06F1240708E0A26BE36B03969A4255
:1018C0003DD36B1EDAB25DB282B1B46C002CF3D1A1
:1018D000736A5BB1384601F077FD0028F1D001F062
:1018E000DFFD6B1EDAB25DB2002AEED1FF2386F86F
:1018F000453002F009FC01F0D5FF96F844305CB2A7
:10190000002C14DD06F1100503E0631EDAB25CB2B0
:101910006AB133695BB1284601F056FD0028F4D066
:1019200001F0BEFD631EDAB25CB2002AF1D1FF23E2
:1019300086F8443005B0BDE8F04302F0E5BB94F80A
:101940004580226CD4F838904FFA88F8A2B9236801
:10195000002B2FD009F10103B8F1FF3FA3631ED183
:10196000636A002BADD004F1240001F02DFD0028A6
:10197000A7D001F095FDB4E7606803A906F08CFAE2
:101980006368226C1344A2686360934209F1010307
:10199000A36324BF23686360B8F1FF3FE0D001F088
:1019A00095F940458DD908F101084FFA88F884F877
:1019B000458086E7A068019301F0A0FE019BB8F185
:1019C000FF3FA36009F10103A363814608D1636A65
:1019D0009BB9B9F1000F3FF474AF01F061FD80E7EE
:1019E00001F074F94045F4D908F101035BB284F8C1
:1019F0004530B9F1000FF0D163E704F1240001F0A4
:101A0000E3FC00287FF46BAFB9F1000FE5D158E794
:101A1000F0B5846C83B0A26BE36B01909A4203D360
:101A20000025284603B0F0BD94F84560226CA76BF2
:101A300076B2E2B1606801A906F02EFA6268236C02
:101A40001A44A36862609A4201D323686360002548
:101A50000137731CA76313D1636A002BE1D004F133
:101A6000240001F0B1FC002818BF0125D9E7256842
:101A7000002DECD1A06801F041FEA5600546E7E726
:101A800001F024F98642CCD2013676B284F8456062
:101A9000C7E700BFF8B5C0B31746A1FB0023054652
:101AA0000E4693BB01FB00F010F1550F2DD85430BA
:101AB000FFF7D2F9044640B356B300F15403C4E92A
:101AC0000F56236001F0EEFED4E90F3101FB03F362
:101AD0002268591A13440025A360FF2362600A4458
:101AE000E260A56304F1100084F8443084F84530C6
:101AF000FFF752FE04F12400FFF74EFE02F004FB54
:101B000084F850702046A564F8BD00242046F8BD36
:101B10000346D4E710B5044601F0C4FE236823B998
:101B2000A46802F0F1FA204610BD002402F0ECFA9D
:101B3000204610BDF0B5044685B01E4601920F4602
:101B400001F0B0FEA26BE36B9A424DD3022E62D03D
:101B5000002005460DE002F0D7FA2046FFF79EFE72
:101B600002F0B0F901F09EFEA26BE36B9A423BD308
:101B70000120019B002B59D0002848D002F0C4FA64
:101B800001F096F801F08EFE94F84430FF2B08BF68
:101B900084F8445094F84500FF2808BF84F8455065
:101BA00002F0B2FA01A902A802F012FA002842D10A
:101BB00001F078FEA26BE36B9A42CCD102F0A4FA5A
:101BC000019904F1100001F047FB2046FFF766FE83
:101BD00002F078F90028C5D101F052FE01F062FE52
:101BE000A26BE36B9A42C3D2324639462046A56BBC
:101BF000FFF71CFEA36C23B3022E14D02046FFF780
:101C000007FF38BB02F080FA012005B0F0BD02A842
:101C100001F03AFCB2E7324639462046A56BFFF7A1
:101C200005FEA36C6BB1002DECD1E7E702F06CFA76
:101C3000002005B0F0BD2046FFF730FE02F042F96B
:101C4000F6E7636A002BDCD004F1240001F0BCFB52
:101C50000028D7D001F014FED4E700BF70B50546C8
:101C60005420FFF7F9F8044668B3002601232060EA
:101C7000C363066401F016FED4E90F20FF2300FBC6
:101C800002F22168101A61600A440144C4E9022189
:101C9000A66304F1100084F8443084F84530FFF75F
:101CA0007BFD04F12400FFF777FD02F02DFA3346A7
:101CB00032463146204684F85050A664A66026601D
:101CC000E660FFF737FF204670BD00BF38B5856876
:101CD000044601F0EFFB854201D0002038BDE368E7
:101CE000013BE3600BB1012038BD1A46194620467E
:101CF000FFF720FFF7E700BF2DE9F84304469046C1
:101D00001D460F46FFF7E2FA02F0B4F9A26BE36B4F
:101D100006469A4208D3022D06D00024304602F02F
:101D20003FFA2046BDE8F883394694F845702A46C4
:101D300020467FB2D4F83890FFF778FD7B1C08D19D
:101D4000A36C7BB1022D1DD1B9F1000F1AD0012473
:101D5000E4E700F0BBFF8742F9D201377FB284F895
:101D60004570F4E7636A002BF1D004F1240001F020
:101D70002BFB0028EBD0B8F1000FE8D00123C8F806
:101D80000030E4E72046FFF743FE0028DFD0F2E70B
:101D9000F8B504460E46FFF799FA02F06BF9A36B0B
:101DA000E26B05469A4215D994F845200133FF2A83
:101DB000A36357B214D1A36CE3B12046FFF728FE0A
:101DC00010B10EB1012333600124284602F0E8F976
:101DD0002046F8BD0024284602F0E2F92046F8BD6E
:101DE00000F074FF8742EFD201377FB284F845706C
:101DF0000124EAE7636A002BE6D004F1240001F035
:101E0000E3FA0028DDD1DFE7F0B5044685B00F46E0
:101E1000019201F047FDA56B002D56D1019B002BCF
:101E200035D002A801F030FB2E4602F06DF900F02B
:101E30003FFF01F037FD94F84430FF2B08BF84F8D2
:101E4000446094F84530FF2B08BF84F8456002F0E9
:101E50005BF901A902A802F0BBF8E8B901F022FD84
:101E6000A36B33BB02F050F9019904F1240001F097
:101E7000F3F92046FFF712FD02F024F800283BD0CA
:101E800001F010FDA56B05BB019B002BCDD102F02D
:101E90003BF9002005B0F0BD2046FFF7FFFC02F043
:101EA00011F801F0FFFCA36B002BF0D002F02CF92D
:101EB000E6E702F029F92046FFF7F0FC02F002F80D
:101EC00001F0F0FCA56B002DDED0226C5AB1E16868
:101ED000A36811449942E16028BF2168384628BFB1
:101EE000E16005F0D9FF2369013DA5633BB902F02C
:101EF0000BF9012005B0F0BD01F0C2FCC0E704F110
:101F0000100001F061FA0028F1D001F0B9FCEEE711
:101F1000F0B50446002685B0019101F0C3FCA36B27
:101F200035463746002B39D1019B002B6CD0002D54
:101F300050D002F0E9F800F0BBFE01F0B3FC94F8D9
:101F40004430FF2B08BF84F8447094F84530FF2BD1
:101F500008BF84F8457002F0D7F801A902A802F082
:101F600037F840BB01F09EFCA36B002B39D102F087
:101F7000CBF82368002B4DD0019904F1240001F027
:101F80006BF92046FFF78AFC01F09CFF00283ED049
:101F900001F088FCA36B0125002BC5D02268013B12
:101FA000A363002A48D02369002B3CD102F0ACF88F
:101FB000012005B0F0BD2046FFF770FC01F082FF64
:101FC00001F070FCA36B4BB902F09EF88EB90020B3
:101FD00005B0F0BD02A801F057FAAAE702F094F8A4
:101FE000D6E702F091F82046FFF758FC01F06AFFAF
:101FF000CEE701F057FC616A19B1236B1968C1F192
:102000002001A06801F0D8FB02F07EF8DFE701F0C4
:1020100037FCBDE701F046FCA06801F0F3FA064684
:1020200002F072F8A8E704F1100001F0CDF90028E1
:10203000BCD001F025FCB9E702F006F9A060B2E7D8
:1020400070B5866804460D4601F034FA864208D021
:1020500029462046FFF75CFF10B1E3680133E360D7
:1020600070BD0120E3680344E36070BD0000000020
:102070001B4B5A68904218D0DA6890421ED05A69B9
:1020800090421DD0DA6990421CD05A6A90421BD00F
:10209000DA6A90421AD05A6B904219D0DA6B9042A9
:1020A00008BF072202D0FEF765BF00229FED0A7B22
:1020B00003EBC20383ED007BFEF75CBF0122F5E773
:1020C0000222F3E70322F1E70422EFE70522EDE71E
:1020D0000622EBE7AFF300800000000000000000E4
:1020E00040080020002955D0444B5A68904272D0D5
:1020F0001A6810B4002A2CD0DA6890427BD09A6813
:10210000002A41D05A69904273D01A69002A42D0FD
:10211000DA69904265D09A69002A42D05A6A9042A0
:1021200044D01A6A002A45D0DA6A90425BD09A6A93
:10213000002A44D05A6B904257D01A6B002A43D0E1
:10214000DA6B904253D09B6B002B42D05DF8044B6E
:102150007047DA6890424ED05A69904249D01A4688
:10216000DC69A0423DD05C6AA0421FD0DC6AA0427C
:1021700039D05C6BA04238D0DC6BA04237D0C2E9CA
:1021800000105DF8044B70475A69904231D003F15A
:102190000802E5E77047DA69904222D003F11002A5
:1021A000E1E75A6A904201D0154ADFE7042203EBC7
:1021B000C202E4E7DA6A904215D0124AD9E75A6BB4
:1021C000904212D0104AD7E7DA6B90420FD00F4AF4
:1021D000D5E70F4AD3E7002203EBC202C2E90010A1
:1021E00070470322E3E70522E1E70622DFE7072243
:1021F000DDE70222DBE70122D9E700BF400800202B
:10220000580800206008002068080020700800209E
:102210007808002070B504460E46154601F042FBD2
:1022200094F84430FF2B04BF002384F8443094F822
:102230004530FF2B04BF002384F8453001F064FFD4
:10224000A36B23B12046BDE87040FFF727BB04F124
:1022500024002A46314601F069F82046BDE8704066
:10226000FFF71CBB064C08B5FEF7AAFF2368022B3C
:1022700000D8FEE7FEF7A4FF2368022BFAD8F8E7A0
:102280004409002038B5836B002B02DB836B012BE4
:1022900031DD2D4C016B22682368126BDB6B4D1E08
:1022A000DB07236848BF02F1FF329B6B002B03DB87
:1022B00023689B6B012B1FDD4FF0FF336268616861
:1022C000126BC96BC907616848BF02F1FF32896BA5
:1022D000002903DB6168896B01291CDD01330AD009
:1022E00000254FF050431B689D4228D054F82530FC
:1022F0009B6B02331AD138BD144B1B68002BDBD10A
:102300009542D9DB416801F00101002914BF15464F
:102310004FF0FF33D2E70D4949680029DED1AA42C8
:10232000DCDC42689207D9D50125DAE72846FFF7B9
:10233000B5F86FF0010254F825309A6338BD0122D8
:10234000024B43F8252038BD28090020C80C022084
:102350004FF050411B4B0A6853F8220000282CD044
:1023600053F82200013843F822000A6853F822305B
:102370001BBB10B51449154B53F822400B78013B99
:10238000DBB20B702BB9124800F81230114AC2E8C8
:102390008F3F4FF050424B781068013BDBB24B70DF
:1023A00033B90B4A0C4902EB40025370C1E88F3F2E
:1023B0000020FFF7B5F80CB910BD7047BDE810401C
:1023C000FEF7FEBED80B0220D40B0220C80C022060
:1023D000D00B0220AA080020AB0800202DE9F8430A
:1023E0009600804630460D469946FEF735FD00289A
:1023F00000F0888007467C20FEF72EFD044600286A
:102400007DD07C22002105F0BDFD32463846A52155
:10241000676305F0B7FD636B043E1E4426F00706B4
:10242000002D3ED02B7884F84030002B36D06B78CE
:1024300084F8413093B3AB7884F8423073B3EB78CF
:1024400084F8433053B32B7984F8443033B36B7939
:1024500084F8453013B3AB7984F84630F3B1EB79A7
:1024600084F84730D3B12B7A84F84830B3B16B7A13
:1024700084F8493093B1AB7A84F84A3073B1EB7A7F
:1024800084F84B3053B12B7B84F84C3033B16B7BE9
:1024900084F84D3013B1AB7B84F84E30002384F8C0
:1024A0004F30089D04F108001F2D28BF1F2525630C
:1024B000A565FFF77DF9C5F1200504F11C00FFF7C4
:1024C00077F94B4642463046616BE5616461A46230
:1024D000FEF798FE4FF0FF320C4B20609845A26348
:1024E00008D00B4B984505D0099B03B11C602046D2
:1024F000BDE8F883E36B43F00103E363F4E7384698
:10250000FEF738FD00242046BDE8F8839D29001021
:10251000652200104FF05042504B12682DE9F047F1
:10252000DFF844914E4CDFF8448153F822604D4D62
:1025300040E0DFF83CA10020FEF7F2FFFEF7E4FFE9
:102540004FF050431B68DAE8CF2F0121002A01D158
:10255000CAE8421FBFF35F8F002A50D15B000122FF
:10256000434462705A704FF050431A68D5E8CF3F29
:102570000121002B01D1C5E8431FBFF35F8F73B169
:1025800018F81230002B4BD1D5E8CF1F01230029BA
:10259000FAD1C5E8413F0029F6D1BFF35F8F01238F
:1025A000237008F812304FF050431A6849F822702F
:1025B000002F40D0B36B02334ED14FF050410A6828
:1025C00059F822706FB1002349F8223023780A6845
:1025D000013BDBB2237023B908F81230C5E88F3F06
:1025E0000A686378013BDBB26370002BA1D108EB72
:1025F0004202DFF87CA05370CAE88F3F9BE708EBEC
:10260000430252785B0012BBDAE8CF1F0122002997
:10261000FAD1CAE8412F0029F6D1BFF35F8F9EE7B8
:1026200023780133DBB223704FF050431A6849F826
:102630002270002FBED11A682378013BDBB22370D1
:10264000002BB7D108F81270C5E88F7F6FE7637869
:102650000133DBB2637086E7BDE8F087280900200C
:10266000D40B0220AA080020D80B0220D00B022095
:10267000AB080020F8B5FEF747FF4FF05042064682
:10268000354B1268D3E8CF1F0120002901D1C3E8E0
:10269000410FBFF35F8F314D00293ED1510001231F
:1026A0002F4C294463704B702E4F3B68002B45D054
:1026B0004FF050432C4A1968D2E8CF3F0120002B3D
:1026C00001D1C2E8430FBFF35F8F73B115F811302A
:1026D000002B3CD1D2E8CF0F01230028FAD1C2E869
:1026E000403F0028F6D1BFF35F8F0123237005F828
:1026F00011304FF050413B6801333B60237809684B
:10270000013BDBB223701BB905F81130C2E88F3FE3
:102710003046BDE8F840FEF703BF510005EB42022A
:10272000527872B9D3E8CF0F01220028FAD1C3E85A
:10273000402F0028F6D1BFF35F8FB0E7FFF7EAFE26
:10274000B6E7074C63780133DBB26370ACE72378FC
:102750000133DBB22370CCE7AB080020D00B0220A2
:10276000D40B0220EC0B0220AA08002070B5FEF763
:10277000CBFE4FF050411E4A0B6852F823402CB15B
:1027800052F82310013142F8231070BD194CD4E8DF
:10279000CF5F0126002D01D1C4E8456FBFF35F8FE5
:1027A0007DB1154D15F81360D6B9D4E8CF6F01216E
:1027B000002EFAD1C4E8461F002EF6D1BFF35F8F7A
:1027C00000E00D4D01210D4C217005F813104FF064
:1027D00050431B6852F82310013142F8231070BD9A
:1027E000064C23780133DBB223700B68C8E700BFC7
:1027F000D80B0220AA080020D00B0220D40B022004
:102800002DE9F0415B4C5C4D5C4E4FF05047236826
:10281000002B35D0FEF778FE2B6873B13B6856F875
:102820002320002A3BD056F82320013246F82320EB
:102830003B6856F82330012B2AD0236813B3504B42
:10284000DB68DF68BB6B013340F08C8007F1080068
:10285000FEF7D8FF4B4A1368013B13602368013B26
:1028600023602B680BB1FFF773FD786BFEF782FBDB
:102870003846FEF77FFB23684FF05047002BC9D145
:10288000BDE8F0812B68002BC1D0FFF761FDBCE7EC
:102890003D4B1B68002BD0D1FFF73CFECDE73B4AF8
:1028A000D2E8CF1F0120002901D1C2E8410FBFF3B8
:1028B0005F8F002935D1364958000123354A084435
:1028C000537043704FF0504C334BDCF80000D3E8AA
:1028D000CFEF5FF00108BEF1000F01D1C3E84E8FCA
:1028E000BFF35F8FBEF1000F12D011F810E0BEF100
:1028F000000F2AD1D3E8CFEF5FF0010CBEF1000F3B
:10290000F8D1C3E84ECFBEF1000FF3D1BFF35F8F14
:1029100001234FF0504C137001F81030DCF80030F8
:1029200081E71B49580001EB43035B78A3B9D2E868
:10293000CFCF0123BCF1000FF9D1C2E84C3FBCF16D
:10294000000FF4D1BFF35F8FB7E713780133DBB229
:102950001370DCF8003066E70E4A53780133DBB2BF
:102960005370AFE72B68002B8AD0BDE8F041FFF72A
:10297000EFBC00BFE80B0220880C0220D80B02201D
:10298000A80C0220E40B0220EC0B0220AB08002074
:10299000D00B0220D40B0220AA08002008B5FEF7B5
:1029A0000FFC044CFFF72CFF2368022BFAD9FEF72B
:1029B00007FCF7E7440900202DE9F84F4FF0504598
:1029C000464A474B474C0F46D4F800A0464ED2F833
:1029D00000800446D3F80090FEF796FD2B6856F869
:1029E00023B0FEF79DFD00238BF87930FEF78CFDB8
:1029F0002B6856F823B0FEF793FD0BF10800FEF7A5
:102A000001FF631C00D18FBB4FF050451AEB04044B
:102A10002CBF01270027FEF777FD2B6856F823A06F
:102A2000FEF77EFDCAF8084097B9FEF76DFD2B68EA
:102A300056F82350FEF774FD404605F10801FEF7F5
:102A4000C9FE2A4B1A68A24288BF1C60BDE8F88FF5
:102A5000FEF75AFD2B6856F82340FEF761FD484605
:102A600004F10801BDE8F84FFEF7B4BE204C6768DA
:102A7000FEF74AFD2B6856F82380FEF751FDC8F893
:102A80000C70FEF741FD2B6856F82380FEF748FDD9
:102A9000BB68C8F81030FEF737FD2B6856F8238066
:102AA000FEF73EFDBA6808F108035360FEF72CFDFF
:102AB0002B6856F82380FEF733FD08F10803BB604E
:102AC000FEF722FD2B6856F82350FEF729FD2368F8
:102AD000AC6101332360BDE8F88F00BF34090020EA
:102AE0003C090020BC0C022028090020600C0220B8
:102AF000940C02202DE9F041644E04460D46FEF789
:102B000003FD33689BB14FF05043614A1B6852F894
:102B10002310002935D04FF0504052F823100131D6
:102B200042F82310036852F82330012B16D0ECB181
:102B30003368626865604BB1A36B002B02DBA36B4B
:102B4000012B65DD25EA0205AB075DD133681BB1BA
:102B5000BDE8F041FFF7FCBBBDE8F0814D4B1B68C1
:102B6000002BE4D1FFF7D6FC002CE1D1FEF7CCFC22
:102B70004FF05042484B126853F82240FEF7D0FC09
:102B8000D6E74649D1E8CF0F0127002801D1C1E897
:102B9000407FBFF35F8F002852D141484FEA430C7A
:102BA0000123404984444B708CF801304FF0504C65
:102BB0003D4BDCF80070D3E8CFEF5FF00108BEF1C9
:102BC000000F01D1C3E84E8FBFF35F8FBEF1000F3E
:102BD00012D010F817E0BEF1000F49D1D3E8CFEFC3
:102BE0005FF0010CBEF1000FF8D1C3E84ECFBEF18B
:102BF000000FF3D1BFF35F8F01230B7000F8173084
:102C00004FF050431B6886E72046FFF73BFB9DE7EC
:102C1000A46BE540EA0799D44FF050431B689C42EF
:102C200021D01D4D55F824309B6B02338ED02046A9
:102C3000FEF734FC6FF0010255F824309A6385E703
:102C400017484FEA430C00EB43035B78BBB9D1E86C
:102C5000CF7F0123002FFAD1C1E8473F002FF6D1E3
:102C6000BFF35F8F9CE70122104B43F824206DE7F0
:102C70000B780133DBB20B70DCF800304BE709490D
:102C80004B780133DBB24B7090E700BF880C022019
:102C9000D80B0220EC0B022028090020AB080020F2
:102CA000D00B0220D40B0220AA080020C80C02205E
:102CB000024B1B6803B97047FFF7DCBC880C02208D
:102CC000014B1868704700BFBC0C0220014B18680C
:102CD000704700BFE40B02208E4B2DE9F0471B68C4
:102CE000002B49D18C4B1D6801351D60002D4BD048
:102CF000DFF84882D8F80030AB425ED9874C884D67
:102D00002B681B6B03EB830354F82330012B40F239
:102D1000B3806B681B6B03EB830354F82330012BE8
:102D200040F2CF804FF050431C68002C00F0ED8043
:102D300001262B689B6B023306D00020FEF7AEFB0A
:102D40006FF001022B689A63002E00F0CE80012CF8
:102D500017D04FF050431B68012B00F0CE800024A9
:102D60006B689B6B02330CD00120FEF797FB6FF072
:102D700001026B689A6304E000246A4A1368013315
:102D800013602046BDE8F087674B684A18681168F1
:102D90001960674910600A6801320A601A6812688F
:102DA000002A40F086804FF0FF33DFF89081C8F8AA
:102DB0000030D8F80030AB42A0D8DFF86C91D9F8D9
:102DC00000301B68002B00F092800026534C594FB6
:102DD00044E09969D3E9032AC2F808A0CAF804209C
:102DE0004A68184662450A6808BFC1F804A0013A5B
:102DF0009E610A60D96A71B1D3E9082AC2F808A0B5
:102E0000CAF804204A6872450A6808BFC1F804A0DD
:102E1000013ADE620A601A6BD7F800E002EB820129
:102E2000724504EB810E88BF3A60DEF80420D2F8C8
:102E300008A0DA60C3F810A0CAF804C0C2F808C03D
:102E400054F82120C3F818E0013244F82120FFF79C
:102E500019FAD9F800301B68002B49D0D9F8003096
:102E6000DB68DB689A6803F1080C954203F11C0EDD
:102E7000AFD2C8F8002042E76B681B6B03EB8303FB
:102E800054F82330012B24D94FF050422A4B1468B8
:102E90001B68002B3FF45BAF0126002C7FF449AF89
:102EA000002E34D1244B01245B68002B7FF458AFF3
:102EB00067E71B68DFF88480DB681B68C8F80030B0
:102EC00018E74FF050431C680026002C7FF431AF08
:102ED000E6E74FF05041184B0C681A6882B95B68FE
:102EE000002B7FF434AF00244BE7134BF7E70B4C78
:102EF0004FF0FF33C8F8003001E70F4A5360F2E7A4
:102F00000026002C7FF415AFCAE7012428E73446D9
:102F100026E700BFEC0B0220BC0C02204409002075
:102F200028090020700C0220340900203C090020F0
:102F3000640C0220F40B0220C80C0220600C02205A
:102F40004FF050432DE9F04F1B680446DFF818821C
:102F500083B0D8E8CF2F0121002A01D1C8E8421F51
:102F6000BFF35F8F002A4DD17A4A590001237A4F6F
:102F700011447B704B704FF05043DFF8F0911968AB
:102F8000D9E8CF3F0120002B01D1C9E8430FBFF39F
:102F90005F8F7BB112F81130002B40F0BA80D9E876
:102FA000CF0F01230028FAD1C9E8403F0028F6D10D
:102FB000BFF35F8F01233B7002F81130674B1B6832
:102FC000002B33D001204FF05043654941F82400D5
:102FD00019683B78013BDBB23B701BB902F811303A
:102FE000C9E88F3F4FF050417B780968013BDBB265
:102FF0007B7023B902EB41025370C8E88F3F03B0E6
:10300000BDE8F08F534A590002EB43035B78002B75
:1030100040F08480D8E8CF0F01230028FAD1C8E817
:10302000403F0028F6D1BFF35F8F9FE74C494D4DDD
:10303000DFF83CA141F82430DAF8006055F824307C
:10304000DFF830B1996955F824301B6B03EB83032B
:103050000BEB8303994267D04FF0010C06EB86001F
:103060000BEB80006146964608300CFA04FC09E040
:1030700021B1DAF80030013BCAF800301438002ED4
:1030800042D0013E50F8083C002BF1D04368834207
:103090005ED0019606E055F824108A4225D05B6880
:1030A00083422CD0DA68916B4E1CF4D156681CEA2E
:1030B000060FF4D0734696461A4655F824309963A5
:1030C00055F82400CEF8384045F824E038B1066BB6
:1030D000836906EB860C0BEB8C0B5B454CD04FF0F9
:1030E0005043196855F8213073E751681CEA010F05
:1030F000D5D0734696461A46CEF83840EFE7019E83
:1031000000211438002EBCD14FF05043724619688C
:10311000E8E73B780133DBB23B704FE70E4F7B783B
:103120000133DBB27B7026E755F8240001920830AA
:10313000FEF768FB55F8243055F82410186B083159
:1031400000EB80000BEB8000FEF736FB019A83E773
:10315000002193E7D00B0220D40B0220EC0B0220BD
:10316000C80C022028090020AB080020AA08002073
:10317000F40B022044090020D0F83CC043681CF046
:10318000010F23FA04F018BF06F1FF36C00704D57B
:1031900055F82400406823EA00039C0703F003006D
:1031A0004AD568686C68006BE46BE40700D50138A9
:1031B000B04203F0010307DA6C68A46B002C03DB58
:1031C0006C68A46B012C2EDD002B88D02B6828683E
:1031D0001B6BC06BC00748BF03F1FF33B34207DA74
:1031E0002B689B6B002B03DB2B689B6B012B2CDD6F
:1031F00001313FF474AF01244FF050463168A142D1
:103200001DD055F824309B6B02333FF46BAF204642
:103210000192FEF743F96FF0010155F82430019A4D
:10322000996331685EE70B4C6468002CCCD1002BAD
:10323000E1D006460121C9E70028C7D14FE70123A5
:10324000044941F8243031684CE7024B1C68002CDB
:10325000D2D0CDE7C80C022070B50C460546FEF76B
:1032600053F94FF05042084B126853F82260FEF7B2
:1032700057F9284606F11C01FEF7ACFA2046BDE8D6
:1032800070400121FFF798BB280900202DE9F84381
:103290004FF050460F4604469046234DFEF734F952
:1032A000336847F0004755F82390FEF739F9C9F81D
:1032B0001C706768FEF728F9336855F82390FEF70D
:1032C0002FF9C9F82070FEF71FF9336855F82390DD
:1032D000FEF726F9BB68C9F82430FEF715F9336804
:1032E00055F82390FEF71CF9BA6809F11C035360E6
:1032F000FEF70AF9336855F82390FEF711F909F142
:103300001C03BB60FEF700F9336855F82350FEF745
:1033100007F9236840460133EC6201212360BDE8D0
:10332000F843FFF749BB00BF280900202DE9F0470B
:103330004FF05046044617468946D0F80480214D88
:10334000FEF7E2F8336855F823A0FEF7E9F8CAF86B
:103350002080FEF7D9F8336855F823A0FEF7E0F88F
:10336000D8F80830CAF82430FEF7CEF8336855F89C
:1033700023A0FEF7D5F8D8F808200AF11C03536003
:10338000FEF7C2F8336855F823A0FEF7C9F80AF132
:103390001C03C8F80830FEF7B7F8336855F8235017
:1033A000FEF7BEF82368002F03F10103EC623946F3
:1033B00008BF4846236018BF4FF0FF30BDE8F04714
:1033C000FFF7FABA2809002070B50025C368D8684D
:1033D000C36AD0E90842A26054605C6800F11C0135
:1033E0008C42244C08BF5A601A682468013AC562AE
:1033F0001A60002C32D1D0E9031283698A605160CF
:10340000596800F10805A94208BF5A601A681A49AC
:10341000013A1A60036B0A689342184A88BF0B602E
:1034200003EB83034FEA830C02EB83035C6852F8DF
:103430000C10A6680131C46006617560A5608361E7
:1034400042F80C10FEF71EFF4FF050420C4B126872
:1034500053F82200003818BF012070BD094B5C688A
:10346000A268C0E9084251601A68A1600132C362D3
:103470001A60E7E7EC0B0220F40B0220440900205D
:10348000C80C0220740C0220034A044B12681B680B
:10349000C0E90023704700BF640C0220BC0C02206E
:1034A0004FF050420121024B126843F8221070473E
:1034B000C80C022010B5FEF727F84FF05042044B1D
:1034C000126853F82240FEF72BF8204610BD00BFCB
:1034D0002809002070B5444D2B680BB9012070BD40
:1034E000FEF712F82B6853B9404C24682B680BB1D7
:1034F000FEF72EFFB4FA84F04009400070BD4FF093
:1035000050433B4A1B6852F8231091B14FF0504092
:1035100052F82310354C013142F82310036852F859
:103520002330012BE1D12368002BDED1FEF7F2FF1F
:10353000DBE73048D0E8CF1F0124002901D1C0E8E3
:10354000414FBFF35F8F00292FD12B495C0001232E
:103550002A480C44437063704FF0504C284BDCF801
:103560000040D3E8CF6F5FF0010E002E01D1C3E819
:1035700046EFBFF35F8F86B111F81460002E26D19D
:10358000D3E8CFCF0126BCF1000FF9D1C3E84C6FCF
:10359000BCF1000FF4D1BFF35F8F0123037001F87A
:1035A00014304FF050431B68B0E713495C0001EB47
:1035B00043035B7893B9D0E8CF6F0123002EFAD193
:1035C000C0E8463F002EF6D1BFF35F8FBFE7037818
:1035D0000133DBB20370DCF8003097E7074843782B
:1035E0000133DBB24370B7E7880C0220EC0B0220FA
:1035F000D80B0220AB080020D00B0220D40B0220F5
:10360000AA0800202DE9F041044688B34FF0504647
:10361000076B374DFDF778FF336855F82380FDF7CA
:103620007FFFD8F830309F4224D2E369002B0ADBB9
:10363000FDF76AFF336855F82360FDF771FF336BC0
:10364000C3F12003E361236B2A4EA26903EB8303DA
:1036500006EB83039A421CD0FDF756FF4FF0504310
:103660001B6855F82350FDF75BFF2B6B236301208C
:10367000BDE8F081A46DFDF747FF336855F823508E
:10368000FDF74EFF286B84422CBF00200120BDE8CF
:10369000F08104F108073846FEF7B4F8FDF734FF6F
:1036A0004FF050431B6855F82350FDF739FF124A7D
:1036B0002B6B116823638B4288BF136003EB83037A
:1036C000980006EB8303596832588D68E1602561E4
:1036D0006F608F60A361A36B0132002B325002DB5D
:1036E000A36B012BC3DD2046FEF7CCFDBFE700BF77
:1036F0002809002044090020F40B022058B1C36DB2
:10370000016B826D013B914270B50446C36500D0E8
:103710001BB1002070BD0020704700F1080528464D
:10372000FEF770F8A36D204AC3F12001E161116832
:1037300023638B4288BF13601C4A03EB83034FEA69
:10374000830C02EB8303586852F80C108668E06023
:10375000266175608560A361A36B0131002B42F87F
:103760000C1002DBA36B012B01DD012070BD4FF0BB
:103770005043A26B1B689A4210D0A36B0C4D55F8B6
:1037800023309B6B0233F0D0A06BFDF787FE6FF008
:103790000102A36B55F823309A63E6E70121A26B7F
:1037A000044B43F82210E0E7F40B02204409002008
:1037B00028090020C80C022060B1826DF8B5914242
:1037C00038BF1146036B04468B4202D0C26D012AFA
:1037D00001D0F8BD7047C269254D002A03EB830371
:1037E0008269016305EB8303A4BFC1F12001C161BC
:1037F0009A42EED100F108063046FEF703F81D4A62
:10380000236B11688B4288BF136003EB830398001E
:1038100005EB830359682A588F68E16027617E6051
:103820008E60A361A36B0132002B2A50D1DBA36B06
:10383000012BCEDC4FF05043A26B1B689A4210D094
:10384000A36B0D4D55F823309B6B0233C1D0A06B99
:10385000FDF724FE6FF00102A36B55F823309A6345
:10386000F8BD0121A26B054B43F82210F8BD00BF43
:1038700044090020F40B022028090020C80C022073
:103880004FF05043054A1B6852F8232022B1012112
:10389000034A42F823107047FDF792BCD80B022070
:1038A000C80C022038B5FDF72FFE3E4B1B6893B1C4
:1038B0004FF050433C4A1B6852F82310A1B14FF01F
:1038C000504052F82310013142F82310036852F897
:1038D0002330012B00D038BD344B1B68002BFAD1AC
:1038E000BDE83840FEF716BE3149D1E8CF0F0124BC
:1038F000002801D1C1E8404FBFF35F8F002831D1CC
:103900002C484FEA430C01232B4984444B708CF81C
:1039100001304FF0504C294BDCF80040D3E8CF5F2A
:103920005FF0010E002D01D1C3E845EFBFF35F8FBB
:1039300085B110F81450002D27D1D3E8CFCF012541
:10394000BCF1000FF9D1C3E84C5FBCF1000FF4D11A
:10395000BFF35F8F01234FF050450B7000F8143018
:103960002B68ACE713484FEA430C00EB43035B784A
:1039700093B9D1E8CF4F0123002CFAD1C1E8443FDD
:10398000002CF6D1BFF35F8FBDE70B780133DBB2BC
:103990000B70DCF8003092E707494B780133DBB25B
:1039A0004B70B6E7880C0220D80B0220EC0B0220EB
:1039B000AB080020D00B0220D40B0220AA08002064
:1039C0002DE9F0410546FFF76DFF2E4A2E4F136893
:1039D000013313603B6863B32C4E2D4B05F1080493
:1039E0001A6801322A651A602A4A2B6B11688B42C9
:1039F00088BF136003EB8303980006EB83035968C9
:103A00003258D1F808C0D7F800E00132E960C5F8B3
:103A100010C0CCF804408C60AB613250BEF1000F96
:103A20002CD13B681BB1BDE8F041FEF791BCBDE86D
:103A3000F0811368154E012BCFD1344606F520785E
:103A400020461434FDF7A8FE4445F9D1DFF8608024
:103A5000114C4046FDF7A0FE2046FDF79DFE0F48A5
:103A6000FDF79AFE0E48FDF797FE0E48FDF794FE0F
:103A70000D4BC3F800800D4B1C60AEE72846FEF7E7
:103A800001FCCEE7E40B0220880C02204409002050
:103A9000F00B0220F40B0220340C0220740C0220E4
:103AA000A80C0220940C0220340900203C090020BC
:103AB000200C022010B582B0049C0094059C019457
:103AC000FEF78CFC38B14FF0FF324260FFF778FF11
:103AD000012002B010BD4FF0FF3002B010BD00BF9A
:103AE00010B582B0049C0094069C0194FEF776FC0D
:103AF00030B1059A4260FFF763FF012002B010BDAC
:103B00004FF0FF3002B010BD0023F0B53024264A3C
:103B1000264D87B0CDE9015225484FF4007202A925
:103B20000093ADF80C40FEF759FC20B14FF0FF3286
:103B30004260FFF745FF312300242A681D4E8DF8AF
:103B40000C301D4B94631D48019300942346326052
:103B500002A94FF40072FEF741FC88B14FF0FF3725
:103B60004760FFF72DFF01226B689A63736000F0D6
:103B700071FF012805460BD0114B1B6807B0F0BD43
:103B800001226B689A6373600D4B1B6807B0F0BD30
:103B9000FDF7BAFC0B4B0C4A1F600C4B15601C6008
:103BA000FDF76CFBE8E700BF49444C45500C022090
:103BB0009D29001028090020540C022065220010C5
:103BC000F4050020600C0220880C0220BC0C0220AE
:103BD00070B50446FFF766FE002C57D004F10806C6
:103BE0003046FDF70FFEE36A1BB104F11C00FDF740
:103BF00009FE424AA16B1368414D01330131136044
:103C00002B6815D0A3B131463E48FDF7D5FD3E4A9D
:103C1000136801331360A36B002B02DBA36B012B32
:103C20003FDD2B68002B30D0BDE87040FEF790BB25
:103C3000364A37491368013B13600B681B6883B130
:103C40000A68344BD26812681A602B680BB1FEF711
:103C50007FFB606BFDF78EF92046BDE87040FDF7F5
:103C600089B94FF0FF322B4B1A602B68002BEED135
:103C7000EFE7294B53F82230002B38D00121274B96
:103C800043F822102B68002BCED170BDFDF73CFC11
:103C90004FF05042224B126853F82240FDF740FC8F
:103CA0009CE74FF05043A26B1B689A42E1D0A26B95
:103CB000934213D0A36B1A4E56F823309B6B0233FA
:103CC000AFD0A06BFDF7EAFB6FF00102A36B56F8D3
:103CD00023309A632B68002BA6D1D6E70121A26B73
:103CE0000E4B43F822102B68002B9DD1CDE7FDF73A
:103CF00067FA2B68002B97D1C7E700BFF00B0220B3
:103D0000880C0220A80C0220E80B0220E40B022001
:103D100034090020600C0220D80B0220C80C0220BD
:103D2000280900202DE9F047FFF7BCFD4FF0504077
:103D3000574A584913680568013B13604B7800687F
:103D4000013BDBB24B7033B9534901EB40014B707F
:103D50005249C1E88F3FD2F800C0BCF1000F6ED1CC
:103D60004F4B1C68002C62D04E4F3B68002B48D054
:103D7000DFF848E14C4EFB68DB68DA6AD3E90810EB
:103D800088604160516803F11C04A142116808BFBA
:103D900050600139C3F82CC011609969D8681A695C
:103DA0004C688260506003F10800844208BF4A609A
:103DB0000C681A6BDEF80080013C424502EB820A77
:103DC0000C603ED906EB8A046168CEF80020D1F879
:103DD000088056F82A20D960C3F81080C8F804007B
:103DE00088609C613B68013246F82A20002BC2D1D2
:103DF0002E4B1A681268002A43D14FF0FF322C4B29
:103E00001A60DFF8BC80D8F80040002C32D00127BF
:103E1000284EFEF761FF08B146F82570013CF8D145
:103E2000C8F8004056F82540003C18BF0124224B3A
:103E30001B680BB1FEF78CFA2046BDE8F087002422
:103E4000F5E706EB8A04616856F82A20D1F8088065
:103E5000D960C3F81080C8F8040088609C613B6892
:103E6000013246F82A20002B85D1104B1A681268BF
:103E70003AB9C2E70F4E56F82540003C18BF01245E
:103E8000D5E71A680A4BD26812681A60B9E700BF12
:103E9000EC0B0220D40B0220D00B0220AB08002038
:103EA000E40B0220740C0220440900203409002095
:103EB000600C0220C80C0220880C0220F40B0220A7
:103EC000700C0220024B186800B97047FFF72ABF38
:103ED000880C022020B582B038B1154D2B68DBB9B3
:103EE0000021FEF769FD2B688BB94FF05043114A52
:103EF0001B6852F823202AB101210F4A42F82310EF
:103F000002B020BD02B0BDE82040FDF759B9FFF76F
:103F100009FF0028E9D0F3E70190FEF7ABFB002191
:103F20000198FEF749FD2B68002BDED0EFE700BFBC
:103F3000880C0220D80B0220C80C0220F8B5D0E96A
:103F400001520027036941F0004101605968C468CB
:103F50008142AA60556008BF5A601A68D4E90361BB
:103F6000013A07611A60A36904F108055A68B16053
:103F7000AA421A684E6008BF59601249013A1A6095
:103F8000236B0A689342104A88BF0B6003EB8303DC
:103F9000980002EB830359688E68E16026617560C2
:103FA0008D601158A36101311150FFF77BFC204651
:103FB000FEF768F9054B1B681BB1BDE8F840FEF73A
:103FC000C7B9F8BDF40B022044090020880C022078
:103FD0002DE9F84F04464FF05047DFF894800D4626
:103FE000204EFFF75FFCD8F800A0D4F80490FDF74E
:103FF0008BFA3B6856F823B0FDF792FA9BF87930BC
:1040000023BB2B685A1C1FD0174A216810688142B5
:104010000DD0616851450AD800232B600124134B51
:104020001B680BB1FEF794F92046BDE8F88FAAEBA8
:1040300009018B42F0D91168A3EB0A03D8F80020DC
:104040004B442B60C4E900120024E8E7FDF75CFA5A
:104050003B6856F82340FDF763FA002384F8793073
:10406000DCE700BF28090020640C0220880C022035
:10407000BC0C02201F4B186800B9704770B5FDF7E3
:1040800043FA4FF050421C4C136854F8231029B1E6
:1040900054F82320013244F8232070BD1749D1E899
:1040A000CF5F0126002D01D1C1E8456FBFF35F8FBF
:1040B0004DB9134D012213490A7005F813204FF032
:1040C00050431B68E4E70E4D15F813605EB9D1E864
:1040D000CF6F0122002EFAD1C1E8462F002EF6D173
:1040E000BFF35F8FE6E707490B780133DBB20B7054
:1040F0001368CDE7880C0220D80B0220AA08002004
:10410000D00B0220D40B02201E4B1B68002B34D096
:104110004FF050411C4B0A6853F8220000282CD065
:1041200053F82200013843F822000A6853F822307D
:104130001BBB10B51549164B53F822400B78013BB9
:10414000DBB20B702BB9134800F81230124AC2E8E8
:104150008F3F4FF050424B781068013BDBB24B7001
:1041600033B90C4A0D4902EB40025370C1E88F3F4E
:104170000020FDF7D5F90CB910BD7047BDE810401F
:10418000FDF71EB8880C0220D80B0220D40B0220A9
:10419000C80C0220D00B0220AA080020AB08002087
:1041A000134B1B6803B970474FF05041114B0A681D
:1041B00010B453F82240C4B153F82240013C43F8F4
:1041C00022400A6853F822307BB90B490B78013B37
:1041D000DBB20B702BB9094C094904F81230C1E865
:1041E0008F3F5DF8044BFDF79BB95DF8044B7047BA
:1041F000880C0220D80B0220D40B0220D00B022006
:10420000AA080020F8B54FF05046FDF77DF90D4D96
:10421000336855F82340FDF783F9E769FDF774F932
:10422000336855F82340FDF77BF9246BFDF76CF9F3
:104230003368C4F1200455F82350FDF771F938466E
:10424000EC61F8BD2809002010B5FDF75DF94FF0CD
:104250005042064B126853F82240FDF761F914B141
:10426000E36D0133E365204610BD00BF280900203F
:104270002DE9F84F4D4D04462B6888469146002B9A
:1042800040F088804FF0504AFFF70CFB484EFDF796
:104290003BF9DAF8003004F11C0B56F82370FDF7F7
:1042A0003FF907EB8B077B68002B4ED02B68BBBB1D
:1042B0002B68002B39D14FF05049FFF7F3FAFDF787
:1042C00023F9D9F800304FEA8B0A56F82370FDF72E
:1042D00027F907EB8B077F6877B1B8F1000F27D07C
:1042E000FDF712F9D9F8003056F82380FDF718F9D8
:1042F0000023D044C8F80430FDF706F94FF05043CE
:104300001B6856F82360FDF70BF90023264486F856
:1043100078302B680BB1FEF71BF83846BDE8F88FF4
:10432000FEF716F82B68002BC5D0FFF7FBFCC2E7A1
:10433000FDF7EAF8D9F8003056F82380FDF7F0F8D9
:10434000D0447B1EC8F80430D6E7FDF7DDF8DAF874
:10435000003056F82370FDF7E3F80123274487F86F
:1043600078302B68B9F1000FA1D00BB1FDF7F0FF49
:1043700048460121FEF720FB2B6873B94FF05043EC
:104380000C4A1B6852F8232062B101210A4A42F804
:10439000231090E7FEF76EF974E7FFF7C3FC0028DF
:1043A00089D1EBE7FCF70CFF85E700BF880C022002
:1043B00028090020D80B0220C80C02202DE9F84F54
:1043C000DFF8F8811E4604460D461746DDF82890B2
:1043D000FDF79AF8D8F800309BB14FF050436F4A80
:1043E0001B6852F8231000296FD04FF0504052F84C
:1043F0002310013142F82310036852F82330012BB7
:104400005CD0B9F1000F06D005F11C0304EB830367
:104410005B68C9F800300220621992F87810731EA8
:1044200082F87800C9B2032B0AD8DFE803F0413BD9
:104430000502022900F08D801C3504EB85056F60B4
:10444000012926D1D4E90312A3698A605160596811
:1044500004F10800814208BF5A601A68013A1A60E4
:104460004F4A236B11688B4288BF13604D4A03EBA0
:10447000830302EB830569689B008E68E160266117
:1044800070608860D158A56101312046D150FDF798
:10449000F9FE0124D8F800300BB1FDF759FF204692
:1044A000BDE8F88F04EB85056B6F01336B67C7E7D9
:1044B00004EB85056B6F3B436B67C1E73A4B1B68A9
:1044C000002B9ED1FEF726F89BE73849D1E8CF0FA5
:1044D0005FF0010C002801D1C1E840CFBFF35F8F2E
:1044E000002838D132484FEA430C01233149844433
:1044F0004B708CF801304FF0504E2F4BDEF800C05F
:10450000D3E8CFAF5FF0010BBAF1000F01D1C3E8E0
:104510004ABFBFF35F8FBAF1000F12D010F81CA092
:10452000BAF1000F2CD1D3E8CFAF5FF0010EBAF192
:10453000000FF8D1C3E84AEFBAF1000FF3D1BFF38F
:104540005F8F01230B7000F81C304FF050431B6845
:104550004BE700249EE716484FEA430C00EB430369
:104560005B78A3B9D1E8CFEF0123BEF1000FF9D1F9
:10457000C1E84E3FBEF1000FF4D1BFF35F8FB4E747
:104580000B780133DBB20B70DEF800302DE7094900
:104590004B780133DBB24B70ADE700BFD80B022084
:1045A000F40B022044090020EC0B0220AB08002091
:1045B000D00B0220D40B0220AA080020880C022075
:1045C0002DE9F041454F05460C461646FCF77EFEA8
:1045D0003868002852D1804602212B1993F87820A0
:1045E00005EB840483F87810636F012A03F101035B
:1045F000636724D03B6803B34FF05041384B0A68DF
:1046000053F82200C8B153F82200013843F82200C1
:104610000A6853F8223083B932490B78013BDBB288
:104620000B702BB93048314900F81230C1E88F3F88
:104630004046BDE8F041FCF773BFBDE8F0812C4B6C
:104640001B68FBB12B4B05F11C021868596801303F
:10465000186088682962686242608A60EB62284656
:10466000FDF710FE4FF05042234B126853F82230F2
:10467000012BBFD1002EBDD03360BBE7FEF776F82B
:104680008046A9E7AB69D5E903128A605160596891
:1046900005F10804A14208BF5A601A681749013A97
:1046A0001A602B6B0A689342154A88BF0B6003EBB4
:1046B00083034FEA830C02EB8303586852F80C1013
:1046C000D0F808E00131E860C5F810E0CEF8044009
:1046D0008460AB6142F80C10C1E700BF880C022077
:1046E000D80B0220D40B0220D00B0220AA080020F5
:1046F000EC0B0220740C0220C80C0220F40B0220E8
:10470000440900202DE9F04FB74FDFF8E4B2DFF89D
:10471000E482B64D87B03B681C68002C00F01D8118
:10472000DB681C68FEF7C4FAFEF7CAFADBF8003053
:104730008146834245D88442CBF8000040F23E8156
:1047400000222868A4EB0901FDF764FDFFF7BAFB1E
:10475000002800F025810023CDE90233CDE90433A0
:104760000022286802A9FDF74FFB0028D3D0029B46
:10477000002BC0F2E980DDF810A0DAF814301BB18C
:104780000AF10400FDF73EF8FEF79AFADBF8003074
:104790000190984243D3DDE90123013BCBF800208F
:1047A000082BDDD8DFE803F06161C0A5C76161C0F7
:1047B000A50022F001028AF828205046DAF82030BD
:1047C00098473B681A68002A00F0DA80DA68D2F865
:1047D0000CA014680AF104063046FDF713F89AF8A5
:1047E00028205107E5D503E05046DAF8202090470D
:1047F000DAF81820CAF810A0A118A418CAF80410F2
:10480000F2D33146D8F80000FCF7E4FFD5E721F0F9
:10481000010189F828104846D9F8203098473B68AC
:104820001968002900F0B680D968D1F80C900C689E
:1048300009F104063046FCF7E5FF99F8281048070F
:10484000E5D503E04846D9F820108847D9F8181074
:10485000C9F8109060186418C9F80400F2D3314602
:10486000D8F80000FCF7B6FFD5E79AF828000399BE
:10487000DAF81840019A0B1940F001068AF828600E
:104880002CBF012600269342CAF80430CAF810A0B3
:1048900000F28980511A8C423FD8410712D420F08F
:1048A00001008AF828005046DAF82030984757E788
:1048B000A142C0F0C780DAF820305046984733460E
:1048C000DAF81840019A1E192CBF01200020B242CC
:1048D000A2EB0301CAF80460CAF810A0E8D29A4219
:1048E00001D20028E7D038680AF10401FCF772FF12
:1048F000D9E70399019A9AF82830881843F0010300
:1049000090428AF82830CAF81810CAF80400CAF889
:1049100010A04DD800293FF423AFD8F800000AF1C9
:104920000401FCF757FF1BE79AF8283023F0010336
:104930008AF8283014E79AF828309A0778D523F0B7
:1049400001038AF828300BE7039BDDE9040198474F
:10495000029B002BFFF604AF0DE7FEF7A9F9FEF767
:10496000AFF9DBF80030814683423FF62AAFD8F832
:104970000030CBF800901A68B2FA82F25209E0E6F1
:10498000D8F80020CBF800903A60C8F80030FFF764
:1049900099FAE0E6D8F80010C8F800303960FAE675
:1049A000FEF76EFFD7E6914202D9002E3FF475AFB5
:1049B00038680AF10401FCF70DFFD1E6FFF782FA2F
:1049C0003B68DB68DE68331D18460193FCF71AFF6D
:1049D00096F82820530715D422F0010286F82820E3
:1049E0003046336A9847B6E630090020C00C0220F2
:1049F000580C02204009002081421DD83046316AFF
:104A000088475446B169A9EB040014EB010A2CBF96
:104A100001230023CA45C6F804A03661ECD94C45F1
:104A200001D9002BEAD001993868FCF7D3FED7E70B
:104A30005046FCF79FFA93E60199D8F80000FCF77E
:104A4000C9FECDE7D8F800000AF10401FCF7C2FE68
:104A500029E700BFF0B5194C85B0FEF723FF2568A4
:104A60009DB1FFF751FB206868B14FF0FF351F245F
:104A70001349002302914FF48062CDE900451149AA
:104A80001148FFF72DF805B0F0BD104F104E384615
:104A9000FCF782FE3046FCF77FFE0E4B2A461F6075
:104AA0000D4B10210A201E60FCF7F4FF2060002847
:104AB000D7D00A49FDF716FBD3E700BFC00C022090
:104AC000C40C02207482001005470010F80B02206D
:104AD0000C0C022030090020400900206C820010DC
:104AE0002DE9F04F074683B02C20884616461D4618
:104AF000FCF7B2F90446D0B10023DFF8849080F8C7
:104B00002830FEF7CFFED9F80020A2B1FFF7FCFA5B
:104B10000C9BC4E9068527602362201DFCF748FE34
:104B20002EB194F8283043F0040384F8283020464E
:104B300003B0BDE8F08FDFF84CB0DFF84CA058466A
:104B40000192FCF729FE5046FCF726FE094B102186
:104B5000C3F800B0084B0A20019AC3F800A0FCF784
:104B600099FFC9F800000028D0D00449FDF7BAFA2F
:104B7000CCE700BF30090020400900206C82001003
:104B8000C00C0220F80B02200C0C022010B50F4CB8
:104B900084B0236823B10529CDE90012029002DD1B
:104BA000002004B010BDFEF795FC02284FF0000372
:104BB00006D069461A462068FCF7BCFF04B010BD59
:104BC0006946069A2068FCF7B5FFEAE7C00C0220A8
:104BD00010B50446FEF766FEE469FFF795FA204635
:104BE00010BD00BF9C46F0B507460E4615466FF057
:104BF0000104074B85B06946624618680023CDE979
:104C0000017603950094FDF777F805B0F0BD00BF7D
:104C1000C00C022000EB400C4FEA8C0C0CF1804CD5
:104C20000CF5803CF0B51646DCF80420051FB2F503
:104C3000803F38BF4FF48032EDB238BFCCF804204B
:104C4000012D2AD94FF40067254C0CF5405217600E
:104C500054F82020B2B9DCF80020012D82EA461277
:104C600002F0E0020CF5805632602AD94FF4006160
:104C700044F820304FF480330CF500521160CCF82A
:104C80000430F0BD6769B7FBF2FE0EF1010E0EEBCA
:104C90004E0EBEF1030EFCD2DDE70129D2D1032472
:104CA0000CF540521460DCF80820D207FBD5DCF884
:104CB00000200B4C82EA461202F0E0020CF580560E
:104CC00032600122DCF800504D4005F003053560EC
:104CD00002FA01F1DCF808200A42FBD0C6E700BF67
:104CE000CC080020014B53F820007047CC0800206E
:104CF000EFF3108072B6064BD3E8CF1F01220029D4
:104D0000FAD1C3E8412F0029F6D1BFF35F8F704776
:104D1000A70800200023034AC2E88F3F80F31088D1
:104D2000704700BFA708002070B58646EFF31085D6
:104D300072B6124CD4E8CF6F0120002EFAD1C4E82D
:104D4000460F002EF6D1BFF35F8F4FF0010CC8085D
:104D500001F007030CFA03F31EF800C01CEA030677
:104D600008D14CEA030C0EF800C0C4E88F6F85F33D
:104D7000108870BD1046FCF757F800BFA708002048
:104D8000044A1078431CDBB2182B28BF1023137081
:104D9000704700BFF80500200146024A0248FFF7AD
:104DA000C3BF00BF7C820010C40800204FF0E02287
:104DB000936843F000539360704700BF0021044B99
:104DC00003F12002C3E88F1F01339342FAD17047E9
:104DD0009C08002010B44FF480740C4B53F8202032
:104DE00003EB8003C00082F0400200F1804003F535
:104DF000805C02F0C00200F5203003F54053CCF88F
:104E0000002041601C605DF8044B70470480034043
:104E100030B44FF0000343EC440043EC4000052560
:104E20004FF480740B4BC20053F8201003EB80004A
:104E300081F0400102F1804303F5203301F0C0020C
:104E400000F5805100F540500A605D60046030BCA0
:104E5000704700BF048003404FF0E0234FF08032E2
:104E6000C3F80024C3F80424C3F80824C3F80C24AE
:104E7000C3F81024C3F81424C3F81824C3F81C245E
:104E8000C3F82024C3F82424C3F82824C3F82C240E
:104E9000C3F83024704700BF012300F01F02934085
:104EA000400941B1800000F1604000F56140C0F868
:104EB000803103607047024A203042F8203070474A
:104EC00000E100E00123064A410952F8212000F0E8
:104ED0001F008340134214BF01200020704700BF11
:104EE00000E100E0F8B50D46EFF3108772B6124E00
:104EF000D6E8CF2F0123002AFAD1C6E8423F002A84
:104F0000F6D1BFF35F8F0D4B00F110049B680C4A84
:104F100053F82430934203D0994201D000F080FF2F
:104F2000064B9B6843F82450BFF35F8F0023C6E80D
:104F30008F3F87F31088F8BDA508002000ED00E042
:104F40001D0100102DE9F04F83B0EFF3108A72B607
:104F5000744ED6E8CF2F0123002AFAD1C6E8423F8B
:104F6000002AF6D1BFF35F8F6F4B00F110089B68EA
:104F70006E4A53F8285095423FD08D420C464AD095
:104F80006B4FEB1B2F2B38D801214FEA50194FEAFA
:104F9000890909F1604909F5614900F01F0301FA27
:104FA00003F0D9F80030C9F8800000EA030BBFF322
:104FB0005F8FEFF30581C9B279B3884577D125F0CA
:104FC000010EDEF808C0644505D17CE0D3F808C0C6
:104FD000644532D09E469EF9062002EB4203002A29
:104FE00007EB8303F2DA644500F08180BBF1000F28
:104FF00020D0C9F88001C9F800004B4B9B6843F8EA
:105000002850BFF35F8F0023C6E88F3F8AF31088D4
:1050100003B0BDE8F08F1546EFE725F0010EDEF88E
:1050200008C06445D7D19EF906407346002C08DAC3
:10503000154666E0C9F88000DFE793F90640002CCA
:1050400056DB04EB440C07EB8C0CDCF80820610009
:105050009A609CF80720DA719CF90620002A9A7160
:105060005DDBBCF80420520504D502F5FF1202F501
:10507000FF521F32521502F1020C4FF0040E0C22A7
:1050800012FB04E202EB4C026FF0070C3A44ACEB6B
:10509000030C6244C2F34A0242F460429A80254BF8
:1050A00021441A7807EB81011C708A719EE7CDE9D3
:1050B000000100F0B5FEDDE9000125F0010EDEF88B
:1050C00008C0644587D19EF906407346002CB8DAC3
:1050D000194A1A4CD21A083AC2F30A316FEA01513E
:1050E0006FEA115144EA5202DA8099807EE77346F2
:1050F0000029EDD1FF228EF806204BF60152AEF8C2
:1051000004200C4C4AF6AA2294F800C01946C91B88
:1051100049414A43120D83F806C0227066E74BF6F8
:105120000152BBE7A508002000ED00E01D010010C2
:10513000FC050020D00C02203606002000F8FFFFFE
:105140004FF0FF0C20F0030303F1604303F56443C9
:1051500000F003001A68C0000CFA00FC22EA0C02FE
:1051600081400A431A607047F0B5EFF30585EDB250
:10517000EFF3108C72B62649D1E8CF2F0123002A15
:10518000FAD1C1E8423F002AF6D1BFF35F8F214E2A
:1051900040F0010EB4684AF6AA2354F825701E4A5E
:1051A0000446A41A644163431B0D77455BB21BD0D0
:1051B00092F906409C421CD092F912409C4223D0A6
:1051C00092F91E409C4221D092F92A409C4208BF8D
:1051D00003240FD0114A0024157813708571C1E89B
:1051E0008F4F8CF31088F0BDB2680D4C42F825400B
:1051F000F0E7002404EB440402EB8402FF249471E2
:105200004BF601549480E5E70124F3E70224F1E72B
:10521000A508002000ED00E0FC050020D00C0220D5
:105220001D010010014B0B44036070479C080020D7
:105230002DE9F041154D164EB54224D22C46236877
:105240004FF0FF374FF000088BB1FFF799FD014693
:105250002846FFF7E7FF676084F80880BFF35F8F99
:105260000C34B4420FD223682546002BEDD1FFF752
:1052700087FD01462846FFF7D5FF6760BFF35F8FC4
:105280000834B442EFD3BDE8F08100BF74060020BB
:1052900084060020000000002DE9F04F2DED028B68
:1052A00085B0EFF30583DBB2103B9A0818BF0122EB
:1052B0004FF0010103F0030008BFAB4DAB4B18BF2B
:1052C000AB4D00EB820253F8226001FA00FB05F5BA
:1052D00041539FEDA38B0190C3F804B02AE0B3883B
:1052E000190440F18D80B379002B40F0D780B6F9D6
:1052F0000820002AC0F21681736902EB420203EB18
:10530000C203D3E90247B7F1FF3F08BFB4F1FF3F43
:1053100009D0019B05EB8301AB6A0A69D21AE31A33
:10532000934238BF0C61284600F0D2FAA042B9413E
:10533000C0F2F880B6F90830C5F83CB0002B0093F5
:10534000CDDBD6F8149003EB430A284609EBCA07D5
:10535000D7E9024800F0BCFAA04271EB0801BEDBBD
:10536000B8F1000FC0F2C0803A69824B9A4200F057
:10537000EA807988B6F9080089B241EA0040796983
:10538000904703460A4653EA020100F0AD80002A26
:1053900080F2CE80E31A68EB020839F93A20C7E9B7
:1053A0000238002A9BDB706902EB420100EBC1016D
:1053B000D1E902C7634578EB070E4FEA42018EDB65
:1053C000B6462EF8082F0BE030F93120A646002A09
:1053D0000DDB02EB420400EBC4045100D4E902C728
:1053E0006345114478EB070700EBC104ECDA009B3E
:1053F00029F83A20AEF80030B38819043FF573AFAE
:105400003369EFF3108272B6D3E8CF0F0121002881
:10541000FAD1C3E8401F0028F6D1BFF35F8F4FF6E3
:10542000FF74B0880023316900B2B480C1E88F3FB7
:1054300082F310889842FFF656AF0746A946746972
:1054400006F1080807EB470E04EBCE03D3E902058B
:10545000B6F90830C446002B13DBB246009704E0CF
:1054600034F936309446002B09DB03EB430604EB9A
:10547000C602D2E90271B84275EB0101F0DA564674
:10548000009FACF8007034F93E7024F83E30002FD5
:10549000D8DAB3794D46002B3FF429AF0023B3711E
:1054A000B6F9083006F1080E5A1C3BD01A4674694A
:1054B00003E08646591C3FF41CAF03EB430104EBA9
:1054C000C10047889C463F0434F93130F1D59445FA
:1054D00080ED028BEED0AEF80030328924F8312016
:1054E0006246A6F808C0E5E739F83A203281326909
:1054F000EFF3108172B6D2E8CF7F0120002FFAD1EE
:10550000C2E8470F002FF6D1BFF35F8F7288009B70
:1055100029F83A20738032690023C2E88F3F81F373
:105520001088DCE640BF05B0BDEC028BBDE8F08F13
:105530002846CDE9023200F0CBF9029B039AC3184A
:1055400042EB010829E7796908460A690291904708
:105550000028C9D00299D1E9003214E7AFF30080E6
:10556000FFFFFFFFFFFFFFFF00000B4008090020C7
:1055700000800B40995200100B4808B50368EFF308
:10558000108172B6D3E8CFCF0122BCF1000FF9D160
:10559000C3E84C2FBCF1000FF4D1BFF35F8FFBF7D2
:1055A000B5FE0020002108BDC40B00202DE9F84FF6
:1055B000364C25692DB1BDE8F84F0A213448FFF774
:1055C00031BEDFF8E4800321404600F06FF9032686
:1055D000C4F80C80FFF7D4FB4FF0504C2D4B2670D5
:1055E00003442361DCF800300F216370636961803C
:1055F0001D834FF00405A3F878504FF00505A3F87C
:1056000090504FF00605A3F8A8504FF007050E2163
:1056100008274FF6FF724FF00A0EA3F8C0504FF064
:1056200001094FF00C0C4FF0020B4FF0090A0D204E
:105630004FF00B05A3F868111749A280A3F808E101
:10564000A160A3F848B0A3F8F0A0A3F82051A3F8F4
:1056500038C1A3F85001A3F83090A3F86060A3F814
:10566000D8701A800D4B3046C8F820700C49DC60A9
:10567000FFF738FC49463046FFF70EFC094B0A217C
:105680001F640348BDE8F84FFFF7CCBD4406002077
:10569000C40B00209C080020FFFF10000809002018
:1056A0009952001000200B4000000B400146F0B55D
:1056B0000069EFF3108772B6D0E8CF5F0124002DA8
:1056C000FAD1C0E8454F002DF6D1BFF35F8FB1F995
:1056D00002E04C690EEB4E0CBEF1000F4FEACC0518
:1056E00004EBCC0C3DDB605B002648800869C0E819
:1056F0008F6F87F31088BCF80200CCE902230130D9
:10570000C0F30E00012838BF0120059BACF8020051
:10571000CCF81030069B40EA0E40CCF814300B69F0
:10572000EFF3108272B6D3E8CFCF0127BCF1000FA0
:10573000F9D1C3E84C7FBCF1000FF4D1BFF35F8F08
:105740008B886353A1F804E00B69C3E88F6F82F381
:1057500010880122CB68097803F501538A405A600A
:10576000F0BD00230A69C2E88F3F87F310884FF02D
:10577000FF30F0BD03464089B0EB214F37DD58695B
:105780000A1402EB420210B500EBC2001C69EFF3F1
:10579000108C72B6D4E8CFEF0122BEF1000FF9D120
:1057A000C4E84E2FBEF1000FF4D1BFF35F8F4288E3
:1057B00089B292B28A4207D000221B69C3E88F2FB8
:1057C0008CF31088002010BD42F400424280012179
:1057D000002218699971C0E88F2F8CF310881C780B
:1057E000DA68084602F50153A140596010BD002057
:1057F000704700BFF0B506460D4683B0EFF3058451
:10580000E4B2002C35D1264F3A78F96804328B6A1D
:1058100051F82220D21AC31A934207D320BF214B3A
:10582000586A85421FD9002003B0F0BD00F058F837
:10583000864265EB0101002911DB1B4B3846CDE99F
:10584000003432462B46FFF731FF011E07DD154BB2
:105850005A6A95421DD920BF1148FFF78BFF114BA3
:10586000586A8542DFD89B6A9E420DD8012003B05A
:10587000F0BD0C4B586A8842D5D39B6AB342F5D22F
:10588000401A18BF0120CFE7281A18BF012003B023
:10589000F0BD9B6A9E42DFD99542DDD1DBE700BFB8
:1058A0004406002000000B407955001010B4054B51
:1058B000054C064AA04214BF1846581C5DF8044B1C
:1058C000FFF732BAC808002000800B40A882001001
:1058D0000346416A0A46986A596A8A42FAD1704771
:1058E000034B596A0A46986A596A9142FAD170473D
:1058F00000000B4030B4154A536A9C46946A536AC0
:105900006345FAD1021959414FF0000528BF01251E
:105910000E4B5B6AB5B15A1C08BF1A4608D04FF04F
:10592000FF310A460948436A8B42FCD38B4207D1B8
:10593000064902E0486A984202D1886A9042F9D347
:1059400030BC70479942EDD8F0E700BF00000B4033
:105950001F4B98420AD84FF47A731E4A03FB00F09B
:10596000916A936A5B1A9842FBD870474FF47A7138
:1059700030B4184BA0FB01015A6A94469C6A5A6ADB
:105980006245FAD103194A414FF0000528BF0125AD
:105990009DB91049496A8A4203D90E48416A914229
:1059A000FCD3914207D10B4902E0486A904202D1F0
:1059B000886A9842F9D330BC7047064B5A6A531C28
:1059C00008BF1346EFD04FF0FF321346E5E700BFA4
:1059D0009BC4200000000B4070B4039D04682D039D
:1059E00045EA03451B4B002CB3FBF1F3B2FBF3F686
:1059F0001FDB194A194B90420CBF4FF400424FF481
:105A00008042174C1A6003F580531A60A36832EA8B
:105A10000303FBD1212200F540530433016086606B
:105A20001A600268002AFCDA0822C5601A6070BC9D
:105A30007047036803F03F038B42DAD18368C3F3F6
:105A40000B03B342D5D1C36803F4EE23AB42D0D1EC
:105A5000EDE700BF001BB7000080054000200240BA
:105A600000000240012300EB4000800000F1804074
:105A700000F5841041600360704700BF0023DB8A9B
:105A8000002242E800F2520201D4102118470421FA
:105A9000184700BF034AD2F82838002BFBD0BFF3C9
:105AA0005F8F704700000E400021044B044ABFF393
:105AB0005F8F43F8041B9342F9D170470C080E40E6
:105AC0002C080E4010B42F204FF42A64054A064BD0
:105AD00006491460D06019605368002BFCDA5DF849
