:020000041000EA
:10000000002008205D0100101301001015010010F0
:100010001101001011010010110100101101001058
:100020001101001011010010110100101701001042
:100030001101001011010010190100101B01001026
:100040001D0100101D0100101D0100101D010010F8
:100050001D0100101D0100101D0100101D010010E8
:100060001D0100101D0100101D0100101D010010D8
:100070001D0100101D0100101D0100101D010010C8
:100080001D0100101D0100101D0100101D010010B8
:100090001D0100101D0100101D0100101D010010A8
:1000A0001D0100101D0100101D0100101D01001098
:1000B0001D0100101D0100101D0100101D01001088
:1000C0001D0100101D0100101D0100101D01001078
:1000D0001D0100101D0100101D0100101D01001068
:1000E0001D0100101D0100101D0100101D01001058
:1000F0001D0100101D0100101D0100101D01001048
:100100001D0100101D0100101D0100101D01001037
:1001100000BE00BE00BE00BE00BE00BEEFF3058004
:10012000103800BEF2EB8871BC700010E470001053
:10013000A801001090A31AE7D3DEFFFF42012110AF
:10014000FF01000014750000793512AB4FF000007C
:100150002049086006C881F3088810474FF05040D6
:10016000006810B14FF00000F2E70FA40ECC002998
:1001700002D000F015F8F9E71749184A002000E00E
:1001800001C19142FCD1002080F30A8814498847BC
:10019000144988471449884700BEFDE701C901C2D8
:1001A0009A42FBD3704700BFE4700010100100209A
:1001B000780600204C76001000000820000008207F
:1001C0004C760010001008200010082000000000ED
:1001D0007047000008ED00E078060020AC0C02201B
:1001E00099650010D903001091650010F8B500BFA3
:1001F0000348044B834202D0034B03B118477047B6
:10020000780600207806002000000000064B074911
:10021000C91A891048BF0131491003D0044B0BB1F2
:1002200001481847704700BF780600207806002074
:100230000000000010B5064C237843B9FFF7D8FF43
:10024000044B13B10448AFF300800123237010BDA9
:100250007008002000000000F06D001008B5044B8D
:100260001BB104490448AFF30080BDE80840CDE766
:100270000000000074080020F06D001038B50A4836
:1002800006F000FB192003F0D3FC19254FF0010301
:1002900043EC4450002444EC40504FF4FA6084F0A6
:1002A000010404F055FAF6E7F06D001004224FF453
:1002B000007370B584B0234802A9CDE9022300F091
:1002C00065FC58B304F00CFA4FF0FF3C0B466FF09E
:1002D0000045844575EB030102463CBF2B46624650
:1002E000194C0126A260E3600024164816490268F2
:1002F000164D526990474FF400722346CDE90064D1
:100300001349144802F07AF92146284606F03CFBCE
:1003100040F6B830013402F0A9FBF5E704F0E0F94B
:100320004FF0FF3C0B466FF00045844575EB030131
:1003300002463CBF2B4662460021034CC4E902231F
:100340000B68FFDE78060020C8050020106E001044
:10035000046E00107D02001038B505460C4604F00E
:10036000BFF94FF0FF3C6FF000420D4BC31841F155
:1003700000019C4572EB01003CBF114663462A68B0
:1003800028465269C4E9023121469047054B064888
:1003900019684A1C1A60BDE8384006F0F5BA00BF7B
:1003A00080969800E0080020306E001010B50224FE
:1003B00084B003A800234FF4007205490190009413
:1003C000044802F01BF902F017FA04B010BD00BF98
:1003D0004C6E0010AD02001008B506F00BFA05488F
:1003E00006F050FA0449054806F0CEFAFFF7DEFFA2
:1003F000002008BD586E00106C6E0010786E001062
:1004000003460122002083F831207047704700BF67
:1004100010B504464FF0FF31006A01F0FBFD94F87F
:100420003030013384F8303010BD00BF10B5D1E951
:1004300005300C469847002302461946E2612069C0
:100440001A46BDE8104001F05FBB00BF38B5144646
:100450001D4604F045F9241A65EB0103012C73F1E4
:10046000000215DB00220D49A1429A4105DABDE8E0
:1004700038404EF6612002F0F9BA094B04F2E73039
:10048000A3FB0030BDE838408009013002F0EEBA2D
:100490000020BDE8384002F0E9BA00BF00879303AE
:1004A000D34D621010B5C36A044682B023B103680D
:1004B00002461B690C499847A06A28B10023052110
:1004C0001A46009303F07CFA206A08B101F0B8FDE7
:1004D000606A08B101F0B4FD38220021204602B064
:1004E000BDE8104006F0CABB01040010F0B5044698
:1004F00089B0006A0E46154601F0F6FA074602F08A
:10050000CDFD874224D0144B03220021012001930A
:100510000596069501F0A8FA0246236804926946FA
:100520002046DB6998472368694620465B6A9847FE
:100530004FF0FF31049801F0D5FC236869461B6A2F
:1005400020469847049801F07BFD079809B0F0BD5C
:1005500004F0F4FAD7E700BF2D0400102DE9F843AA
:10056000074614461D46184EDFF86080DFF860909D
:10057000736A9D4206D8B26AA24201D3BDE8F883ED
:100580009D42FBD104F0ACF8201A65EB0101012873
:1005900071F10003F2DB002280458A4100F2E7336B
:1005A00009DBA9FB03318909786A013101F09AFC62
:1005B0000028DDD0E2E74EF66121786A01F092FC76
:1005C0000028D5D0BDE8F88300000B4000879303D6
:1005D000D34D62102DE9F04F4FF0000905461A4B3C
:1005E000DFF86880DFF868A083B0D3E9007628469A
:1005F00000F05EFBB14208BFB84204468B461FD0F4
:1006000004F06EF8241A6BEB010B012C7BF1000354
:10061000EDDBA04579EB0B0B04F2E732B1BF4EF6F0
:100620006122AAFB023292090132A86A0023042146
:10063000009203F0C5F90028D9D003B0BDE8F08FCF
:100640004FF0FF32F1E700BF186F001000879303EF
:10065000D34D621030B590F830300446012B83B092
:1006600008D0006A013B84F8303003B0BDE8304068
:1006700001F016BBC56A02F011FD85422ED094F838
:100680003030206A013B84F8303001F009FBE06A29
:1006900060B3EFF3058212F0FF0514D102F0FEFC07
:1006A000E16A814222D02A46022308460095294663
:1006B00002F052FE2B462A462946606A03B0BDE886
:1006C000304001F021BA0022114602F0C1FE0021A3
:1006D000606A03B0BDE8304001F044BB2046FFF73C
:1006E00079FF94F83030206A013BBCE703B030BD9D
:1006F000012330B50446C06A83B00B7220B3EFF318
:10070000058212F0FF050AD00022114602F0A0FE79
:100710000021606A03B0BDE8304001F023BB02F065
:10072000BDFCE16A81420FD02A46022308460095AB
:10073000294602F011FE2B462A462946606A03B07C
:10074000BDE8304001F0E0B903B030BD30B583B052
:1007500003F058F90446C06A20B3EFF3058212F0A3
:10076000FF050AD00022114602F072FE0021606AE5
:1007700003B0BDE8304001F0F5BA02F08FFCE16A49
:1007800081420FD02A46022308460095294602F0EE
:10079000E3FD2B462A462946606A03B0BDE8304097
:1007A00001F0B2B903B030BD70B5044682B00AE0C2
:1007B000013B206A84F8303001F072FA40BF94F8AF
:1007C0003130002B3DD100214FF0FF32084602F0BE
:1007D00079FD94F8313003F0FF0593BB4FF0FF3102
:1007E000206A01F017FC94F830302046013384F879
:1007F0003030FFF7EFFE94F83030012BD8D1E66AA5
:1008000002F04CFC864235D094F83030206A013B2F
:1008100084F8303001F044FAE06A0028CED0EFF3DB
:10082000058212F0FF0612D02A46294602F010FE79
:100830002946606A01F096FA40BF94F83130002BE7
:10084000C1D0002002B0BDE8704001F063BF02F0EB
:1008500025FCE16A8142B1D0324602230846009667
:10086000314602F079FD334632463146606A01F086
:100870004BF9A3E72046FFF7ADFE94F83030206A2D
:10088000013B84F8303001F00BFA97E770B504466D
:100890000D4682B04FF0FF31006A01F0BBFB94F8C7
:1008A00030302946013384F83030204600F0CAF950
:1008B00094F830300546012B08D0013B206A84F8BB
:1008C000303001F0EDF9284602B070BDE66A02F062
:1008D000E5FB86422DD094F83030206A013B84F845
:1008E000303001F0DDF9E06A0028ECD0EFF305824A
:1008F00012F0FF0612D102F0D1FBE26A8242E2D08E
:100900003146022310460096324602F025FD33465A
:1009100032463146606A01F0F7F8D4E7002211460A
:1009200002F096FD0021606A01F01CFA284602B030
:1009300070BD2046FFF74EFE94F83030206A013B30
:1009400084F8303001F0ACF9BDE700BF70B5044663
:100950000D4682B04FF0FF31006A01F05BFB94F866
:1009600030302946013384F83030204600F07EF9DB
:1009700094F830300546012B08D0013B206A84F8FA
:10098000303001F08DF9284602B070BDE66A02F001
:1009900085FB86422DD094F83030206A013B84F8E4
:1009A000303001F07DF9E06A0028ECD0EFF30582E9
:1009B00012F0FF0612D102F071FBE26A8242E2D02D
:1009C0003146022310460096324602F0C5FC3346FB
:1009D00032463146606A01F097F8D4E700221146AA
:1009E00002F036FD0021606A01F0BCF9284602B031
:1009F00070BD2046FFF7EEFD94F83030206A013BD1
:100A000084F8303001F04CF9BDE700BF70B5044602
:100A10000D4682B04FF0FF31006A01F0FBFA94F806
:100A200030302946013384F83030204600F02EF96A
:100A300094F830300546012B08D0013B206A84F839
:100A4000303001F02DF9284602B070BDE66A02F0A0
:100A500025FB86422DD094F83030206A013B84F883
:100A6000303001F01DF9E06A0028ECD0EFF3058288
:100A700012F0FF0612D102F011FBE26A8242E2D0CC
:100A80003146022310460096324602F065FC33469A
:100A900032463146606A01F037F8D4E70022114649
:100AA00002F0D6FC0021606A01F05CF9284602B031
:100AB00070BD2046FFF78EFD94F83030206A013B70
:100AC00084F8303001F0ECF8BDE700BF70B50446A3
:100AD0000D4682B04FF0FF31006A01F09BFA94F8A6
:100AE00030302946013384F83030204600F098F841
:100AF00094F830300546012B08D0013B206A84F879
:100B0000303001F0CDF8284602B070BDE66A02F040
:100B1000C5FA86422DD094F83030206A013B84F823
:100B2000303001F0BDF8E06A0028ECD0EFF3058228
:100B300012F0FF0612D102F0B1FAE26A8242E2D06C
:100B40003146022310460096324602F005FC334639
:100B500032463146606A00F0D7FFD4E700221146E2
:100B600002F076FC0021606A01F0FCF8284602B031
:100B700070BD2046FFF72EFD94F83030206A013B0F
:100B800084F8303001F08CF8BDE700BF70B5342236
:100B9000044682B00D460430002106F06FF84FF095
:100BA00050430126194A1B6826832260A37604203D
:100BB00001F03EF80346032230460021236200F094
:100BC00053FF0646124A234600924FF0FF3100229F
:100BD0001048666202F09EFE236AA0627BB1636ADF
:100BE0006BB160B1286804F12C016A682346CDE935
:100BF00000010949094801F001FD012804D02368DA
:100C000020465B6B9847002002B070BDB86E0010A4
:100C10004D070010906E0010A46E0010A907001080
:100C2000836800F108021BB906E01A461B681BB175
:100C30009942FAD1002070470023116001200B6017
:100C4000704700BF836843B1994202D107E09942DF
:100C500007D01A461B68002BF9D11846704700F1DF
:100C600008020B6801201360704700BF4368021D33
:100C70001BB906E01A461B681BB19942FAD1002045
:100C800070470023116001200B607047436843B137
:100C9000994202D107E0994206D01A461B68002B00
:100CA000F9D118467047021D0B6801201360704788
:100CB00083682DE9F04107463BB300F1080503F0D6
:100CC0000FFDD7F80880B8F1000F1ED0AC464346A0
:100CD0000026D3E90224B0EB020E61EB040EBEF154
:100CE000000FA8BF66469C461B68A4BF104621465D
:100CF000002BEED1002E3CD031683846D1E90023DC
:100D000032609847BB68002BD9D17C68002C37D063
:100D10000025237A23B32146636825723846984715
:100D20002468002CF5D1184BD7F80880D3E90001CE
:100D3000B8F1000F10D04246D2E90234C51A61EB77
:100D40000402012D72F10002D8F80080F0DB184691
:100D50002146B8F1000FEED1C7E90401BDE8F081EA
:100D60002468002CD5D1084BD7F80880D3E90001BE
:100D7000DEE77C68002CCBD1034BD3E90001DAE736
:100D8000014BD3E90001E7E7186F00100FB400B57D
:100D900083B0049C074805F075FD3CB105A92046C9
:100DA000019105F0DBFB044805F06CFD012005F026
:100DB000EDFB00BFF06E0010006F0010F8B5431E91
:100DC0000A3311D810F0070300F108046DD0A3F125
:100DD0000902A24208D31030C41A01F07FFD38493D
:100DE00022460D6815BB0AE001F078FD34490A6817
:100DF00022B1002501F07AFD2846F8BD1446314B9A
:100E000058074BD1184603F50035083D25F0070576
:100E10000D6000212C4EEB1AC6E90001C5E9001156
:100E20002A49C0E900530B6029490B60002AE0DD24
:100E3000274F3E68A642DCD3234B18461B6803E0CD
:100E40001A6822B1184613465968A142F8D3AB423A
:100E5000CFD01D46A1EB040C55F8082BBCF1100FA8
:100E6000026007D9214603EB040ECEF804C01A51E4
:100E7000C0F800E00024154A761A106841F00041DD
:100E80008642144838BF16600268596001321C60FF
:100E90003E60026001F02AFD2846F8BDD81D20F012
:100EA000070003F500350346AFE701F017FD0449DD
:100EB0000D6815B1002CBBDA9BE722469FE700BF07
:100EC00024090020BC0B0020680C0220380C0220F2
:100ED0002C0C0220440C022048B138B550F8043CD8
:100EE0000446002B02DA50F8082C0AB138BD7047CE
:100EF00023F000431A4D40F8043C01F0EFFC2A684F
:100F000054F8040C174B11182960A4F10802194673
:100F10001B689A42FBD84D6801EB050C62450FD067
:100F20001518AB4212D044F8083C914218BF0A6031
:100F30000D4A136801331360BDE8384001F0D6BC98
:100F400028440A1893424860F2D10A46074C2468A4
:100F5000A34203D0D3E90045284450601460E4E77D
:100F60002C0C0220680C0220480C022024090020CE
:100F7000002300B583B0019300F0BCFA019B002B65
:100F8000FCD003B05DF804FB10B500F0B3FA0446E2
:100F900001F0CAFD28B14FF0E0234FF08052C3F8B2
:100FA000042D2046BDE8104000F0B0BA1F4B93F965
:100FB0000030002B08DB4FF050410122D1F88801AE
:100FC00002FA03F3184200D17047002200B5184816
:100FD00083B0C1F88C3103680192EFF3108C72B6C4
:100FE000D3E8CFEF0121BEF1000FF9D1C3E84E1FC6
:100FF000BEF1000FF4D1BFF35F8F0E4B006819688C
:101000001A60C0E88F2F8CF310880B4B01AA186868
:1010100000F09EFB019B2BB14FF0E0234FF080527C
:10102000C3F8042D03B05DF804FB00BFE005002009
:1010300014090020C00B0220280C022010B5042245
:101040004FF0E024002322610520A36102F064FD3B
:101050000721044BA3FB00239B09013B6361216132
:1010600010BD00BFD34D62104FF0E0234FF080520F
:10107000C3F8042DBFF34F8FBFF36F8F704700BFCE
:1010800008B500F037FA044A136801331360BFF360
:101090004F8FBFF36F8F08BDE4050020044B1A6823
:1010A000013A1A60186800B1704700F02FBA00BF0B
:1010B000E4050020836913F8023C662B00D07047DA
:1010C0004FF0E023D3F8882D42F47002C3F8882D46
:1010D000D3F8342F42F04042C3F8342F00F0ECB97B
:1010E0002DE9F04F4FF0113E4FF0807440E909E3D5
:1010F0004FF0073340F8044C164C40F8343C40E9BC
:1011000003424FF005334FF006324FF0123B40E9F7
:101110000F324FF0033A4FF002394FF001384FF0E1
:1011200010374FF009364FF008354FF004346FF0A8
:10113000020340E905AB40E9078940E90B6740F845
:10114000305C40F8404C40F8443C40F8481DBDE855
:10115000F08F00BF710F00104FF0E0234FF07F427F
:10116000002170B584B00291C3F81C2DD3F81C3D4A
:101170001B0E8DF807309DF807309DF807301A06D2
:101180000CD5029B013302939DF807305B00DBB264
:101190008DF807309DF807301B06F2D4029B082B10
:1011A00055D0029AC2F10702120202F4E0624FF037
:1011B000E02300244FF050450126264826490260CE
:1011C000D3F8202D0E2042F47F02C3F8202DD3F84F
:1011D000202D42F07F42C3F8202DC3F81C4D03F0B0
:1011E00087FB1E490F2003F083FB1D490B2003F0F2
:1011F0007FFBFFF723FF1B4A1B4B14602A68314615
:1012000003201A7003F09AFB0346184A5BB213706E
:1012100006FA03F3C5F88C31FF21C5F884311A2092
:1012200002F08EFE1A20124902F05CFD31461A20AF
:1012300002F042FD00F056F901F086FC039400F044
:1012400059F9039B002BFCD0002004B070BD002294
:10125000ADE700BFBC0B02201D150010890F001068
:101260009D150010E4050020E1050020E0050020A8
:10127000AD0F0010EFF305830F2B84BF014A9B5C79
:10128000704700BFF0E300E04FF05042074B10689A
:101290001B78834200D07047EFF30583DBB213B1B4
:1012A00000EB4300704701F0F9BE00BFE1050020EC
:1012B0004FF0504270B50125344C354E94F800E0A3
:1012C00014680268334B921B8C46A3FB02131B0964
:1012D00003EB4303A2EBC302A64582B005FA02F179
:1012E0002CD040BF2C4C03682268934241D0D2E8F6
:1012F000CF5F0123002DFAD1C2E8453F002DF6D182
:10130000BFF35F8F254A246813680B4313600023E3
:10131000C4E88F3F0368224A92F90020002A06DBC6
:1013200001214FF0504001FA02F2C0F88021002262
:10133000C3E88F2F8CF3108802B070BD40BF00242B
:101340000368C3E88F4F8CF31088EFF30583DBB29B
:10135000A3B1144B01AA1868019400F0F9F9019B9C
:10136000002BE9D04FF0E0234FF08052C3F8042D5A
:10137000E2E70A4802680A430260CCE7094B1868B2
:1013800002B0BDE8704000F0AFB900BFE105002039
:101390008C080020ABAAAAAA14090020C00B0220C6
:1013A000E0050020280C0220F0B54FF0504E344CE0
:1013B0001D4694F800C0DEF8003006469C450F46F6
:1013C000144683B00CD000230268C2E88F3F81F33B
:1013D00010882046294603B0BDE8F04003F00AB962
:1013E00003F07EF940F2E733221A65EB0101D018D1
:1013F00041F10001B0F57A7F71F100031EDA00239C
:101400003268C2E88F3F87F310881E4B5A6A9542B4
:1014100007D89B6AA34202D3012003B0F0BD9542D6
:10142000FAD14FF0E0234FF08052C3F8042DBFF300
:101430004F8FBFF36F8F002003B0F0BD4FF47A726F
:10144000002305F0A9FC0028D9D000233268C2E8A7
:101450008F3F87F310880122009031680A48091AEB
:101460000A48A0FB0160000900EB4000A1EBC001AD
:10147000074802FA01F1006800F0DCF8C5E700BF98
:10148000E105002000000B408C080020ABAAAAAAAE
:10149000280C022008B502F08DFB044B044A0344DB
:1014A000136000F0B9F8034B186008BD8C080020E9
:1014B00014090020280C0220094A1168086806C88F
:1014C00081F30B88022181F31488203080F309888E
:1014D000BFF36F8F4FF0000080F3118810470000BA
:1014E0001809002062B661B6BFF34F8FBFF36F8F4C
:1014F00066DF00BFEFF311804FF0100181F3118818
:10150000BFF34F8FBFF36F8F704700BF80F3118819
:10151000BFF34F8FBFF36F8F704700BFEFF30981A9
:101520001EF0100F08BF21ED108AEFF30B827346F7
:1015300021E9FC0F55FC084457FC096459FC0A8456
:1015400001E9F003144A136819604FF0100181F3A8
:101550001188BFF34F8FBFF36F8F01F0F5FA4FF093
:10156000000080F311880C4A116808681838B0E848
:10157000F00345EC004447EC016449EC0284B0E818
:10158000FC0F13F0100F08BFB0EC108A82F30B8829
:1015900080F3098818470000180900201EF0040F86
:1015A0000CBFEFF30880EFF3098001490847000002
:1015B000B51000102DE9F04106460D4601F08EF9F8
:1015C0003368346906F10C072B43A74233601ED001
:1015D0004FF000080AE01D4206D0D30148BF48EA98
:1015E000050801F0B5FC3368A7420ED0204602681A
:1015F000646812F0806F43F0007122F07F45EAD0FA
:1016000035EA030CE9D0A742F0D123EA080333609E
:10161000BDE8F04101F06AB910B51C20FFF7CEFB20
:10162000044620B1002340F8043B00F09FF8204618
:1016300010BD00BF2DE9F04106461F460D469046FD
:1016400001F04CF934689FB92C420AD0B8F1000F70
:1016500009D024EA0505356001F048F92046BDE8C7
:10166000F081069B1BBB01F041F92046BDE8F081EB
:1016700035EA0403EAD0069B002BF4D0B8F1000150
:1016800018BF01211A46090641F080612943301D27
:1016900001F0E4FA01F02AF9F8B101F0FDFD83014F
:1016A00004460BD524F07F442046BDE8F081B8F114
:1016B000000118BF01211A460906E7E7FFF7E0FC21
:1016C00034686FB9254205D0B8F1000F02D024EA82
:1016D00005053560FFF7E2FCE4E7FFF7C5FCDCE752
:1016E00035EA0403F6D1EFE72DE9F04106460D4651
:1016F00001F0F4F83368346906F10C072B43A74274
:1017000033601ED04FF000080AE01D4206D0D3011E
:1017100048BF48EA050801F01BFC3368A7420ED019
:1017200020460268646812F0806F43F0007122F076
:101730007F45EAD035EA030CE9D0A742F0D123EA8D
:101740000803336001F0D2F83068BDE8F08100BFD3
:101750008C4600B5864613467146624602485DF8DF
:1017600004EB02F059B900BFB51500104FF0FF317E
:10177000002200F10803C0E90131C3600361026087
:10178000704700BF00230361704700BFD0E90032FB
:1017900010B494680133C1E90124616091605DF87F
:1017A000044B08610360704730B40D686B1C10D0A7
:1017B00000F108031C465B681A68AA42FAD902685D
:1017C0004B60013299608C606160086130BC0260DE
:1017D000704704696368F2E70346026910B454680D
:1017E000406899689C428160486008BF5160002150
:1017F00010685DF8044B013819611060704700BF34
:1018000070B51546026C0446866B2AB905684DB35F
:1018100000200136A66370BD7DB9406805F0B8F9B7
:101820006368226C1344A26863609342F0D3236818
:10183000013628466360A66370BDC06805F0A8F94C
:10184000226CE36851429B1A2268E360934202D201
:10185000A3680B44E360022DDAD1012E38BF0126C4
:101860000020D7E7806801F085FC0136A560D1E74C
:101870002DE9F043064685B0FFF702FC96F84530A7
:101880005DB2002D1CDD06F1240708E0A26BE36BBE
:1018900003969A423DD36B1EDAB25DB282B1B46C4C
:1018A000002CF3D1736A5BB1384601F0DFFA0028EF
:1018B000F1D001F0EDFB6B1EDAB25DB2002AEED181
:1018C000FF2386F84530FFF7E9FBFFF7D9FB96F8D1
:1018D00044305CB2002C14DD06F1100503E0631EF9
:1018E000DAB25CB26AB133695BB1284601F0BEFA84
:1018F0000028F4D001F0CCFB631EDAB25CB2002AFF
:10190000F1D1FF2386F8443005B0BDE8F043FFF77E
:10191000C5BB94F84580226CD4F838904FFA88F80B
:10192000A2B92368002B2FD009F10103B8F1FF3FC2
:10193000A3631ED1636A002BADD004F1240001F033
:1019400095FA0028A7D001F0A3FBB4E7606803A9CB
:1019500005F01EF96368226C1344A2686360934229
:1019600009F10103A36324BF23686360B8F1FF3F5B
:10197000E0D001F0D3F840458DD908F101084FFAC5
:1019800088F884F8458086E7A068019301F0F2FBAF
:10199000019BB8F1FF3FA36009F10103A3638146F6
:1019A00008D1636A9BB9B9F1000F3FF474AF01F03D
:1019B0006FFB80E701F0B2F84045F4D908F101036C
:1019C0005BB284F84530B9F1000FF0D163E704F160
:1019D000240001F04BFA00287FF46BAFB9F1000F3F
:1019E000E5D158E7F0B5846C83B0A26BE36B01904E
:1019F0009A4203D30025284603B0F0BD94F8456011
:101A0000226CA76B76B2E2B1606801A905F0C0F85C
:101A10006268236C1A44A36862609A4201D3236807
:101A2000636000250137731CA76313D1636A002B21
:101A3000E1D004F1240001F019FA002818BF0125B3
:101A4000D9E72568002DECD1A06801F093FBA560D3
:101A50000546E7E701F062F88642CCD2013676B25D
:101A600084F84560C7E700BFF8B5C0B31746A1FBCF
:101A7000002305460E4693BB01FB00F010F1550F05
:101A80002DD85430FFF79AF9044640B356B300F10D
:101A90005403C4E90F562360FFF7F2FAD4E90F317B
:101AA00001FB03F32268591A13440025A360FF23A6
:101AB00062600A44E260A56304F1100084F84430D7
:101AC00084F84530FFF752FE04F12400FFF74EFE84
:101AD000FFF7E4FA84F850702046A564F8BD0024AE
:101AE0002046F8BD0346D4E710B50446FFF7C8FA10
:101AF000236823B9A468FFF7D1FA204610BD00245B
:101B0000FFF7CCFA204610BDF0B5044685B01E465E
:101B100001920F46FFF7B4FAA26BE36B9A424DD3E2
:101B2000022E62D0002005460DE0FFF7B7FA2046EE
:101B3000FFF79EFE00F0DAFEFFF7A2FAA26BE36B5E
:101B40009A423BD30120019B002B59D0002848D05A
:101B5000FFF7A4FA00F0C2FEFFF792FA94F84430BF
:101B6000FF2B08BF84F8445094F84500FF2808BFB5
:101B700084F84550FFF792FA01A902A801F04CFA47
:101B8000002842D1FFF77CFAA26BE36B9A42CCD1DA
:101B9000FFF784FA019904F1100001F003F82046E0
:101BA000FFF766FE00F0A2FE0028C5D1FFF75CFA41
:101BB000FFF766FAA26BE36B9A42C3D2324639460C
:101BC0002046A56BFFF71CFEA36C23B3022E14D096
:101BD0002046FFF707FF38BBFFF760FA012005B08A
:101BE000F0BD02A801F00CFAB2E7324639462046B1
:101BF000A56BFFF705FEA36C6BB1002DECD1E7E7F9
:101C0000FFF74CFA002005B0F0BD2046FFF730FE8C
:101C100000F06CFEF6E7636A002BDCD004F12400D0
:101C200001F024F90028D7D0FFF71EFAD4E700BF4F
:101C300070B505465420FFF7C1F8044668B3002686
:101C400001232060C3630664FFF71AFAD4E90F206A
:101C5000FF2300FB02F22168101A61600A4401446C
:101C6000C4E90221A66304F1100084F8443084F82A
:101C70004530FFF77BFD04F12400FFF777FDFFF708
:101C80000DFA334632463146204684F85050A66459
:101C9000A6602660E660FFF737FF204670BD00BFF4
:101CA00038B58568044601F0F9F9854201D0002075
:101CB00038BDE368013BE3600BB1012038BD1A4633
:101CC00019462046FFF720FFF7E700BF2DE9F8434C
:101CD000044690461D460F46FFF7CCFAFFF70AFC74
:101CE000A26BE36B06469A4208D3022D06D000246D
:101CF0003046FFF70BFC2046BDE8F883394694F8E0
:101D000045702A4620467FB2D4F83890FFF778FD18
:101D10007B1C08D1A36C7BB1022D1DD1B9F1000F42
:101D20001AD00124E4E700F0F9FE8742F9D2013726
:101D30007FB284F84570F4E7636A002BF1D004F1B8
:101D4000240001F093F80028EBD0B8F1000FE8D0A0
:101D50000123C8F80030E4E72046FFF743FE0028DF
:101D6000DFD0F2E7F8B504460E46FFF783FAFFF737
:101D7000C1FBA36BE26B05469A4215D994F8452046
:101D80000133FF2AA36357B214D1A36CE3B12046F9
:101D9000FFF728FE10B10EB101233360012428465D
:101DA000FFF7B4FB2046F8BD00242846FFF7AEFB42
:101DB0002046F8BD00F0B2FE8742EFD201377FB275
:101DC00084F845700124EAE7636A002BE6D004F149
:101DD000240001F04BF80028DDD1DFE7F0B5044620
:101DE00085B00F460192FFF74BF9A56B002D56D138
:101DF000019B002B35D002A801F002F92E46FFF717
:101E00004DF900F06BFDFFF73BF994F84430FF2BE0
:101E100008BF84F8446094F84530FF2B08BF84F86D
:101E20004560FFF73BF901A902A801F0F5F8E8B910
:101E3000FFF726F9A36B33BBFFF730F9019904F1E3
:101E4000240000F0AFFE2046FFF712FD00F04EFD2B
:101E500000283BD0FFF714F9A56B05BB019B002BB5
:101E6000CDD1FFF71BF9002005B0F0BD2046FFF7EC
:101E7000FFFC00F03BFDFFF703F9A36B002BF0D054
:101E8000FFF70CF9E6E7FFF709F92046FFF7F0FC4A
:101E900000F02CFDFFF7F4F8A56B002DDED0226CCE
:101EA0005AB1E168A36811449942E16028BF2168F2
:101EB000384628BFE16004F06BFE2369013DA5634D
:101EC0003BB9FFF7EBF8012005B0F0BDFFF7CCF808
:101ED000C0E704F1100000F0C9FF0028F1D0FFF7BF
:101EE000C3F8EEE7F0B50446002685B00191FFF790
:101EF000C7F8A36B35463746002B39D1019B002B21
:101F00006CD0002D50D0FFF7C9F800F0E7FCFFF7C8
:101F1000B7F894F84430FF2B08BF84F8447094F865
:101F20004530FF2B08BF84F84570FFF7B7F801A9CB
:101F300002A801F071F840BBFFF7A2F8A36B002BD9
:101F400039D1FFF7ABF82368002B4DD0019904F18C
:101F5000240000F027FE2046FFF78AFC00F0C6FCB4
:101F600000283ED0FFF78CF8A36B0125002BC5D0CD
:101F70002268013BA363002A48D02369002B3CD18F
:101F8000FFF78CF8012005B0F0BD2046FFF770FC8C
:101F900000F0ACFCFFF774F8A36B4BB9FFF77EF8C9
:101FA0008EB9002005B0F0BD02A801F029F8AAE71B
:101FB000FFF774F8D6E7FFF771F82046FFF758FCF3
:101FC00000F094FCCEE7FFF75BF8616A19B1236B70
:101FD0001968C1F12001A06801F016F9FFF75EF859
:101FE000DFE7FFF741F8BDE7FFF74AF8A06801F027
:101FF0006BF80646FFF752F8A8E704F1100000F06E
:1020000035FF0028BCD0FFF72FF8B9E701F050F9F1
:10201000A060B2E770B5866804460D4601F03EF850
:10202000864208D029462046FFF75CFF10B1E368DE
:102030000133E36070BD0120E3680344E36070BDD9
:102040001B4B5A68904218D0DA6890421ED05A69E9
:1020500090421DD0DA6990421CD05A6A90421BD03F
:10206000DA6A90421AD05A6B904219D0DA6B9042D9
:1020700008BF072202D0FEF72FBF00229FED0A7B88
:1020800003EBC20383ED007BFEF726BF0122F5E7D9
:102090000222F3E70322F1E70422EFE70522EDE74E
:1020A0000622EBE7AFF30080000000000000000014
:1020B00030080020002955D0444B5A68904272D015
:1020C0001A6810B4002A2CD0DA6890427BD09A6843
:1020D000002A41D05A69904273D01A69002A42D02E
:1020E000DA69904265D09A69002A42D05A6A9042D1
:1020F00044D01A6A002A45D0DA6A90425BD09A6AC4
:10210000002A44D05A6B904257D01A6B002A43D011
:10211000DA6B904253D09B6B002B42D05DF8044B9E
:102120007047DA6890424ED05A69904249D01A46B8
:10213000DC69A0423DD05C6AA0421FD0DC6AA042AC
:1021400039D05C6BA04238D0DC6BA04237D0C2E9FA
:1021500000105DF8044B70475A69904231D003F18A
:102160000802E5E77047DA69904222D003F11002D5
:10217000E1E75A6A904201D0154ADFE7042203EBF7
:10218000C202E4E7DA6A904215D0124AD9E75A6BE4
:10219000904212D0104AD7E7DA6B90420FD00F4A24
:1021A000D5E70F4AD3E7002203EBC202C2E90010D1
:1021B00070470322E3E70522E1E70622DFE7072273
:1021C000DDE70222DBE70122D9E700BF300800206B
:1021D000480800205008002058080020600800200F
:1021E0006808002070B504460E461546FEF748FF05
:1021F00094F84430FF2B04BF002384F8443094F853
:102200004530FF2B04BF002384F84530FEF746FF1E
:10221000A36B23B12046BDE87040FFF729BB04F152
:1022200024002A46314600F099FD2046BDE8704062
:10223000FFF71EBB2DE9F8430446FEF721FF3C4A99
:102240003C4E1368013313603368002B3DD03A4D88
:102250002B6893B3E26A394F0121DFF8F8E002EB13
:1022600082039140DEF80020DFF8EC8007EB830C5E
:102270000132DCF80400CEF800206264D8F80020B7
:102280009B000A43D0F808E0C8F80020FA58211D46
:10229000A060C4F80CE00132CEF804108160C4F8EC
:1022A00014C0FA50FEF7FAFE2B6823B13268E36AD5
:1022B000D26A9A4211D3BDE8F8833368E26ADB6AD6
:1022C0001E4F934298BF3460C6E734601368012BF9
:1022D00007D0E26A194F184DBEE7BDE8F843FEF794
:1022E000C3BE164F3D4607F5207828461435FFF744
:1022F0003DFA4545F9D1DFF86490DFF8648048463F
:10230000FFF734FA4046FFF731FA0D48FFF72EFA8F
:102310000C48FFF72BFA0C48FFF728FA0B4B064D39
:10232000C3F800900A4BE26AC3F8008094E700BF4C
:10233000C40B022018090020640C02203009002080
:10234000500C0220840C0220700C02202009002076
:1023500028090020D00B0220D40B0220000C022000
:10236000140C02202DE9F843254A264C264B2568FB
:10237000D2F800800022254CD3F80090064623684E
:10238000206883F86D2004300F46FFF725FA40B926
:10239000012223681E49DB6A9A400B6823EA020384
:1023A0000B60731C15D02368AD1921685D600AD2DB
:1023B00040460431FFF7F8F9164B1A68AA4288BF65
:1023C0001D60BDE8F8834846BDE8F8430431FFF7D7
:1023D000EBB9002FE7D0104B21685A6826688A6055
:1023E0002068216825681C68043001341C609468EA
:1023F0000431F460606091606B61BDE8F88300BFF8
:1024000020090020980C022028090020180900202B
:10241000D40B02203C0C0220700C022080B5124D1F
:10242000124F134EDFF84C8014E0FEF729FEFB68D4
:10243000DC68201DFFF7D0F93368013B33602B685F
:10244000013B2B60FEF72AFE206BFEF745FD204680
:10245000FEF742FD2B68002BE7D1D8F80030012BA6
:10246000F8D9FEF701FEF5E7C80B0220840C022024
:10247000C40B0220300900202DE9F04F564B83B0E9
:102480001D6801351D60002D6CD054490B689D42BC
:102490007CD3534E33681868002800F099800020E0
:1024A000504B8646AA4681464F4C504F00930191AF
:1024B0004BE05869D3E9022CC2F808C0CCF80420DC
:1024C00042688A42026808BFC0F804C0013AC3F8F3
:1024D00014E00260986A78B1D3E9072CC2F808C00A
:1024E000CCF804204268AA42026808BFC0F804C0C1
:1024F000013AC3F828E002604FF00108DA6AD7F821
:1025000000B002EB820C04EB8C00456808FA02F87C
:1025100048EA0B08C7F80080D5F808809D60C3F82A
:102520000C80C8F80410A960586154F82C30009948
:102530000133096844F82C303368C96A1B688A4241
:1025400088BF4FF00109002B3CD03368DB68DB68A3
:102550005A68191D924503F11805AAD201994846F7
:102560000A6017E01E4B224A186811681960214959
:1025700010600A6801320A601A681268E2B94FF006
:10258000FF3316490B600B689D4282D20020154B29
:10259000154C0093009B184A1B681268DB6A03EB1A
:1025A000830354F82330022B28BF0120002A18BFD0
:1025B000012003B0BDE8F08F1B680849DB681B6889
:1025C0000B6063E7484601994FF0FF330B60E1E78A
:1025D000044B054C0093F7E7980C02203C0C0220BA
:1025E000200900201809002030090020D40B022007
:1025F00028090020400C0220A40C02202DE9F843F9
:102600009600804630460D469946FEF7D7FB0028D7
:102610007BD007467020FEF7D1FB0446002871D01E
:102620007022002104F02AFB32463846A521276398
:1026300004F024FB236B043E1E4426F00706002D05
:102640003ED02B7884F83430002B36D06B7884F869
:10265000353093B3AB7884F8363073B3EB7884F8C5
:10266000373053B32B7984F8383033B36B7984F82F
:10267000393013B3AB7984F83A30F3B1EB7984F89D
:102680003B30D3B12B7A84F83C30B3B16B7A84F809
:102690003D3093B1AB7A84F83E3073B1EB7A84F875
:1026A0003F3053B12B7B84F8403033B16B7B84F8DF
:1026B000413013B1AB7B84F84230002384F84330BF
:1026C000089D201D1F2D28BF1F25E562E564FFF72B
:1026D00059F8C5F1200504F11800FFF753F84B46EF
:1026E00042463046216BA56124616462FEF7F8FC26
:1026F000099B206003B11C602046FFF79BFD012071
:10270000BDE8F8833846FEF7E7FB4FF0FF30BDE841
:10271000F88300BFF8B504462D4EFEF7B1FC002C3F
:1027200050D0271D3846FFF757F838B9E36A294AD1
:1027300003EB830152F82120002A2ED0A36A1BB19B
:1027400004F11800FFF748F8234A244D13680133B9
:1027500013603368A3422B6827D0214A1368013BDA
:102760001360204B1A68126892B11A681E4BD26827
:1027700012681A60FEF792FC206BFEF7ADFB204654
:10278000FEF7AAFB2B6813B13368A3421CD0F8BD37
:102790004FF0FF32144B1A60ECE7012213499A40C4
:1027A0000B6823EA02030B60C8E7002BD5D039463B
:1027B0000F48FEF7EBFF0F4A136801331360FEF773
:1027C0006DFCDFE73468ACE7BDE8F840FEF74CBCD1
:1027D0001809002030090020D00B0220640C0220D0
:1027E000C40B0220200900203C0C0220D40B022044
:1027F000840C0220C80B02202DE9F8434FF400603E
:10280000FEF7DCFA002842D006467020FEF7D6FA22
:10281000044600283FD0002570222946DFF8B490F6
:1028200004F02CFA4FF40062A5213046266304F030
:1028300025FA84F8385084F84350E562E564201D99
:10284000C4F83490266BFEF79DFF04F11800FEF7E4
:1028500099FF4FF0200CDFF8808006F2FC7626F01E
:1028600007062B464246216BC4F818C03046246147
:102870006462FEF735FC0346114F236020460125B4
:102880003C60FFF7D7FC01F003F8A8420AD00D4BDB
:102890001B68BDE8F8833046FEF71EFB094B1B683A
:1028A000BDE8F883FEF726FE4FF0FF34002206490C
:1028B000064B074804600D601A60FEF74DFCE6E722
:1028C000300C0220E8050020640C0220980C022045
:1028D0003C0C022049444C451D240010024A136858
:1028E00001331360704700BFCC0B02202DE9F04F7D
:1028F000DFF86C8183B0FEF7C3FBD8F80030013BF2
:10290000C8F80030D8F80090B9F1000F40F082808C
:102910004C4B1B68002B7DD0DFF848C1DCF8003041
:10292000002B00F08C80484BDFF83CE1474E0193D0
:10293000DCF80C30DB689A6AD3E9070154688160DF
:10294000486003F11800844208BF51601168C3F861
:102950002890013911605969D3E902028260506000
:1029600048681D1DA842086808BF4A600138DA6A35
:1029700008600121DEF80040914021433448CEF840
:10298000001002EB8201006806EB81077C68D0F83A
:102990002CA056F82100D4F808B0013052459C60B4
:1029A000C3F80CB0CBF80450A5605F6146F8210075
:1029B00037D90122019B1A60DCF80030002BB7D117
:1029C000244B1A681268002A34D01A68224BD26845
:1029D00012681A60214D2C689CB10126019F05E008
:1029E000FFF74AFD00B13E60013C09D0D8F8003045
:1029F000002BF5D02B68013C03F101032B60F5D1CE
:102A00002C60019B1B682BB1114B01241B68FEF746
:102A10002BFB00E00024FEF741FB204603B0BDE89D
:102A2000F08FDCF80030002B82D10A4B1A68126854
:102A3000002ACAD14FF0FF32074B1A60CAE7024B97
:102A40000193C7E7C40B0220A40C02203009002028
:102A500018090020200900203C0C02204C0C022008
:102A6000CC0B0220500C0220D40B022008B9FEF738
:102A7000FBBA204A2DE9F041136804460133136084
:102A800000221D4B1D491E4D0E681F681D4BD3F8BB
:102A900000802B68286883F86D200430FEF79CFEC8
:102AA00040B901222B681849DB6A9A400B6823EA77
:102AB00002030B602B68A41929685C600DD23846AC
:102AC0000431FEF771FE114B1A68944238BF1C6046
:102AD000FFF70CFF48B1BDE8F08140460431FEF736
:102AE00063FEFFF703FF0028F5D1BDE8F041FEF7D4
:102AF000BBBA00BFCC0B022020090020980C02209A
:102B00001809002028090020D40B02203C0C0220C8
:102B1000014B1868704700BF980C0220014B1868E1
:102B2000704700BFC40B0220054B1B680BB9FFF7B1
:102B3000A3BC044A0020136801331360704700BF30
:102B4000CC0B02204C0C0220114B1B681BB1012244
:102B5000104B1A6070470F490F4A0B601368B3FAA5
:102B600083F30E4AC3F11F0303EB830302EB8301DC
:102B70000A4648680832436893424B6008BFCB68F6
:102B8000074A08BF4B60DB6813601368704700BFDB
:102B9000CC0B0220A40C0220D40B02203009002010
:102BA000180900202DE9F041254D0C4629681831FF
:102BB000FEF7FAFD234A2449244B0E6817680022C9
:102BC000D3F800802B68286883F86D200430FEF766
:102BD00003FE40B901222B681D49DB6A9A400B684D
:102BE00023EA02030B60631C15D02B68A419296823
:102BF0005C600AD238460431FEF7D6FD154B1A68E0
:102C0000944238BF1C60BDE8F0814046BDE8F04109
:102C10000431FEF7C9BD104B29685A681C688A60E8
:102C20002E680134286829681C602D689468043077
:102C30000431F460606091606B61BDE8F08100BFB9
:102C40001809002020090020980C022028090020E3
:102C5000D40B02203C0C0220700C02202DE9F04F16
:102C6000374C4FF000082668D4F800B0D4F800A024
:102C70002368154603F1180C0346324F324A41F0DF
:102C80000041B161DFF8D0E02668D4F800903F68D9
:102C9000126883B00092DEF80020596801921A6829
:102CA000CBF81C10D4F800E0D1F808B02068183632
:102CB0000132CAF820B00430CBF804C08E60C9F8E5
:102CC00028301A608EF86D80FEF786FD40B901222B
:102CD00023681E49DB6A9A400B6823EA02030B60F3
:102CE0006B1C17D02368ED1921685D600BD200982A
:102CF0000431FEF759FD164B1A68954238BF1D6026
:102D000003B0BDE8F08F0198043103B0BDE8F04F87
:102D1000FEF74ABD0F4B21685A6826688A60206812
:102D2000216825681C68043001341C6094680431F3
:102D3000F460606091606B6103B0BDE8F08F00BF2C
:102D400018090020980C022020090020D40B022032
:102D50003C0C0220700C0220280900202DE9F04FC5
:102D60003B4C1546D4F800B0D4F8009023684FF0DF
:102D7000000803F1180C0346364F374A2668DFF87F
:102D8000E8E0D4F800A03F68126885B0281E0192E0
:102D9000DEF8002008BF0D46596802921A68CBF889
:102DA0001C10D4F800E0D1F808B00390206806F1B8
:102DB000180602F10102C9F820B000F10400CBF8B6
:102DC00004C08E60CAF828301A608EF86D8018BF73
:102DD0004FF0FF35FEF700FD40B9012223681F497F
:102DE000DB6A9A400B6823EA02030B606B1C17D066
:102DF0002368ED1921685D600BD201980431FEF75C
:102E0000D3FC174B1A68954238BF1D6005B0BDE86A
:102E1000F08F0298043105B0BDE8F04FFEF7C4BC56
:102E2000039B002BE4D00F4B21685A6826688A6008
:102E30002068216825681C68043001341C6094688F
:102E40000431F460606091606B6105B0BDE8F08FA3
:102E500018090020980C022020090020D40B022021
:102E60003C0C0220700C0220280900202DE9F043C0
:102E70000025C368DB689A6AD3E90741A1604C600A
:102E8000546803F1180084422B4C08BF516011684C
:102E9000246801399D621160002C38D1D3E9020207
:102EA00059698260506048681F1DB842086808BFB1
:102EB0004A600138DA6A08600121204C02EB820086
:102EC00004EB800EDEF80460DFF880C0D6F80890CE
:102ED000DCF80080800025589E60C3F80C90C9F88B
:102EE0000470B760C3F814E001FA02F343EA080380
:102EF000CCF80030124B0D441B682550DB6A93421E
:102F000016D201230F4A18461360BDE8F0830E491C
:102F10004C68A268C3E9074250600A68A060501C70
:102F20009962DA6A064B08601B68DB6A9342E8D351
:102F30000020BDE8F08300BFCC0B02203009002048
:102F400018090020A40C0220500C0220D40B0220EF
:102F50002DE9F047D0E9015400274FF0010C026938
:102F600041F0004101605168C36881421168AC6062
:102F7000656001F1FF3108BF5460D3E90254076175
:102F800011605A691E1D51681068B14200F1FF308E
:102F9000D96AAC6065601060154808BF546001EBE9
:102FA000810200EB8209D9F80450124FD5F808A02D
:102FB00092008458D7F800809D60C3F80CA0CAF82E
:102FC0000460AE60C3F814900CFA01F343EA0803FE
:102FD000DFF828E0644484503B60DEF80030DB6AB0
:102FE000994284BF044BC3F800C0BDE8F08700BF1E
:102FF00030090020D40B0220A40C02201809002064
:10300000034A044B12681B68C0E90023704700BFE5
:10301000400C0220980C0220F8B504460D46FEF73D
:103020002FF8184A184B16681868616890F86D00F8
:1030300040B100221B6883F86D200124FEF72EF8B2
:103040002046F8BD2B68581C16D0DFF840C0206819
:10305000DCF80070B84204D0B14202D800232B60E3
:10306000EBE7771ABB42F9D99B1B0B44DCF8001045
:1030700012682B60C4E900120024FEF70FF8204606
:10308000F8BD00BF980C022018090020400C022057
:103090000122014B1A607047A40C0220014B1868F2
:1030A000704700BF18090020054B1B6833B1054B62
:1030B0001868B0FA80F0400940007047012070475E
:1030C000640C0220CC0B0220F8B50446C8B1264D92
:1030D000C36A2A68D26A934214D28269002A04DB46
:1030E0002A68D26AC2F120028261204E626903EB33
:1030F000830306EB83039A420CD02B68DB6AE362FE
:103100000120F8BD2B68C06CDB6A98422CBF002000
:103110000120F8BD271D3846FEF75EFBD0B11448EC
:1031200001222B68D0F800C0D96A01EB810306EBBD
:1031300083058A40E1629B00696842EA0C020260F2
:10314000F25888680132A160E06047608F60656175
:10315000F250D5E701220648E36A9A40036823EA61
:1031600002030360DCE700BF1809002030090020DB
:10317000D40B022068B12DE9F843C16A036DC26C1B
:10318000013B91420446036500D023B10020BDE815
:10319000F8830020704700F104084046FEF71CFB4E
:1031A00028B3174DE26C1748C2F12003A361012335
:1031B00002EB820100EB810EDEF8047089004658B4
:1031C000D7F80890D5F800C01E44E262A760C4F8A2
:1031D0000C90C9F80480C7F80880C4F814E0465081
:1031E0001846934043EA0C032B60BDE8F8830122A4
:1031F000034DE16A2B688A4023EA02032B60D1E782
:10320000D40B02203009002060B1C26CF8B59142A5
:1032100038BF1146C36A04468B4202D0026D012AB0
:1032200001D0F8BD70478269194D002A03EB830372
:103230004269C16205EB8303A4BFC1F12001816132
:103240009A42EED1061D3046FEF7C6FA0122B8B109
:10325000E36A104F9A40386803EB830305EB830C55
:10326000DCF8041002439B003A60EA588868013297
:10327000A160E06046608E60C4F814C0EA50F8BDFA
:10328000044FE36A39689A4021EA02013960E2E7B3
:1032900030090020D40B0220044A11681368126818
:1032A000DB6A8869C3F12003936170471809002025
:1032B000034B186810B1036D01330365704700BFFD
:1032C000180900202DE9F843214D04462B68884653
:1032D000013316462B601F4DFDF7D2FE2B6804F11B
:1032E0001A0753F8273033B94FF001092B682344EC
:1032F00083F86C90D6B9FDF7D1FEFFF7F7FAFDF72A
:10330000BFFE2B6853F8276036B12B68B8F1000F69
:1033100019D0002243F8272000222B68234483F889
:103320006C20FDF7BBFE3046BDE8F883FDF7B6FE26
:1033300049463046FFF716F8FFF7D8FA0028DED1E5
:10334000FDF792FEDBE7721E43F82720E4E700BF9B
:10335000CC0B0220180900202DE9F047DDF8208071
:1033600004460D4617461E46FDF78AFEB8F1000FCB
:1033700005D005F11A0354F82330C8F800300220B4
:10338000611991F86C20731E81F86C00D2B2032B86
:1033900008D8DFE803F04E0F0402022A4FD01A3596
:1033A00044F82570012A0DD00124FDF777FE204650
:1033B000BDE8F08704EB8505AB6E012A03F101033C
:1033C000AB66F1D1D4E9021263698A605160596831
:1033D000271DB94208BF5A601A68E16A013A1A60AB
:1033E0000123184801EB810200EB8209DFF858C085
:1033F00092008558DCF800801D448B4043EA0803A6
:10340000DFF848E0CCF80030DEF80030D9F804608E
:10341000DB6AD6F808A09942A660C4F80CA0CAF8E6
:103420000470B760C4F814908550BDD9FDF71CFE38
:10343000BAE704EB8505AB6E3B43AB66B2E700240D
:10344000B3E700BF30090020D40B02201809002088
:103450002DE9F8430C4605461646FDF70BFFFEF72F
:1034600049F802212B1993F86C2005EB840483F8AA
:103470006C10A36E012A03F10103A36603D0BDE81B
:10348000F843FEF743B8284B1B68E3B1274A53685B
:1034900011689C680131116005F11801EB612C6223
:1034A00061609960EB6AAA62214A1268D26A9A4204
:1034B000E5D20EB10123336001221E4B1A60BDE834
:1034C000F843FEF723B86A69D5E902138B605960A7
:1034D000516805F1040C61454FF00101146808BF03
:1034E0005360DFF85880EB6A013C1460124CD8F846
:1034F000009003EB830204EB820E9940DEF8047027
:10350000920041EA0901C8F80010A158D7F80880D4
:103510000131AF60C5F80C80C8F804C0C7F808C016
:10352000C5F814E0A150BFE7CC0B0220500C0220DC
:1035300018090020A40C022030090020D40B02201E
:103540002DE9F04FB74FDFF8E4B2DFF8E482B64D73
:1035500087B03B681C68002C00F01D81DB681C688C
:10356000FFF7BCF9FFF7D4FADBF80030814683425D
:1035700045D88442CBF8000040F23E810022286802
:10358000A4EB0901FEF72EFEFFF7B0F9002800F0CA
:1035900025810023CDE90233CDE9043300222868D8
:1035A00002A9FEF71BFC0028D3D0029B002BC0F21F
:1035B000E980DDF810A0DAF814301BB10AF104003C
:1035C000FEF70AF9FFF7A4FADBF800300190984201
:1035D00043D3DDE90123013BCBF80020082BDDD8E4
:1035E000DFE803F06161C0A5C76161C0A50022F0FA
:1035F00001028AF828205046DAF8203098473B68C4
:103600001A68002A00F0DA80DA68D2F80CA0146890
:103610000AF104063046FEF7DFF89AF82820510731
:10362000E5D503E05046DAF820209047DAF8182074
:10363000CAF810A0A118A418CAF80410F2D3314691
:10364000D8F80000FEF7B0F8D5E721F0010189F8BD
:1036500028104846D9F8203098473B681968002957
:1036600000F0B680D968D1F80C900C6809F1040616
:103670003046FEF7B1F899F828104807E5D503E081
:103680004846D9F820108847D9F81810C9F8109082
:1036900060186418C9F80400F2D33146D8F8000065
:1036A000FEF782F8D5E79AF828000399DAF818406F
:1036B000019A0B1940F001068AF828602CBF0126F8
:1036C00000269342CAF80430CAF810A000F289809C
:1036D000511A8C423FD8410712D420F001008AF8D9
:1036E00028005046DAF82030984757E7A142C0F04A
:1036F000C780DAF82030504698473346DAF8184049
:10370000019A1E192CBF01200020B242A2EB030136
:10371000CAF80460CAF810A0E8D29A4201D2002880
:10372000E7D038680AF10401FEF73EF8D9E70399BB
:10373000019A9AF82830881843F0010390428AF8D9
:103740002830CAF81810CAF80400CAF810A04DD8DA
:1037500000293FF423AFD8F800000AF10401FEF776
:1037600023F81BE79AF8283023F001038AF8283061
:1037700014E79AF828309A0778D523F001038AF8DD
:1037800028300BE7039BDDE904019847029B002BDF
:10379000FFF604AF0DE7FFF7A1F8FFF7B9F9DBF883
:1037A0000030814683423FF62AAFD8F80030CBF88C
:1037B00000901A68B2FA82F25209E0E6D8F80020C6
:1037C000CBF800903A60C8F80030FFF78FF8E0E6D9
:1037D000D8F80010C8F800303960FAE6FDF744FC6C
:1037E000D7E6914202D9002E3FF475AF38680AF14E
:1037F0000401FDF7D9FFD1E6FFF778F83B68DB68F5
:10380000DE68331D18460193FDF7E6FF96F8282081
:10381000530715D422F0010286F828203046336A77
:103820009847B6E61C0900209C0C0220340C0220AC
:103830002C09002081421DD83046316A8847544601
:10384000B169A9EB040014EB010A2CBF012300238A
:10385000CA45C6F804A03661ECD94C4501D9002B05
:10386000EAD001993868FDF79FFFD7E75046FDF78A
:1038700033FB93E60199D8F80000FDF795FFCDE7FB
:10388000D8F800000AF10401FDF78EFF29E700BF18
:10389000F0B5174C83B0FDF7F3FB256885B1FDF754
:1038A000FDFB206850B11F241248002301904FF403
:1038B0008062114911480094FEF7A0FE03B0F0BDEC
:1038C0000F4F104E3846FDF751FF3046FDF74EFFC3
:1038D0000D4B2A461F600D4B10210A201E60FEF77B
:1038E000C3F820600028DAD00949FEF7E3FBD6E7E9
:1038F0009C0C0220A00C02200C6F0010413500101F
:10390000D80B0220EC0B02201C0900202C090020FF
:10391000046F00102DE9F04F074683B02C20884635
:1039200016461D46FDF74AFA0446D0B10023DFF8DB
:10393000849080F82830FDF7A3FBD9F80020A2B1CD
:10394000FDF7ACFB0C9BC4E9068527602362201DB4
:10395000FDF718FF2EB194F8283043F0040384F8E3
:103960002830204603B0BDE8F08FDFF84CB0DFF818
:103970004CA058460192FDF7F9FE5046FDF7F6FEC1
:10398000094B1021C3F800B0084B0A20019AC3F874
:1039900000A0FEF769F8C9F800000028D0D004495B
:1039A000FEF788FBCCE700BF1C0900202C09002093
:1039B000046F00109C0C0220D80B0220EC0B02209C
:1039C00010B50F4C84B0236823B10529CDE900124E
:1039D000029002DD002004B010BDFFF765FB022855
:1039E0004FF0000306D069461A462068FEF78CF8AF
:1039F00004B010BD6946069A2068FEF785F8EAE72C
:103A00009C0C022010B50446FDF73AFBE469FDF773
:103A100045FB204610BD00BF9C46F0B507460E464C
:103A200015466FF00104074B85B069466246186879
:103A30000023CDE9017603950094FEF747F905B020
:103A4000F0BD00BF9C0C022000EB400C4FEA8C0C38
:103A50000CF1804C0CF5803CF0B51646DCF80420E7
:103A6000051FB2F5803F38BF4FF48032EDB238BF4A
:103A7000CCF80420012D2AD94FF40067254C0CF511
:103A80004052176054F82020B2B9DCF80020012D14
:103A900082EA461202F0E0020CF5805632602AD922
:103AA0004FF4006144F820304FF480330CF500529D
:103AB0001160CCF80430F0BD6769B7FBF2FE0EF17F
:103AC000010E0EEB4E0EBEF1030EFCD2DDE7012916
:103AD000D2D103240CF540521460DCF80820D20740
:103AE000FBD5DCF800200B4C82EA461202F0E00223
:103AF0000CF5805632600122DCF800504D4005F094
:103B00000305356002FA01F1DCF808200A42FBD017
:103B1000C6E700BFB8080020014B53F820007047EB
:103B2000B8080020EFF3108072B6064BD3E8CF1F21
:103B300001220029FAD1C3E8412F0029F6D1BFF3B1
:103B40005F8F7047970800200023034AC2E88F3F29
:103B500080F31088704700BF9708002070B5864634
:103B6000EFF3108572B6124CD4E8CF6F0120002E0F
:103B7000FAD1C4E8460F002EF6D1BFF35F8F4FF0A5
:103B8000010CC80801F007030CFA03F31EF800C08B
:103B90001CEA030608D14CEA030C0EF800C0C4E886
:103BA0008F6F85F3108870BD1046FDF7EFF800BFEA
:103BB00097080020044A1078431CDBB2182B28BF5A
:103BC00010231370704700BFEC0500204FF0E02277
:103BD000936843F000539360704700BF0021044B8B
:103BE00003F12002C3E88F1F01339342FAD17047DB
:103BF0008C08002010B44FF480740C4B53F8202034
:103C000003EB8003C00082F0400200F1804003F526
:103C1000805C02F0C00200F5203003F54053CCF880
:103C2000002041601C605DF8044B70470480034035
:103C300030B44FF0000343EC440043EC4000052552
:103C40004FF480740B4BC20053F8201003EB80003C
:103C500081F0400102F1804303F5203301F0C002FE
:103C600000F5805100F540500A605D60046030BC92
:103C7000704700BF048003404FF0E0234FF08032D4
:103C8000C3F80024C3F80424C3F80824C3F80C24A0
:103C9000C3F81024C3F81424C3F81824C3F81C2450
:103CA000C3F82024C3F82424C3F82824C3F82C2400
:103CB000C3F83024704700BF012300F01F02934077
:103CC000400941B1800000F1604000F56140C0F85A
:103CD000803103607047024A203042F8203070473C
:103CE00000E100E0F8B50D46EFF3108772B6124E12
:103CF000D6E8CF2F0123002AFAD1C6E8423F002A96
:103D0000F6D1BFF35F8F0D4B00F110049B680C4A96
:103D100053F82430934203D0994201D000F00EFFB3
:103D2000064B9B6843F82450BFF35F8F0023C6E81F
:103D30008F3F87F31088F8BD9508002000ED00E064
:103D40001D0100102DE9F04F83B0EFF3108A72B619
:103D5000744ED6E8CF2F0123002AFAD1C6E8423F9D
:103D6000002AF6D1BFF35F8F6F4B00F110089B68FC
:103D70006E4A53F8285095423FD08D420C464AD0A7
:103D80006B4FEB1B2F2B38D801214FEA50194FEA0C
:103D9000890909F1604909F5614900F01F0301FA39
:103DA00003F0D9F80030C9F8800000EA030BBFF334
:103DB0005F8FEFF30581C9B279B3884577D125F0DC
:103DC000010EDEF808C0644505D17CE0D3F808C0D8
:103DD000644532D09E469EF9062002EB4203002A3B
:103DE00007EB8303F2DA644500F08180BBF1000F3A
:103DF00020D0C9F88001C9F800004B4B9B6843F8FC
:103E00002850BFF35F8F0023C6E88F3F8AF31088E6
:103E100003B0BDE8F08F1546EFE725F0010EDEF8A0
:103E200008C06445D7D19EF906407346002C08DAD5
:103E3000154666E0C9F88000DFE793F90640002CDC
:103E400056DB04EB440C07EB8C0CDCF8082061001B
:103E50009A609CF80720DA719CF90620002A9A7172
:103E60005DDBBCF80420520504D502F5FF1202F513
:103E7000FF521F32521502F1020C4FF0040E0C22B9
:103E800012FB04E202EB4C026FF0070C3A44ACEB7D
:103E9000030C6244C2F34A0242F460429A80254B0A
:103EA00021441A7807EB81011C708A719EE7CDE9E5
:103EB000000100F043FEDDE9000125F0010EDEF80F
:103EC00008C0644587D19EF906407346002CB8DAD5
:103ED000194A1A4CD21A083AC2F30A316FEA015150
:103EE0006FEA115144EA5202DA8099807EE7734604
:103EF0000029EDD1FF228EF806204BF60152AEF8D4
:103F000004200C4C4AF6AA2294F800C01946C91B9A
:103F100049414A43120D83F806C0227066E74BF60A
:103F20000152BBE79508002000ED00E01D010010E4
:103F3000F0050020A80C02202A06002000F8FFFF50
:103F40004FF0FF0C20F0030303F1604303F56443DB
:103F500000F003001A68C0000CFA00FC22EA0C0210
:103F600081400A431A607047F0B5EFF30585EDB262
:103F7000EFF3108C72B62649D1E8CF2F0123002A27
:103F8000FAD1C1E8423F002AF6D1BFF35F8F214E3C
:103F900040F0010EB4684AF6AA2354F825701E4A70
:103FA0000446A41A644163431B0D77455BB21BD0E2
:103FB00092F906409C421CD092F912409C4223D0B8
:103FC00092F91E409C4221D092F92A409C4208BF9F
:103FD00003240FD0114A0024157813708571C1E8AD
:103FE0008F4F8CF31088F0BDB2680D4C42F825401D
:103FF000F0E7002404EB440402EB8402FF249471F4
:104000004BF601549480E5E70124F3E70224F1E73D
:104010009508002000ED00E0F0050020A80C02202B
:104020001D010010014B0B44036070478C080020F9
:104030002DE9F041154D164EB54224D22C46236889
:104040004FF0FF374FF000088BB1FFF7B3FD01468B
:104050002846FFF7E7FF676084F80880BFF35F8FAB
:104060000C34B4420FD223682546002BEDD1FFF764
:10407000A1FD01462846FFF7D5FF6760BFF35F8FBC
:104080000834B442EFD3BDE8F08100BF68060020D9
:1040900078060020000000002DE9F04F2DED028B86
:1040A00085B0EFF30583DBB2103B9A0818BF0122FD
:1040B0004FF0010103F0030008BFAB4DAB4B18BF3D
:1040C000AB4D00EB820253F8226001FA00FB05F5CC
:1040D00041539FEDA38B0190C3F804B02AE0B3884D
:1040E000190440F18D80B379002B40F0D780B6F9E8
:1040F0000820002AC0F21681736902EB420203EB2A
:10410000C203D3E90247B7F1FF3F08BFB4F1FF3F55
:1041100009D0019B05EB8301AB6A0A69D21AE31A45
:10412000934238BF0C61284600F0D2FAA042B94150
:10413000C0F2F880B6F90830C5F83CB0002B009307
:10414000CDDBD6F8149003EB430A284609EBCA07E7
:10415000D7E9024800F0BCFAA04271EB0801BEDBCF
:10416000B8F1000FC0F2C0803A69824B9A4200F069
:10417000EA807988B6F9080089B241EA0040796995
:10418000904703460A4653EA020100F0AD80002A38
:1041900080F2CE80E31A68EB020839F93A20C7E9C9
:1041A0000238002A9BDB706902EB420100EBC1017F
:1041B000D1E902C7634578EB070E4FEA42018EDB77
:1041C000B6462EF8082F0BE030F93120A646002A1B
:1041D0000DDB02EB420400EBC4045100D4E902C73A
:1041E0006345114478EB070700EBC104ECDA009B50
:1041F00029F83A20AEF80030B38819043FF573AFC0
:104200003369EFF3108272B6D3E8CF0F0121002893
:10421000FAD1C3E8401F0028F6D1BFF35F8F4FF6F5
:10422000FF74B0880023316900B2B480C1E88F3FC9
:1042300082F310889842FFF656AF0746A946746984
:1042400006F1080807EB470E04EBCE03D3E902059D
:10425000B6F90830C446002B13DBB246009704E0E1
:1042600034F936309446002B09DB03EB430604EBAC
:10427000C602D2E90271B84275EB0101F0DA564686
:10428000009FACF8007034F93E7024F83E30002FE7
:10429000D8DAB3794D46002B3FF429AF0023B37130
:1042A000B6F9083006F1080E5A1C3BD01A4674695C
:1042B00003E08646591C3FF41CAF03EB430104EBBB
:1042C000C10047889C463F0434F93130F1D594450C
:1042D00080ED028BEED0AEF80030328924F8312028
:1042E0006246A6F808C0E5E739F83A20328132691B
:1042F000EFF3108172B6D2E8CF7F0120002FFAD100
:10430000C2E8470F002FF6D1BFF35F8F7288009B82
:1043100029F83A20738032690023C2E88F3F81F385
:104320001088DCE640BF05B0BDEC028BBDE8F08F25
:104330002846CDE9023200F0CBF9029B039AC3185C
:1043400042EB010829E7796908460A69029190471A
:104350000028C9D00299D1E9003214E7AFF30080F8
:10436000FFFFFFFFFFFFFFFF00000B40F4080020EE
:1043700000800B40994000100B4808B50368EFF32C
:10438000108172B6D3E8CFCF0122BCF1000FF9D172
:10439000C3E84C2FBCF1000FF4D1BFF35F8FFCF7E3
:1043A00087FF0020002108BDB00B00202DE9F84F49
:1043B000364C25692DB1BDE8F84F0A213448FFF786
:1043C00031BEDFF8E4800321404600F06FF9032698
:1043D000C4F80C80FFF7EEFB4FF0504C2D4B2670CD
:1043E00003442361DCF800300F216370636961804E
:1043F0001D834FF00405A3F878504FF00505A3F88E
:1044000090504FF00605A3F8A8504FF007050E2175
:1044100008274FF6FF724FF00A0EA3F8C0504FF076
:1044200001094FF00C0C4FF0020B4FF0090A0D2060
:104430004FF00B05A3F868111749A280A3F808E113
:10444000A160A3F848B0A3F8F0A0A3F82051A3F806
:1044500038C1A3F85001A3F83090A3F86060A3F826
:10446000D8701A800D4B3046C8F820700C49DC60BB
:10447000FFF738FC49463046FFF71EFC094B0A217E
:104480001F640348BDE8F84FFFF7CCBD3806002095
:10449000B00B00208C080020FFFF1000F408002063
:1044A0009940001000200B4000000B400146F0B581
:1044B0000069EFF3108772B6D0E8CF5F0124002DBA
:1044C000FAD1C0E8454F002DF6D1BFF35F8FB1F9A7
:1044D00002E04C690EEB4E0CBEF1000F4FEACC052A
:1044E00004EBCC0C3DDB605B002648800869C0E82B
:1044F0008F6F87F31088BCF80200CCE902230130EB
:10450000C0F30E00012838BF0120059BACF8020063
:10451000CCF81030069B40EA0E40CCF814300B6902
:10452000EFF3108272B6D3E8CFCF0127BCF1000FB2
:10453000F9D1C3E84C7FBCF1000FF4D1BFF35F8F1A
:104540008B886353A1F804E00B69C3E88F6F82F393
:1045500010880122CB68097803F501538A405A601C
:10456000F0BD00230A69C2E88F3F87F310884FF03F
:10457000FF30F0BD03464089B0EB214F37DD58696D
:104580000A1402EB420210B500EBC2001C69EFF303
:10459000108C72B6D4E8CFEF0122BEF1000FF9D132
:1045A000C4E84E2FBEF1000FF4D1BFF35F8F4288F5
:1045B00089B292B28A4207D000221B69C3E88F2FCA
:1045C0008CF31088002010BD42F40042428001218B
:1045D000002218699971C0E88F2F8CF310881C781D
:1045E000DA68084602F50153A140596010BD002069
:1045F000704700BFF0B506460D4683B0EFF3058463
:10460000E4B2002C35D1264F3A78F96804328B6A2F
:1046100051F82220D21AC31A934207D320BF214B4C
:10462000586A85421FD9002003B0F0BD00F058F849
:10463000864265EB0101002911DB1B4B3846CDE9B1
:10464000003432462B46FFF731FF011E07DD154BC4
:104650005A6A95421DD920BF1148FFF78BFF114BB5
:10466000586A8542DFD89B6A9E420DD8012003B06C
:10467000F0BD0C4B586A8842D5D39B6AB342F5D241
:10468000401A18BF0120CFE7281A18BF012003B035
:10469000F0BD9B6A9E42DFD99542DDD1DBE700BFCA
:1046A0003806002000000B407943001010B4054B81
:1046B000054C064AA04214BF1846581C5DF8044B2E
:1046C000FFF74CBAB408002000800B40206F0010A8
:1046D0000346416A0A46986A596A8A42FAD1704783
:1046E000034B596A0A46986A596A9142FAD170474F
:1046F00000000B4030B4154A536A9C46946A536AD2
:104700006345FAD1021959414FF0000528BF012530
:104710000E4B5B6AB5B15A1C08BF1A4608D04FF061
:10472000FF310A460948436A8B42FCD38B4207D1CA
:10473000064902E0486A984202D1886A9042F9D359
:1047400030BC70479942EDD8F0E700BF00000B4045
:104750001F4B98420AD84FF47A731E4A03FB00F0AD
:10476000916A936A5B1A9842FBD870474FF47A714A
:1047700030B4184BA0FB01015A6A94469C6A5A6AED
:104780006245FAD103194A414FF0000528BF0125BF
:104790009DB91049496A8A4203D90E48416A91423B
:1047A000FCD3914207D10B4902E0486A904202D102
:1047B000886A9842F9D330BC7047064B5A6A531C3A
:1047C00008BF1346EFD04FF0FF321346E5E700BFB6
:1047D0009BC4200000000B4070B4039D04682D03AF
:1047E00045EA03451B4B002CB3FBF1F3B2FBF3F698
:1047F0001FDB194A194B90420CBF4FF400424FF493
:104800008042174C1A6003F580531A60A36832EA9D
:104810000303FBD1212200F540530433016086607D
:104820001A600268002AFCDA0822C5601A6070BCAF
:104830007047036803F03F038B42DAD18368C3F308
:104840000B03B342D5D1C36803F4EE23AB42D0D1FE
:10485000EDE700BF001BB7000080054000200240CC
:1048600000000240012300EB4000800000F1804086
:1048700000F5841041600360704700BF0023DB8AAD
:10488000002242E800F2520201D41021184704210C
:10489000184700BF034AD2F82838002BFBD0BFF3DB
:1048A0005F8F704700000E400021044B044ABFF3A5
:1048B0005F8F43F8041B9342F9D170470C080E40F8
:1048C0002C080E4010B42F204FF42A64054A064BE2
:1048D00006491460D06019605368002BFCDA5DF85B
:1048E000044B70470080044000A0044000B0FA0070
:1048F000F8B504460D46EFF3108772B60C4B9B6873
:1049000053F82060B14204D00A4B9E420BD200F013
:1049100015F9074B9B6843F82450BFF35F8F87F36B
:1049200010883046F8BD044B9E42F2D3EFE700BF3B
:1049300000ED00E0100100101C01001070B50446ED
:104940000E46FFF7EFF8394B9D7893F9002005F0FC
:104950000105D20F42EA4502224293F800C04ED030
:1049600093F90110CCF38012C90F42EA41022242AE
:10497000597833D0C1F38015CCF3401242EA450296
:10498000224242D0C1F34015CCF3001242EA450264
:1049900022423DD0C1F30015CCF3C00242EA4502E9
:1049A00022422FD0C1F3C005CCF3800242EA450277
:1049B000224230D0C1F38005CCF3400242EA4502E6
:1049C00022422ED001F002020CF001010A4312EA49
:1049D000040529D016B31648FCF7D8F9402106255E
:1049E000E60744BF4CEA010C83F800C0A20702D5D9
:1049F0005A780A435A70FFF7A7F8284670BD8021FD
:104A00000725EDE708210325EAE720210525E7E74B
:104A100010210425E4E704210225E1E76FF00805F1
:104A2000E9E702210125DBE70121D9E7E4080020BD
:104A3000446F0010F8B5054606200E46FFF76CF8E7
:104A4000002842D0354A364895420CBF4FF00062EC
:104A50004FF08062334B344902601A608C6832EA4E
:104A60000404FBD12D4B4FF48071EB1AB3FA83F39E
:104A70002E4A5B09062022F81310FFF74DF8C300F9
:104A8000B3FBF6F30133DA0920D140260121696234
:104A9000AA622F6BFB0722D42B46002253F82C1F4F
:104AA000062003F5805422602F63FFF735F8EB6A88
:104AB00040F2013283F0700303F07E032360800034
:104AC0000323B0FBF6F02A63AB64F8BD4FF6FE712A
:104AD0008A421BD922464FF6FF71154ED7E740F2A6
:104AE000013205F540531A636B6AAC6A062004EB89
:104AF0008314FFF711F80F4BA402A3FB0023DB0A7A
:104B00000021B4FBF3F0FFF7F5FDC5E7C3F3450360
:104B1000114603EB82161A46B9E700BF0080074032
:104B2000002002400030024000000240B40B002090
:104B3000C0FF3F00757B2B8F704700BF08B5014851
:104B4000FCF724F9586F001038B5054C054DAC4200
:104B500004D254F8043B9847AC42FAD338BD00BFA6
:104B6000A86D0010E86D001010B40748074C084B02
:104B7000084A094904601A608B6832EA0303FBD1D2
:104B80005DF8044B704700BF002002407F3BEFEF11
:104B900000300240F6FFF30300000240044BDB6CE0
:104BA000B3F5004F03D14FF48022024BDA64704713
:104BB00000001150002011504FF0E022044BD2F8B9
:104BC000881D0B43C2F8883D10EE3004704700BFCB
:104BD000030330006FF06041044B054A196093688D
:104BE000DB4333F06043FAD1704700BF003002402E
:104BF0000000024010B545F25320FFF73FFEBDE82C
:104C0000104003460420184710B545F25320FFF723
:104C100035FEBDE81040034601201847FEF7DEBF11
:104C200010B5054B054C4FF488721846A16801F089
:104C3000AFFFA06010BD00BF0000002000ED00E04D
:104C40000023F0B52B4C83B0C4F88430FFF73AFE54
:104C50000122294BDA63636C012BFCD10321264A24
:104C6000244B11639D6B012DFCD1052302271E46A9
:104C700000242946214A22480097FFF7ADFD294626
:104C80003346204A20480096FFF7A6FD39462246C3
:104C900004201E4BFEF7D8FE2946224630461C4B08
:104CA000FEF7D2FE2246082021461A4BFEF7CCFE24
:104CB000224609202146174BFEF7C6FE2246062053
:104CC0002146134BFEF7C0FE114B2246072021461A
:104CD000FEF7BAFE0420FEF71FFF0F4BA3FB0035C3
:104CE000AD0CE0B229460134FFF7BCFD062CF8D12B
:104CF00003B0F0BD0000014000300140002F6859B2
:104D000000000540008C864700800540001BB7006E
:104D100080D1F008006CDC0283DE1B4386B003B454
:104D200051FC0804CDE9020151FC0904CDE904015C
:104D300051EC0A04CDE9060103BCF047BDE8005080
:104D40004EEC00C4BDE800504EEC01C4BDE800507C
:104D50004EEC02C400BD000000B5FFF7DFFF02E02B
:104D600010FE30F4F8D441EC100443EC112400EEB2
:104D7000010410EE010480EE200451EC1004704791
:104D800000B5FFF7CBFF02E010FE30F4F8D441ECA1
:104D9000100443EC112400EE010410EE210480EE17
:104DA000200451EC3004704700B5FFF7B7FF02E074
:104DB00010FE30F4F8D410B541EC100443EC11248B
:104DC00051EC040453EC0524A0FB024C5FF0000EF0
:104DD000E0FB03CEE1FB02CE4CEC20440024E1FBDF
:104DE00003E444EC30E480EE200451EC5004BDE8D0
:104DF0001040704700B5FFF791FF02E010FE30F45D
:104E0000F8D441EC100443EC112451EC2104A0FB34
:104E100001126FEA820252FB100052FB12F252FBA7
:104E20001000A0EBD07C53EC04245CFB13F153EC9A
:104E30001524A1FB022001FB030053EC4424A2EB48
:104E4000000050FB1CF24FEA111312EB017043EB10
:104E5000E27140EA515020EA915020F0070053ECF3
:104E60007524A0FB023C53EC752400FB03CC01FB32
:104E700002CC53EC0424ACEB824C40EA5C70A0F111
:104E8000010041EC400480EE200451EC70047047B6
:104E900000B5FFF743FF02E010FE30F4F8D440EC19
:104EA000700400EE010410EE210480EE200451ECA9
:104EB0003004704700B5FFF731FF02E010FE30F418
:104EC000F8D440EC600400EE010410EE210480EE02
:104ED000200451EC3004704700B5FFF71FFF02E0DB
:104EE00010FE30F4F8D441EC800400EE010410EE22
:104EF000010480EE400410EE1304704700B5FFF784
:104F00000DFF02E010FE30F4F8D441EC800400EE16
:104F1000010410EE010480EE400410EE33047047EB
:104F200000B5FFF7FBFE02E010FE30F4F8D441ECD0
:104F3000100443EC112400EE010410EE3004C0F321
:104F40000070704700B5FFF7E9FE02E010FE30F494
:104F5000F8D443EC102441EC110400EE010410EEEF
:104F600030F48CBF01200020704700BF00B5FFF770
:104F7000D5FE02E010FE30F4F8D441EC100443EC0E
:104F8000112400EE010410EE30F42CBF01200020AB
:104F9000704700BF00B5FFF7C1FE02E010FE30F41D
:104FA000F8D441EC100443EC112400EE010410EE9F
:104FB00030F48CBF01200020704700BF704700BF55
:104FC0002DE9F04F83B098460F9B0F4611469A0784
:104FD0000646DDF83090DDF838B012D10D9B5B4508
:104FE0000FD28A460C46ABEB03050D4452464346AE
:104FF000394620200AF1010AB047AA45F6D12146D8
:1050000000E00D460D9B93B109EB030404EB050A88
:1050100001950D46AAEB040214F8010D43463946EA
:10502000B0474C45F6D129460D9B019D1D440F9B71
:105030009B070CD56C1AA34509D92A464346394625
:1050400020200134B047A34505F10105F5D82846D5
:1050500003B0BDE8F08F00BF2DE9F04F0F9FDDF8E2
:1050600024E017F0020F0A9C9DF82C900E9DDDE9BC
:105070000C8629D1002D66D1B44225D2202C07F010
:10508000010B00F00A8104F1FF3C4FF0300AF444B8
:1050900001E0202C76D00134A6420CF801AFF8D8FC
:1050A000BBF1000F10D0AC420ED2202C70D004F116
:1050B000FF3C4FF0300AF44401E0202C22D00134B0
:1050C000AC420CF801AFF8D117F0100F31D017F443
:1050D000806F4CD1DCB9B8F1100F00F0B880B8F196
:1050E000020F00F0C28030248EF800400124B9F194
:1050F000000F5AD17E0740F186802B260EF80460FF
:10510000013418E0FC0673D57C052FD42024A64278
:1051100001D0AC422BD1661E00F08680B8F1100F92
:1051200000F0C080B8F1020F5BD04FF0300C0EF8E9
:1051300006C0202CDBD1CDE90B57CDE909E4BDE851
:10514000F04FFFF73DBF17F0010B3AD0B9F1000F58
:105150004CD117F00C0F49D1B442A4D2202C92D1DB
:10516000202D15D817F0100FB1D1E4E72024B8F1A5
:10517000100F3FD0B8F1020F2FD0202CDBD02646E5
:105180000134D2E7BBF1000F00F09D80202DB9D98A
:10519000FC062DD57C052BD4202E00F0A280202DDE
:1051A000E4D120251F262C46B8E72D260EF80460F2
:1051B0000134CDE90B57CDE909E4BDE8F04FFFF725
:1051C000FFBEB44280D2202C7FF45DAF17F0100FE9
:1051D000B1D017F4806FCAD199E7202CABD0264606
:1051E00001344FF0620C0EF806C0C6E7013DB3E78C
:1051F0002024A0E7BE060DD4202C9CD078260EF8E3
:1052000004600134B9E73E0795D520260EF8046006
:10521000013490E7202C8ED04FF0580C0EEB040692
:1052200086F800C00134A8E7B8F1100F43D0B8F1F8
:10523000020F7FF458AF62248EF8004030248EF8BD
:1052400001400224B9F1000F3FF454AFADE7BE06B0
:1052500017D558248EF8004030248EF801400224DF
:10526000B9F1000F3FF446AF9FE762268EF8006069
:10527000302644468EF80160B9F1000F3FF43AAF92
:1052800093E778248EF8004030248EF80140022401
:10529000B9F1000F3FF42EAF87E7BBF1000F7FF4A9
:1052A00061AF93E7A4F1020C3446BE0607D478261A
:1052B0000EF80C6063E7BC06CBD47824BCE7582614
:1052C0000EF80C605BE717F0100F3FF434AF17F4E3
:1052D000806F7FF430AF202E06D0202D7FF447AFB3
:1052E0005FE734461F2619E71F2617E700B9704706
:1052F00001F086BA10B1D1E900311847704700BFFC
:105300002DE9F04F9DB09DED267BDDE928A558ECF9
:10531000177BCDE90C1283461E463A464346384673
:1053200041468DED087B2A9CFFF7FEFD002840F0EA
:10533000D580384641464FF0FF32734BFFF72EFEC3
:10534000002840F0CB80384641464FF0FF326FF4E2
:105350008013FFF7FBFD002840F0C080DDE90878EE
:105360000022384641460023FFF7F0FD002840F0B8
:10537000BB81CDE90A78DDE90A231F46904614F483
:10538000806308BF4FF0060A119358EA070340F004
:10539000BF8014F4006300F09F819FED597B0027CC
:1053A0008DED0E7B4FF00008BA45CCBFAAEB070A83
:1053B0004FF0000A4746C8BF0AF1FF3A44F4806440
:1053C000454594BF4FF00009A5EB080914F002030E
:1053D000109304D0B8F1000F18BF4FF000093FB18F
:1053E000DDE90A01DDE90E23FFF708FDCDE90A0139
:1053F000DDE9080100220023FFF7A8FD30B1DDE957
:105400000A01024601F10043CDE90A239DED0A7B22
:1054100024F40063CDE902A9DDE90CA204938DED2B
:10542000007B33465146584600F096F98146B8F164
:10543000000F4FD014F0200F4A460CBF65204520C6
:1054400033465146D84709F1010487EAE77C0DF15C
:10545000500908F1FF304B460022DFF8B080ACEB7A
:10546000E77C4FEAD77E01E0202A10D0E246A8FB75
:105470000C71C90801EB8107ACEB47073037BAF173
:10548000090F8C4602F1010203F8017BECD80523D9
:105490000590069300200A230C9FCDE90330CDE947
:1054A000012E3346CDF80090224639465846FFF784
:1054B000D3FD109B81466BB10D9BC41AA54209D93F
:1054C0004A463346394620200134D847A54209F1DF
:1054D0000109F5D848461DB0BDE8F08F9DED087B69
:1054E000DDE90C12334658468DED267BCDE9295473
:1054F000CDF8A0A01DB0BDE8F04F00F02DB900BF61
:105500000000000000000000FFFFEF7FCDCCCCCCFE
:10551000C7F30A50A0F2FF30FFF7BEFC8AA3D3E91D
:105520000023FFF745FC8AA3D3E90023FFF718FC0B
:10553000C7F31307CDE90E0147F07F514046002223
:105540007B4B41F44011FFF71FFC6BA3D3E9002311
:10555000FFF72EFC02460B46DDE90E01FFF700FCCB
:10556000FFF7BEFC0746FFF797FC65A3D3E90023CE
:1055700080468946FFF71CFC00226E4BFFF7F0FBCC
:10558000FFF7AEFC03464946404610935EA3D3E9BD
:105590000023FFF70DFC804610988946FFF77CFC3E
:1055A0005BA3D3E90023FFF703FC02460B4640460A
:1055B0004946FFF7E9FB02460B4680468946FFF75E
:1055C000F7FB42464B46CDE90E0140464946FFF700
:1055D000C7FB0022CDE91201DDE90E01564BFFF7B2
:1055E0000DFC0022554BFFF7BBFB02460B46DDE9E5
:1055F0000E01FFF703FC0022514BFFF7B1FB0246FF
:105600000B46DDE90E01FFF7F9FB42464B468046AB
:10561000894600204FF08041FFF7B6FB02460B465B
:1056200040464946FFF79CFB02460B46DDE9120166
:10563000FFF7E4FB0022434BFFF792FB109B002295
:1056400003F2FF3C4FEA0C53FFF7B2FB804689465A
:10565000DDE90A0142464B46CDE90E89FFF776FCAB
:1056600060BB4346494607F16302C72A34BF4FF087
:1056700004084FF0050822057FF5A2AE0B433FF466
:1056800091AEDDE90A0124A3D3E90023FFF772FC00
:1056900048B1DDE90A0122A3D3E90023FFF756FC54
:1056A00000287FF47FAEBAF1000F3FF489AE119B62
:1056B000002B3FF485AE0AF1FF3A81E600221F4B32
:1056C00040464946FFF79AFB0A4601460346CDE9A4
:1056D0000E12013F1146C6E79FED137B1F464FF0A8
:1056E00004088DED0E7B6BE608F100430A970B93DF
:1056F00041E600BFAFF3008061436F63A787D23FED
:1057000071A379094F930A401655B5BBB16B02409E
:10571000EF39FAFE422EE63F2D431CEBE2361A3FEC
:105720000000000080842E41000000000000000006
:105730000000F83F0000E03F00002C400000244043
:10574000000018400000F03FFB799F501344D33F06
:10575000B3C8608B288AC63F2DE9F04F97B0DDE9CA
:105760002089CDE90401DDE9224BCDE9062340463D
:1057700042464B464946DDF890A0FFF7D5FB00288E
:1057800040F0C681404649464FF0FF326FF4801327
:10579000FFF7DCFB002840F01D81404649464FF0F2
:1057A000FF32C14BFFF7FAFB002840F0E380B8A3BB
:1057B000D3E9002340464946FFF7F0FB002840F0BC
:1057C000CB80B5A3D3E9002340464946FFF7BEFB93
:1057D000002840F0C1804046494600220023FFF7E0
:1057E000B5FB002840F0E0801AF480650D9000F0D1
:1057F000E980092C40F297810EAB1A460C933021B8
:105800000023A4F109050133202B02F8011BA4EBAE
:10581000030600F03A81AB42F5D19FED9D7B8DED03
:10582000087B49464046FFF75BFB0446FFF734FB25
:1058300002460B4640464946FFF7A6FADDE9082333
:10584000FFF7B6FA02460B46CDE90A23FFF75AFBEB
:105850000746FFF733FB02460B46DDE90A01FFF777
:1058600093FA02460B46CDE90A2300228F4BFFF73D
:1058700095FB002800F0DB8001373846FFF71EFB60
:10588000DDE90823FFF776FB08B100270134002E7D
:1058900040F0B1802046FFF7FFFA02460B46404633
:1058A0004946FFF771FA0022804B06460F46FFF784
:1058B0004DFB40B93046394600227C4BFFF76EFB6A
:1058C000002800F016810C9B691E7948194410E0ED
:1058D00080FB0462C3EBA20303EB8302A4EB42044C
:1058E00004F1300201351C4601F8012F002B00F0B5
:1058F000AB80202D4FEAE473EAD10AF00303012BB9
:105900001CD1BBF1000F19D00D9B002B40F0FA8089
:105910001AF00C0F40F0F680AB4540F2D380202DFA
:105920000BD030220C996B1E0B4401355D4503F8FA
:10593000012F00F08D80202DF7D12025DDE90623F1
:10594000DDE904010C9CCDE902BA01950094FFF752
:1059500037FB17B0BDE8F08FCDE92089DDE90623DC
:10596000DDE90401CDE923BA229417B0BDE8F04F78
:10597000FFF7C6BC4F4DCDF88CA00AF0040ABAF16F
:10598000000F4D4C18BF2C46DDE90623DDE904016C
:1059900020940CBF03240424CDF888B0219417B0C0
:1059A000BDE8F04FFFF70CBB012142464B460D917D
:1059B00000200021FFF7E8F91AF480658046894647
:1059C0007FF417AF9FED367B0EAB06268DED087B7F
:1059D0000C9326E70424DDE90623DDE90401374DB5
:1059E000CDF88CA0CDF888B02095219417B0BDE8F3
:1059F000F04FFFF7E5BA0C9B681EDFF8C4C01844EF
:105A00000DE0ACFB0732D20802EB8203A7EB4303A5
:105A10003033092F00F8013F27D917460D46202DB6
:105A200005F1010106F1FF36EBD120254BE70022FD
:105A3000DDE90A011D4BFFF789FA00287FF427AF43
:105A4000002F5BD1013722E70AF00303012B76D048
:105A5000202D3FF473AF0D9BBBB32D2205F15803EE
:105A60006B4403F8202C013568E72029DDD0AEB364
:105A70000C9B0E441D44302301E0B1422FD0013174
:105A8000202905F8013FF8D1CFE71D46C5E600BF44
:105A90000000000065CDCD410000000065CDCDC106
:105AA0000000000080842E41FFFFEF7F0000E03FF8
:105AB00067666666FC6F0010047000100C700010C2
:105AC000CDCCCCCC202D3FF439AF1AF0040F0ED141
:105AD0001AF0080F3FF432AF2022BFE70E462E2205
