:020000041000EA
:10000000002008205D0100101301001015010010F0
:100010001101001011010010110100101101001058
:100020001101001011010010110100101701001042
:100030001101001011010010190100101B01001026
:100040001D0100101D0100101D0100101D010010F8
:100050001D0100101D0100101D0100101D010010E8
:100060001D0100101D0100101D0100101D010010D8
:100070001D0100101D0100101D0100101D010010C8
:100080001D0100101D0100101D0100101D010010B8
:100090001D0100101D0100101D0100101D010010A8
:1000A0001D0100101D0100101D0100101D01001098
:1000B0001D0100101D0100101D0100101D01001088
:1000C0001D0100101D0100101D0100101D01001078
:1000D0001D0100101D0100101D0100101D01001068
:1000E0001D0100101D0100101D0100101D01001058
:1000F0001D0100101D0100101D0100101D01001048
:100100001D0100101D0100101D0100101D01001037
:1001100000BE00BE00BE00BE00BE00BEEFF3058004
:10012000103800BEF2EB887138540210645402108B
:10013000A801001090A31AE7D3DEFFFF42012110AF
:10014000FF01000038750200793512AB4FF0000056
:100150002049086006C881F3088810474FF05040D6
:10016000006810B14FF00000F2E70FA40ECC002998
:1001700002D000F015F8F9E71749184A002000E00E
:1001800001C19142FCD1002080F30A8814498847BC
:10019000144988471449884700BEFDE701C901C2D8
:1001A0009A42FBD3704700BF645402101001002034
:1001B0001C23002070760210000008200000082098
:1001C00070760210001008200010082000000000C7
:1001D0007047000008ED00E01C2300205CB4022002
:1001E000FDF90010DD190010C1F90010F8B500BFCD
:1001F0000348044B834202D0034B03B118477047B6
:100200001C2300201C23002000000000064B07498F
:10021000C91A891048BF0131491003D0044B0BB1F2
:1002200001481847704700BF1C2300201C230020F2
:100230000000000010B5064C237843B9FFF7D8FF43
:10024000044B13B10448AFF300800123237010BDA9
:10025000883B0020000000006C2B021008B5044B06
:100260001BB104490448AFF30080BDE80840CDE766
:10027000000000008C3B00206C2B02102DE9F041A7
:10028000002682B0192001960CF024F819234FF0B3
:10029000010242EC44304FF00108134F134D01218D
:1002A000386808F0A7FE19244FF0010343EC4040E2
:1002B000002301A91A462868CDF8048009F09AF8AD
:1002C00041F288300BF064F84FF0000343EC4040FB
:1002D000002328681A4601A9019609F08BF841F21B
:1002E00088300BF055F8DAE790AF022000B002201A
:1002F00080B54FF0FF370E4D0E4C0F4E84B04FF0CF
:10030000FF3203A9286809F08DF90221206808F05E
:1003100071FE039B3BB901230F211A462068009709
:1003200008F00EFE306048F6B8000BF031F8E6E752
:1003300000B0022090AF0220C0AF022008B5064BEB
:100340001B782BB900230549054A0B70137008BDB3
:1003500004481BF0BFF8F5E759B4022008AE0020AE
:10036000431800209C430020164B1B7823B9164AE3
:10037000164917480FF04EBA70B5164C164D98B086
:100380006268296815480FF037FE4FF4A076F02315
:10039000626829681248CDE901630FF02DFE02AAB8
:1003A00001A910480FF028FE012362680E4803A936
:1003B0001BF05EFB002801DB18B070BD0B480FF08E
:1003C00099FDF9E759B40220B42B0210B82B0210A2
:1003D00008AE00205840002050400020702B021032
:1003E000782B0210802B02109C430020A42B0210BB
:1003F000104B1B7823B9104A104911480FF00ABA64
:10040000F0B5104C104B83B0E0681D68D4E901676B
:100410001BF03AFE8446206964461BF035FE3B46DD
:10042000CDE900403246294608480FF0E5FD03B00B
:10043000F0BD00BF59B40220B42B0210B82B02103B
:1004400008AE00205840002050400020D42B02105D
:10045000034B1B7863B9034A034904480FF0DAB928
:1004600059B40220B42B0210B82B021008AE0020A1
:100470004FF040132DE9F04FBD4FB1B007F5804468
:100480000497C4F80A3013F01BFFBA4B40261860DB
:10049000B94BBA4D186813F04DFEB94BB94A186004
:1004A000D3682760DFF820930093B74B07F5005718
:1004B00019686760D2E901232E60C9F80060B3486B
:1004C0000FF09AFD012304F114022261AD4A06A93E
:1004D0005268AF48A3821BF0CBFA0146AD480FF03B
:1004E0008BFD06A9AA481BF0F1FB074601300DF071
:1004F00065FE06464C200DF061FE02463B4606A90D
:100500000592A34832461BF027FB30780FF0B0FC71
:1005100070780FF0ADFCB0780FF0AAFCF0780A28E4
:1005200018BFF71C00F0EA810FF0A2FC3B4617F859
:10053000010F0A28F8D1C6F101071F447B1C07F1FF
:1005400002081A46C3460337B05C0A2818BFF718DA
:100550000DD00FF08DFC3B4617F8010F0A28F8D19B
:10056000C6F101071F4407F10108C34602370A20FC
:100570000FF07EFC16F80B000A2818BFB04408D014
:100580000FF076FC434618F8010F0A28F8D19B1BA0
:100590009F1C0A200FF06CFC049B06EB07082360ED
:1005A000734B7D4F08F1400A049308F58258AAF175
:1005B000400B1BF8011B384619800FF01DFD236806
:1005C000D34503F102032360F3D10BF1400AD04578
:1005D000EDD10A200FF04CFC049B704823600FF013
:1005E00089FC6F480FF086FCDFF8E0816D4BDFF887
:1005F000E0B1C8F8003003F580531A46A3F58051E6
:100600006948CBF800300FF0F7FC0023D9F8002040
:100610002968664F01FB02F29A423B6018DD2168AF
:10062000D8F8002031F81310D1543968042940F368
:10063000EC8040F6FA72914201F1010300F3D080A0
:100640002A68D9F800103B6001FB02F29342E6DB16
:1006500057480FF04FFC00232A683B60D9F8003060
:1006600002FB03F3002B22DDD8F80020DBF800307A
:1006700012781A703968042940F3F68040F6FA734C
:10068000994201F1010000F3CB802B68D9F80020DA
:10069000386002FB03F1DBF80030D8F800200133AA
:1006A00001328842CBF80030C8F80020E0DB414B33
:1006B000CBF80030A3F58053C8F80030049B2360CA
:1006C000304BD8681BF0E0FC012800F0D8804FF0D8
:1006D000000839480FF00EFC049B254A236023696B
:1006E0003648B3F90030364F00936368B4F90A1006
:1006F0000FF082FCD4E900122369B4F90A00DFF894
:1007000098A012F0E9FCC9F800803B68C5F80080A9
:100710002268504632F913100FF06EFC2A683B68CD
:10072000013201333F2A3B602A60F1DD0A200FF0DD
:100730009FFBD9F8003001333F2BC9F80030E4DDCE
:1007400030460DF095FD05980DF092FD06A9104874
:100750001BF098F90B4A4FF4817392681BA90C485F
:100760001BF086F9014617480FF046FC1BA931E043
:10077000346B0020A0AE00204C1800206C6A0020D2
:10078000984300205840002050400020082C0210C0
:100790009C4300204C2F0210182C02101C2C02101D
:1007A000402C0210644A0020742C0210584A002089
:1007B000902C0210645A0020342D0210442D021097
:1007C000806A0020E42C0210746A00205C4A002039
:1007D000604A00204D481BF055F931B0BDE8F08F5C
:1007E0002368D8F8002033F91130525C48480FF0E4
:1007F00003FC2B68D9F8002003FB02F23B680133AD
:1008000093423B60FFF60BAF22E72368D8F8002045
:1008100033F91130525C3E480FF0EEFB396808E7BF
:10082000D8F80030DBF800201B78127839480FF038
:10083000E3FB2B68D9F80020396802FB03F0DBF8F2
:100840000030D8F800200131013301328142396093
:10085000CBF80030C8F80020BFF629AF12781A7024
:10086000396804293FF70AAFD8F80030DBF80020D8
:100870001B78127827480FF0BFFB3968FEE6264840
:100880000FF038FB2A68254D25482C68D9F8003030
:10089000D8F800100068009413F062F800222B686A
:1008A00019683A60914223DD9146DFF87C805B68ED
:1008B00053F82940206822F003F902460B46A1684C
:1008C0001D4602916068144622F0FAF82246CDE9EE
:1008D00000012B46494640460FF08EFB0F4B3A680D
:1008E0001B6802F101091A68C7F800909145DEDB28
:1008F0000021059A0B480FF07FFB21E74FF0050B15
:1009000004220627D84613461EE600BF9C4300205B
:10091000B82C0210D42C0210EC2C021098430020AA
:10092000A0AE0020F02C02100C2D021008B50D4BCB
:100930001B7833B9BDE808400B4A0C490C480EF04F
:1009400069BF0C4A0C4B12680C481968013A0C4BF1
:10095000006807F073FC064B0A4A92E8030083E83C
:10096000030008BD59B40220B42B0210B82B0210AA
:1009700008AE0020504000204418002048180020F5
:100980005C400020582D021038B50F4C237833B945
:10099000BDE838400D4A0E490E480EF03BBF0E48E8
:1009A0001AF098FD38B90B4B0C4A207092E80300FE
:1009B00083E8030038BD074C094D0FCD0FC495E8FF
:1009C000070084E8070038BD59B40220B42B021098
:1009D000B82B021008AE00209C4300207C2D021092
:1009E000602D02101C4B1B7823B91C4A1C491D4862
:1009F0000EF010BF2DE9F0438DB009A801F0D0F939
:100A000001F0E0F9DDE90A5725230646384606934A
:100A10000DF04EF90022144B0DF06AF8804628467E
:100A200089460DF045F902460B46404649460DF011
:100A300085F880468946099C3246009405FB04F4FB
:100A40002B46CDE9048909490197029405480EF027
:100A5000E1FE0DB0BDE8F08359B40220B42B0210C2
:100A6000B82B021008AE002000005940842D02105F
:100A700010B50C4602462346054906481BF06EF8A1
:100A8000844200D110BD0448BDE810400FF032BAD6
:100A9000404300209C430020D82D021038B5104C54
:100AA000237833B1BDE838400E4A0F490F480EF0A5
:100AB000B1BE0F490F481AF097FB40B901250B4B07
:100AC0000D4A257092E8030083E8030038BD074C07
:100AD0000A4D0FCD0FC495E8070003C4228038BD2E
:100AE00059B40220EC2D0210B82B021008AE0020E1
:100AF000501800209C4300207C2D0210F42D021081
:100B00002DE9F04F614F83B03C4607F180080FF0AC
:100B100077F9C5B2092D5AD028460FF0A9F90D2D45
:100B200000F09A80082D42D0444538BF04F8015B9C
:100B30000A2DECD10020DFF868C105466446064660
:100B4000534F524B38601A4613F8011B2029FAD034
:100B50002C29F8D00D2900F08F800A2900F08C8014
:100B600044F8042B03E00D2917D00A2915D01346A9
:100B700012F8011F202901D02C29F4D101300428BA
:100B80004FF00105167003F10203DCD10023386039
:100B90004CF8203003B0BDE8F08F00231370002321
:100BA000013038604CF8203003B0BDE8F08FBC4213
:100BB000ADD038480FF020FA374B013C1B689868DD
:100BC0001BF0A6FB0FF01CF9C5B2092DA4D1BC4245
:100BD00008D92E4B13F8012B202A98D02C2A96D016
:100BE0009C42F7D1B4EB070A91D04FF0000B5D4661
:100BF0002A4E0194DFF894903446009E21685246B4
:100C000048461DF02BFB0C3410B92E460BF1010B9E
:100C10000135122DF2D1BBF1010F019C00967FF43A
:100C200076AF1E4B06EB460253F8226016F80A50C8
:100C3000564455B1284604F8015B0FF019F90D2D03
:100C400012D016F8015F002DF4D123462020187031
:100C500001340FF00DF95AE70A200FF009F9444565
:100C6000BFF468AF257065E70A200FF001F916F8A8
:100C7000015F002DDED1E8E7002D87D12846002353
:100C80004CF8203003B0BDE8F08F00BF8841002051
:100C900050400020102E021060190020BC340210B9
:100CA000584000201E4B1B7823B11E4A1E491F4886
:100CB0000EF0B0BD10B51E480FF09EF91D4B1B681D
:100CC00098681BF025FBFFF71BFF1B4B1B6833B11C
:100CD0001A4B1B681B7843F02003792B08D0184B64
:100CE000124C0FCB07C41A0C24F8023B227010BD23
:100CF000144915481AF09AF928B9144A0B4B07CA37
:100D000003C31A8010BD124A124B116854689068D0
:100D10001960D168127C5C609860D9601A74ECE745
:100D200059B40220EC2D0210B82B021008AE00209E
:100D3000142E02106019002050400020584000205E
:100D40002C2E0210501800209C430020582E021018
:100D5000462E021012AE00202DE9F84FDFF8E88091
:100D6000DFF8E8B02E4E08F1D8052E4B1B78002B8B
:100D70003BD02D4B1B78002B4CD12F232B4A1380BB
:100D800000242A492A480FF037F9DBF80030986828
:100D90001BF0BEFAFFF7B4FE264B274A1B681470FF
:100DA0005BB3264B2746D3F800A002E00137122F91
:100DB00020D058F82490504649461CF07BFE03345E
:100DC0000028F3D107EB470408EB840463689847D5
:100DD000A3684A4639461A480FF00EF916480FF034
:100DE00089F8104B1B78002BC3D148F6B8000AF0E5
:100DF000CFFABAE713480FF07DF8134CA26854F805
:100E00000C1B30460FF0F8F8AC42F7D10A200FF077
:100E10002FF8AAE7044905481CF02AFFB0E700BFF5
:100E20008C2E02104318002030420020906A0020CF
:100E3000642E02105040002008AE002058400020D0
:100E40006C2E0210782E0210BC34021060190020A3
:100E500010B5044660B103782F2B12D00F490B78E0
:100E60003BB10F481CF09AFD2278034672B90C483A
:100E700010BD2F230A48214600F8013B1CF0F8FE64
:100E8000F5E7014606481CF0F3FEF0E72F22214665
:100E90001A7001301CF0ECFEE9E700BF3042002080
:100EA000906A0020474B1B7823B9474A4749484876
:100EB0000EF0B0BC2DE9F041464BD0B01B68012BC1
:100EC0001EDD454C6068FFF7C3FF05460EAA2946A4
:100ED00042481AF0B5FD002853DB9DF83830022B4C
:100EE0001AD029463D481AF013FB002852DB3C4A31
:100EF0002B463C4936480EF08DFC50B0BDE8F081E1
:100F0000334C394D0FCD0FC495E80F0007C41A0CB0
:100F100024F8023B2270F0E72A46304801A91AF073
:100F2000B3FF002742F62E682C4E30460EAA01A9C8
:100F30001BF00CF868B1BDF840402E2CF5D04445AC
:100F400014D030460EAA01A901371AF0FFFF00287D
:100F5000F1D1224801A91AF0E5FF67B929461F48D7
:100F60001AF0D6FA002821DB204AC1E79DF842306A
:100F7000002BDAD0E5E72A461D4915480EF04AFC59
:100F8000BBE76068FFF764FF1A49024610480EF09D
:100F900041FCB2E70E4C184E0FCE0FC496E80F007E
:100FA00007C41A0C24F8023B2270A0E7084C124E2A
:100FB0000FCE0FC496E80F0007C41A0C24F8023BAA
:100FC0002270D1E759B40220B42B0210B82B0210C2
:100FD00008AE002050400020584000209C430020D4
:100FE000982E0210102F0210A02E02109430021022
:100FF000D82E0210C02E0210F02E021038B5254B4C
:101000001B7833B9BDE83840234A244924480EF000
:1010100001BC244B1B68012B29DD234B5868FFF7CB
:1010200017FF4FF481730246204921481AF020FD32
:10103000002828DB00211F480EF0DCFE1E4811F0BE
:1010400059FD01211B480EF0D5FE0223002217494D
:1010500017481AF085FD0446144915481AF012FD88
:101060002246BDE8384015490D480EF0D3BB0C4C64
:10107000134D0FCD0FC495E80F0007C41A0C24F8C8
:10108000023B227038BD064C0E4D0FCD0FC42B68AD
:10109000238038BD59B40220B42B0210B82B0210A3
:1010A00008AE00205040002058400020404300205F
:1010B0009C43002008190020710A0010342F0210F0
:1010C000A02E0210202F021038B51D4B1B7833B90B
:1010D000BDE838401B4A1C491C480EF09BBB1C4B0A
:1010E0001B68012B13DD1B4C6068FFF7B1FE014646
:1010F00019481AF0F7FD002815DB6068FFF7A8FE15
:10110000BDE838400246154910480EF083BB0F4C2D
:10111000134D0FCD0FC495E80F0007C41A0C24F827
:10112000023B227038BD094C0E4D0FCD0FC495E81F
:10113000030044F8040B0B0C24F8021B237038BD89
:1011400059B40220B42B0210B82B021008AE0020B4
:1011500050400020584000209C430020682F02107F
:10116000A02E0210502F02103C4B1B7823B93C4A92
:101170003C493D480EF04EBB30B53C4BD1B01B68EE
:10118000012B27DD3A4B5868FFF762FE394A3A488F
:1011900001A91AF079FE002855DB0A200EF068FE3E
:1011A00042F62E65344C20460EAA01A91AF0CEFE56
:1011B00000281CDDBDF840302E2BF4D0AB4211D0FE
:1011C0009DF83830022BEED10F9910AA2B480EF063
:1011D00013FFE8E72A490B78002B3AD12F22254B41
:1011E0001A80D3E79DF84230002BDCD0E8E7224894
:1011F00001A91AF007FF42F62E651F4C20460EAAE1
:1012000001A91AF0A3FE002814DDBDF840302E2BF2
:10121000F4D0AB4209D09DF83830012BEED10F99B4
:1012200010AA18480EF0E8FEE8E79DF84230002BBF
:10123000E4D0F0E7104801A91AF074FE00220A4B2E
:101240001A7051B030BD084C0F4B0FCB84E80F0023
:10125000F7E708481CF00CFD98E700BF59B40220DE
:10126000B42B0210B82B021008AE00205040002012
:1012700058400020906A00209C430020842F0210D8
:1012800030420020902F0210742F02103A4B1B782E
:1012900023B93A4A3A493B480EF0BCBA3A4B70B5CA
:1012A0001B68012B3DDD394B5868FFF7D1FD012349
:1012B0000246374937481AF0DBFB00284EDB022391
:1012C0000022334933481AF04BFC04463049314878
:1012D0001AF0ECFC20460CF071FF0546002843D0C4
:1012E000024623462A492B481AF036FC844224D071
:1012F000244C294E0FCE0FC433681A0C24F8023B3D
:10130000227028460CF0B4FF214922481AF0BAFB9B
:10131000224A1C4B07CA03C3110C23F8022B197075
:1013200070BD184C1E4D0FCD0FC495E80F0007C4BB
:101330001A0C24F8023B227070BD002119480EF0EF
:1013400059FD2146284611F0D1FA012115480EF029
:1013500051FD214614480EF04FFED2E7094C134BC5
:101360000FCB84E80F0070BD064C114D0FCD0FC49C
:101370002B682380C8E700BF59B40220B42B0210A9
:10138000B82B021008AE002050400020584000202A
:10139000404300209C430020C02F0210D42F021095
:1013A000A02E021008190020342F02109C2F0210CA
:1013B000AC2F0210774B197821B9774A77497848D2
:1013C0000EF028BA2DE9F04F764B9BB01A68012A2F
:1013D00040F3C08000200646734B1D1F05EB8205BD
:1013E00053F8042F14782D2C40F0B2805478702CD0
:1013F00040F0AE809478002C40F0AA800E46AB42BC
:10140000EED10396002800F0A580FFF721FD0546E8
:1014100001232A46654805A91AF02AFB0028C0F2D4
:10142000A5800223002205A960481AF099FB002339
:1014300004461A4605A95D481AF092FB20460CF0B6
:10144000BDFE0290002800F09D80024623465748CA
:1014500005A91AF081FB844240F08E80029B1C4457
:10146000A34263D203F1100500930023504E019371
:10147000009F029A4F48B91ABB46B9460EF0BCFD10
:101480004FF0000ADFF850814B4F0BE099F8001045
:1014900038460AF1010A0EF0AFFDBAF1100F09F15A
:1014A00001090ED01AF0030F4AD0A145EED34046F1
:1014B0000AF1010A0EF0A0FDBAF1100F09F10109BD
:1014C000F0D13E480EF098FD06E02E200BF1010B06
:1014D0000EF0CEFC5D450DD0A34535D29BF8000043
:1014E000335C13F0970FF0D00EF0C2FC0BF1010B40
:1014F0005D45F1D1019F009B0137103330480093C7
:1015000001970EF0F7FC2F4B1B68013BB7FBF3F282
:1015100003FB127333B9039B23B10EF071FCC0B20D
:10152000032803D0009B10359C42A1D802980CF0F0
:101530009FFE1E4805A91AF0A5FA1BB0BDE8F08F62
:1015400020200EF095FCB0E720200EF091FCCDE7B6
:10155000104654E7124C1C4D0FCD0FC495E80F00F8
:1015600007C41A0C24F8023B2270E6E72A46174902
:101570000B480EF04FF9E0E72A46154908480EF0EF
:1015800049F9D3E7064C134D0FCD0FC42B682360E8
:10159000D3E700BF59B40220B42B0210B82B0210BD
:1015A00008AE002050400020584000209C430020FE
:1015B000ED490210443002104C3002105830021035
:1015C0005C30021044180020E02F0210003002109E
:1015D0002C3002101830021054300210274B1B78A8
:1015E00023B9274A274928480EF014B9274B1B680E
:1015F000012B1EDD30B5264B8FB0586803782E2B9B
:101600001BD0FFF725FC234A234801A91AF03CFC14
:1016100000282CDB01A920481AF084FC1D491F4832
:101620001CF026FB1D4A1E4917480EF0F3F80FB0B8
:1016300030BD0022194B1A70704743782E2BE0D131
:101640008578002DDDD1154C237883B120461CF020
:10165000A9FD431E40B1204401E0013B04D310F832
:10166000012D2F2AF9D11D4600236355DFE7064CD3
:101670000C4B0FCB84E80F00D9E700BF59B4022010
:10168000B42B0210B82B021008AE002050400020EE
:1016900058400020906A00209C43002030420020E7
:1016A00060300210742F02100023F0B5324C03603A
:1016B00027680D46022F0446C3B00B6012DC2F4B87
:1016C0002F4E0FCB07C61A0C26F8023B327020684B
:1016D00008B10CF0CDFD286808B10CF0C9FD01205F
:1016E00043B0F0BD274F16467868FFF7B1FB1CF0FA
:1016F00043FB2060002838D0CEB101466A4622481C
:101700001AF09EF9002809DB9DF80030012B0ED05D
:1017100022681E491A480EF07DF8D8E722681C4955
:1017200017480EF077F820680028D2D1D3E7B868C0
:10173000FFF78EFB1CF020FB2860B0B16A462168E1
:1017400011481AF07DF90028E8DB6A4629680E483E
:101750001AF076F9002802DA002043B0F0BD2A68BA
:101760000C4907480EF056F8B1E70B4A044B07CA7C
:1017700003C31A80ABE700BF504000207030021056
:1017800008AE0020584000209C4300208C300210FE
:10179000C02E0210A03002108030021030B583B08D
:1017A0000022684601A9FFF77FFF08B103B030BDF2
:1017B000DDE900540B482946224619F04BFF00286A
:1017C00023462A46B4BF0849084909480EF022F8C2
:1017D00028460CF04DFD204603B0BDE830400CF02B
:1017E00047BD00BF9C430020B4300210D03002102F
:1017F00008AE00202DE9F043ADB00122684601A9F2
:10180000FFF752FF10B12DB0BDE8F0830346DFF8BB
:101810000C814FF4805088F800300CF0CFFC054666
:10182000002866D0009F01233A463A4802A91AF0E0
:101830001FF900282ADBDDF804904FF481734A4633
:10184000344817A91AF014F900283DDB4FF48053EF
:101850002A46304802A91AF07FF9041E39DD2D4EC0
:1018600008E04FF480532A46304602A91AF074F972
:10187000041E2EDD23462A46304617A91AF06EF9BB
:10188000A042EED04A462449244820E03A46244962
:1018900040460DF0BFFF02A91E481AF0F3F81D489C
:1018A00017A91AF0EFF8DDF8049028460CF0E0FCD8
:1018B00098F80030B3B138460CF0DAFC48460CF02A
:1018C000D7FC2DB0BDE8F0833A46404614490DF0F0
:1018D000A1FF02A90F481AF0D5F817A90D481AF070
:1018E000D1F8E2E74B463A460E490C480DF092FF1C
:1018F000E1E743460C4A07CA03C302A905481A8018
:101900001AF0C0F8034817A91AF0BCF8DDE900790D
:10191000CEE700BF9C430020F830021008AE002044
:10192000E43002100C31021080300210002300B5A8
:1019300083B00A2164201A46009307F0B7FF38B13C
:101940000122064B1860064B1A6003B05DF804FBD9
:101950000246034B1A6003B05DF804FBDC3B002039
:101960009CAE002070B5642301220321044607F0D9
:10197000C7FF0646054D00231D22204604492E6060
:1019800007F0BEFF1D22034B1A6070BD786A00206D
:10199000243102107C6A002000B50C490C488BB041
:1019A0001423C1F800D028226946006808F07CF8AA
:1019B000084B186010B90BB05DF804FB9DF80010DF
:1019C00005480EF019FB0BB05DF804FB60AB00207E
:1019D000DC3B002000AE0020182C02102DE9F0475F
:1019E00084B00EF0B9F901200AF074FC0121002244
:1019F00008460AF05BFC01200BF084FB01224FF04B
:101A000050441046002165680AF050FC01200BF09C
:101A100079FB0022646801201146C5F34005C4F338
:101A200040040AF043FCA54220D00EF0F9FD03E08B
:101A30004FF47A700BF066FB00200FF0A7FF002830
:101A4000F6D0002193480EF0D5F993480EF0D4FA61
:101A5000924B1B6898681AF05BFC91480EF084F971
:101A6000023000F0B4804FF0000818E00EF09EFB4A
:101A70004FF47A700EF078F9002186480EF0BAF92A
:101A800085480EF0B9FA854B1B6898681AF040FC3F
:101A900083480EF069F902301CD04FF00108814FE5
:101AA0007F4D3C4607F1800604E004F8010BB44288
:101AB00000F0E28028460EF057F9811CF5D1012193
:101AC00074480EF097F93B785B2B00F08580B8F1F5
:101AD000000F7CD07449754A7548764B04681B68C2
:101AE000754800940EF088FA04210022012007F0C6
:101AF00041FC0246714B01201A6007F00FFD07F010
:101B000011FA6F4B186010B101226E4B1A6012F07F
:101B1000D7FB02466C496D4B08681A6012F00AFB4D
:101B20004FF0020801276A4D6A4B6B4AC5E907333B
:101B30006B6280331060AB62684A694B694E136018
:101B4000694A03F58053414605F1140A3046136093
:101B5000C5F810A0AF8211F02BFB00244146B070F5
:101B60003046C5F810A0AF8211F022FB5F4BDFF8C2
:101B7000B0911C605E4BB0701C605E4B1C60FFF748
:101B8000D5FED9F80000FFF7EDFED9F80000FFF709
:101B900003FF23464FF480725749CDE9008457482C
:101BA00009F090FA23464FF480725549CDE900744C
:101BB000544809F087FA23464FF480725249CDE920
:101BC0000084524809F07EFA09F0A6FAFEE750496F
:101BD000364A3748374B81E70022E31B042B22703B
:101BE0007FF775AF7B784B4DEB5C5A077FF56FAF96
:101BF0001AF08AFA002403460A221C6003A9464808
:101C00001CF008FD04461AF07FFA0368002B7FF4ED
:101C10005EAF039803783B2B7FF459AF4378EB5CBE
:101C20005B077FF554AF0A2203A901301CF0F2FCD8
:101C300005461AF069FA0368002B7FF448AF039B4E
:101C40001B78522B7FF443AF002C3FF440AF002DA4
:101C50003FF43DAF44EA0503B3F5004FBFF437AF9F
:101C60002B4A1348134B10490560B8F1000F08BF09
:101C700011461C60294A31E7012106480EF0BAF8E6
:101C800014F8803C5B2B7FF422AF002387F8803070
:101C9000A8E700BF081900206C310210601900206D
:101CA000A0860100884100206431021054310210E6
:101CB00048180020441800207C31021000B0022097
:101CC00090AF0220E03B00204C180020A0AE002086
:101CD00034AB0020A4AE0020984300205C4A0020D2
:101CE000644A002040180020604A002004AE002012
:101CF000306B00209CAE0020A83202107D02001044
:101D0000B4320210F1020010C0320210590D00105E
:101D100044310210ED49021089410020483102107F
:101D2000DC3B002000207047084B10B5DA6902FB4D
:101D300001F0EFF3108472B6D96900F5401020F07D
:101D4000D7FE84F31088002010BD00BF501800207B
:101D5000094810B5C06900FB01FC1946EFF3108477
:101D600072B602F540106044029A20F099FE84F3A6
:101D70001088002010BD00BF50180020944610B5F8
:101D800006480CF1A15CC4690CF5801C184604FBE4
:101D900001C1029A1BF02EFA002010BD501800203D
:101DA00010B50446054B0648D3E90723C4E90023D0
:101DB0001AF03CF903460020A36010BD5018002023
:101DC0009C4300204FF44010704700BF0246174B61
:101DD0001868824224D9121A013A811801E0531C72
:101DE00020D00B4693F800C0013ABCF10A0F01F174
:101DF000FF31F4D15A1C904212D2984214D21B1ACD
:101E0000013BC21801E0591C0DD0114691F800C0E9
:101E1000013BBCF10A0F02F1FF32F4D1481C7047BC
:101E200010467047704770471846704720230020BF
:101E300070B51D4E03463568A8420DD9431B013BC2
:101E4000EA1801E0581C2DD010460478013B0A2CFA
:101E500002F1FF32F6D1431C356D0022746805F1A2
:101E6000FF3E0AE0BCF11F0F18D9BCF17F0F15D05F
:101E70000132914211DB844212D9184613F801CB8A
:101E8000BCF10A0F09D0BCF1090FEBD192FBF5F2BE
:101E900005FB02E201329142EDDA70BD0132E7E763
:101EA000184670BD2B46D7E72023002030B40B4CDA
:101EB0000B4DA3681A78A95C08070DD56068013836
:101EC00008E0984203F1010306D9A3601A78A95CDF
:101ED000090701D50A2AF4D130BC7047202300201D
:101EE000ED4902102DE9F84F404E00244FF07E08D6
:101EF0004FF05E0B0546D6F834A0376D06F2663912
:101F000016E0B8F11F0F3FD9B8F17F0F05D10134AA
:101F100009F803B04FF03F08234609F80380376DF6
:101F20000134574501DCA74215DD7368AB421FD968
:101F3000B26A2346B918A1421BD97168A942ECD9EB
:101F400015F8018BB8F10A0F13D018F0800FD8D014
:101F50004FF02E08E1E72246484609EB07011BF047
:101F6000BFF97368AAEB070AAB42A4EB0704DFD8FA
:101F7000B26AA2455346A8BF2346E41A9442994444
:101F80000ED34846BDE8F88FB8F1090F11D00134DF
:101F900008F1400809F803B05FFA88F82346BCE767
:101FA0002021121B09EB04001BF01AFA4846BDE879
:101FB000F88F94FBF7F207FB1242791E8A4212D087
:101FC000202704F26531314401F8017F326D01347C
:101FD00094FBF2F302FB1343501E8342F4D12346D9
:101FE0004FF0200899E74FF0200896E720230020C3
:101FF000F8B50D1E38DD1E4F06467A683868FB6856
:102000005419C1188C427C600CD200243146921BBA
:1020100070191BF065F92A46202130461BF0E0F9C3
:102020002046F8BD611A01F520511944F9600CF001
:1020300001F9D7E901323C68796C041B2244214440
:10204000BA601A1907F58A7C07F5C27E79647A604E
:1020500026445CF8043F13B12344CCF80030E64535
:10206000F7D13860521BD1E700242046F8BD00BFED
:10207000202300200FB410B5104C114AA44682B0A2
:1020800092F804E0106804AB53F8042B20600CF8BD
:1020900004EFBF21604601930DF0E8FB20461CF0E1
:1020A00081F8082201460748A4F5CF730068605004
:1020B0009A6302B0BDE8104004B07047BE2400200F
:1020C000943502109C3502100FB410B582B004ABE9
:1020D000084C53F8042BC821204601930DF0C6FB91
:1020E0000123A4F5CF74A36302B0BDE8104004B08F
:1020F000704700BFBE240020074B10B55A68541E1D
:10210000844207D9121A0A21013A1AF0F7FF00286F
:1021100008BF204610BD00BF202300200FB430B5FB
:102120000D4D83B007AB2A4601210DF10300019349
:102130000DF09CFB441C20460CF040F82146044660
:1021400007AB2A4601930DF091FB204603B0BDE892
:10215000304004B0704700BFA03502100A4B10B5E4
:102160005A68541EA0420AD2121A0A21013A1AF0E1
:10217000C5FF38B1844202D903780A2B00D010BDC4
:10218000013010BD204610BD2023002081422DE9E2
:10219000F04104460E4601D20C4606461C4BD3F8CD
:1021A000048008F1FF35B5420CD9A8EB0602304691
:1021B0000A21013A1AF0A2FF002814BF06462E4653
:1021C000B44222D8002706E0013403780A2B08BF66
:1021D0000137A64213D3A54211D3A8EB0402A542AE
:1021E000204602F1FF32EFD90A211AF087FF48B1E9
:1021F0000378441C0A2B08BF0137A642EBD23846AD
:10220000BDE8F08144462846DFE70027F7E700BF36
:10221000202300202DE9F0411746044608460D46CC
:102220001BF0C0FF002F064607F001032FDDDFF88B
:10223000D080D8F80420571E1BB3A74223D9B8F882
:1022400010301A0715D42046324629461CF006F8ED
:1022500048B10134BC4216D02046324629461BF014
:10226000FDFF0028F5D12046BDE8F0810134A742EA
:1022700009D02046324629461BF0C2FF0028F5D17E
:10228000F1E7BC422BD300242046BDE8F0810BB31C
:102290001B4B1F68A41BA742F5D8194B1B8A1B07B1
:1022A00010D402E0013CA742EDD820463246294630
:1022B0001BF0D4FF0028F5D12046BDE8F081013C99
:1022C000A742E0D82046324629461BF099FF002855
:1022D000F5D1C8E72046FFF779FD0746DAE7121B7C
:1022E0000A212046013A1AF009FF0028A7D08742A8
:1022F00002D903780A2B01D007469EE7471C9CE7CA
:10230000202300202DE9F04FA14F05463E6883B001
:10231000864280F0BA80831B013BF21801E0591C11
:1023200007D011460878013B0A2802F1FF32F6D1A6
:102330004E1C7C6CB44200F2AD807B6A022B009391
:10234000A3F1020B00F01E8120464FF00009D7F8E0
:1023500004A00AF1FF38AAEB0002804502F1FF3227
:102360000BD90A211AF0CAFE002800F0E780804548
:1023700003D902780A2A00D1013009F10109CB45BD
:10238000E9D1404508D2AAEB00020A21013A1AF02D
:10239000B5FE002808BF4046864200F29980009BA7
:1023A00003F1FF39009B012B00F0D480A64200F01E
:1023B000D180D7F804B04FF000080BF1FF3A0BE0E2
:1023C000824503D903780A2B00D1013408F10108B2
:1023D000C84513D2A64211D0ABEB0402A24502F1CC
:1023E000FF32F3D920460A211AF088FE044600285D
:1023F000E6D108F10108C8455446EBD3386DB7F96A
:10240000143000F1FF3C013C002B00F084800023DD
:10241000691E0EE01F2A40F28F807F2A00F08C8018
:102420001A468C4202F1010311D0A54240F282808B
:1024300093B114F8012F0A2A0ED0092AEAD193FB8E
:10244000F0F200FB02C28C4202F10103EDD195F8DB
:1024500000E0BEF1090FE8D11A46796BBC6A9942D7
:10246000D4BF084610462044C4BF19467B6390423F
:1024700003D8C4F10104A1187963B54260D05B1A96
:10248000C7E90B8303B0BDE8F08F06467C6CB4420D
:102490007FF653AF21463046FFF778FE7B6A009304
:1024A00003F1FF39B0EB590F34467E644FEA590807
:1024B00050D9B8F1000FA1D04FF0000A2046FFF725
:1024C00085FC0AF1010AC24504467864F6D169E741
:1024D0003146FFF75BFE009B03F1FF39B0EB590F6C
:1024E000E0D8421E012893467FF75CAF0023AAEB99
:1024F00004024445019302F1FF322ED37C6451E77C
:102500001F2902D97F2900D01A46A54202F10103F2
:1025100010D9002BA0D014F8011F5A1C0A299BD0F7
:102520000929EDD193FBF0F200FB02C2A54202F1B2
:102530000103EED8134690E75A1C72E740461CE7A9
:102540002A78092A9BD10022C7E90B837A6303B05A
:10255000BDE8F08F4FF0000850E720460A211AF03E
:10256000CDFD019B044658B1404503D202780A2AAA
:1025700000D1013401335B457C643FF413AFB6E70F
:102580004446F7E7D7F804A020460AF1FF38F8E6FA
:10259000202300202DE9F04F774E8DB0B068FFF773
:1025A000B1FE716AD6F844A0012900F0DD804FF039
:1025B000000903ABDFF8C8B100935046FFF792FC67
:1025C0007468804654450AD90A215046A4EB0A0291
:1025D0001AF094FD002800F0BB8000F1010AB16AF6
:1025E000B76C4D1E09FB017700F19980002408F1BA
:1025F000FF327B1E03E00134A542C0F2878012F84F
:1026000001CF13F8010F8445F5D0A542B8BF0121D1
:102610007DDB2B4608EB01007A1802E0013BA34268
:1026200005DB10F801CD12F8011D8C45F6D0716B59
:10263000D6F88020184691427FD09D4276D223461C
:102640002744A0442D1B013541462A4638460193B4
:102650001AF0D0FD726AB16A4A4588BF4A46019BAA
:1026600098BF02F1FF32994298BF01F1FF34009800
:102670004249631C01320DF0CDF89DF80C0030B1D9
:10268000009C0DF013FB14F8010F0028F9D1DBF8C2
:10269000003001229B68294638461AF09DF9DBF884
:1026A0000030986819F034FE716A09F10109481E7A
:1026B000484582D8F26A336B22EAE2728A4228BF26
:1026C0000246B16A23EAE373994298BF01F1FF33EE
:1026D00000982A49013301320DF09CF89DF80C0056
:1026E00038B1DDF800A00DF0E1FA1AF8010F00286A
:1026F000F9D1B6F98C316BBBD6E90C231A44C6F874
:102700008821C6F880300DB0BDE8F08F0021726BD3
:10271000D6F880309A422BD00024234693E7D6F88F
:102720008020736B9A421BD02B460024A342F3DB1C
:102730001D1B27442346A04485E70121854238BF5D
:102740002B46A342BCBF2B4600240029ACD0EFE7A8
:10275000A24644E7736BC6F880300DB0BDE8F08F39
:1027600000242B462146ECE703AB00200093A1E7B1
:1027700028462B46E2E700BF20230020A8350210A0
:10278000601900202DE9F04F052A154607460C4632
:1027900083B04BD0402A32D0042A3AD022F0220310
:1027A000012B22F0200B4ED1664ED6E900A20AEB97
:1027B00001039A4208BF01F1FF3404F10D00012129
:1027C0000BF018FD8046224639460D301AF012FDF6
:1027D000AB06C8F8084044D5DFF87091D9F8AC339F
:1027E000A3EB0A03C8F80430B369D9F8A82301336E
:1027F000C9F8A883C8F8002088F80CB0B36103B00A
:10280000BDE8F08F06F58059D9F8B013002900F320
:102810008780002CF3D04B4E96F85B30012BF1D023
:10282000402B60D013B34FF0040B0CE00129E6D12C
:10283000444E96F85B30012B38D0402B33D0002B20
:1028400059D04FF0050B012110200BF0D3FC80462E
:10285000002875D03B4EAB06D6F800A0C8F808405B
:10286000BAD4DFF8E890A7EB0A03BBE706F5805976
:10287000D9F8B01301E0013CC1D001312029C9F8D9
:10288000B013F8D196F85B202F4842F02002FFF7F2
:1028900079FF4023013C86F85B304ED00123194676
:1028A000C9F8B033E7E7012386F85B3041F2B43270
:1028B000264CD4F8B013C4F8AC730131C4F8B0138B
:1028C0003878C1F1200333442029985497D121222C
:1028D00004F56D70FFF756FF4022002386F85B2059
:1028E000C4F8B0338BE7002306F58059C9F8AC7300
:1028F00086F85B30BCE7DFF854900193D9F8B01349
:10290000002996DDA9EB0100202200F57570FFF784
:1029100039FF019BC9F8B033402386F85B3088E764
:1029200009F575702122401AFFF72CFF402386F825
:102930005B300023C9F8B0336BE7C9F8B0435EE7FA
:102940008060FFDE20230020D436002020330020CA
:102950002DE9F0418142204D33BF0F464E1C074602
:10296000461C091A022AD5F8048001F101042DD071
:10297000032A26D0012A25D0AA692B68511EB3420A
:10298000A9611BD86968B14218D3BB4216D8B942B5
:1029900014D9B142AA6107D03146A8EB06023846E5
:1029A0001AF09EFCD5E90036361BBE4298BF06F1F0
:1029B000FF379E4296BF1F466E606B603846BDE88B
:1029C000F08105222146FFF7DDFED5E703222146EF
:1029D000FFF7D8FED0E700BF202300202DE9F04309
:1029E000D9B0002869D03C4B0646D3E900780C46A4
:1029F0001546014616AA394819F022F800285BDB73
:102A00009DF85890B9F1010F0FD031463448FFF7C7
:102A100031FB4FF0FF350DF1040841462F4819F006
:102A200031F8284659B0BDE8F083BC4238BF3C4677
:102A30006FF00047179B444528BF44469F4228BF7C
:102A40001F4620463946FFF7D3FA0DF104084B46DE
:102A5000324641460444214819F00AF800282BDB8D
:102A60003B46224641461D4819F076F8051E12DB0A
:102A7000AF420ADD791E214400226019FFF768FF8A
:102A800031461848FFF7F6FAC7E7002239462046D4
:102A9000FFF778FEC1E719F037FB00681BF06EFB0B
:102AA000314602461048FFF7E5FA791E002220461B
:102AB0002144FFF74DFFB0E715B14FF0FF35B0E708
:102AC00019F022FB00681BF059FB3146024606480C
:102AD000FFF7D0FAF1E700BF202300209C4300203D
:102AE000BC350210D8350210B435021038B50D4C83
:102AF00004F58055D5F8B01300290EDD94F85B205D
:102B000005F5757042F02002401AFFF73BFE4022A7
:102B1000002384F85B20C5F8B033A068FFF756F9AE
:102B2000A06038BD2023002038B5164C04F5805530
:102B3000D5F8B01300290EDD94F85B2005F575700B
:102B400042F02002401AFFF71DFE4022002384F8C5
:102B50005B20C5F8B033A3682568AB420DD95B1B79
:102B6000013BEA1801E0591C09D011460878013BE5
:102B70000A2802F1FF32F6D14B1CA36038BD2B4668
:102B8000A36038BD202300202DE9F843514F0446AF
:102B900007F58055D5F8B0330E46002B0FDD97F8BA
:102BA0005B2005F57570194642F02002C01AFFF748
:102BB000E9FD4023002287F85B30C5F8B023002CE4
:102BC000D7F8048040F381800136786C08F1FF3536
:102BD0004AD0A8EB0002A84202F1FF324FD378643A
:102BE000BC687B6A84423CBF0446B860022BA3F1F8
:102BF000020914D00026A8EB0002854202F1FF3240
:102C00000AD90A211AF07AFA002846D0854203D957
:102C100003780A2B00D1013001364E45EBD18542B5
:102C200008D9A8EB00020A21013A1AF067FA002835
:102C300008BF2846844204D93C6884422FD3044606
:102C4000B86023782449CA5C100709D40AE0A54279
:102C500004F1010406D9BC602378CA5C120701D5CF
:102C60000A2BF4D1BDE8F883FFF7B0F8013C786493
:102C7000B6D0FFF7ABF8013C7864F5D1B0E70A2194
:102C80001AF03CFAD0B1854203D903780A2B00D15F
:102C90000130013C78649CD1A2E72846BCE7001BC8
:102CA0000138231801E0461C0DD01A46117801386E
:102CB0000A2903F1FF33F6D1501CC0E72846013C36
:102CC000786486D18CE72046B9E7786C08F1FF3547
:102CD00086E700BF20230020ED4902102DE9F047D0
:102CE000254C04F58055D5F8B073002F01DCBDE804
:102CF000F08794F85B3003F0DF0903F0DD03012B6C
:102D00002DD1D4E9008208EB07039A4214BFBA46DA
:102D100007F1FF3A01210AF10D000BF06BFA0646AC
:102D200016495246C91B0D301AF064FAC6F808A0BD
:102D3000D5F8A83340223360A36986F80C9001339C
:102D4000A3610023C5F8B033D5F8AC3384F85B2019
:102D5000A3EB0803C5F8A8637360BDE8F087012101
:102D600010200BF047FA064618B1D4F800808760AF
:102D7000DEE78060FFDE00BF20230020F436002065
:102D80002DE9F0472A4C04F58055D5F8B073002F93
:102D90000CDCD4F80080A368434505D913F8012C56
:102DA0000A2A01D0013BA360BDE8F08794F85B30AC
:102DB00003F0DF0903F0DD03012B2CD1D4E90082FD
:102DC00008EB07039A4214BFBA4607F1FF3A012104
:102DD0000AF10D000BF00EFA064616495246C91BC1
:102DE0000D301AF007FAC6F808A0D5F8A83340222B
:102DF0003360A36986F80C900133A3610023C5F802
:102E0000B033D5F8AC33C5F8A863A3EB080384F856
:102E10005B207360BFE7012110200BF0EBF9064641
:102E200018B1D4F800808760DFE78060FFDE00BF64
:102E300020230020F43600202DE9F84F2A4C04F519
:102E40008056D6F8B083B8F1000F0BDC6568A26835
:102E50006B1E9A4204D213780A2B01D00132A26071
:102E6000BDE8F88F94F85B3003F0DF0A03F0DD0370
:102E7000012B2DD1D4E9009509EB08039D4214BF25
:102E8000C34608F1FF3B01210BF10D000BF0B2F935
:102E9000164907465A46A1EB08010D301AF0AAF967
:102EA000402384F85B300023C6F8B033A369C7F829
:102EB00008B00133A361D6F8AC3387F80CA0A3EBBC
:102EC00009037B60D6F8A833C6F8A8733B60BEE759
:102ED000012110200BF08EF9074618B1D4E90095B6
:102EE000C346DDE78060FFDE20230020F4360020AB
:102EF0002DE9F04F0026054683B00191471C19F0DB
:102F000003F9066095F800A0BAF1000F38D0BAF1C5
:102F1000010A6C7804D052463846A91C1AF0E0F930
:102F20001B2C5ED1DFF8CC80A946C34600240EE0FE
:102F30009BF800C019F8010F0CF07F0188425B4636
:102F40000BF1010B2AD11CF0800F38D10134A245BE
:102F5000EEDC19F0D9F803464FF4FA601E600CF06D
:102F600003FF831C04D007F80A000AF1010ADFE717
:102F7000BAF1000F2CD11B20002103B0BDE8F08F67
:102F8000019B002B28DB4FF47A7003FB00F00CF060
:102F9000EBFE821C1CD0C4B26C70C1E71CF0800F29
:102FA00003D113F9012F002AFBDA9A7803F1020802
:102FB000002AB9D1BAF1010F18D02A709FE7002377
:102FC000A0442B7098F90100C11703B0BDE8F08F41
:102FD0004FF0FF300146D0E70CF012FFC4B26C7026
:102FE0009EE72046002185F800A0C6E785F800A0EE
:102FF000C1E700BF6C3A021038B51C4CB4F95C3024
:1030000043B9A06EF0B1636E5A1C62661D78B5B10B
:10301000284638BD164B1B68986819F079F94FF0AF
:10302000FF3104F5C770FFF763FF236E7D2B16D9C0
:1030300000230546A4F85C302366284638BD0BF013
:1030400017F9A5660A4B1B68986819F061F94FF0EB
:10305000FF310848FFF74CFF0546284638BD5A1C8B
:1030600023440546226683F86602E6E72023002013
:1030700060190020AE2400202DE9F041774C90B07B
:10308000A56B002D64D00025616A07A84A1E22EABC
:10309000E273994288BF1A46A36A7149003B18BF80
:1030A00001230132E5630CF0B5FB9DF81C0007AD70
:1030B00028B10CF0FBFD15F8010F0028F9D11B20F9
:1030C000684D0CF0F3FD15F8010F0028F9D194F8C4
:1030D0009E0130B1644D0CF0E9FD15F8010F002898
:1030E000F9D1A56B3DBBA16AE26A606A236B22EA53
:1030F000E272904223EAE37398BF00F1FF328B4201
:1031000028BF01F1FF3307A85549013301320CF004
:1031100081FB9DF81C0030B107AC0CF0C7FD14F822
:10312000010F0028F9D1514B1B68986810B0BDE819
:10313000F04119F0EDB84C481BF034F8A16AC5F124
:1031400001054B1E05449D4262D80023A363CBE7D3
:10315000D4F8088020684146FFF718F8D4E90673D0
:103160009F42064641D1D4F88430002B49DD6422C9
:1031700006FB02F292FBF3F2CDE903320296A16A5A
:10318000236CC72928BFC7210E463949394A002B6D
:1031900008BF0B4638490093384B3348002F18BFFF
:1031A0001946A38A0191364903F00303CB5C711CD5
:1031B0000CF046FB0028374603DB8642A8BF0646D4
:1031C0003746294B9919994204D913F8012B994292
:1031D0001544FAD1A36B002B7FF456AF002FA2D079
:1031E000E36BAB427FF450AF9DE761684046013925
:1031F000FEF7CCFF3318013B002BE761C4F88430A5
:10320000B5DC002164220B460E46C4F88410B3E7F7
:1032100000231B201B4DA3630CF048FD15F8010F84
:103220000028F9D15B20184D0CF040FD15F8010F76
:103230000028F9D11B20154D0CF038FD15F8010FB1
:103240000028F9D1FFF7D8FE0A2801D00D28F9D1BE
:10325000012000F01DF8A16A77E700BF20230020BD
:10326000A8350210FC350210BE2400206019002091
:10327000E83502101C360210A4320210F03502109C
:10328000643A021094350210003602109C35021088
:103290002DE9F04F1B2506462846754C8DB00CF0E5
:1032A00005FD14F8010F0028F9D10546714F2021C2
:1032B000D7E912021AF094F8B868FD63FFF722F814
:1032C000786AD7F84490012800F0CA80B34603AB6F
:1032D000DFF8A8A101934846FEF704FE7C68034688
:1032E0004C450CD900900A214846A4EB090219F07C
:1032F00005FF009B002800F0A78000F10109B86AD3
:10330000BA6C461E05FB0028BBF1000F63D00024F9
:10331000361BA044013619193246404619F06AFF9F
:103320007A6ABB6AAA428CBF2A4602F1FF329C42EB
:1033300028BF03F1FF3450490198631C01320CF09F
:1033400069FA9DF80C0030B1019C0CF0AFFC14F848
:10335000010F0028F9D1DAF8003001229B683146CC
:10336000404619F039FBDAF80030986818F0D0FFC1
:10337000786A0135411EA942ADD8FA6A3B6B22EA50
:10338000E272824228BF0A46B96A23EAE37399428D
:1033900098BF01F1FF3301983749013301320CF036
:1033A00039FA9DF80C0030B1019C0CF07FFC14F848
:1033B000010F0028F9D1B7F98C31002B46D1D7E99C
:1033C0000C231A44C7F88821C7F880300DB0BDE837
:1033D000F04FFFF751BE002E5C463FDB591E08F14F
:1033E000FF3202E00134A64225DB11F801EF12F8AA
:1033F00001CFE645F6D0A642B8BF01201CDB32461D
:1034000003EB000C08EB000102E0013AA24205DBED
:103410001CF801ED11F8010D8645F6D0114601208A
:103420008E4238BF32469442C4BF3246002416460C
:1034300000289DD06CE70020796BD7F8802091425E
:1034400012D131463246EBE7A14658E77B6BC7F80D
:1034500080300DB0BDE8F04FFFF70EBE5846EBE7E9
:1034600003AB2946019388E7A642B8BF00244FE783
:103470003036021020230020A835021060190020E9
:103480000121134B1A8AA3F87810530702D407209E
:103490000CF00CBC1B2010B50E4C0CF007FC14F803
:1034A000010F0028F9D10120FFF7F2FE0A4809F0C8
:1034B000BFFE1B20094B0A4C9B690CF0F7FB14F86C
:1034C000010F0028F9D1BDE810400120FFF7E0BE50
:1034D0002023002094350210A08601000000074040
:1034E0009C3502102DE9F84FDFF8B4830646D8F872
:1034F000003089469842174631D9C01A01381C1845
:1035000002E0411C00F0428125462A7801380A2A4F
:1035100004F1FF34F5D1B9F1160F05F1010522D1FF
:1035200001213046FEF764FD5E2333540446FFF765
:1035300031F8FFF761FD022F06EB040A305500F069
:103540003881032F00F02F81012F00F026810AF12E
:10355000010A0023C8F874305046BDE8F88F0546CC
:10356000B9F1160FDCD0B9F11B0F00F02C81B9F1C5
:10357000040F29D0B9F1090F00F0AA81B9F1080FA1
:1035800000F00681B9F17F0F00F00281B9F10D0F53
:1035900003D0B9F10A0F40F08282C04CD4F8B013C6
:1035A000002900F3628201213046FEF721FD0A2343
:1035B0003354B8F9105000F1010AEB0706EB000490
:1035C000B24400F1C581C4E7D8F80470013FBD42A0
:1035D00080F022832A46DFF8CCC2144612F8011B81
:1035E0001CF90100002801DB092902D19742F4D11E
:1035F0003C46A34280F00B82E11A0139581802E0E0
:103600004F1C00F0B9820246177801390A2F00F1E9
:10361000FF30F5D10132A24280F0F981D8F8500094
:103620000027013A04F1FF3C00F1FF3E09E01F29A9
:1036300040F2C5807F2900F0C280624507F1010792
:103640000BD012F8011F0929F1D197FBF0F700FB0D
:1036500007E7624507F10107F3D197FBF0F200FBA2
:103660001272002A08BF0246A542A7EB020747D202
:103670009C4242D9E21A013A991801E0501C0BD041
:10368000084690F800C0013ABCF10A0F01F1FF3181
:10369000F4D1431C9C4230D9D8F850C05A1E0CF1CA
:1036A000FF3E0023601E09E01F2940F28A807F2927
:1036B00000F08780824203F101030BD012F8011F52
:1036C0000929F1D193FBFCF30CFB03E3824203F1E4
:1036D0000103F3D19F4213DA611EB5424FF003029A
:1036E000084638BF06F1FF36FFF732F9A842044614
:1036F00006D9D8F800309C42BCD800239F42EBDBAF
:10370000B8F81030B246DF077FF523AFD8F8743031
:10371000002B3FF41EAFD8F804305D1EB54200F216
:10372000B4813546A5427FF414AFD8F80020B242E8
:10373000BFF40FAFB31A013BD11801E05D1C0AD0F2
:1037400008460478013B0A2C01F1FF31F6D1421CF6
:10375000B242BFF4FEAED8F850000023013A013E59
:10376000441E0AE01F2940F21B827F2900F01882C4
:10377000B24203F101033FF4EDAE12F8011F092933
:10378000F0D193FBF0F300FB0343F1E71D46E7E6BE
:103790009E4200F23581B246DBE6002239465046B1
:1037A000FEF7F0FFD3E6042201215046FEF7EAFFC0
:1037B000CDE63A4601215046FEF7E4FFC7E6013761
:1037C0003BE7013376E74FF00009344CA8F814903A
:1037D000D4F8B01349450FDD98F85B20601A42F029
:1037E000200200F57570FEF7CDFF4022D8F80030BA
:1037F000C4F8B09388F85B2000221A21C8F8202072
:10380000A8F85C20C8F83C20D8F80820A8F8881050
:103810009A4240F2888016F8012C0A2A00F0838030
:1038200006F1FF3AB8F81020D2077FF592AED8F82B
:103830000460013EB542BFF48CAE2A46DFF864C096
:10384000144612F8011B1CF90100002801DB0929AC
:1038500002D1B242F4D11446601B3FF47AAE9C42CE
:1038600040F28C81E21A013A991801E0561C0CD002
:103870000E4696F800C0013ABCF10A0F01F1FF3183
:10388000F4D1731CA34280F07981D8F850C0002194
:10389000013B661E0CF1FF3E11E000BF203300200B
:1038A00020230020ED4902101F2A40F241817F2A87
:1038B00000F03E81B34201F1010100F0608113F894
:1038C000012F092AF0D191FBFCF10CFB01E1F1E79A
:1038D000B8F81020940728D59E4200F29C80002161
:1038E000D8F85000441E641A651CB24610D130E668
:1038F000012F00F01F8150460121FEF779FB2022A5
:10390000013C431C0AF80020601C9A443FF421AE9D
:10391000022F00F00781032FEAD150460422012133
:10392000FEF730FFE7E7B2467CE701213046FEF7BD
:103930005FFB06F8009000F1010AB8F91050341846
:10394000B244EB077FF505AEB9F10A0F7FF401AE83
:10395000D8F874B0BBF1000FC0F265815046FEF795
:1039600035FA8146D8F80460013EB14580F0818186
:103970004A46DFF85CC3117813461CF90100013296
:10398000002802DB092940F050819642F3D13346EA
:10399000A6EB0902D8F80010994280F00381581A6A
:1039A00001380E1802E0B0F1FF3F0AD0B4469CF88F
:1039B00000E00138BEF10A0F06F1FF36F3D10CF139
:1039C0000101994280F0EE80D8F850C000260139FC
:1039D000013B0CF1FF3E0AE01F2840F2C6807F2821
:1039E00000F0C3808B4206F1010600F0DC8011F884
:1039F000010F0928F0D196FBFCF60CFB06E6F1E777
:103A0000711E03220846FEF7A3FF8246A1E50027A8
:103A1000D8F8502028E6F21A013A991801E0501C13
:103A20000AD008460478013A0A2C01F1FF31F6D198
:103A3000431C9E427FF653AFD8F850000021013B53
:103A4000441E751E08E01F2A6AD97F2A68D09D424D
:103A500001F1010100F08B8013F8012F092AF2D146
:103A600091FBF0F100FB0141F1E798F85B20601A4F
:103A700042F0200200F57570FEF784FE402300221C
:103A800088F85B30C4F8B0238DE59B1B0A213046D3
:103A90005A1E19F033FB002818BF054642E60121E3
:103AA0003046FEF7A5FA044606F80090B8F9105023
:103AB00000F1010AE9063444B2447FF542AF4946B9
:103AC0007D4819F08FFF00283FF43BAFDFF804B2C8
:103AD0004946584619F086FFA0EB0B0383F001031B
:103AE000590001F00201D8F8006001391BF8030009
:103AF0006318B342C0F085804FF0010ED8F804C0BF
:103B000004E090421CD00B44B3427AD39C4578D950
:103B10001A789145F5D14845F5D00EF1010EF2E73E
:103B2000013194E73A4601215046FEF72BFEE2E6CA
:103B30000131BFE6002239465046FEF723FEDAE6A1
:103B4000BEF1010EDFD1D8F80850C8F80830FEF7F2
:103B500021FD5A4809F06CFB594BC8F808509B6985
:103B6000FEF718FDB8F91050EBE601363AE791FB85
:103B7000F0F300FB1311B6E61A464FE50021D8F822
:103B800074308B427FF4E5AC23780A2B7FF4E1ACF0
:103B9000411E3A4628462944FEF7DAFEAA46D8E4F2
:103BA0000133E5E50026CAB3B34569D03AEA2B0AEA
:103BB00028BFA246AA07C8F8746039D4D8F85020A4
:103BC00096FBF2F31D4602FB136603EB0608414623
:103BD0005046FEF70DFA022F0AEB000459D0032FCE
:103BE00063D0012F5BD02A46092104EB050A204649
:103BF00019F0F6FB50463246202119F0F1FBB24491
:103C0000AAE401236A07A8F8783014D407200CF03E
:103C10004DF8B8F9105094E62C46EAE43AEA2B0A3B
:103C200028BFA24695E4D1469CE6A3EB0902B1E683
:103C3000B0460025CBE71B20224D0CF037F815F8D5
:103C4000010F0028F9D10120FFF722FB1E4809F0DF
:103C5000EFFA1B201A4B1D4D9B690CF027F815F845
:103C6000010F0028F9D10120FFF712FBB8F910501D
:103C700067E6D8F800108945D0D94B4600228EE679
:103C8000494609F1010019F02BFB0A2389F800309D
:103C900062E43A4641462046FEF774FDA3E700225F
:103CA00041462046FEF76EFD9DE704224146204630
:103CB000FEF768FD97E700BF3836021040420F005C
:103CC0000000074094350210A08601009C350210C8
:103CD000ED4902103C36021070B5234D06462B68A4
:103CE00013B118460AF0C4FA4FF420500121E860DD
:103CF0000AF080FA2B6C04469E42C5E90000A860D9
:103D0000686408D01BB118460AF0B2FA2C68304635
:103D10001AF032F82864304601222146FEF75EFE92
:103D2000061E17DB114CD4F8A80340B10368C4F891
:103D3000A8330AF09DFAD4F8A8030028F6D19FED25
:103D4000087B702200210A4885ED067B19F048FBAC
:103D5000304670BD00220A212868FFF7C3FBE1E767
:103D600000000000FFFFFFFF202300202033002081
:103D7000382400202DE9F04F90F800900446B9F166
:103D80003A0FF3B004D114F8019FB9F13A0FFAD009
:103D9000B24F01E014F8019F17F909B017F809A014
:103DA000BBF1000FF6DBB9F1090FF3D0B9F1000F49
:103DB00057D0B9F1220F54D00026A94D0996696851
:103DC000286801390595FEF7E1F94FF0FF332A6CB9
:103DD000AD680893CDE90B350A920F90BBF1000F47
:103DE000C0F2D281B9F1090F00F0CE81002E40F06F
:103DF000F981B9F1250F059B00F05A82996818687E
:103E0000FEF7C4F95B46002B0546B046DDF814B05A
:103E100051DBB9F1090F4ED0002E40F08B81A9F192
:103E200024021B2A30D8DFE812F042012F002F00B5
:103E3000DF002F002F002F002F002F002F00D800B1
:103E400050002F002F002F002F002F002F002F00D9
:103E50002F002F002F002F002F002F002F002F00EA
:103E600050007F4BD3F800800593D3E901B55D4541
:103E700002D3C34500F24E824545C0F04E81059BFA
:103E80009D6073B0BDE8F08F1AF0040F40F06481BC
:103E9000B9F12D0F00F09081B9F12B0F40F078822D
:103EA0000126B04694F80190013417F809A04FFAA2
:103EB0008AF3002BADDA16B145444FF0000894F8B0
:103EC0000190013417F809A0F1E76378621C92466B
:103ED0001BB94DE21AF8013F0BB19945FAD1524591
:103EE00000F07B81DBF870000AF0C2F92046AAEBF3
:103EF00004011AF0F5F90346CBF870009AF8002097
:103F0000914508BF0AF1010AB9F12F0F00F09B811A
:103F1000DBF80800DBF80040A0420ED9021B013A92
:103F2000A01802E0551C00F0C18101460D78013A4D
:103F30000A2D00F1FF30F5D1481C591C4FF0FF321B
:103F40000691FEF767F906990346DBF8049000280E
:103F500000F0A68109F1FF35A34202D222461C4699
:103F60001346AB420DD2A9EB030218460A21013ACF
:103F700019F0C4F8002814BF03462B46A342C0F032
:103F8000AA81AC4200F2A78120461C4609E0034604
:103F900001301B780A2B08BF0136844215D38542B5
:103FA00013D3A9EB0002A84202F1FF32EFD20A219B
:103FB00019F0A4F80346002800F007811B780130AF
:103FC0000A2B08BF01368442E9D29AF800903546A0
:103FD0005446012617F809A069E794F801900126D4
:103FE00017F809A0013462E76378FA5C02F0030273
:103FF000012A04BF2033DBB2613BDBB2A21C192BC8
:10400000069200F2B88146335BF823A0BAF1000FA4
:1040100000F0B181DBF80050AA4502D22B4655468C
:104020009A46DBF8043003F1FF39CA450FD2A3EBFF
:104030000A0250460A21013A079319F05FF8002856
:1040400014BF8246CA465545079B00F24C814D4538
:1040500000F2498128461D460EE000BFED490210DE
:1040600020230020034601301B780A2B08BF0136AD
:10407000824514D3814512D32A1A484502F1FF32F2
:10408000F0D20A2119F03AF80346002800F0A08087
:104090001B7801300A2B08BF01368245EAD294F81A
:1040A00002903546069C012617F809A0FFE6DBE9D9
:1040B000009A0AF1FF36B14504F1010100F28B804C
:1040C0004846B146069400254C46894609E002461A
:1040D000013012780A2A08BF0135844214D386427F
:1040E00012D3AAEB0002B04202F1FF32EFD20A2152
:1040F00019F004F80246002852D0127801300A2A3A
:1041000008BF01358442EAD24946069C012694F84C
:1041100001900C4617F809A0C9E6012205990B8AFF
:10412000A1F878205B0700F1068107200BF0BEFDA7
:104130004546A4E61AF0040F0ED1B9F12D0F32D086
:10414000B9F12B0F40F0D78094F80190454417F84F
:1041500009A0B0460134AAE6002303EB830309EB70
:10416000430214F8019FA2F1300317F809A01AF0D6
:10417000040FF2D186B1B8F1FF3F08BFC2F130039E
:104180004FF000081D4492E694F80190013417F8AE
:1041900009A017F909B021E6B0461D46012686E6BA
:1041A0005046324695E794F80190454417F809A027
:1041B0004FF0FF3801347AE694F8019001264FF071
:1041C000FF3817F809A0013471E648462B46E0E6AF
:1041D00028464B4648E7304674E7DBF870309AF8DB
:1041E00000208DE6B9F12C0F24D0B9F13B0F40F03F
:1041F0005F81089A059B012A186819DD1646D3F8D5
:10420000049009F1FF38A9EB0002804502F1FF326A
:104210000BD90A2118F072FF002800F0B580804504
:1042200003D903780A2B00D10130013E012EEAD1D7
:10423000059B986094F80190002617F809A017F9DB
:1042400009B00134CAE5DBE9019009F1FF35A84264
:1042500010D2A9EB00020A21013A069318F04EFF92
:10426000069B002800F09280854203D902780A2A32
:1042700000D10130591C03220691FDF7CBFF0699AE
:104280000346002843D1DBF8000003220446FDF773
:10429000C1FF034600287FF45FAE0C9DAB486CE085
:1042A0004FF0FF3209EB02000546F0E7204644E6F6
:1042B0005968012618680139FDF768FF032394F84F
:1042C0000190A219144617F809A017F909B00B9626
:1042D0000993089082E59AF800905446002501263B
:1042E00017F809A0E3E594F8029000250126069C42
:1042F00017F809A0DBE59B46A844099B089A5B00D8
:1043000043F001030126CDE908830B9266E5DBF853
:10431000004021E6012205990BF1FF350B8AA1F837
:1043200078205A0700F1A58007200BF0BFFC059B01
:10433000D3F80080A0E51B20854C0BF0B7FC14F8E7
:10434000010F0028F9D10120FEF7A2FF814808F0F3
:104350006FFF1B20804B814C9B690BF0A7FC14F86E
:10436000010F0028F9D10120FEF792FF454686E5AE
:10437000DBF87030C8E50C9D7948FDF77BFE059BA6
:104380009D60D3E9008B72E540464EE7284671E711
:10439000B9F12C0F9B46A844AFD0B9F13B0FACD07C
:1043A000099B13F001030D93A7D10C9D059B0DF103
:1043B000400A214650469D6019F05AFC9AF80010B8
:1043C00052467B5C180705D421B112F8011F7B5CB3
:1043D0001E07F9D5114602E011F8013FFB5C1806F3
:1043E000FAD40B78092BF7D0002352450C911370A7
:1043F00004D912F8011C212900F047810E930D9B6E
:10440000002B5BD1504619F0CDFE059B0690D3E9F9
:10441000008B0BF1FF330793002800F0A78099462B
:1044200046469AF800303D2B0F9300F0D8814D4955
:104430005046069A19F012FF0146002840F0838189
:104440000D9B002B40F03781454540F22381A5EBC1
:104450000803013B08EB030202E05E1C00F09282BD
:1044600016463178013B0A2902F1FF32F5D10136B7
:1044700089E21B20364C0BF019FC14F8010F0028C0
:10448000F9D10120FEF704FF324808F0D1FE1B20CD
:10449000314B324C9B690BF009FC14F8010F0028DA
:1044A000F9D10120FEF7F4FE059BD3F80080E3E488
:1044B000099B0C9D03F001030D9377E7089B002BEC
:1044C0003ADB0F9A9A4237DB1E46059B012ED3F842
:1044D0000080C1461CDDD3F804B040460BF1FF3329
:1044E00099460693ABEB0002484502F1FF320ED22B
:1044F0000A2118F003FE002800F07E82814503D9CE
:1045000003780A2B00D10130013E012EEAD1814609
:10451000099B03F00303032B6FD0059BD3F804B072
:104520000BF1FF339945079352D3504619F03AFEE9
:104530000690F8B14E4674E70B48FDF79BFD059BCE
:10454000D3F80080D3E901B591E400BF70360210C2
:1045500094350210A0860100000007409C3502102F
:10456000603602109836021084360210089B002B29
:10457000FFF67DAC089B4546012B1FDD40461D46DE
:10458000079CABEB0002844202F1FF3209D90A21F9
:1045900018F0B4FDD0B1A04203D203780A2B00D1A9
:1045A0000130013D012DECD1054607E00A2B3FF417
:1045B0005EAC079BAB427FF65AAC0135059B9D6014
:1045C0002B78FA5C12077FF552ACEFE72046E8E75C
:1045D000ABEB09020A214846013A18F08FFD00288A
:1045E00000F00F820F90504619F0DCFD0690002875
:1045F000C0D00F9B4E46994613E70B9B002B9BDBCD
:104600000F9A9A4298DB089A934295DC012B464612
:1046100040F3EB810693059B2E46D3F804B0404649
:104620000BF1FF331D460793ABEB0002854202F10D
:10463000FF320BD90A2118F061FD002800F0D38168
:10464000854203D902780A2A00D10130069B013B3A
:10465000012B0693E8D135460646079B994580F025
:10466000BA81ABEB090248460A21013A18F046FD2F
:1046700081465046B9F1000F00F0A48119F092FD77
:10468000069000283FF476AFCBE602F8013C012308
:104690000E93B4E6079B9D4280F07D812E46ABEBE6
:1046A000050228460A21013A18F028FD079B002838
:1046B00018BF034699464E4502D933464E469946A1
:1046C000B9EB06014CBF4D463546059B48BFA6EBEE
:1046D0000901B3F8888008F1220403EB8403D3F8BE
:1046E00004A00131284619F0FBFD059B03EB84046F
:1046F000606001249844504688F8FC4009F0B8FDF9
:10470000224649463046FEF723F9059B0546986048
:104710000378FA5C140740F14A81059AD2F804B094
:104720000BF1FF3208E0AA4208D9059B01359D60D4
:104730002B78F95C080701D50A2BF4D1059BD3F837
:104740000080FFF794BB5046069AB64919F086FDE3
:10475000002858D1059B9B6913B10E9B002B63D099
:104760000C9B1B78002B40F0BA85059B1B6C002B23
:1047700000F00F81DDF8288000244046FFF7ACFAF6
:10478000059F0546D7F8F80009F072FDB7F88830A4
:10479000C7F8F84007EB8303D3F88C0009F068FDF5
:1047A000B7F88830223307EB83035C60D7E90064F5
:1047B000611E3046FDF7EAFCA41B00949A4A9B4C0C
:1047C0000346414612EA250238BF22469848FDF7C3
:1047D0007BFCD7E901B5D7F80080FFF748BB9AF812
:1047E0000130002B7FF423AE0D9B002B00F0E48002
:1047F00008999048FDF768FC059BD3F80080D3E941
:1048000001B5FFF734BB5046069A8B4919F026FDD7
:10481000002844D1089B002B3FDA0C9B1B7873B90E
:10482000059AD363FFF723BB51468448FDF722FC6A
:10483000059BD3F80080D3E901B5FFF718BB0C98AE
:10484000FCF706FB0446059B186C84421FD008B198
:1048500009F00EFD204619F08FFA059BD3F8008071
:104860001864D3E901B5FFF702BB17F00BF9002C70
:1048700080F2A383013409D117F046FC006819F0D7
:104880007DFC0A9902466E48FDF7F4FB059BD3F8C0
:104890000080D3E901B5FFF7EABA6A484DE6504611
:1048A000069A694919F0DAFC002840F0D7800D9B80
:1048B00013BB454540F2B380A5EB0803013B08EB71
:1048C000030202E0591C00F0108516463178013BC6
:1048D0000A2902F1FF32F5D10136079CA54280F08A
:1048E000FB84ABEB050228460A21013A18F006FCCE
:1048F000002818BF0446A146059830AC416A4A1EFC
:1049000022EAE273994288BF1A46836A4F49003B04
:1049100018BF012330A801320AF07CFF9DF8C000C7
:1049200028B10BF0C3F914F8010F0028F9D11B20AE
:10493000474C0BF0BBF914F8010F0028F9D145489A
:104940000BF0D8FA4E450AD900F01EBD7F2C00F0BE
:10495000CF8420460BF0AAF9B145C0F0158516F8B2
:10496000014B270600F1E3840A2C00F0D3841F2CAE
:10497000ECD85E200BF09AF904F14000C0B20BF0C5
:1049800095F9E9E74646079B9D42FFF488AEA946A4
:1049900091E63148D1E5059BA946B3F888802E46BB
:1049A00008F1220403EB8403D3F804A099E6059BE5
:1049B000D3E9008BFFF75BBA29464046FDF7E6FBDB
:1049C000089015E719F0EEFB069000283FF4D2ADF1
:1049D000DDF81C9025E5504619F0E4FB0690002810
:1049E0003FF4C8AD1DE5284630E6059BD3F804B07A
:1049F0000BF1FF33079330E6013E012E0CD0484601
:104A000070E5504619F0CEFB069000283FF4B2AD99
:104A10004E46DDF81C9004E5DDF8189078E52E464A
:104A20005BE700BFA036021044360210A432021029
:104A3000E836021094360210982E0210A8360210A2
:104A4000B4350210F83602101C370210A8350210D7
:104A5000FC35021024370210D4360210069F50464F
:104A60003A46AF4919F0FAFB002800F013843A46A1
:104A70005046AC4919F0F2FB002800F00B843A468E
:104A80005046A94919F0EAFB002800F0038450467B
:104A9000069AA64919F0E2FB002840F0D2800C9B50
:104AA0001B78002B40F0BB80059B1B6C002B3FF458
:104AB00070AF089B002B40F09B80059B1C68059DF8
:104AC00021462F683846FDF761FB06466B680022D9
:104AD000A34221460A9808BF0136FDF77FFF059BD8
:104AE000051ED3F800807FDBE01B4044691E0144B3
:104AF000FDF74CFB2B4602460A998D48FDF7E4FA78
:104B0000059BD3E9008B40460BF1FF340EE0A04239
:104B10000BD20A2118F0F2FA002800F0F183844247
:104B200003D903780A2B08BF0130013EABEB00022A
:104B3000012E02F1FF32EADC059B05469860FFF783
:104B400096B90C9B1B78002B40F00A82059B9C6950
:104B500024B99AF80030782B00F02F820A9BA9EB39
:104B600006040134002B3FF414AF0A9F4FF4817305
:104B70003A46704830A916F07BFF0028FFF67CAE5D
:104B80003246234630A96B4816F0E8FF054630A9A7
:104B90002A46684817F010F8A542664830A93FF445
:104BA00064AE16F06FFF711E3046FDF7EFFA39461E
:104BB000024600235E48FDF787FA002C7FF466AEBC
:104BC000059BD3F80080464500F015829AF8013025
:104BD0006E2B00F009829AF80020782A00F0F98103
:104BE000712B00F0F681059BD3E901B5FFF73FB9C2
:104BF0000D9B002B00F0D680059B089C186802E0F6
:104C0000FDF7ACFA013C012CFADCFDF7A7FA059B95
:104C10005B685A1E824214BF04461C464FE70C983C
:104C2000FCF716F90A9000283FF430AE059B1B6C88
:104C3000002B7FF43EAF0A9819F09EF8059B18648C
:104C400037E75046069A3C4919F008FB68B9059BBE
:104C50009B691BB10E9B002B3FF4E6AD0023374A46
:104C60001360059A5382FFF702B95046069A3449F9
:104C700019F0F4FA002840F098800C9A1378002B71
:104C800066D010462F49904618F014FF00285FD0D8
:104C900000274FF03D09DFF8B4B098F80030002B42
:104CA0003FF4F4AD6E2B32D00024434603E0202DB8
:104CB00009D0042A07D91D781E460693A5F10902DA
:104CC0000133002DF3D1069B3D2140461F7018F0A3
:104CD00089FE824600B1077000231B4A1178002923
:104CE00000F03282114608EB040003E0BCF1000F33
:104CF00000F0DF800A4610F801EB11F801CBF44513
:104D0000F4D012F8011B0029FBD10133E6E798F833
:104D10000140A4F16F056C426C416400C5E700BF1F
:104D2000D8330210283702103037021084370210AF
:104D30008C3702109C4300209C3702108C6A0020A4
:104D4000A4370210484B0210EC3A0210F037021060
:104D5000059FB148B7F91050B04C15F0010F14BFC2
:104D60002146014615F0020F14BF2246024615F0F7
:104D7000040F14BF2346034615F0080F14BF264640
:104D8000064615F0100F18BF2046CDE900603C6DB7
:104D9000A3480294FDF76EF9D7E901B5D7F8008072
:104DA000FFF765B8059B98682FE70F9B732B00F002
:104DB0008D815046069A9B4919F050FA002800F060
:104DC0007B815046069A984919F048FA00283FF42A
:104DD000B8AE5046954918F06DFE00283FF4B1AECC
:104DE0005046934918F066FE00283FF4AAAE0F9B88
:104DF000782B00F0A6805046069A8E4919F02EFABC
:104E0000002870D10D9BB3B9454540F25081A5EB08
:104E10000803013B01E0013B08D318F803200A2AEC
:104E2000F9D118EB030301D003F101082846FDF77F
:104E300063F946468146059BB9EB0601B3F88870D5
:104E400048BFA6EB090107F122044CBF4846304693
:104E500003EB840301315D6819F042FA059B0122DE
:104E600003EB840460601C4628463B4483F8FC2026
:104E700009F0FEF949463046FDF788F92346B4F8B3
:104E80008840054603EB8403D3F88C0019F08AF9B7
:104E9000192C024648D804F16103DBB22946664862
:104EA000FDF712F9059BD3F80080D3E901B5FEF7B1
:104EB000DEBFBAF1000F00F0EC805B10052B8AF822
:104EC000009000F0CB8041465846FDF7D3F8069B92
:104ED0001D70B04616F8013B202BA3F10902F8D053
:104EE000042AF6D9D9E6554B0F9A002A14BF50462A
:104EF000184630A90B465E25002601380DE01F2A12
:104F000017D842F0400203F8015B1C4604F8012B5D
:104F10005E70631A762B12DC234610F8012F72B1F3
:104F20001406ECD53F22F0E71B2C0CBF552344237D
:104F3000B4E77F2AE9D13F2203F8015BE5E7404867
:104F400074E49AF80130002B3FF4FBAD5046069A0A
:104F5000384919F083F900283FF454AF5046C8E7A8
:104F60000C98FBF775FF0E9B05466BB90A9B23B1A6
:104F70001846294618F09EFD30B12946314830AA1E
:104F800016F05EFD002804DA059B1B6C23B10A9520
:104F9000DCE52D48FFF7D1BA284618F0EDFE059B59
:104FA0009C6918641CB99AF80030782B04D0A9EBDE
:104FB00006040A950134D8E50A95611E314430464D
:104FC000FDF7E4F8234602460A992048FDF77CF8ED
:104FD000F6E51F4B1F4A18681368C31A591E0029AB
:104FE00002DD0E9BB3B110600023059A5382D2E913
:104FF00001B5FEF73CBF5B684444A3427FF4E6ADD5
:1050000000224FF0FF330599C1E90623DEE50029B0
:1050100040F35D81104809E454360210A4320210B6
:10502000A837021064380210883802109038021035
:1050300094380210B4380210BC38021058360210EE
:10504000E03802109C430020983802108C37021080
:10505000544000208C6A002038370210002C7FF466
:1050600032AF17F051F8034621461C600A220AF1BC
:10507000010019F0CFFA044617F046F80368222B16
:105080003FF421AF631E1F2B3FF61DAF059B1C6530
:105090001DE701225B10052B02FA03F23FF413AF68
:1050A00005990B8A2CB123EA02030B820FE7A8466D
:1050B000BCE61A430A820AE7A748FDF705F8059BF4
:1050C000D3F80080D3E901B5FEF7D1BE6778A51CFF
:1050D0003946284618F086FC002800F0BA80394688
:1050E0004FF00009074607F8019BA0EB050838467A
:1050F00018F078FC002800F0AA80437880F800902F
:105100000693059BB8F1000F40F0A8801D6F6B78E7
:10511000002B00F099800135284619F043F88046AD
:105120000D9B002B65D1059B9E681868864214D99B
:10513000331A013B01E0013B0ED3C25C0A2AFAD1CB
:10514000C31809D05E1C08E0BAF1000F3FF4BBAEF3
:105150003D238AF80030B6E606463146FDF716F8DC
:105160000B90089008F1FF334FF000083846099380
:1051700019F018F844460A954546DDF82CA007902A
:10518000089B9A455CDCB1460CE0A3EB09030A21BD
:1051900048465A1E17F0B2FF002818BF0546AE4217
:1051A000554631D2304602220A99FDF733F80646B9
:1051B00050B3099B002C00EB030114BF0222012213
:1051C000FDF7C6FB079B33BB059BAA45C3F80890B8
:1051D000069B18BF08F10108672B04F1010412D1E6
:1051E000079B1E44059B5B685D1EA945CDD34D46BC
:1051F000D5E7099B0B9A089903F00303032B18BF0B
:105200000A460B92AEE755464846FCF7A7FF0AF15F
:10521000010A0646B4E7384618F0C4FF8346022266
:1052200030465946FDF7AEFA59463046FCF7E0FEE7
:10523000064481445A463946304617F0DBFFC3E73F
:10524000BCB94648FFF779B94548FFF776B90690EB
:1052500057E74448FCF738FFFEF713BE186F09F014
:1052600007F8601C18F088FD2F22059B0270186754
:1052700056E7FCF71BFE012C3FF408AB42462146E3
:105280003948FCF721FF059BD3F80080D3E901B52D
:10529000FEF7EDBD0E9BD3B9059B9B69002B7FF4F8
:1052A000C3AA324B324A19680F9813687128A1EBD0
:1052B000030101F1FF313FF4AAAE0F986E2824D00C
:1052C0000F99702903D1012B1CDD023B13600023D1
:1052D000059A5382FEF7CBBDA946FFF70DBB0C988C
:1052E000FBF7B6FD0A90FFF745BA4646FFF7F5BA59
:1052F0005E200AF0DBFC3F200AF0D8FCFFF72CBB55
:10530000204612E41B48FFF718B90029DFDC1A48D1
:10531000FFF713B92420194C0AF0C8FC14F8010F48
:105320000028F9D10A200AF0C1FCFFF715BB1B20A9
:10533000134C0AF0BBFC14F8010F0028F9D12E2001
:105340000AF0B4FC1B200F4C0AF0B0FC14F8010F5B
:105350000028F9D1FFF700BB6C3802103838021072
:105360002438021000380210443802105440002043
:105370008C6A002068370210503702105036021035
:10538000943502109C3502101B20134C0AF08EFC41
:1053900014F8010F0028F9D15B20104C0AF086FCAC
:1053A00014F8010F0028F9D11B200D4C0AF07EFCE7
:1053B00014F8010F0028F9D1FDF71EFE0A2801D0CC
:1053C0000D28F9D10120FDF763FF059BD3F800807C
:1053D000D3E901B5FEF74BBD94350210003602103B
:1053E0009C3502102DE9F043544D8BB0014605F277
:1053F000E62018F03DFC696A00244A1E22EAE273A6
:10540000994288BF1A46AB6A4D491B1B18BF01233E
:1054100001A80132EC630AF0FDF99DF8040001AC2B
:1054200028B10AF043FC14F8010F0028F9D11B2021
:10543000444C0AF03BFC14F8010F0028F9D195F810
:10544000E60230B1404C0AF031FC14F8010F00289C
:10545000F9D13D4818F0A6FE7E28064621D8DFF88F
:10546000F490DFF8F480394FB5F95C3063BBA86E77
:10547000002851D06B6E5A1C6A661C78002C48D0EC
:105480001B2C14DD7F2C35D00022A9190136AB1955
:10549000204681F8E64283F8E6220AF007FC7F2ED8
:1054A000E2D1FDF777F828480BB0BDE8F08349FA60
:1054B00004F3DB07F5D5082C1CD0631EFE2BE3D9C3
:1054C000B5F95C30002BD2D0D8F80030986816F0CF
:1054D0001FFF4FF0FF313846FDF70AFD2B6E7D2B85
:1054E00026D90023A5F85C302B6604461B2CDED998
:1054F0007F2CE2D10820164C0AF0D8FB14F8010FDB
:105500000028F9D1013EAB19002E83F8E602ABDC8E
:10551000C7E708F0ADFEAC66D8F80030986816F022
:10552000F7FE4FF0FF313846FDF7E2FC0446DDE7B9
:105530005A1C2B442A6683F86602D6E720230020F3
:10554000A8350210FC35021006260020AE240020EB
:10555000F8380210FFDBFFF7601900202DE9F04F4B
:1055600000270546D14CABB0CDE90877A668079770
:10557000A4F88C71A4F87870FDF77EFD15F1080F82
:1055800036DA15F10B0F5DDAB4F91430022B4BD07B
:10559000012B00F091810022EBB28DF81C308DF8C8
:1055A0001D20002B40F01D862823C14F0AA90A4662
:1055B0004FF05E0E4FF0000C15E01F2B41F2DA8524
:1055C0007F2B02D13F2300F801EB024602F8013B9A
:1055D000531A762B80F801C001F3508617F8013F6B
:1055E000002B01F04B8610461A06E6D53F23ECE768
:1055F000EB1D052B26D9B4F91430022B02F03684AA
:10560000012B1FD115F1080F00F09081002D40F300
:1056100053810322A068E9B2FDF764FFD4E9007862
:10562000DFF89092A0604BE1A3681B780A2B41F051
:105630001B850123A382FDF751FBB4F91430012B24
:1056400000F03A8105F10B038A2BA4D801A252F88D
:1056500023F000BF396100104F610010496C001049
:10566000155E0010676100108D6A001081580010EF
:105670002F5C0010135A0010975B00109755001014
:10568000D9640010975500104F6100109755001015
:10569000F96400101365001039610010EF65001007
:1056A0008158001097550010135A0010975500109C
:1056B0000B5F0010135A00109755001097550010FB
:1056C00097550010975500100B5F0010975500106C
:1056D00097550010736A00109755001097550010E9
:1056E00097550010E162001097550010FB690010FB
:1056F00097550010975500109755001097550010BA
:105700002F5C001097550010C568001097550010C9
:1057100067610010256A0010975500107968001025
:10572000975500109755001097550010135A001008
:105730001B5F0010975B0010B1680010235F001022
:10574000F1590010F1590010F1590010F1590010F1
:10575000F1590010F1590010F1590010F1590010E1
:10576000F1590010F15900105D6800101B5F001026
:105770004D5F0010975500104D5F0010235F001023
:105780009755001001680010AB5C00104B600010D2
:105790004B600010AB5C00102B5B0010876B00109F
:1057A0009D6A0010476B0010D16E001097550010D5
:1057B000E76800103F6D001057620010A76D0010E1
:1057C0006B5E0010975500102D5900109755001072
:1057D0002B5B0010616C001097550010AB5C001043
:1057E0006F5D0010375A0010ED66001097550010DD
:1057F0009755001097550010076700109755001037
:1058000097550010836B0010C3600010375A0010CA
:10581000375A0010C36000102B5B00109367001014
:1058200081580010155E0010135A0010975B00108D
:105830002F5C0010BB620010ED610010FF650010CE
:105840006B5E001097550010E96300106F5D00104B
:105850002B5B0010016E001097550010276400109C
:105860006F5D0010375A001083640010275E00102F
:10587000D1630010275E001055660010815800109B
:10588000FDF72CFAA3682768BB4205D913F8012C51
:10589000013B0A2A18BFA360236A013B002B236245
:1058A000EEDCD4F80480DFF80C9009E0202300201F
:1058B00058360210ED490210DFF81093D4E9007851
:1058C000B84548D0D4F808A0C24507D001D3B845A0
:1058D00060D8BA4533D3D046C4F808A0464508D0AE
:1058E000B448E9B218F07EF818B1D4F88031C4E9B0
:1058F000608319F8053013F0040308BF2362B8452C
:1059000011D9A8EB0703013BFA1801E0591C2FD06D
:1059100011460878013B0A2802F1FF32F6D198F8C7
:1059200000300A2B30D02BB0BDE8F08F0223DFF817
:105930009C92A382FDF7D2F9D4E90078C0E7012355
:10594000A4F87830238A580732D40720BA460AF0E0
:10595000ADF92768BFE7404600220A21FDF7C2FDE6
:10596000D4F800A0D4F804805746C4F808A0ABE7E8
:1059700098F800300A2BD6D1B4F91430002BD2D1CC
:1059800008F1FF33A360CEE70131A8EB0101002944
:10599000F2DCC8E70123A4F87830238A08F1FF3A43
:1059A0005F0701F1ED8307200AF080F9276890E78F
:1059B0001B20DFF81C820AF079F918F8010F002883
:1059C000F9D10120FDF764FC7B4807F031FC1B2076
:1059D0007A4BDFF800829B690AF068F918F8010F2A
:1059E0000028F9D10120BA46FDF752FC276872E77A
:1059F000302D236A01F0158703EB8303A5F13002F4
:105A000002EB4303D4F804802768DFF8C0912362D7
:105A100056E7D4E90189CDF8289008F1FF3ACA4544
:105A200001F2E682CDF81890FDF72AFDD4E900785E
:105A3000DFF8989144E7B4F888302A4604EB8303F2
:105A40000AA906A8D3F88CA002F066FAB0F1FF3FCD
:105A5000814666D0012802F02180069F0A9B9F4262
:105A600002F25980002842F063813A780A2A02F053
:105A70008481B4F888B00BF1220204EB82014968FA
:105A80000291D91B4ABF9846B846F91A01314046DF
:105A9000CDE9043218F024FC059AA34404EB8202F9
:105AA000506002988BF8FC9008F0E2FB25F0200291
:105AB000592A049B42F05981B9F1010FA76002F005
:105AC0003280632D00F0A681B4F888C004EB8C030B
:105AD000D3F88C20524524D039493A4B642D08BF65
