:020000041000EA
:10000000002008205D0100101301001015010010F0
:100010001101001011010010110100101101001058
:100020001101001011010010110100101701001042
:100030001101001011010010190100101B01001026
:100040001D0100101D0100101D0100101D010010F8
:100050001D0100101D0100101D0100101D010010E8
:100060001D0100101D0100101D0100101D010010D8
:100070001D0100101D0100101D0100101D010010C8
:100080001D0100101D0100101D0100101D010010B8
:100090001D0100101D0100101D0100101D010010A8
:1000A0001D0100101D0100101D0100101D01001098
:1000B0001D0100101D0100101D0100101D01001088
:1000C0001D0100101D0100101D0100101D01001078
:1000D0001D0100101D0100101D0100101D01001068
:1000E0001D0100101D0100101D0100101D01001058
:1000F0001D0100101D0100101D0100101D01001048
:100100001D0100101D0100101D0100101D01001037
:1001100000BE00BE00BE00BE00BE00BEEFF3058004
:10012000103800BEF2EB8871E86700100868001014
:10013000A801001090A31AE7D3DEFFFF42012110AF
:10014000FF010000C4770000793512AB4FF00000CA
:100150002049086006C881F3088810474FF05040D6
:10016000006810B14FF00000F2E70FA40ECC002998
:1001700002D000F015F8F9E71749184A002000E00E
:1001800001C19142FCD1002080F30A8814498847BC
:10019000144988471449884700BEFDE701C901C2D8
:1001A0009A42FBD3704700BF08680010100100207E
:1001B00004120020FC780010000008200000082035
:1001C000FC7800100010082000100820000000003B
:1001D0007047000008ED00E0041200205C61002080
:1001E000893000107D02001081300010F8B500BF8A
:1001F0000348044B834202D0034B03B118477047B6
:10020000041200200412002000000000064B0749E1
:10021000C91A891048BF0131491003D0044B0BB1F2
:1002200001481847704700BF041200200412002044
:100230000000000010B5064C237843B9FFF7D8FF43
:10024000044B13B10448AFF300800123237010BDA9
:1002500058160020000000003063001008B5044B61
:100260001BB104490448AFF30080BDE80840CDE766
:10027000000000005C160020306300102DE9F04FF4
:10028000654B85B01B68DFF8C8911A0CADF80C30CF
:100290008DF80E2003F026F84FF040135F4F09F55C
:1002A000804409F500524FF4FA60C4E9009207F166
:1002B0008002C4F80A30A262C4E90777676200F0DE
:1002C0006DFF574803F08AF849466268554803F0C5
:1002D00007F9636A54480093D4E90712A36A03F04C
:1002E000FFF80123A38204F11403236105F07CFECF
:1002F000022103A805F0B4FE4C4E07F11F088DF84B
:100300000E003F37D4E900239A4251D2402502F033
:10031000EBFFE3691870E069D4E9092105F0B4FE48
:10032000013DE061F3D140213C4805F099FE0146D2
:100330003F4803F0D5F83F4DDFF818A115F8011F2D
:10034000504603F0CDF84545F8D10A2003F004F8F3
:10035000394DDFF800A115F8011F504603F0C0F831
:10036000AF42F8D140250A2002F0F6FF206A027859
:10037000236823F8022BD4E90921236005F08AFEC3
:10038000013D2062F3D102F0AFFF01462B48C9B214
:1003900003F0A6F8D4E90903D4E907122568CDE9EA
:1003A0000005274803F09CF8D4E900239A42ADD316
:1003B0002448C4F8009003F011F802F095FF224A97
:1003C000C3B2312B137003D0322000F0E7FE99E75F
:1003D0002369B4F90A00D4E9001205F099FD1B481D
:1003E00002F0FCFF4FF0800A4FF0000B4FEA4B0584
:1003F00023683046595F023503F072F8AA45F7D1F9
:100400000A200BF1400B02F0A7FFBBF5805F0AF159
:10041000800AEBD1D8E700BF04640010C060002060
:10042000386300104C630010786300100064001003
:1004300030630010BF600020DF600020A463001064
:10044000B4630010D063001058610020F063001006
:1004500080200020A06300100FB400B583B0049C7E
:10046000074802F0BBFF3CB105A92046019102F00C
:10047000EDFD044802F0B2FF012002F0FFFD00BFD5
:10048000086400103463001070B58646EFF31085E1
:1004900072B6124CD4E8CF6F0120002EFAD1C4E816
:1004A000460F002EF6D1BFF35F8F4FF0010CC80846
:1004B00001F007030CFA03F31EF800C01CEA030660
:1004C00008D14CEA030C0EF800C0C4E88F6F85F326
:1004D000108870BD1046FFF7BFFF00BF9B170020BC
:1004E000F8B5EFF3108572B6234CD4E8CF7F012620
:1004F000002FFAD1C4E8476F002FF6D1BFF35F8F0A
:100500009A4227D80126D70810F807E002F0070C16
:1005100006FA0CFC1EEA0C0F00EBD2070DD125E009
:100520004FEAD20E10F80EE002F0070C06FA0CFCAF
:100530001EEA0C0F00EBD20718D001329342EFD223
:100540004FF0FF300023C4E88F3F85F310889842B6
:1005500007DBF8BD0023C4E88F3F85F310884FF018
:10056000FF300029F5D00698FFF776FF4EEA0C0E13
:10057000104687F800E0E5E79B170020044A107852
:10058000431CDBB2182B28BF10231370704700BF29
:100590006011002010B5054C82B001461F231822BF
:1005A00000940348FFF79CFF02B010BD18640010D0
:1005B000E81B00204FF0E022936843F00053936063
:1005C000704700BF0021044B03F12002C3E88F1FD6
:1005D00001339342FAD17047901700204FF0E02387
:1005E0004FF08032C3F80024C3F80424C3F8082471
:1005F000C3F80C24C3F81024C3F81424C3F8182437
:10060000C3F81C24C3F82024C3F82424C3F82824E6
:10061000C3F82C24C3F83024704700BF012300F036
:100620001F029340400941B1800000F1604000F595
:100630006140C0F8803103607047024A203042F8C0
:100640002030704700E100E00123064A410952F8DA
:10065000212000F01F008340134214BF012000201E
:10066000704700BF00E100E001224309034900F0A8
:100670001F008240403341F82320704700E100E032
:10068000064B10309B6853F8200028B1044BC01A69
:100690002F288CBF00200120704700BF00ED00E034
:1006A00064110020F8B50D46EFF3108772B6124EB4
:1006B000D6E8CF2F0123002AFAD1C6E8423F002A0C
:1006C000F6D1BFF35F8F0D4B00F110049B680C4A0D
:1006D00053F82430934203D0994201D000F0A4FF94
:1006E000064B9B6843F82450BFF35F8F0023C6E896
:1006F0008F3F87F31088F8BD9917002000ED00E0C8
:100700001D0100102DE9F04F81468B46164685B03D
:10071000EFF3108272B6DFF8ECA1DAE8CF1F012305
:100720000029FAD1CAE8413F0029F6D1BFF35F8F13
:100730006D4B93F90040002CC0F28C806B4D04EBA4
:10074000440705EB870898F8061009F1100919709D
:10075000674BBF009B6853F829006300411B2F299A
:1007600001932FD96349884240F0B28063001C4452
:10077000614B02372F44043BDB1BC3F34A036FEA90
:10078000C3434FF421416FEAD34325F8241005EB0E
:10079000840463804BF60153A380FF2348F00100DB
:1007A000E671C4F808B0A371514B9B6843F8290067
:1007B000BFF35F8F0023CAE88F3F82F3108805B034
:1007C000BDE8F08F20F0010E9EF80710B14288BFFF
:1007D00002972ED84FF42143EB53474BB91C2944C1
:1007E000043B04375B1A2F44AEF10401434CC91B90
:1007F000C1F34A012143A8F80410C3F34A03404956
:100800002343A8F802304AF6AA2073465B1B5B41DB
:100810005843000D88F8076088F80600C8F808B04B
:1008200048F00100CEF80010BEE7CF79B74219D9E1
:100830008E469EF906C00CEB4C01BCF1000F05EB97
:100840008101F2DA01934BF6015303930EF1040395
:1008500002931FE0019200F0E7FE234B019A93F907
:1008600000406BE70193BEF804300EF10401029FD3
:100870000291590531D4029B4915023103EB410322
:100880006FF00701C91B491B1944C1F34A0141F428
:10089000604303930299A8F104077F1AC7F34A073C
:1008A0006FEAC747019B6FEAD747234498468EF803
:1008B00006400399124C05EB8303AEF8047045F82B
:1008C0002840998083F806C0DE71C3F808B06BE752
:1008D000019200F0A9FE019A48E701F5FF1101F528
:1008E000FF511F31C7E700BF546100206411002091
:1008F00000ED00E01D0100109411002000E0FFFF5A
:100900000148804799170020F0B5EFF30585EDB257
:10091000EFF3108C72B62649D1E8CF2F0123002ABD
:10092000FAD1C1E8423F002AF6D1BFF35F8F214ED2
:1009300040F0010EB4684AF6AA2354F825701E4A06
:100940000446A41A644163431B0D77455BB21BD078
:1009500092F906409C421CD092F912409C4223D04E
:1009600092F91E409C4221D092F92A409C4208BF35
:1009700003240FD0114A0024157813708571C1E843
:100980008F4F8CF31088F0BDB2680D4C42F82540B3
:10099000F0E7002404EB440402EB8402FF2494718A
:1009A0004BF601549480E5E70124F3E70224F1E7D4
:1009B0009917002000ED00E0641100205461002030
:1009C0001D01001010B5074C82B00146052300221E
:1009D00000940548FFF784FD0028A8BFC0F133004C
:1009E00002B010BD3464001059610020014B0B446B
:1009F0000360704790170020F8B5124D124EB542B3
:100A00001FD22C462368FF277BB1FFF7B7FD0146B5
:100A10002846FFF7EBFFA780BFF35F8F0834B4428F
:100A20000FD223682546002BEFD1FFF7A7FD014623
:100A30002846FFF7DBFF2771BFF35F8F0834B4420E
:100A4000EFD3F8BDFC1100200412002010B50446BD
:100A5000FFF794FD01462046FFF7C8FFFF232371EF
:100A6000BFF35F8F10BD00BF10B504460120FFF734
:100A700091FD034B03442360BFF35F8F10BD00BFA4
:100A800090170020024B0B440360BFF35F8F704749
:100A9000901700200D4B1A68EFF3108172B6D2E860
:100AA000CFCF0120BCF1000FF9D1C2E84C0FBCF14F
:100AB000000FF4D1BFF35F8F00221B68C3E88F2FB4
:100AC00081F3108840BF002000217047B4600020EF
:100AD0002DE9F04F2DED028B85B0EFF30583DBB2EE
:100AE000103B9A0818BF01224FF0010103F00300E8
:100AF00008BFAB4DAB4B18BFAB4D00EB820253F8B8
:100B0000226001FA00FB05F541539FEDA38B019094
:100B1000C3F804B02AE0B388190440F18D80B3799A
:100B2000002B40F0D780B6F90820002AC0F21681C9
:100B3000736902EB420203EBC203D3E90247B7F148
:100B4000FF3F08BFB4F1FF3F09D0019B05EB8301D4
:100B5000AB6A0A69D21AE31A934238BF0C6128467D
:100B600000F0A0FBA042B941C0F2F880B6F908300D
:100B7000C5F83CB0002B0093CDDBD6F8149003EB06
:100B8000430A284609EBCA07D7E9024800F08AFB66
:100B9000A04271EB0801BEDBB8F1000FC0F2C080CB
:100BA0003A69824B9A4200F0EA807988B6F90800E7
:100BB00089B241EA00407969904703460A4653EA00
:100BC000020100F0AD80002A80F2CE80E31A68EBCB
:100BD000020839F93A20C7E90238002A9BDB70691C
:100BE00002EB420100EBC101D1E902C7634578EB9A
:100BF000070E4FEA42018EDBB6462EF8082F0BE0B7
:100C000030F93120A646002A0DDB02EB420400EB4E
:100C1000C4045100D4E902C76345114478EB0707C7
:100C200000EBC104ECDA009B29F83A20AEF8003062
:100C3000B38819043FF573AF3369EFF3108272B6CE
:100C4000D3E8CF0F01210028FAD1C3E8401F0028C4
:100C5000F6D1BFF35F8F4FF6FF74B0880023316980
:100C600000B2B480C1E88F3F82F310889842FFF64B
:100C700056AF0746A946746906F1080807EB470E08
:100C800004EBCE03D3E90205B6F90830C446002BC5
:100C900013DBB246009704E034F936309446002B5B
:100CA00009DB03EB430604EBC602D2E90271B8424A
:100CB00075EB0101F0DA5646009FACF8007034F98C
:100CC0003E7024F83E30002FD8DAB3794D46002B21
:100CD0003FF429AF0023B371B6F9083006F1080ECE
:100CE0005A1C3BD01A46746903E08646591C3FF4EF
:100CF0001CAF03EB430104EBC10047889C463F0453
:100D000034F93130F1D5944580ED028BEED0AEF858
:100D10000030328924F831206246A6F808C0E5E7A1
:100D200039F83A2032813269EFF3108172B6D2E895
:100D3000CF7F0120002FFAD1C2E8470F002FF6D154
:100D4000BFF35F8F7288009B29F83A207380326965
:100D50000023C2E88F3F81F31088DCE640BF05B076
:100D6000BDEC028BBDE8F08F2846CDE9023200F0E1
:100D700099FA029B039AC31842EB010829E77969A3
:100D800008460A69029190470028C9D00299D1E922
:100D9000003214E7AFF30080FFFFFFFFFFFFFFFF0C
:100DA00000000B406020002000800B40D10A0010A2
:100DB0002DE9F84F364C25692DB1BDE8F84F0A21D1
:100DC0003448FFF713BEDFF8E4800321404600F00B
:100DD00057FA0326C4F80C80FFF7D0FB4FF0504CB5
:100DE0002D4B267003442361DCF800300F21637023
:100DF000636961801D834FF00405A3F878504FF0BC
:100E00000505A3F890504FF00605A3F8A8504FF041
:100E100007050E2108274FF6FF724FF00A0EA3F8C0
:100E2000C0504FF001094FF00C0C4FF0020B4FF087
:100E3000090A0D204FF00B05A3F868111749A2808D
:100E4000A3F808E1A160A3F848B0A3F8F0A0A3F8C4
:100E50002051A3F838C1A3F85001A3F83090A3F8AB
:100E60006060A3F8D8701A800D4B3046C8F8207027
:100E70000C49DC60FFF716FC49463046FFF7CEFB15
:100E8000094B0A211F640348BDE8F84FFFF7AEBDC8
:100E9000AC110020B460002090170020FFFF10006C
:100EA00060200020D10A001000200B4000000B4001
:100EB00000487047AC110020F8B59DF8207004463A
:100EC00016461D4637B900F0F5F9864265EB01017B
:100ED00000295CDB2369EFF3108772B6D3E8CF1FDC
:100EE00001220029FAD1C3E8412F0029F6D1BFF32E
:100EF0005F8FB4F902C063690CEB4C01BCF1000FC9
:100F00004FEAC10203EBC10138DB985A4FF0000EE3
:100F100060802069C0E88FEF87F310880698C1E9E8
:100F2000026508610798486148880130C0F30E00E7
:100F3000012838BF0120488040EA0C402169EFF3C6
:100F4000108572B6D1E8CF7F0126002FFAD1C1E813
:100F5000476F002FF6D1BFF35F8FA1889952A4F895
:100F600004C02369C3E88FEF85F310880122E3688A
:100F7000217803F501538A405A60F8BD00232269A5
:100F8000C2E88F3F87F310884FF0FF30F8BD384636
:100F9000F8BD00BF0146F0B50069EFF3108772B6E7
:100FA000D0E8CF5F0124002DFAD1C0E8454F002DD5
:100FB000F6D1BFF35F8FB1F902E04C690EEB4E0C36
:100FC000BEF1000F4FEACC0504EBCC0C3DDB605BBF
:100FD000002648800869C0E88F6F87F31088BCF846
:100FE0000200CCE902230130C0F30E00012838BF13
:100FF0000120059BACF80200CCF81030069B40EABB
:101000000E40CCF814300B69EFF3108272B6D3E8BF
:10101000CFCF0127BCF1000FF9D1C3E84C7FBCF161
:10102000000FF4D1BFF35F8F8B886353A1F804E006
:101030000B69C3E88F6F82F310880122CB680978AF
:1010400003F501538A405A60F0BD00230A69C2E8E3
:101050008F3F87F310884FF0FF30F0BD0346408983
:10106000B0EB214F37DD58690A1402EB420210B58C
:1010700000EBC2001C69EFF3108C72B6D4E8CFEF1E
:101080000122BEF1000FF9D1C4E84E2FBEF1000FCE
:10109000F4D1BFF35F8F428889B292B28A4207D0FF
:1010A00000221B69C3E88F2F8CF31088002010BD2D
:1010B00042F4004242800121002218699971C0E87F
:1010C0008F2F8CF310881C78DA68084602F50153DC
:1010D000A140596010BD0020704700BF40787047A4
:1010E0002DE9F041861F41F1FF35B04271EB050358
:1010F00038BF002682B038BF354604460F4600F0A0
:10110000D9F8301A65EB0103012873F1000306DA00
:101110002046394602B0BDE8F04100F003B900F0C6
:10112000C9F8864265EB010100290ADB0021174B53
:101130003246009316482B460191FFF72BFF0028FB
:10114000E6DB4FF0000C1348134A436A9D4204D873
:10115000816AB142DCD29D42DAD11368EFF310818B
:1011600072B6D3E8CF8F5FF0010EB8F1000FF8D15F
:10117000C3E848EFB8F1000FF3D1BFF35F8F1368F6
:10118000C3E88FCF81F3108820BFDEE7950A0010F7
:10119000AC11002000000B40B460002010B50446E4
:1011A00000F088F84FF47A734FF0FF3C6FF0004284
:1011B000E4FB0301BDE81040844572EB01033CBF32
:1011C00060461146FFF78CBFF0B506460D4683B06A
:1011D000EFF30584E4B2002C35D1264F3A78F96854
:1011E00004328B6A51F82220D21AC31A934207D3D1
:1011F00020BF214B586A85421FD9002003B0F0BDA3
:1012000000F058F8864265EB0101002911DB1B4B09
:101210003846CDE9003432462B46FFF7BBFE011EAF
:1012200007DD154B5A6A95421DD920BF1148FFF7BB
:1012300015FF114B586A8542DFD89B6A9E420DD834
:10124000012003B0F0BD0C4B586A8842D5D39B6A8D
:10125000B342F5D2401A18BF0120CFE7281A18BFB1
:10126000012003B0F0BD9B6A9E42DFD99542DDD1DB
:10127000DBE700BFAC11002000000B40950A001016
:1012800010B4054B054C064AA04214BF1846581C22
:101290005DF8044BFFF7F8B8EC1B002000800B4012
:1012A000586400100346416A0A46986A596A8A429D
:1012B000FAD17047034B596A0A46986A596A9142B3
:1012C000FAD1704700000B4030B4154A536A9C466F
:1012D000946A536A6345FAD1021959414FF00005E7
:1012E00028BF01250E4B5B6AB5B15A1C08BF1A46D0
:1012F00008D04FF0FF310A460948436A8B42FCD3BD
:101300008B4207D1064902E0486A984202D1886AB6
:101310009042F9D330BC70479942EDD8F0E700BF56
:1013200000000B40074A536A9942FCD8994207D102
:10133000044B02E05A6A914202D19A6A8242F9D37E
:10134000704700BF00000B4000EB400C4FEA8C0CD4
:101350000CF1804C0CF5803CF0B51646DCF804200E
:10136000051FB2F5803F38BF4FF48032EDB238BF71
:10137000CCF80420012D2AD94FF40067254C0CF538
:101380004052176054F82020B2B9DCF80020012D3B
:1013900082EA461202F0E0020CF5805632602AD949
:1013A0004FF4006144F820304FF480330CF50052C4
:1013B0001160CCF80430F0BD6769B7FBF2FE0EF1A6
:1013C000010E0EEB4E0EBEF1030EFCD2DDE701293D
:1013D000D2D103240CF540521460DCF80820D20767
:1013E000FBD5DCF800200B4C82EA461202F0E0024A
:1013F0000CF5805632600122DCF800504D4005F0BB
:101400000305356002FA01F1DCF808200A42FBD03E
:10141000C6E700BFF01B0020014B53F820007047C7
:10142000F01B002070B4039D04682D0345EA0345BA
:101430001B4B002CB3FBF1F3B2FBF3F61FDB194A95
:10144000194B90420CBF4FF400424FF48042174CAE
:101450001A6003F580531A60A36832EA0303FBD1D4
:10146000212200F540530433016086601A6002684F
:10147000002AFCDA0822C5601A6070BC7047036855
:1014800003F03F038B42DAD18368C3F30B03B3420B
:10149000D5D1C36803F4EE23AB42D0D1EDE700BF52
:1014A000001BB70000800540002002400000024001
:1014B00030B44FF080441C4B1C60E0B11B4CA3F5D2
:1014C0004053DC611A4C40F0010044401C625962F8
:1014D00098624FF080454FF0E061134B1548164C71
:1014E0001D60846019604AB930BC4FF00042A3F51A
:1014F00080531A607047114BD861EAE74FF47A7352
:1015000003FB02F2B2F1807F2ABF6FF07F431346E4
:101510001A464FF080410A4C08482360094B42604C
:1015200030BC1960704700BF00B00D40D3C007B099
:101530002D3FF84F00A00140F3FFFF0100800D4058
:101540005020002000A00D40012300EB400080004F
:1015500000F1804000F5841041600360704700BFD7
:10156000002370B5DB8A04460D46002242E800F2F3
:10157000520254BF1021042144F25220984786465B
:101580002B462246F446BDE870400A214FF4817094
:10159000604700BF0023DB8A002242E800F25202CB
:1015A00001D4102118470421184700BF08B503468D
:1015B0000846191E02DB1AB140F03000FFF7D0FFD9
:1015C00040F02000FAE700BF034AD2F82838002B89
:1015D000FBD0BFF35F8F704700000E400021044B2B
:1015E000044ABFF35F8F43F8041B9342F9D170475D
:1015F0000C080E402C080E4010B42F204FF42A6423
:10160000054A064B06491460D06019605368002BE8
:10161000FCDA5DF8044B70470080044000A00440F1
:1016200000B0FA00704700BF08B50148FEF714FF8C
:101630007C64001038B5054C054DAC4204D254F81A
:10164000043B9847AC42FAD338BD00BFE8620010B3
:101650002863001010B40748074C084B084A094992
:1016600004601A608B6832EA0303FBD15DF8044B17
:10167000704700BF002002407F3BEFEF0030024088
:10168000F6FFF30300000240044BDB6CB3F5004FA0
:1016900003D14FF48022024BDA64704700001150EE
:1016A000002011504FF0E022044BD2F8881D0B436C
:1016B000C2F8883D10EE3004704700BF03033000CD
:1016C0006FF06041044B054A19609368DB4333F0C7
:1016D0006043FAD1704700BF003002400000024072
:1016E00010B545F25320FFF755FFBDE81040034603
:1016F0000420184710B545F25320FFF74BFFBDE813
:101700001040034601201847FEF75CBF10B5054B9B
:10171000054C4FF488721846A16804F0C1FCA06023
:1017200010BD00BF0000002000ED00E00023F0B578
:101730002B4C83B0C4F88430FFF75EFF0122294BA5
:10174000DA63636C012BFCD10321264A244B11631D
:101750009D6B012DFCD1052302271E46002429463E
:10176000214A22480097FFF75DFE29463346204A6A
:1017700020480096FFF756FE3946224604201E4BAD
:10178000FFF7E2FD2946224630461C4BFFF7DCFD01
:101790002246082021461A4BFFF7D6FD2246092093
:1017A0002146174BFFF7D0FD224606202146134B5A
:1017B000FFF7CAFD114B224607202146FFF7C4FD63
:1017C0000420FFF729FE0F4BA3FB0035AD0CE0B260
:1017D00029460134FFF7B8FE062CF8D103B0F0BD5E
:1017E0000000014000300140002F68590000054012
:1017F000008C864700800540001BB70080D1F008B0
:10180000006CDC0283DE1B4386B003B451FC080489
:10181000CDE9020151FC0904CDE9040151EC0A04AF
:10182000CDE9060103BCF047BDE800504EEC00C412
:10183000BDE800504EEC01C4BDE800504EEC02C4BF
:1018400000BD000000B5FFF7DFFF02E010FE30F43E
:10185000F8D441EC100443EC112400EE010410EE26
:10186000010480EE200451EC1004704700B5FFF72E
:10187000CBFF02E010FE30F4F8D441EC100443EC4E
:10188000112400EE010410EE210480EE200451EC3E
:101890003004704700B5FFF7B7FF02E010FE30F4E8
:1018A000F8D410B541EC100443EC112451EC0404BD
:1018B00053EC0524A0FB024C5FF0000EE0FB03CECE
:1018C000E1FB02CE4CEC20440024E1FB03E444ECB9
:1018D00030E480EE200451EC5004BDE81040704725
:1018E00000B5FFF791FF02E010FE30F4F8D441ECB0
:1018F000100443EC112451EC2104A0FB01126FEA07
:10190000820252FB100052FB12F252FB1000A0EBBD
:10191000D07C53EC04245CFB13F153EC1524A1FBA5
:10192000022001FB030053EC4424A2EB000050FB17
:101930001CF24FEA111312EB017043EBE27140EA23
:10194000515020EA915020F0070053EC7524A0FB81
:10195000023C53EC752400FB03CC01FB02CC53EC9E
:101960000424ACEB824C40EA5C70A0F1010041EC35
:10197000400480EE200451EC7004704700B5FFF77E
:1019800043FF02E010FE30F4F8D440EC700400EEA7
:10199000010410EE210480EE200451EC3004704765
:1019A00000B5FFF731FF02E010FE30F4F8D440EC50
:1019B000600400EE010410EE210480EE200451ECDE
:1019C0003004704700B5FFF71FFF02E010FE30F44F
:1019D000F8D441EC800400EE010410EE010480EE26
:1019E000400410EE1304704700B5FFF70DFF02E04E
:1019F00010FE30F4F8D441EC800400EE010410EE47
:101A0000010480EE400410EE3304704700B5FFF788
:101A1000FBFE02E010FE30F4F8D441EC100443EC7D
:101A2000112400EE010410EE3004C0F30070704782
:101A300000B5FFF7E9FE02E010FE30F4F8D443EC05
:101A4000102441EC110400EE010410EE30F48CBFC0
:101A500001200020704700BF00B5FFF7D5FE02E06F
:101A600010FE30F4F8D441EC100443EC112400EEE5
:101A7000010410EE30F42CBF01200020704700BF9D
:101A800000B5FFF7C1FE02E010FE30F4F8D441ECDF
:101A9000100443EC112400EE010410EE30F48CBF6E
:101AA00001200020704700BF704700BF2DE9F04FB4
:101AB00083B098460F9B0F4611469A070646DDF8FD
:101AC0003090DDF838B012D10D9B5B450FD28A46BD
:101AD0000C46ABEB03050D445246434639462020E5
:101AE0000AF1010AB047AA45F6D1214600E00D46A9
:101AF0000D9B93B109EB030404EB050A01950D4618
:101B0000AAEB040214F8010D43463946B0474C4590
:101B1000F6D129460D9B019D1D440F9B9B070CD5BB
:101B20006C1AA34509D92A46434639462020013478
:101B3000B047A34505F10105F5D8284603B0BDE837
:101B4000F08F00BF2DE9F04F0F9FDDF824E017F074
:101B5000020F0A9C9DF82C900E9DDDE90C8629D180
:101B6000002D66D1B44225D2202C07F0010B00F0E5
:101B70000A8104F1FF3C4FF0300AF44401E0202CCC
:101B800076D00134A6420CF801AFF8D8BBF1000FB3
:101B900010D0AC420ED2202C70D004F1FF3C4FF09C
:101BA000300AF44401E0202C22D00134AC420CF87D
:101BB00001AFF8D117F0100F31D017F4806F4CD16E
:101BC000DCB9B8F1100F00F0B880B8F1020F00F0E6
:101BD000C28030248EF800400124B9F1000F5AD1A0
:101BE0007E0740F186802B260EF80460013418E051
:101BF000FC0673D57C052FD42024A64201D0AC422C
:101C00002BD1661E00F08680B8F1100F00F0C08066
:101C1000B8F1020F5BD04FF0300C0EF806C0202C4C
:101C2000DBD1CDE90B57CDE909E4BDE8F04FFFF773
:101C30003DBF17F0010B3AD0B9F1000F4CD117F0AE
:101C40000C0F49D1B442A4D2202C92D1202D15D80A
:101C500017F0100FB1D1E4E72024B8F1100F3FD0F6
:101C6000B8F1020F2FD0202CDBD026460134D2E76A
:101C7000BBF1000F00F09D80202DB9D9FC062DD5B9
:101C80007C052BD4202E00F0A280202DE4D120252D
:101C90001F262C46B8E72D260EF804600134CDE946
:101CA0000B57CDE909E4BDE8F04FFFF7FFBEB442A2
:101CB00080D2202C7FF45DAF17F0100FB1D017F455
:101CC000806FCAD199E7202CABD0264601344FF063
:101CD000620C0EF806C0C6E7013DB3E72024A0E77A
:101CE000BE060DD4202C9CD078260EF8046001345A
:101CF000B9E73E0795D520260EF80460013490E739
:101D0000202C8ED04FF0580C0EEB040686F800C045
:101D10000134A8E7B8F1100F43D0B8F1020F7FF4F7
:101D200058AF62248EF8004030248EF8014002241F
:101D3000B9F1000F3FF454AFADE7BE0617D55824F4
:101D40008EF8004030248EF801400224B9F1000FD3
:101D50003FF446AF9FE762268EF800603026444687
:101D60008EF80160B9F1000F3FF43AAF93E77824A1
:101D70008EF8004030248EF801400224B9F1000FA3
:101D80003FF42EAF87E7BBF1000F7FF461AF93E71D
:101D9000A4F1020C3446BE0607D478260EF80C6077
:101DA00063E7BC06CBD47824BCE758260EF80C6059
:101DB0005BE717F0100F3FF434AF17F4806F7FF438
:101DC00030AF202E06D0202D7FF447AF5FE734469A
:101DD0001F2619E71F2617E700B9704701F0BCBAA4
:101DE00010B1D1E900311847704700BF0000000072
:101DF0002DE9F04F9DB09DED267BDDE928A558EC3F
:101E0000177BCDE90C1283461E463A4643463846B8
:101E100041468DED087B2A9CFFF7FCFD002840F031
:101E2000D580384641464FF0FF32734BFFF72CFE0A
:101E3000002840F0CB80384641464FF0FF326FF427
:101E40008013FFF7F9FD002840F0C080DDE9087835
:101E50000022384641460023FFF7EEFD002840F0FF
:101E6000BB81CDE90A78DDE90A231F46904614F4C8
:101E7000806308BF4FF0060A119358EA070340F049
:101E8000BF8014F4006300F09F819FED597B002711
:101E90008DED0E7B4FF00008BA45CCBFAAEB070AC8
:101EA0004FF0000A4746C8BF0AF1FF3A44F4806485
:101EB000454594BF4FF00009A5EB080914F0020353
:101EC000109304D0B8F1000F18BF4FF000093FB1D4
:101ED000DDE90A01DDE90E23FFF706FDCDE90A0180
:101EE000DDE9080100220023FFF7A6FD30B1DDE99E
:101EF0000A01024601F10043CDE90A239DED0A7B68
:101F000024F40063CDE902A9DDE90CA204938DED70
:101F1000007B33465146584600F096F98146B8F1A9
:101F2000000F4FD014F0200F4A460CBF652045200B
:101F300033465146D84709F1010487EAE77C0DF1A1
:101F4000500908F1FF304B460022DFF8B080ACEBBF
:101F5000E77C4FEAD77E01E0202A10D0E246A8FBBA
:101F60000C71C90801EB8107ACEB47073037BAF1B8
:101F7000090F8C4602F1010203F8017BECD805231E
:101F80000590069300200A230C9FCDE90330CDE98C
:101F9000012E3346CDF80090224639465846FFF7C9
:101FA000D1FD109B81466BB10D9BC41AA54209D986
:101FB0004A463346394620200134D847A54209F124
:101FC0000109F5D848461DB0BDE8F08F9DED087BAE
:101FD000DDE90C12334658468DED267BCDE92954B8
:101FE000CDF8A0A01DB0BDE8F04F00F02DB900BFA6
:101FF0000000000000000000FFFFEF7FCDCCCCCC44
:10200000C7F30A50A0F2FF30FFF7BCFC8AA3D3E964
:102010000023FFF743FC8AA3D3E90023FFF716FC54
:10202000C7F31307CDE90E0147F07F514046002268
:102030007B4B41F44011FFF71DFC6BA3D3E9002358
:10204000FFF72CFC02460B46DDE90E01FFF7FEFB15
:10205000FFF7BCFC0746FFF795FC65A3D3E9002317
:1020600080468946FFF71AFC00226E4BFFF7EEFB15
:10207000FFF7ACFC03464946404610935EA3D3E904
:102080000023FFF70BFC804610988946FFF77AFC87
:102090005BA3D3E90023FFF701FC02460B46404651
:1020A0004946FFF7E7FB02460B4680468946FFF7A5
:1020B000F5FB42464B46CDE90E0140464946FFF747
:1020C000C5FB0022CDE91201DDE90E01564BFFF7F9
:1020D0000BFC0022554BFFF7B9FB02460B46DDE92E
:1020E0000E01FFF701FC0022514BFFF7AFFB024648
:1020F0000B46DDE90E01FFF7F7FB42464B468046F3
:10210000894600204FF08041FFF7B4FB02460B46A2
:1021100040464946FFF79AFB02460B46DDE91201AD
:10212000FFF7E2FB0022434BFFF790FB109B0022DE
:1021300003F2FF3C4FEA0C53FFF7B0FB80468946A1
:10214000DDE90A0142464B46CDE90E89FFF774FCF2
:1021500060BB4346494607F16302C72A34BF4FF0CC
:1021600004084FF0050822057FF5A2AE0B433FF4AB
:1021700091AEDDE90A0124A3D3E90023FFF770FC47
:1021800048B1DDE90A0122A3D3E90023FFF754FC9B
:1021900000287FF47FAEBAF1000F3FF489AE119BA7
:1021A000002B3FF485AE0AF1FF3A81E600221F4B77
:1021B00040464946FFF798FB0A4601460346CDE9EB
:1021C0000E12013F1146C6E79FED137B1F464FF0ED
:1021D00004088DED0E7B6BE608F100430A970B9324
:1021E00041E600BFAFF3008061436F63A787D23F32
:1021F00071A379094F930A401655B5BBB16B0240E4
:10220000EF39FAFE422EE63F2D431CEBE2361A3F31
:102210000000000080842E4100000000000000004B
:102220000000F83F0000E03F00002C400000244088
:10223000000018400000F03FFB799F501344D33F4B
:10224000B3C8608B288AC63F2DE9F04F97B0DDE90F
:102250002089CDE90401DDE9224BCDE90623404682
:1022600042464B464946DDF890A0FFF7D3FB0028D5
:1022700040F0C681404649464FF0FF326FF480136C
:10228000FFF7DAFB002840F01D81404649464FF039
:10229000FF32C14BFFF7F8FB002840F0E380B8A302
:1022A000D3E9002340464946FFF7EEFB002840F003
:1022B000CB80B5A3D3E9002340464946FFF7BCFBDA
:1022C000002840F0C1804046494600220023FFF725
:1022D000B3FB002840F0E0801AF480650D9000F018
:1022E000E980092C40F297810EAB1A460C933021FD
:1022F0000023A4F109050133202B02F8011BA4EBF4
:10230000030600F03A81AB42F5D19FED9D7B8DED48
:10231000087B49464046FFF759FB0446FFF732FB6E
:1023200002460B4640464946FFF7A4FADDE908237A
:10233000FFF7B4FA02460B46CDE90A23FFF758FB34
:102340000746FFF731FB02460B46DDE90A01FFF7BE
:1023500091FA02460B46CDE90A2300228F4BFFF784
:1023600093FB002800F0DB8001373846FFF71CFBA9
:10237000DDE90823FFF774FB08B100270134002EC4
:1023800040F0B1802046FFF7FDFA02460B4640467A
:102390004946FFF76FFA0022804B06460F46FFF7CB
:1023A0004BFB40B93046394600227C4BFFF76CFBB3
:1023B000002800F016810C9B691E7948194410E032
:1023C00080FB0462C3EBA20303EB8302A4EB420491
:1023D00004F1300201351C4601F8012F002B00F0FA
:1023E000AB80202D4FEAE473EAD10AF00303012BFE
:1023F0001CD1BBF1000F19D00D9B002B40F0FA80CF
:102400001AF00C0F40F0F680AB4540F2D380202D3F
:102410000BD030220C996B1E0B4401355D4503F83F
:10242000012F00F08D80202DF7D12025DDE9062336
:10243000DDE904010C9CCDE902BA01950094FFF797
:1024400035FB17B0BDE8F08FCDE92089DDE9062323
:10245000DDE90401CDE923BA229417B0BDE8F04FBD
:10246000FFF7C6BC4F4DCDF88CA00AF0040ABAF1B4
:10247000000F4D4C18BF2C46DDE90623DDE90401B1
:1024800020940CBF03240424CDF888B0219417B005
:10249000BDE8F04FFFF70ABB012142464B460D91C4
:1024A00000200021FFF7E6F91AF48065804689468E
:1024B0007FF417AF9FED367B0EAB06268DED087BC4
:1024C0000C9326E70424DDE90623DDE90401374DFA
:1024D000CDF88CA0CDF888B02095219417B0BDE838
:1024E000F04FFFF7E3BA0C9B681EDFF8C4C0184436
:1024F0000DE0ACFB0732D20802EB8203A7EB4303EB
:102500003033092F00F8013F27D917460D46202DFB
:1025100005F1010106F1FF36EBD120254BE7002242
:10252000DDE90A011D4BFFF787FA00287FF427AF8A
:10253000002F5BD1013722E70AF00303012B76D08D
:10254000202D3FF473AF0D9BBBB32D2205F1580333
:102550006B4403F8202C013568E72029DDD0AEB3A9
:102560000C9B0E441D44302301E0B1422FD00131B9
:10257000202905F8013FF8D1CFE71D46C5E600BF89
:102580000000000065CDCD410000000065CDCDC14B
:102590000000000080842E41FFFFEF7F0000E03F3D
:1025A00067666666206500102865001030650010BB
:1025B000CDCCCCCC202D3FF439AF1AF0040F0ED186
:1025C0001AF0080F3FF432AF2022BFE70E462E224A
:1025D00006F158036B4403F8202C751CEBE62B2204
:1025E000B4E7E3077FF5E7AE0134E4E6FA077FF5E9
:1025F000C6AE9FE70BF1FF3BAB453FF608AF9FE749
:102600000324DDE90623DDE904010B4DCDF88CA0A0
:10261000CDF888B060E7094B264603EBC40393ED81
:10262000007B0EAB8DED087B00250C9371E6BBF1B2
:10263000000F85D0E0E600BF2C6500103865001063
:102640002DE9F04F1C469B4D9B4BB1F1000A18BF82
:1026500083461D602078994D9BB008BFAB469146DC
:10266000249E002800F0E7820025B04609E02A46B3
:102670004B465146D847013501342078002800F0F8
:10268000BD802528F3D10022631C1C4613F8010BE2
:10269000A0F1200110290AD8DFE801F03D09093A2C
:1026A0000909090909090937093409093100A0F1A3
:1026B0003003092B099440F2B0802A2800F0CD8025
:1026C0002E284FF0000600F0B9800027A0F1680323
:1026D000122B29D8DFE813F005012800FE0028009E
:1026E000F4002800280028002800280028002800DE
:1026F000220028002800280028002800220042F09C
:102700000102C2E742F00202BFE742F00402BCE766
:1027100042F01002B9E742F00802B6E7099B42F422
:10272000807258780133099367284AD824285AD9E7
:10273000A0F12503422B56D8DFE813F0F600550030
:1027400055005500550055005500550055005500E1
:1027500055005500550055005500550055005500D1
:1027600055005500550055005500550055005500C1
:102770005500550055005500550055009E00DD00E0
:102780009E00550055005500550055005500550058
:102790005500550055005500550055005500550091
:1027A000550096015500550055005500550055003F
:1027B0005500550055009601FF0096019E00DD0072
:1027C0009E00A0F16901C9B20F290CD8012349F27A
:1027D00041048B40234040F0DC810A2900F0E8806E
:1027E000072900F0C580099C2A464B465146013412
:1027F000D8472078013500287FF443AF2C462A467D
:10280000914502D809F1FF331A464B465146002044
:10281000D84720461BB0BDE8F08F2346002606EBC4
:10282000860600EB460613F8010F303EA0F130019A
:102830000929F4D909932E287FF447AF099B42F464
:1028400080625878591CA0F13003092B40F2F280C5
:102850002A2800F0FE80099137E7434653F8046BBD
:102860009846099B002E587803F10103BCBF42F043
:10287000020276420993DEE7672800F07581472857
:1028800000F0BA81452800F0B981CDE9036208F172
:102890000703029723F007082A46F8E802674B4629
:1028A00051465846CDE90067099CFFF7A1FA01346B
:1028B0000546E2E6412600104C200020A91A00102F
:1028C000099B58786C2800F0B081013342F4807283
:1028D000099329E7099B42F4007258780133099360
:1028E00022E7099B5878682800F09981013342F06B
:1028F0008002099318E7462808BF42F02002CDE97C
:10290000036208F10703029723F007082A46F8E854
:1029100002674B4651465846CDE90067099CFFF7D0
:1029200093FC01340546A8E6099C2A464B465146CD
:10293000252001340135D8479FE6940740F17E8178
:1029400058F8040B2A464B465146C0B2D8476F1C74
:10295000012E98BF3D4608D935443A464B4651466C
:1029600020200137D847AF42F7D1099C013484E6D3
:10297000404650F8041B002900F0D68042F02106A2
:1029800012AA94460A9203E0202B00F0D780114649
:1029900001F00F042246092C94BF303237320F2940
:1029A0000CF8012B03F101034FEA1112ECD8C5E03A
:1029B000C4465CF8041B0878002F40F0AF806FF02D
:1029C000010858B108F101080B46884401E043456D
:1029D00003D013F8014F002CF9D15B1A12F4806E6A
:1029E00002D0BB4228BF3B4612F002020A9200F01E
:1029F0003E81002800F0BB808846BEF1000F00F049
:102A000000812A4664462F440B9307E04B4651460B
:102A1000D84718F8010F013510B12A46AF42F5D159
:102A2000A4460B9B0A9A002A40F0A180E046099C2C
:102A3000013422E6002707EB870700EB4700A0F1EF
:102A4000300711F8010FA0F13003092BF3D90991D8
:102A50003CE64346099953F8047B8878023198464E
:102A6000099127EAE77731E6622800F08781582844
:102A700000F08D8112F4806300F0738122F0110E5A
:102A80001EF4007C40F00F811EF4807040F0D7816E
:102A90001EF0400F424640F05E811EF0800F00F0B5
:102AA000898232F9041B904681EAE17CACEBE17C3F
:102AB0001FFA8CFCCA0F002900F0F481634612A9AA
:102AC0008C46CDE90B28B74C0A9101E0202810D0A4
:102AD0009846A4FB0312D20802EB8201A3EB41014A
:102AE0003031B8F1090F134600F101000CF8011B59
:102AF000ECD8DDE90B28CDE9056ECDE9010204979C
:102B00000A9B2A4600930A2303934B465146584694
:102B1000FFF718F8099C05460134AEE500283FF49C
:102B20005DAF07F1FF384DE722F0100612F4806127
:102B300046F021063FF424AF12AA0A9201930A9BA1
:102B40008046009308231020059300232A46CDE9F0
:102B5000023051464B46584606960497099CFEF7AC
:102B6000F1FF0134054688E542F400628DE69E429D
:102B70002F467FF65BAF64463544ED1A3A464B4626
:102B8000514620200137D847AF42F7D1A446E0464E
:102B90004DE7782840F0218112F4806300F0218213
:102BA00022F00D0C10220B921CF4007040F0FC80FF
:102BB0001CF4807140F0B981404650F8042B1CF0A1
:102BC000400F804600F0AC81D2B2002A40F0118163
:102BD0002CF0100C002B00F00C81114612AB0A9364
:102BE0000B9BCDE9056C0497039301912A460A9B40
:102BF00000930023029388E742F4006242F020022F
:102C000043E61C4667462A464B465146D84718F8C5
:102C1000010F01350028F6D12346BC4602E798781B
:102C2000023342F0C00209937EE59878023342F401
:102C30004072099378E504460246E1E5012E40F230
:102C4000C6812F466B1E9C193A464B4651462020A2
:102C50000137D847A742F7D13A46354458F8040B14
:102C60004B465146C0B2D847099C013405E59E4207
:102C700040F2B0816446CDE90BE106EB0508A8EB14
:102C800003082A464B46514620200135D847454582
:102C9000F7D1DDE90BE10878A446731C00287FF426
:102CA000ABAEE046C3E608F1070222F00702904609
:102CB000526858F8081BD40F51EA020054D1002B77
:102CC00040F08081194612AA0F954FF0000C15466E
:102CD000CDE90B48CDE90D6732480A9202E0BCF11C
:102CE000200F2DD05A1842F10002A0FB027828F0E4
:102CF000030707EB9807D21B1E469B1A61F10007DA
:102D00000C464FF0CC3101FB03F100FB0711A3FB94
:102D100000731944052307F00108A8FB03389B182A
:102D20000A2E03F130034FEA570774F1000405F847
:102D3000013B0CF1010C47EAC1734FEA5101CED2BD
:102D40000F9DDDE90B48DDE90D67CDE9056ECDE9A5
:102D500001C40497D4E652F8041BC9B290468C46CD
:102D6000A8E622F0100E8BE6002A0B4601DB114686
:102D7000A9E74B4262EB42021146A4E712F48063DA
:102D800000F0E78022F00D0C02220B920CE712F407
:102D9000806300F0248122F00D0242F0200C10220A
:102DA0000B9201E7CDCCCCCC08F1070222F0070250
:102DB0009046526858F8081B10460A4378D12CF008
:102DC000100C002B74D0002412AB0A930B9BCDE99E
:102DD000056C04970393019408E76F2840F00D8178
:102DE00012F4806322F00C0C40F0018108220B9257
:102DF000DAE61CF0200F14BF4123612312A8864697
:102E00000A90CDE90C860B98A3F10A0402E0202970
:102E100012D04246B2FBF0F800FB1826F3B2092E9E
:102E200003F130068ABF1B19F3B2DBB282420EF8FF
:102E3000013B01F10101EAD2DDE90C86D0E6414611
:102E400051F8040BC20F002800F0AE8080EAE07356
:102E5000A3EBE07312A8CDE90B26DFF8C4810A903A
:102E600002E0BCF1200F0FD01E46A8FB0342D2089F
:102E700002EB8204A3EB44043034092E13460CF118
:102E8000010C00F8014BECD8DDE90B260A9BCDE9DB
:102E900001C200930A232A468846CDE9056E0497AD
:102EA000039332E6002B3FF40AAE12AB0A9322E6FC
:102EB0001CF0200F14BF4123612312AA0A3BCDE965
:102EC0000C86CDE90E75CDF844B0002490460E4630
:102ED00005469B460B9F0A92CDF840C003E0202C8C
:102EE00017D006460D46294630463A46002303F0E1
:102EF000DBF9D2B2092A02F1300388BF02EB0B03DF
:102F0000BE42DBB275F1000508F8013B04F1010493
:102F1000E5D2DDE90C86DDE90E75DDE910CB55E77C
:102F20001CF0800F18BF92B24FE6414651F8042BB7
:102F3000A2B92CF0100C8BB112AB0A930B9B2A4652
:102F400003930A9B8846CDE9056C04970190009392
:102F50004FE622F00C0C02220B9225E61CF0200F0B
:102F600014BF4123612312ACA6460A94CDE90C6735
:102F70000B9CA3F10A0802E0202812D03A46B2FBCB
:102F8000F4F704FB1726F3B2092E03F130068ABFCB
:102F90004344F3B2DBB2A2420EF8013B00F1010060
:102FA000EAD2DDE90C67C9E7002B3FF453AF12AB5F
:102FB0000A936BE752F8041B81EAE17C9046ACEB84
:102FC000E17C77E512AB4FF0000C0A93BDE62A4690
:102FD000013543E6013300287FF40EAD61E642F08F
:102FE000200222F00C0C102200230B92DCE5964606
:102FF00008220B922EF00D0CD6E5692822F0100E57
:1030000004D112F480633FF43BAD37E522F01C0C91
:1030100012F480634FF00A020B92EBD1C4E500BFBB
:10302000CDCCCCCC70B594461E4605460C4684B03B
:103030004FF0FF32634602A900960348CDE90254DF
:10304000FFF7FEFA04B070BDE11D001010B5094B8A
:1030500084B01C684CB1034600914FF0FF3203A9C5
:103060000548A047012004B010BD00F0B7F9204684
:1030700004B010BD4C200020D91D001000BEFDE79B
:1030800008B5FFF7FBFF00BF38B5064D064CFEF74D
:10309000D1FAAC4204D254F8043B9847AC42FAD37C
:1030A00038BD00BF30630010286300100368084675
:1030B000114618472DE9F04F437D82468846174652
:1030C00081B0002B47D0002A24DD002401252046B2
:1030D000DFF894904E1E04B3737806F1010B0A2BAF
:1030E00026D02B465E46BB4204F1010405F10105E2
:1030F000F1DB874204DD391ADAF8003040449847A2
:10310000B84418F8013CA3F10D03B3FA83F35B094B
:103110008AF8143001B0BDE8F08F737806F1010B26
:103120000A2BDED19AF8143063B15E462B46DAE7FB
:1031300033780D2BF9D0A04204DA211ADAF80030E6
:10314000404498474846DAF80030022198475E46E6
:1031500028462B46C7E711464046DAF8003001B052
:10316000BDE8F04F184700BF886500100B682DE9D7
:10317000F041802B0D46064605D05A1C2B442A6090
:103180001E71BDE8F0810F4B1C68A4B10E4F01F118
:10319000040801E0246974B12368002BFAD03B686D
:1031A0000BB1A342F6D1204641462A68FFF782FFC1
:1031B0002469002CF0D1002301222B442A601E71C7
:1031C000BDE8F081401C0020481C00202DE9F0479C
:1031D00082B00D46924699460746FEF76BF84FF0CF
:1031E000FF366FF000442F4A821841F100039642E7
:1031F00074EB03013CBF324623462B4803F060F8D2
:103200006B1C804603D1384603F014F80546274B63
:10321000274E1C68274BB9F1000F18BF1E46B4B1EA
:10322000BAF1000F1AD1DFF8909001E0246974B16F
:103230002368002BFAD0D9F800300BB1A342F5D1A6
:1032400020462A463946B0472469002CF0D1B8F10F
:10325000000F1FD1284602B0BDE8F0874FF00A0AE0
:10326000DFF8549002E02469002CF0D02368002B92
:10327000F9D0D9F800300BB1A342F4D120462A4648
:103280003946B047204601220DF107018DF807A00D
:10329000B047E8E7044803F00BF8284602B0BDE861
:1032A000F08700BF40420F00FC110020401C0020AE
:1032B000AD300010B5300010481C0020084A1368DB
:1032C00023B90AE003F110021B6933B19842F9D126
:1032D00029B9036913600161704701B1106070473B
:1032E000401C002000F01ABBF0B5174B85B01A68DF
:1032F000164E5F68164D0192346814B911E02469C6
:103300007CB12B680BB1A342F9D1A368002BF6D096
:10331000012103A898470028F1DD9DF80C0005B0B5
:10332000F0BD0C4B5A6A974209D89B6A01998B42AF
:1033300003D36FF0010005B0F0BD9742F9D1012031
:103340000021FDF7C1FFD7E750640010401C0020AA
:10335000481C002000000B40F0B583B006468DF8F5
:103360000700FDF7A7FF4FF0FF356FF00044174A45
:10337000821841F10003954274EB03013CBF2346E0
:103380002A46134802F09CFF124B07461C689CB16A
:10339000114D01E024697CB12368002BFAD02B6821
:1033A0000BB1A342F6D1204601220DF10701FFF730
:1033B00081FE2469002CEFD117B9304603B0F0BD6F
:1033C000034802F075FF304603B0F0BD40420F00E5
:1033D000FC110020401C0020481C002038B5044689
:1033E00002F028FF012305461A4620462946FFF72A
:1033F000EDFE084B1C682CB163682BB1984724691B
:10340000002CF9D1284638BD2469002CF4D1284677
:1034100038BD00BF401C00202DE9F041A2B0044699
:103420000D46FDF747FF4FF0FF376FF00046274A84
:10343000821841F10003974276EB03013CBF3A4604
:103440003346234802F03CFF00262B46074622461F
:10345000204801A90196FFF7E5FD019B06467BB9CF
:103460001D4B1C682CB1636843B198472469002C3C
:10347000F9D10FBB304622B0BDE8F0812469F1E7F5
:10348000DFF85480D8F80050EDB1144C01E02D69FC
:1034900075B12B68002BFAD023680BB1AB42F6D183
:1034A0002846019A02A9FFF705FE2D69002DF0D1EB
:1034B000D8F800400195D5E7054802F0F9FE3046FE
:1034C00022B0BDE8F0810195D3E700BF40420F0074
:1034D000FC1100206D310010401C0020481C002011
:1034E0000FB400B583B004A951F8040B0191FFF7A4
:1034F00093FF03B05DF804EB04B07047704700BF62
:103500000022014B1A707047556100204B79FF2B48
:103510000BD1887948B9CB79012B07D1082A05D975
:10352000034B8A7809201A7070470020704700BF4B
:103530005561002001207047012901D0012070470A
:1035400008B5104B91881B78994201D0002008BD26
:103550005378012B08D0022BF8D1002164220846B1
:10356000FDF7A6FF012008BD5188CB054BBF4A0AD5
:103570004A0A10464FF0FF3002F0010201F07F01CD
:10358000FEF714F85561002000487047546600109B
:10359000012907D15378012B02D19388072B03D03F
:1035A00000207047012070471146A623014A01F010
:1035B00049BA00BFAC6500100346012201481A70E9
:1035C000704700BF8C65001008B50B68B3F5966FA7
:1035D00000D008BD00224FF0FF301146FDF7E6FF96
:1035E000024A034B10601960704700BFE01B0020C7
:1035F000E41B0020184B70B51A68002A28D0EFF39E
:10360000108172B6D2E8CF4F0120002CFAD1C2E867
:10361000440F002CF6D1BFF35F8F00220F4C1868C7
:1036200059602270C0E88F2F81F310880024002594
:103630000B4E3078FDF708F820B90024002520460D
:10364000294670BD3078FDF70FF82046294670BD39
:103650004FF47A740025EBE75820002057610020D2
:1036600056610020014B1878FCF7FEBF5661002020
:1036700038B5044600200D4601F006FBA8B3002033
:1036800001F018FB88B3FDF715FE4FF0FF3E6FF019
:10369000004C174A821841F1000396457CEB030168
:1036A0003CBF72466346134802F00AFEE8B10020B0
:1036B00001F0EAFA58B900214FF0FF3000F006FDA2
:1036C0006FF002040B4802F0F3FD204638BD0020E5
:1036D00001F0F0FA0028EED021462A46002001F041
:1036E000F5FA04460028EDD1EAE76FF00204ECE7B2
:1036F00040420F00B860002008B5FDF7DBFD4FF039
:10370000FF3E6FF0004C0F4A821841F100039645CE
:103710007CEB03013CBF724663460B4802F0D0FDD0
:1037200070B14FF0FF30002100F0D0FC002001F01C
:1037300015FB0028F5D1BDE80840034802F0B8BDEC
:1037400008BD00BF40420F00B86000202DE9F843DB
:1037500007460E46FDF7AEFD4FF0FF356FF0004413
:10376000344A821841F10003954274EB03013CBFD7
:103770002A462346304802F0A3FD08B9BDE8F88385
:10378000002001F081FA002849D0002E42DD0025FA
:10379000DFF8A880DFF8A89013E00246002001F0CF
:1037A00023FB002104464FF0FF3000F08FFC002087
:1037B00001F0D4FAFDF77EFDC8E900012544AE42D0
:1037C00028DD002001F030FB731B9842A8BF18468B
:1037D000791904460028E0D101464FF0FF3000F08F
:1037E00075FC204601F0BAFA204601F04DFA88B186
:1037F000204601F019FB0028E1D1FDF75BFDD8F868
:103800000030D8F8042013EB090342F10002834290
:103810008A41D4D20848BDE8F84302F049BD0020EF
:103820000021064BC3E90001BDE8F843024802F05D
:103830003FBD00BF40420F00B8600020501600207E
:1038400020A1070030B5002185B02E4802F044FDCC
:10385000F0B92D4B1A68CAB1EFF3108172B6D2E8F5
:10386000CF5F0124002DFAD1C2E8454F002DF6D1DB
:10387000BFF35F8F254C1D6822785960D3B20122B7
:103880002270C5E88F0F81F31088CBB105B030BD31
:1038900000214FF0FF3000F019FC002001F00AFA7F
:1038A0000446184802F004FD002CEFD0184B1B68AA
:1038B000002BEBD0174A106805B0BDE83040184720
:1038C000FDF7F6FA0446FDF7F5FC4FF0FF3C6FF00C
:1038D000004510F57A7241F10003944575EB030140
:1038E00038BF2B464FF000014FF0010520460A4C2F
:1038F00038BF6246CDE901150094FDF7DDFA05B049
:1039000030BD00BFB8600020582000205761002063
:10391000E01B0020E41B0020F53500104FF0504361
:1039200030B585B01C68FDF7C3FAFDF7D7FBA042A0
:1039300002D0002005B030BD294B1B7801F046FDB8
:1039400028480368002B47D00120FDF73BF80346C9
:10395000254C2649C0B22370FCF7A4FE2078012133
:10396000FCF75CFE0E20FCF78BFE40BB204B0125D4
:10397000C3E90000FDF79CFA0446FDF79BFC4FF0FD
:10398000FF3E6FF0004C10F57A7241F1000396454E
:103990007CEB03014FF000012046164C3CBF724601
:1039A0006346CDE901150094FDF786FA0028C0DBD7
:1039B00001211148FFF782FC012005B030BD012034
:1039C000FCF7E8FD01460A48FDF75CF800220E20EE
:1039D0000A49FCF797FEEBE7FDF738F8B4E700BFBC
:1039E00004680010B86000205661002045380010BF
:1039F00058200020F5350010C41100206536001055
:103A0000004870473067001000487047DC660010BF
:103A100038B5184B04461A780AB344B940F2094243
:103A20004FF44173144D6A8013482B8038BD052C28
:103A30001AD8124B104D53F8241028460023013990
:103A400003E0132B20F8022F10D011F8012F0133BF
:103A5000002AF6D1DBB25B0043F44073E4E71121A6
:103A6000184600F025F8D8E7002038BD4FF44A7317
:103A7000DAE700BF40610020181C0020C466001077
:103A800000B545F247308BB0FDF784FD01220346B7
:103A9000092101A89847DDE90332044912BA1BBA8B
:103AA000C1E900230BB05DF804FB00BFAC6000204F
:103AB000012901F1FF3300F0B3805D4991F800C0A6
:103AC0004FEA2C12BCF19F0F8CBF37323032012BE2
:103AD000027000F0A8800A7802F00F02092A8CBF59
:103AE00037323032022B427000F09D804A784FEA24
:103AF000221C9F2A8CBF0CF1370C0CF1300C032BCD
:103B000080F802C000F08F8002F00F02092A8CBFFB
:103B100037323032042BC27000F085808A784FEA49
:103B2000221C9F2A8CBF0CF1370C0CF1300C052B9A
:103B300080F804C077D002F00F02092A8CBF373218
:103B40003032062B42716ED0CA784FEA221C9F2A6F
:103B50008CBF0CF1370C0CF1300C072B80F806C031
:103B600061D002F00F02092A8CBF37323032082BA5
:103B7000C27158D00A794FEA221C9F2A8CBF0CF1DF
:103B8000370C0CF1300C092B80F808C04BD002F038
:103B90000F02092A8CBF373230320A2B427242D0D0
:103BA0004A794FEA221C9F2A8CBF0CF1370C0CF18A
:103BB000300C0B2B80F80AC035D002F00F02092A16
:103BC0008CBF373230320C2BC2722CD08A794FEA3C
:103BD000221C9F2A8CBF0CF1370C0CF1300C0D2BE2
:103BE00080F80CC01FD002F00F02092A8CBF3732B8
:103BF00030320E2B427316D0CA7911119F2A8CBF16
:103C0000373130310F2B81730DD002F00F02092AAA
:103C100094BF30323732102BC27318BF103002D02D
:103C2000002303707047184400230370704700BFDF
:103C3000AC600020F8B500F031F90C2340261A4D95
:103C40001A4CAB67FF220E201949FCF75BFD324688
:103C50000021204602F09AFA164B8021A362012728
:103C60000023154A6184A260843A67702683268700
:103C7000C2F88430C2F88030636084F8213084F860
:103C80003B3063620D4BE360E36202F021FB4FF0D7
:103C900000504FF480320A490A4B2F64E864C5F89B
:103CA0009010DA64F8BD00BF000011504C1C0020D9
:103CB000B903002080001050840010500001105003
:103CC00010D001000020115001210E20FCF7A6BCED
:103CD00000220248114600F001B900BF6C1C002010
:103CE000044B197021B14FF40032034BC3F89020FC
:103CF000704700BF52610020002011500B785B0616
:103D000002D14B78052B00D070474B88014ADBB2BB
:103D100013607047000011504FF0000C2DE9F04186
:103D20008878CF788B8800F07F01344D4E0006EB09
:103D3000D01205EB4212C4099070C7F30100C3F31F
:103D40000A03D07684F0010082F803C0138307F0E1
:103D50000307507094BB0422294802EBC10205EB13
:103D6000811E02EB0008CEF8088042F800C081B343
:103D7000244AC9000A44CEF8042023483F3301688E
:103D800023F03F03022F214A08BF5B000B4403606E
:103D900081EA02085340321905EB4212B3F5805F05
:103DA000D16027D8264405EB46156B6848EA876240
:103DB00042F0004201201A60BDE8F08110480AB2CA
:103DC00000EBC10805EB811ECEF8288040F832C018
:103DD00041B900230E4A05EB44140120E260636000
:103DE000BDE8F081C90001F1A04101F58011CEF8D4
:103DF0002410C2E7FDF718FCD4E700BF4C1C0020DC
:103E0000800010500400105054200020000010507A
:103E10000001105002F05CBA8C4608B51146074804
:103E20001A460CF07F034FEADC1C0CEB430C00EB52
:103E30004C1000F053F8012008BD00BF4C1C0020BE
:103E400011F07F020AD0C909074B01EB420003EBD6
:103E500040104FF40062002102F02EBA034BC90952
:103E6000C1F102009866EFE74C1C002000201150C1
:103E700011F07F0300D17047002210B4C809064C2E
:103E800000EB430004EB40136FF4006118465DF84B
:103E9000044BDA7002F010BA4C1C00204FF0805234
:103EA00009480A4908B50A4B02600A609968C94383
:103EB00011F08051FAD14FF48052064802F066F9B1
:103EC0000922054B5A6708BD00200240003002401D
:103ED00000000240000010500000115000234FF07D
:103EE000010C10B580F81AC08282C38201610446B9
:103EF00002F0F6F920B14FF40032074BC3F89020DE
:103F0000204602F0E1F910B10123237710BD2046CD
:103F1000BDE8104002F0C4B9002011502DE9F04175
:103F200000241D4E054623463278DFF878801B4F6B
:103F30000DE03B6813EB441325D0DB682846984717
:103F400032780134E4B2511CA142234606DBA2427E
:103F5000A3EB0203EDD808EB4313EEE7104C542219
:103F60000021204602F012F94FF0FF33251D636057
:103F7000C5E90133EB6004F114002022BDE8F041F3
:103F8000FF2102F003B94FF0E023D3F8F03DDB0747
:103F900000D500BEBDE8F0815161002074170020FB
:103FA000F8170020A0670010704700BF704700BFDF
:103FB0000020704700207047704700BF704700BF67
:103FC000704700BF704700BF024B5878003818BFD9
:103FD00001207047F8170020024B1878C0F38000CA
:103FE000704700BFF81700202DE9F8432C4F3B78AD
:103FF000FF2B02D00120BDE8F883002154220646A1
:10400000284802F0C3F80022274D284B2846284CA8
:104010001A70FCF71BFD274B04F114001D60FCF720
:1040200023FD204601F0A6FD234A244B244D1460B5
:1040300063B32846FFF7C0FA224B2A7818600024A1
:10404000DFF884902346DFF87C800EE0D8F800305B
:1040500013EB441311D05B687BB198472A78013485
:10406000E4B2511CA142234612DBA242EED89B1AB5
:1040700009EB43135B68002BEFD14FF0E023D3F83B
:10408000F03DDB0700D500BE0020B4E72A78D6E774
:1040900030463E70FFF7CEFD3046FFF715FEA9E72C
:1040A000F8110020F8170020B017002053610020FD
:1040B000DC1100204C18002050180020B9350010E9
:1040C0005161002074170020A06700102DE9F04F07
:1040D000DFF8D4928BB099F80030FF2B00F0ED8020
:1040E000AB4CAC4DDFF8BCA2DFF8C0B226687369F8
:1040F000EFF3108272B6D3E8CF0F01210028FAD176
:10410000C3E8401F0028F6D1BFF35F8FB26130468D
:1041100007A901F06DFB00237269C2E88F3FB36904
:1041200083F31088002800F0C8809DF81D30013B03
:10413000072B00F29183DFE803F0A3AD91998A3554
:104140000A04089B002BD1D009989847CEE79DF828
:10415000201001F07F0605EB460000EBD11090F82F
:1041600034206FF3000280F8342090F834206FF38D
:10417000820280F83420002E00F0A280037D9AF89D
:104180000020934280F08F80834A126812EB431321
:1041900000F08C809E699DF82120099B9DF81C00F1
:1041A000B047A3E79BF80030002B7FD09BF800308E
:1041B000013BDBB28BF800309BF8003003F0FF00CE
:1041C000002B93D1734F9DF81C803B7843F0010383
:1041D0003B7097F8343060F3000387F8343097F879
:1041E000343060F3820387F8343097F8353060F369
:1041F000000387F8353097F8353060F3820387F88D
:10420000353000F07FFC9DF8203003F06002602A1A
:104210000BD0402A61D003F01F03012B00F0C880AF
:10422000022B00F08780002B63D04FF0E023D3F8FF
:10423000F03DDE0700D500BE9DF81C000021FFF711
:10424000FFFD80219DF81C00FFF7FAFD4EE72B785B
:10425000D9077FF54BAFFFF7B5FE47E7EB78DA07F5
:104260007FF544AF0898FFF7A1FE3FE72B78D8070A
:104270007FF53CAF2878C0F3C000FFF7A1FE35E71B
:104280009DF81C00FFF74AFE00F032FC9DF820303C
:10429000AB702BE79DF81C00FFF740FE00F028FCF8
:1042A000FFF78CFE22E7501C984211DA4FF0E02312
:1042B000D3F8F03DDC0700D500BE0BB0BDE8F08FB1
:1042C000099B9DF821209DF81C0000F02FFC0DE7B4
:1042D0009B1A324A02EB43135CE7314800F012FCB0
:1042E0004046012108AAFFF753F900287FF4FEAEEB
:1042F000A2E7202A00F09281002A96D19DF8213071
:10430000092B92D801A252F823F000BFBB45001040
:104310009F4500102B420010DD4500102B4200107D
:10432000854500102F4500102B4200101945001044
:104330003F4400109DF8241011F0700F7FF475AF0A
:1043400001F07F0607EB4600164B00EBD1101B78FF
:10435000007D7600019698424FEAD11600965DD313
:104360005E1C8642C0F26C81C01A0C4B03EB4016F7
:10437000002A00F06981706900F0C4FB4046012109
:10438000736908AA984700287FF4B0AE54E700BFCD
:1043900050180020F817002074170020A0670010A4
:1043A0009135001051610020F81100205361002068
:1043B0009DF824300F2B3FF63FAFB14A3B441B79A9
:1043C0001278934235D3511C9942FFF635AFAD4E6A
:1043D0009B1A06EB4316706900F094FB01214046DE
:1043E000736908AA984700287FF480AE9DF82030B2
:1043F00013F060067FF420AF9DF821300A3B012BBB
:104400003FF61AAF00F07EFB9DF821300A2B00F03A
:10441000F881404608A900F0FBFA67E69A4B1B6852
:1044200003EB4016002A00F00F81002E3FF404AF8A
:10443000A1E7954A166816EB4316CCD1FCE67B78CB
:104440009DF822609E4200F051817B78002B40F065
:10445000C4817E70002E00F04781701EC0B2FFF74D
:10446000D3FA0346002800F063814278022A40F024
:104470005F81C1793878C1F340121201C1F3801114
:1044800020F0300042EA411202433A705A8803F1A8
:1044900009069A180192CDF80880019BB34240F2B8
:1044A000AB8173780B2B00F0B6810121042B40F017
:1044B0003F814FF00008019B03919A1B704B3146DE
:1044C0001B7892B2CDF800801DE06F4B1E6816EB92
:1044D000481600F02D8133690298CDE904129847FF
:1044E000DDE90412082808F1010302D9824280F0B4
:1044F00002815FFA83F8624BCDF800801B78581C6C
:10450000804500F3158100989845A0EB0303DCD3A8
:104510005C4800EB4316DEE77B7840468DF81A30A6
:104520000DF11A02012308A900F08CFADEE5BDF8AE
:104530002200030A013B020AC0B20E2B3FF67CAEFA
:1045400001A151F823F000BF61470010F9450010A8
:104550009D47001039420010394200107F4700107B
:10456000F94500103942001039420010394200105C
:10457000394200103942001039420010394200100F
:104580005347001008A800F0C3FA40469DF82210D7
:10459000FFF79EFB3B7843F002033B70A6E5BDF8B6
:1045A0002230012B7FF448AE3B7840466FF3C303C3
:1045B00008A93B7000F02CFA98E540463B789A0831
:1045C00002F00202C3F340131343ADF81A300DF1A9
:1045D0001A02022308A900F035FA87E5BDF8223057
:1045E000012B7FF429AE3B78404643F0080308A92D
:1045F0003B7000F00DFA79E5022A00F02681FFF702
:10460000D9FC024600283FF417AE4046538808A95B
:1046100000F018FA00287FF469AD0DE69DF824300B
:104620000F2B3FF609AE164A3B441B791278934292
:104630001DD2154A166816EB43167FF49CAEFBE5B7
:10464000002A7FF4F9AD00269DF8212002F0FD0339
:10465000012B1BD0002A7FF4E8AD019B009A3B445C
:10466000134493F834304046C3F34003ADE7511C84
:104670009942FFF6E1AD034E9B1A06EB43167AE62C
:1046800051610020A067001074170020BDF822308F
:10469000B3B9012A00F08A8099F80000FFF7D0FB37
:1046A000019B009A3B44134493F8342042F00202E9
:1046B00083F8342093F8342042F0010283F8342048
:1046C000002E3FF413AD706900F01CFA73690121EC
:1046D00008AA40469847002000F014FA97F83530B1
:1046E000DF073FF503AD94E6FFF768FC404608A9F5
:1046F00000F08EF9FAE433460E460399012900F0E2
:104700009E80002900F08C80002396F802E005E0EE
:1047100082F80480DAB2914240F282800EEB03020A
:1047200057FA82F292F804C00133BCF1FF0FEFD0C8
:104730004FF0E023D3F8F03DDA0700D500BE4FF08C
:10474000E023D3F8F03DDB0700D500BE00237B70EB
:1047500072E5FEF719FF024600287FF456AF6BE5BD
:10476000FFF74EF9024600283FF45FAD40461223A2
:1047700008A900F067F900287FF4B8AC5CE5FFF702
:1047800017FC024600283FF457AD4046137808A9AD
:1047900000F058F900287FF4A9AC4DE5BDF82410CD
:1047A000FFF736F902460028EFD145E599F80000F9
:1047B0000293FFF75DFB019A009B3A441A4492F87A
:1047C0003410029B63F3410182F8341092F83410E4
:1047D00063F3000182F8341072E700214046FFF7CE
:1047E0007FFA4046FFF716FBBB7840460093FFF781
:1047F00095FB009BBB702CE6DDF80880FFF7DCFB27
:1048000074E74046012308A90DF11A028DF81A60D9
:1048100000F018F96AE43378F1781E44737845E6BD
:104820000246434631460644104800F055FE104B00
:10483000009A1B7801339342BFF62FAE78E71A69CE
:104840000C4B9A4208BF02215EE7FFF7DDF80246F3
:1048500000287FF4DAAEE8E44FF0E023D3F8F03D2F
:10486000DB077FF543AC00BE40E400BF0C1800201E
:1048700051610020314F00102DE9F84FDDF82880FC
:10488000002A3FD00C461E4615464FF0000B1F4F26
:10489000DFF87C9017E0204699F8021000F0EAFD5E
:1048A000F8B121465046FFF737FA08B3A3780BF169
:1048B000010BDA0916BF0B9A88F8003013702378C1
:1048C000AB451C441ED06378052B11D1E17801F073
:1048D0000301B1420CD1A37897F800A013F0700F38
:1048E000D9D04FF0E023D3F8F03DDA0700D500BE71
:1048F0004FF0E023D3F8F03DDB0700D500BE0020E9
:10490000BDE8F88F0120BDE8F88F00BFF811002046
:10491000F817002038B50E4B1D788B7813F0700F08
:1049200008D04FF0E023D3F8F03DDB0700D500BE00
:10493000002038BD074B0C460846997800F09AFDD8
:104940000028EED021462846BDE83840FFF7E4B9FC
:10495000F8110020F81700200B46064A0648116897
:10496000DA09343203F07F0302EB4303184400F00A
:104970003BBD00BF4C180020F81700200B46064A2C
:1049800006481168DA09343203F07F0302EB43036F
:10499000184400F053BD00BF4C180020F817002049
:1049A00010B5194C01F07F0E04EB4E0404EBD1144A
:1049B00094F834C015481CF0010F04F1300400785D
:1049C00008D04FF0E023D3F8F03DDA0700D500BE61
:1049D000002010BD94F804C04CF0010C84F804C011
:1049E000FFF71AFA0028F4D14FF0E021227960F3A2
:1049F00000022271227960F382022271D1F8F03D27
:104A0000DB07E5D5E3E700BFF8170020F811002029
:104A100030B50B4C8C46A64605460868496800230D
:104A2000AEE803009CF800102846C943C4E90233ED
:104A3000BDE830401A4601F08001FFF7B1BF00BF6A
:104A40007C1700202DE9F041274F4FF00008BE46AB
:104A50008C46064608684968BA60AEE80300A7F8C5
:104A60000E801546BCF80620934228BF1346BB8132
:104A70009AB11C462BB3DDB197F90030402C28BF0A
:104A80004024002B28DB414623463046174AFFF7D7
:104A900087FF68B10120BDE8F0819CF80010134643
:104AA000C943304601F08001FFF77AFF0028F1D1B9
:104AB0004FF0E023D3F8F03DDB0700D500BE002027
:104AC000E9E71A46397801F0800123463046FFF7BE
:104AD00067FF0028DED1EBE722462946034801F0B4
:104AE000DFFA8021014AF0E77C170020B817002088
:104AF0000022034BC3E90022C3E902221A61704776
:104B00007C170020014B1861704700BF7C17002004
:104B100030B40246044C0025234600685168C4E9BD
:104B2000025530BC03C370477C17002070B53C4C65
:104B3000C90922780646B1EBD21F1D4682B017D0B4
:104B400053B14FF0E023D3F8F03DDB0702D400204F
:104B500002B070BD00BEFAE72146FFF7CFF8236927
:104B60001BB12246032130469847012002B070BD98
:104B700094F90030002B06DBA0680028E7D02A4615
:104B8000284901F08DFAE089A168E388284480B2C1
:104B900029448342E081A16016D03F2D14D9A28917
:104BA00094F90040131A9BB2402B28BF4023002CDD
:104BB00026DB90424FF0000130D01A4A3046FFF712
:104BC000EFFE0028D1D1BCE7236923B10221304692
:104BD000134A984758B121780023C94330461A46F2
:104BE00001F08001FFF7DCFE0028BED1A9E70146F5
:104BF0003046FFF725F980213046FFF721F9B4E769
:104C0000904208D01A460748019301F049FA8021E2
:104C1000044A019BD2E780210022CFE70A46CDE774
:104C20007C170020B817002070B50446FFF7CCF9B8
:104C300000B970BDFFF7D0F905460028F9D1E37837
:104C4000002BF6D004F11006304600F0BFFD3F28DF
:104C5000EFD92846E178FFF77FFE0028E9D03046FB
:104C600000F0B4FD3F2808D92846E17804F5127217
:104C70004023BDE87040FFF793BE2846E178BDE8C9
:104C80007040FFF77BBE00BF10B50446FFF79CF9EC
:104C900008B9002010BDFFF79FF90028F9D14FF4A3
:104CA0003272034B02FB0433187900F0010010BD8F
:104CB000081200204FF4327208B5034B02FB00309B
:104CC00000F06AFD08BD00BF181200202DE9F8436E
:104CD0004FF6FF744FF43273A24228BF224603FB03
:104CE00000F41D4F04F110053D44284692B200F037
:104CF000C9FD0646FFF768F910B93046BDE8F883EC
:104D0000FFF76AF981460028F7D107EB040898F805
:104D10000330002BF1D0284600F058FD3F28ECD995
:104D2000484698F80310FFF717FE0028E5D02846FC
:104D300000F04CFD3F2809D904F512724846402383
:104D400098F803103A44FFF72BFED6E7484698F848
:104D50000310FFF713FED0E7081200202DE9F04101
:104D60000446FFF731F910B90020BDE8F081FFF7E4
:104D700033F906460028F7D14FF4327303FB04F4ED
:104D8000DFF8608004F124054544284600F004FD66
:104D90000028E9D008EB04073046B978FFF7DCFDBE
:104DA0000028E1D004F522744444284640222146DC
:104DB00000F068FD054680B1034622463046B978CA
:104DC000FFF7EEFD38B94FF0E023D3F8F03DDB07F5
:104DD000CAD500BEC8E72846C7E7B978FFF7CEFDB9
:104DE000C2E700BF0812002038B54FF6FF754FF438
:104DF0003273AA4228BF2A460A4C92B203FB0044EF
:104E00000546204600F0ECFD034620461C4600F017
:104E1000C3FC3F2801D8204638BD2846FFF79EFF37
:104E2000204638BD2C1200204FF4327208B5034BD7
:104E300002FB003000F0CAFC08BD00BF2C120020AD
:104E4000F0B500251A4C83B029464FF43272204643
:104E500001F09CF9FF234FF4E1310822154804F5D5
:104E60000E770570009504F110006371A160A273C4
:104E700004F1380101234FF4807200F05DFC01233E
:104E80004FF4807204F59C71009304F1240000F04B
:104E900053FC04F510763846FBF7D8FD3046FBF797
:104EA000D5FDC4E90757C4E90C6503B0F0BD00BFE8
:104EB0000812002078170020094B196B1A6A41B1BB
:104EC00012B10022DA611A620022C3E90C22012029
:104ED0007047002AFBD00120D9611962704700BFDA
:104EE00008120020002210B50E4C0F4823780260F3
:104EF0000271DA0707D59B070BD5BDE810400121E9
:104F00000A4800F053BE103000F034FE23789B07AF
:104F1000F3D4064800F02EFEBDE8104001210348FE
:104F200000F044BE78170020081200202C12002048
:104F3000F0B54B7983B0022B03D00025284603B08F
:104F4000F0BD8B79022BF8D1244FBB787BBB8B78DB
:104F500006463B700B780925CC18617824290BD1C3
:104F6000082A02D81FE0AA421DD323781C44617886
:104F70002B4424299DB2F6D0052920D0042912D132
:104F800063790A2B0FD1164B2778019301330093D5
:104F9000022330461A46E119FFF76EFC38B10E3590
:104FA00017FA85F5ADB20D48FFF73EFEC6E74FF0A4
:104FB000E023D3F8F03DDB07BFD500BEBDE72146B7
:104FC0003046FFF7A7FC0028F1D0A3787B70237848
:104FD0001C442B4461789DB2D0E700BF081200202A
:104FE0000A120020137803F06003202B0ED170B555
:104FF000274C938894F800C09C4509D15378203BF6
:10500000032B05D8DFE803F00C18200600207047BA
:10501000002070BD01292ED0032930D0012070BDA1
:1050200001290BD00329F9D11A4B002BF6D000200F
:105030001949FEF7C9FAF1E70129EFD11146072313
:10504000154AFFF7FFFCE9E7012914D00329E5D150
:105050005588124805F0010686F00101257100F01F
:10506000A5FD0F4B002BD9D031460020C5F34002DF
:10507000AFF30080D2E71146FFF7CAFCCEE7094B39
:10508000002BCBD000205188AFF30080C6E700BFD3
:1050900008120020C9350010101200202C12002028
:1050A00000000000000000002DE9F047374E0C46DC
:1050B000F27807468A421D4696F802C03CD08C45DD
:1050C00013D04FF0E023D3F8F03DDB0700D500BE4E
:1050D0000020BDE8F0872E4B23B12E4800F06CFB7A
:1050E00000284FD02948FFF79FFDB378A34202D094
:1050F0000120BDE8F087284B13B10020AFF30080FA
:105100000020FFF72BFE0028F2D1244800F044FBDA
:105110000028EDD1002DEBD015F03F05E8D1384641
:10512000B178FFF719FC0028E2D02B462A46384612
:10513000B178FFF735FCDBE79AB206F5127106F19C
:10514000100000F04DFC164B002BC4D07379FF2BE0
:10515000C1D0002DBFD006F2472808EB050AA8F2FF
:10516000372902E0C245B6D0737918F8012F9A4268
:10517000F8D1484600F020FB0028F3D17179AFF355
:105180000080EFE7AFF30080ACE700BF081200201B
:105190000000000018120020000000002C12002067
:1051A0000000000070B5154C84B04FF4337200213C
:1051B000204600F0EBFF402600234FF48075221DAF
:1051C000029204F5E6721946009204F5D4701A466C
:1051D0000396019500F0ACF9002304F1440204F1B8
:1051E000A801CDE90152009101221946039604F16C
:1051F000840000F09DF904B070BD00BF14190020B8
:1052000010B5054C204600F0BFF9A4F5927000F0EF
:10521000BBF9012010BD00BFBC1A0020002310B54F
:10522000054C04F5D870237000F0A4FC04F18C0048
:10523000BDE8104000F09EBC141900202DE9F84F85
:105240004B79FF2B02D00020BDE8F88F3A4D0E4677
:1052500095F8A9310C78002BF5D195F88570002FC1
:10526000F1D18B780C442B700B79002B3ED080460B
:1052700004EB020B05F5D87A05F5D4796378052B94
:1052800009D0A34502D831E05C452FD223781C44D5
:105290006378052BF8D1A34528D921464046FFF76E
:1052A00039FB00283FD0A378DB0923D1504600F01A
:1052B00061FCA37895F8A81185F8A931A388404628
:1052C000C3F30A03A3F50073B3FA83F35B0963F333
:1052D000410185F8A811494600F0C4F918B32378B4
:1052E000317901371C44FBB29942C7D8A11B88B25F
:1052F000BDE8F88F114800F03DFCA37895F88410C4
:1053000085F88530A3880020C3F30A03A3F5007352
:10531000B3FA83F35B0963F3410185F8841008490C
:1053200000F068F9DBE74FF0E023D3F8F03DDB074E
:1053300089D500BE87E700BF14190020A0190020FE
:105340009819002070B51B4C064694F8A9C11D465B
:105350008C4512D094F885308B420CD1164B1BB182
:105360000020A9B2AFF300803046144900F042F9A2
:10537000D0B1012070BD002070BDB4F8B4315BB96C
:105380000F4B23B100200F49AAB2AFF30080304683
:105390000D4900F067F9ECE7D4F8AC11AAB204F5B6
:1053A000D87000F01DFBEBE72A463046034900F0B9
:1053B000EDF8DEE714190020000000009819002025
:1053C0000000000018190020BC1A002008B50020B9
:1053D000FEF70AFE00B108BD4FF0E023D3F8F03D20
:1053E000DB07F8D500BE08BDF8B5037813F001045B
:1053F0001AD1037805465A07C3F3800701D5204622
:10540000F8BD0E464FF0FF31304600F045FF2B78D7
:1054100013F001040BD12B785B0709D42B780124FE
:1054200043F004032B7003E000242046F8BD3C4603
:10543000304600F03DFF2046F8BD00BF70B50C4679
:1054400005464FF0FF31204600F026FF2B78C3F3CE
:1054500080065B0708D52B7813F0010311BF0026E7
:105460002A7863F382022A70204600F021FF30463A
:1054700070BD00BFC378828803F003000228C2F326
:105480000A0205D003281AD0012807D0002070474F
:1054900002291DD0402A09D801207047022940F274
:1054A000FF3308BF4FF480639342F6D24FF0E023FE
:1054B000D3F8F03DDB07E9D500BE00207047022994
:1054C00014BF40234FF480639342EFD30120E4E7FD
:1054D000B2F5007FE0D0E9E70A44914226D291F884
:1054E00001C0BCF1050F05D091F800C061448A42AB
:1054F000F5D8704700B591F802C00CF07F0E00EBB4
:105500004E0E4FEADC1C0EF80C3091F800C06144DE
:105510008A4209D991F801C0BCF1050FEBD091F88E
:1055200000C061448A42F5D85DF804FB704700BFB3
:105530002DE9F0418E4682B0009390F800C0089E9D
:10554000BDF824706EF3000C044615460123314665
:105550003A4600F808CBBDF82C8000F0EDF806B113
:105560003FB901200A9BA4F80280636002B0BDE845
:10557000F08104F11C063046FBF768FA0DB13546A0
:105580000026C4E90556ECE701207047F8B5074648
:10559000084640F2FF13154610F8082B0C4612F08F
:1055A000020F0CBF3F261E4600F0F6F828B925B1C1
:1055B0002E4202D12378DA0701D50020F8BD384603
:1055C0006178FFF7C9F90028F7D0237813F00103B9
:1055D00007D04FF0E023D3F8F03DDB07EDD500BE58
:1055E000EBE71A4638466178FFF7DAF90028F0D081
:1055F000F8BD00BF70B501F10805064628460C4607
:1056000000F0CAF810B12378D80701D5002070BD8A
:1056100030466178FFF7A0F90028F7D02846628865
:10562000616800F02FF92378054648B1D9070ED5F7
:105630004FF0E023D3F8F03DDA07E7D500BEE5E709
:10564000DB07E3D430466178FFF798F9DEE70346DD
:10565000626830466178FFF7A3F90028E8D0284651
:1056600070BD00BF8B892DE9F0410C46064693B909
:105670000B78DF0727D44978FFF76EF918B3227843
:105680006388D50741D54FF0E023D3F8F03DDA0722
:1056900019D500BE17E00D464FF6C07215F8083B4D
:1056A00003F00203002B28460BBF17464FF47E473A
:1056B0004FF040084FF4007800F088F8804502D899
:1056C0002378D80702D50020BDE8F0813046617804
:1056D000FFF742F90028F6D0284600F077F8804519
:1056E0001FD823786288D907CDD43840904228BF8C
:1056F000104661780546E0B162682B463046FFF7F8
:105700004FF90028BFD02846DEE761783BB16268D8
:105710003046FFF745F90028B5D06088D4E71A462F
:10572000F6E72378DB07CED430466178FFF726F919
:10573000C9E70246E1E700BF2DE9F041B2F5004FAD
:105740009DF8188024D80446C06817460E461D46AA
:1057500018B14FF0FF3100F09FFD206918B14FF0F4
:10576000FF3100F099FD0022C5F30E03E06843EA23
:10577000C83362812660A780E380228108B100F0EF
:1057800097FD206908B100F093FD0120BDE8F0818C
:105790000020BDE8F08100BF038942899BB292B22C
:1057A0008088934236BFC2EB40029B1A9B189BB283
:1057B000984228BF184670470289438990B29BB22D
:1057C000C01AB0FA80F04009704700BF03894289CF
:1057D0009BB2808892B2934236BFC2EB40029B1AC2
:1057E0009B189BB2984286BFC01A80B200207047B7
:1057F00038B5044600690D4618B14FF0FF3100F08E
:105800004BFD2189638989B29BB2A288994236BF38
:10581000C3EB4200C81A401880B248B3824209D292
:1058200091422CBF891A89188BB29A42638103D89E
:105830009B1A9BB29A42FBD9E2882168C2F30E02FE
:1058400002FB0311284600F02BFC6189012589B277
:105850004B1C9BB29942A2880DD902FA05F15B1A42
:105860009BB22069638108B100F022FD284638BD53
:10587000054663899BB2B3EB420F4FEA4201F0DB6E
:10588000EDE700BF2DE9F0470646006988469146DE
:1058900018B14FF0FF3100F0FFFC338974899BB2DF
:1058A000A4B2B588A34236BFC4EB45071F1BFF183F
:1058B000BFB2002F4AD0BD4240D3B94528BFB94638
:1058C000A5421FFA89F703D8641BA4B2A542FBD9ED
:1058D000B6F806A02B1B31689BB2CAF30E029F429A
:1058E000924602FB041123D913FB02F31FFA83F93A
:1058F0004A4640467D1B00F0D3FB621912FB0AF2B8
:10590000316808EB090092B200F0CAFB7289B588D1
:1059100092B2D3199BB29A421AD96A009B1A9BB2CF
:105920003069738108B100F0C3FC3846BDE8F087E8
:10593000404607FB02F200F0B3FBE7E7AB422CBFA7
:105940005B1B5B199CB22F467481B6E773899BB2CF
:10595000B3EB450F4FEA4502E2DBDFE7F8B504465B
:10596000C0680E4618B14FF0FF3100F095FC258954
:10597000238961899BB289B2A2888B4236BFC1EB71
:1059800042015B1A5B189BB29A42ADB208D8E77924
:10599000FF0905D1E06808B100F08AFC3846F8BD7F
:1059A00095422B4603D39B1A9BB29342FBD2E288CB
:1059B0002068C2F30E0202FB0300314600F070FBC8
:1059C0006B1CA2889BB29D424FEA420104D95B1A2C
:1059D0009BB201272381DDE7B3EB420FF9DBF6E74A
:1059E0002DE9F04F144683B0002A68D00646C068FF
:1059F000894618B14FF0FF3100F04EFCF27937893B
:105A00007389D209BFB29BB23BD1B1889F4236BFE6
:105A1000C3EB4103FB1ADB199BB2994254D9CB1A51
:105A20009BB2A34228BF2346B6F806B007EB030A91
:105A300098465B1ACBF30E0B1FFA8AFA9BB28F4281
:105A40003C4603D3641AA4B28C42FBD2091B3068D3
:105A500089B241450BFB040054D349460BFB08F2C5
:105A600000F01EFBB28857454FEA420302D8BAEB5A
:105A7000420F03DBAAEB03031FFA83FAA6F808A080
:105A800024E0B6F80480444529D29F4236BFC3EBD8
:105A90004802FA1AD21992B24FEA480122448A42C5
:105AA00043DAB6F806B0A4EB080304EB070A414654
:105AB000CBF30E0BA0469BB21FFA8AFABFE79046C3
:105AC000404603B0BDE8F08F4FF00008F0680028B2
:105AD000F6D000F0EDFB404603B0BDE8F08FB8F122
